:1000000023C500003EC500003CC500003AC5000005
:1000100038C5000036C5000034C5000032C50000F8
:1000200030C500002EC500000C940F2F0C94DC2F5F
:100030000C94BE2826C5000024C5000022C500007F
:1000400020C500001EC500001CC500001AC5000028
:1000500018C500000C94352914C5000012C5000015
:1000600010C500000EC500000CC500000AC5000048
:1000700008C5000006C5000004C5000002C5000058
:1000800000C50000FEC40000FCC40000FAC400006B
:10009000F8C40000F6C40000F4C40000F2C400007C
:1000A000F0C40000EEC40000ECC400004C617965AF
:1000B000723A20004B494E440056414C0053415483
:1000C0000048554500227821782478237826782521
:1000D000782878277801520252035204521E0F05E5
:1000E00000047F3F1F783C1E1E140A05222325268C
:1000F00028292A2C2D2F3032333536383A3B3D3ED5
:100100004042434547494A4C4E5051535557595A1E
:100110005C5E6062646668696B6D6F717375777938
:100120007B7D7F81838587898A8C8E909294969837
:100130009A9C9E9FA1A3A5A7A8AAACAEAFB1B3B449
:10014000B6B8B9BBBCBEBFC1C2C3C5C6C7C9CACB9E
:10015000CCCDCED0D1D2D2D3D4D5D6D7D7D8D9D969
:10016000DADADBDBDBDCDCDCDCDCDDDDDDDDDCDCD2
:10017000DCDCDCDBDBDBDADAD9D9D8D7D7D6D5D4EF
:10018000D3D2D2D1D0CECDCCCBCAC9C7C6C5C3C2BB
:10019000C1BFBEBCBBB9B8B6B4B3B1AFAEACAAA810
:1001A000A7A5A3A19F9E9C9A98969492908E8C8AC4
:1001B00089878583817F7D7B79777573716F6D6B9F
:1001C0006968666462605E5C5A5957555351504E77
:1001D0004C4A4947454342403E3D3B3A3836353329
:1001E00032302F2D2C2A292826252322FFAA7F559D
:1001F00040000101010101010101010202020202AC
:1002000002020202030303030303030304040404BE
:100210000404040505050505060606060607070786
:10022000070708080808090909090A0A0A0B0B0B3D
:100230000C0C0C0D0D0D0E0E0E0F0F0F10101111DA
:10024000111212131314141515161617171818195E
:10025000191A1A1B1B1C1D1D1E1E1F2020212222C5
:10026000232424252626272829292A2B2C2D2D2E08
:100270002F30313232333435363738393A3B3C3D22
:100280003E3F404142434445464748494A4C4D4E13
:100290004F50515354555658595A5B5D5E5F6162D9
:1002A00064656668696B6C6D6F7072737577787A68
:1002B0007B7D7E8082838587888A8C8E8F919395C3
:1002C00096989A9C9EA0A2A3A5A7A9ABADAFB1B3E7
:1002D000B5B7BABCBEC0C2C4C6C9CBCDCFD1D4D6C7
:1002E000D8DBDDDFE2E4E7E9EBEEF0F3F5F8FAFD69
:1002F000FF00AE00AF00DA0281FFD9F1DB20A4A637
:100300002EAF00A0C0D30000A1C8D30000AED5809E
:10031000A81F408D14200007087F0807003E5B4F90
:100320005B3E003E6B4F6B3E001C3E7C3E1C00184B
:100330003C7E3C18001C577D571C001C5E7F5E1CD9
:100340000000183C180000FFE7C3E7FF0000182476
:10035000180000FFE7DBE7FF0030483A060E0026F2
:100360002979292600407F05050700407F05253FA4
:10037000005A3CE73C5A007F3E1C1C0800081C1C2D
:100380003E7F0014227F2214005F5F005F5F000643
:10039000097F017F00006689956A00606060606087
:1003A0000094A2FFA2940008047E04080010207E9E
:1003B00020100008082A1C0800081C2A0808001E33
:1003C00010101010000C1E0C1E0C0030383E38307F
:1003D00000060E3E0E060000000000000000005F58
:1003E000000000000700070000147F147F140024A1
:1003F0002A7F2A12002313086462003649562050CF
:1004000000000807030000001C22410000004122F8
:100410001C00002A1C7F1C2A0008083E0808000057
:1004200080703000000808080808000000606000C4
:10043000002010080402003E5149453E0000427F62
:100440004000007249494946002141494D33001896
:1004500014127F10002745454539003C4A4949316F
:1004600000412111090700364949493600464949EA
:10047000291E0000001400000000403400000000AD
:10048000081422410014141414140000412214080A
:10049000000201590906003E415D594E007C1211CF
:1004A000127C007F49494936003E41414122007F8C
:1004B0004141413E007F49494941007F0909090105
:1004C000003E41415173007F0808087F0000417FD2
:1004D0004100002040413F01007F08142241007F7D
:1004E00040404040007F021C027F007F0408107FD4
:1004F000003E4141413E007F09090906003E41514D
:10050000215E007F09192946002649494932000326
:10051000017F0103003F4040403F001F2040201F5B
:10052000003F4038403F0063140814630003047820
:100530000403006159494D4300007F4141410002DD
:100540000408102000004141417F00040201020420
:100550000040404040400000030708000020545481
:100560007840007F28444438003844444428003808
:100570004444287F0038545454180000087E09026F
:100580000018A4A49C78007F080404780000447D2F
:100590004000002040403D00007F10284400000043
:1005A000417F4000007C04780478007C08040478D3
:1005B00000384444443800FC18242418001824242B
:1005C00018FC007C08040408004854545424000417
:1005D000043F4424003C4040207C001C2040201C60
:1005E000003C4030403C004428102844004C90908F
:1005F000907C004464544C440000083641000000E4
:1006000000770000000041360800000201020402E9
:10061000003C2623263C0000000000000040404033
:10062000F0F8F8FF38FFF8F83FF8F8FF38FFF8F86F
:10063000F040404000000000000080C0C0C08000CA
:1006400000C0C08000000080C0C000C0C0000080AA
:10065000C0C00000000000C0C0C0C0C000C0C000DA
:10066000000000000000000000000000000000008A
:10067000000000000000000000000000000000007A
:10068000000000000000000000000000000000006A
:10069000000000000000C0F0F8FC3E1E0601000053
:1006A000007F4141417F007F4141417F000080C088
:1006B000E07E5B4F5BFEC00000C000DCD7DEDEDE0C
:1006C000D7DC00C0000000000000000000000000B7
:1006D000000000000000000000000000004949493F
:1006E000FFFFFFFFE0DFBFBF00BFBFDFE0FFFFFF97
:1006F000FF49494900000000001F3F6060E0BF1F44
:10070000007F7F071E381E077F7F007F7F0E1F3B05
:10071000716000000000007F7F0C0C0C007E7E00EA
:100720007F7E0303007F7E03037E7E03037F7E00C4
:100730000F3E703C063C703E0F00327B49493F7EC5
:10074000007F7E0303001E3F69696F2600000000E2
:10075000000000000000030F1F3F3C7870600000A5
:10076000007F4141417F007F4141417F00307B7FDD
:100770007830202030787F3B0003000F7F0F0F0F71
:100780007F0F0003000000000000000000000000D8
:100790000000000000000000000000000001010156
:1007A000070F0F7F0F7F0F0F7E0F0F7F0F7F0F0F32
:1007B000070101010000000000000000000001012D
:1007C0000000000000000000000000000000000029
:1007D0000000000000000000000000000000000019
:1007E0000000000000000000000000000000000009
:1007F00000000000000000000000000000000000F9
:1008000000000000000000000000000000000000E8
:1008100000000000000000000000000000000000D8
:1008200000000000000000000000000000000000C8
:1008300000000000000000000000000000000000B8
:1008400000000000000000000000000000000000A8
:100850000000000000000000000000000000002A6E
:100860002B28000000000000000000000000000035
:10087000000029000000002C1E34202122243426F0
:1008800027252E362D3738271E1F202122232425E9
:10089000263333362E37381F0405060708090A0B9E
:1008A0000C0D0E0F101112131415161718191A1B10
:1008B0001C1D2F3130232D350405060708090A0BAE
:1008C0000C0D0E0F101112131415161718191A1BF0
:1008D0001C1D2F3130354C000000000000000000CE
:1008E0000000000000000000000000000000000008
:1008F00000000000000000000000007E0F00D4FF98
:10090000FFFFC7000000780C0372006B0064003129
:1009100000300000001003720069006B006B006F74
:100920000064006F0000000403090409025B000377
:100930000100A0FA090400000103010100092111CE
:100940000100012244000705810308000109040198
:10095000000203000000092111010001222200070A
:10096000058203200001070503032000010904029A
:1009700000010300000009211101000122490007C4
:10098000058403200001120100020000000814E8A1
:100990000A000001010200010660FF0961A10109CE
:1009A00062150026FF009520750881020963150075
:1009B00026FF00952075089102C005010902A101DA
:1009C00085020901A1000509190129081500250161
:1009D0009508750181020501093009311581257FCE
:1009E00095027508810609381581257F95017508DE
:1009F0008106050C0A38021581257F95017508814D
:100A000006C0C005010906A101050719E029E7157F
:100A10000025019508750181029501750881010580
:100A200007190029FF150026FF00950675088100AB
:100A30000508190129051500250195057501910283
:100A4000950175039101C00011241FBECFEFDAE0BC
:100A5000DEBFCDBF13E0A0E0B1E0E6E8FCE602C0F7
:100A600005900D92A83DB107D9F726E0A8EDB3E0B7
:100A700001C01D92A03EB207E1F70E9449130C94F9
:100A8000E935BECA9091BF042091C0043091C104E1
:100A90004091C2048091B2045091BE0485278D7F9D
:100AA00081F48091B30489130CC08091B404821343
:100AB00008C08091B504831304C08091B6048417E4
:100AC00031F11F924F931F923F931F922F931F92CA
:100AD0009F9387E593E09F938F931F928FE28F936D
:100AE00080EF92E09F938F930E94F13288E0EEEBCB
:100AF000F4E0A2EBB4E001900D928A95E1F78DB796
:100B00009EB70E960FB6F8949EBF0FBE8DBF60E0E5
:100B100087E793E00E94951A2091BE0426952695BA
:100B20002150330B4CE0429FC001439F900D112494
:100B300060E08C5F9E4F0E94951A60E081E893E030
:100B40000E94951A60E080EF92E00E94951A80E082
:100B5000089582E00895CF93DF939091E60380910A
:100B6000E703892B5AD18150C4EBD0E0833040F4A5
:100B7000E82FF0E0EE0FFF1FED57FC4FC081D18151
:100B800060E08CEA90E00E94AF1A60E0CE010E9423
:100B9000AF1A81E00E94631A75DFDF91CF9108954B
:100BA000843058F4642B49F4E82FF0E0EE0FFF1F77
:100BB000EB52FF4F85919491089581E090E0089564
:100BC000843088F461110FC090E0880F991FE1E034
:100BD000E427E80FF92FF11DEE0FFF1FEB53FF4F36
:100BE00085919491089581E090E0089581E00895C1
:100BF000FDCF0895FBCF089581E00895F7CF0895C4
:100C0000F5CF0895FDCF089508950895FDCF089577
:100C100008950895A6E0B0E0E0E1F6E00C94123209
:100C200049835A839E833091DF0389819A813111F0
:100C300017C03E81332389F0222379F0C9D4182FBD
:100C4000682F89819A819BD469817A81812F0E9442
:100C5000EF102696E3E00C942E32A5D4182FF4CF93
:100C6000B7D469817A81F3CFFC01262F408151816D
:100C70006281738184819581CDCFCF93DF93EC0125
:100C800061E0F2DFBE01B4DF882349F061E0CE010C
:100C9000EBDFBE01AFDF8170DF91CF91089580E07F
:100CA000FACF0F931F93CF93DF93EC0160E0DCDF6B
:100CB0008C01BE01AADFBE01C801A8DFDF91CF9180
:100CC0001F910F91089591E001C0990F8A95EAF75D
:100CD000892FB3C3CF93C82F81E00C2E01C0880F9A
:100CE0000A94EAF70E94150F8C2FEDDFCF9108953B
:100CF00081E00895FDCF0895FBCF0895CF93C82FCD
:100D000056D38C2FF7DF8C2FF7DF2FEF84E39CE097
:100D1000215080409040E1F700C00000CF9108953D
:100D200081E0ECDF0C94592980E0E8DF0C946A291B
:100D30000F931F93CF93DF938C0161E095DFEC015C
:100D4000F801858181110E942519B801CE0156DF75
:100D5000811106C080E0DF91CF911F910F9108951E
:100D6000B801CE014FDF8823A9F3B801CE010E945C
:100D7000A825882379F3B801CE010E94C3208823D7
:100D800049F3B801CE010E949B20882319F3B801D2
:100D9000CE010E9461138823E9F2B801CE010E94BE
:100DA00019258823B9F2B801CE010E94FA118823CF
:100DB00089F2F8018581882361F0C330FCE7DF0701
:100DC000D1F050F4C115ECE7DE0799F0C130DC47F3
:100DD000A1F0C80111DFBFCFCB358CE7D80789F070
:100DE000CC35ECE7DE0759F0CA35DC4791F7E3D79D
:100DF000F0CF96DFAFCF0E940A0F96DFABCFD3D7ED
:100E0000E8CFDBD7E6CF04DF0E949B282AD00C94E2
:100E1000D61B29D0FEDE0C949F28982F92959F70A8
:100E200011F0892F94E0282F2695269511F09E5FCA
:100E3000822F869509F09F5F892F089581E008959C
:100E40000895CF93DF93D82FF9DFC82F882311F0AF
:100E50008D2FF6DF8C2FDF91CF9108950895F1CF7C
:100E6000089580E0FCCF0E946D27F9CFCF930E94B8
:100E70006D27C82F8091DA038C1771F0C093DA03C5
:100E80000E9429296093DB037093DC038093DD03C8
:100E90009093DE038C2FE3DFCF910895ADE0B0E0B7
:100EA000E4E5F7E00C941332488759876A877B871B
:100EB0008C879D879111CDD61F8286E0FE013896E2
:100EC000DE01119601900D928A95E1F78D818111D5
:100ED0000CC029813A814B815C816D817E818F813B
:100EE00008D62D96E2E00C942F32CE010196C5DE95
:100EF0008111EFCFF6CFFC012481213019F48081DC
:100F0000918192C30895662321F00E9420220C94BF
:100F1000EB220E947222FBCFCF93C82F882389F047
:100F20008CEF8C0F813A78F48C2F0E94BD27882398
:100F300021F08C2F0E94FE27F4D68C2F0E94F827D8
:100F4000F0D6CF91089580E28C0F883040F4C770BE
:100F500081E001C0880FCA95EAF75ED6F1CF83E33E
:100F60008C0F833170F761E08C2FCDDFEACF8823BF
:100F7000D1F09CEF980F913A18F40E94FE27D1C649
:100F800090E2980F983048F4877091E001C0990F73
:100F90008A95EAF7892F46D6F2CF93E3980F9331DB
:100FA00010F460E0B0CF08951F93CF93DF93182F14
:100FB000EB01B2DF209731F4812FD9DFDF91CF91A0
:100FC0001F9108958FE99FE00197F1F700C000009D
:100FD0002197F0CF70E060E0893311F460E570E0B4
:100FE000E3CF882311F018D69CC60895882311F00A
:100FF00019D697C60895B0E0A0E0E1E0F8E00C94BF
:101000000C326C01D62FC72FFC0115810681029589
:101010000F70F8D5E82E8823E9F0E12E1123D1F0E6
:101020008C2F807F803461F080E28D0F8830F8F063
:101030008C2F807E803221F4D230C8F00023B9F0AA
:101040008091BB0482FF13C082E087D6DBD591E09C
:10105000E82EE926BC2EB2949FE0B922FBE0FB15F6
:1010600080F1EB2DF0E0E551FA4C0C94CB31E12C02
:10107000F1CF0C2F0F70C07F11F00295007F11236C
:1010800081F0002349F080E28D0F883010F0D111FB
:1010900005C0802FC1D545D68D2F40C0802FCCD51F
:1010A000FACF8D2F64DF002361F080E28D0F88304E
:1010B00010F0D11103C0802FB5D502C0802FC2D54A
:1010C00030D6EB2DE850FF0B349708F026C10E9474
:1010D0006D27C5DECDB7DEB7E9E00C9428322C2FA2
:1010E0002F70F22EC07FC03219F0F29480EFF822F8
:1010F000DD2341F0D13081F1112309F439C00023FF
:10110000C9F0CACF8091BB0482FD10C0112341F009
:10111000FF2019F08F2D80D504D680E0FDDED1CFE1
:1011200080E025DFFF2069F28F2DC6CF112359F013
:10113000011103C08F2D55DFC4CF013009F0C1CF9D
:101140008F2D9BD5BECF0111BCCF8F2D4FDF8F2DA3
:101150009FD58F2D84D5B5CF112321F0063008F00F
:10116000B0CFE8CF053008F0ACCF8F2D3FDFA9CF4F
:101170000023D9F3D93349F43FEF87EE93E03150A0
:1011800080409040E1F700C000008D2FF0DE99CF45
:10119000612F8D2FB8DE95CF8C2F837059F51111EB
:1011A00090CF4D2F429546954770440F440F8D2F99
:1011B0008F70042E01C0880F0A94EAF72D2F20713A
:1011C000D4FF07C02FE030E001C0220F4A95EAF7B4
:1011D0002095C695C695C370822BC23039F040F475
:1011E000C13011F030D16DCF2AD16BCF30D169CF62
:1011F00024D167CF8695112311F08C2F817088231D
:1012000009F45FCF4D2F429546954770440F440F28
:101210008D2F8F70042E01C0880F0A94EAF72D2FAE
:101220002071D4FF07C02FE030E001C0220F4A95A3
:10123000EAF72095C695C695C370822BC23039F067
:1012400040F4C13011F03ED13CCF38D13ACF3ED13D
:1012500038CF07D136CFCF70112321F08C2F0FD18B
:101260008D2F69CF8D2FC2DE8C2F13D12ACFD23F85
:1012700039F160F4D03FB9F0D13F81F0112309F486
:101280003CC0011109CF8C2F8F711EC0D33FF1F0EC
:10129000D43FA1F78091BB0482FD20C08C2F8F71B9
:1012A000112319F311C0112339F0053008F009CFCB
:1012B0008C2F8F71F9D005CF063008F002CFF8CF10
:1012C0008C2F8F711111D1CFDAD0FBCE112321F0E9
:1012D0008C2F8F71CDD0F5CEC9D0F3CE112329F04C
:1012E00063E08C2F8F7122D5ECCE81E036D50230B1
:1012F00008F4E7CE82E031D5E4CE002359F0D933AB
:1013000009F043CFEFEFF7EE23E0E150F04020404B
:10131000E1F739CF8C2F8F71A8CFEE2009F4DACE08
:101320006DD480FDD7CEF601158262D4A8D0C60157
:1013300017D05ED4AED0CECE0F931F93CF93DF9352
:10134000EC01688179818D8178D18C01C3D074D012
:10135000B801CE0150DEDF91CF911F910F9108951A
:10136000CF93DF93EC018C81882381F0CE01E0DC08
:1013700081110FC047D4882349F08D81882331F033
:101380008091BB0482FF02C082E0E7D4DF91CF915D
:101390000895CE01D1DFCE0184DCF8CF5AD4C1D478
:1013A0000E9404230C94EB220E940428F7CF41D41E
:1013B000FBCF92959F70963091F058F4925F9F709A
:1013C000923058F4803F19F030F4883E30F481E0D8
:1013D00008959A5FF4CF843FD1F380E00895883E6A
:1013E000B0F3813FD1F7F3CFFC012481222321F018
:1013F0008081918119D1DDCF80E00895A6E0B0E031
:10140000E4E0FAE00C9413322696E2E00C942F32DA
:10141000A7E0B0E0EEE0FAE00C9413322796E2E0A9
:101420000C942F320895FECF0895FDCF0895FADF72
:10143000FCDF8093E70308950895F9CF0895909114
:10144000E703892BF4CF9091E7038923F0CF9091A4
:10145000E7038927ECCFE6CF0895FDCF0895E2CFCB
:101460000895FDDFFADF8093E603089580E0F9CF69
:1014700091E001C0990F8A95EAF7892FF2CF21E018
:1014800030E001C0220F8A95EAF78091E603822BB3
:10149000E8CF21E030E001C0220F8A95EAF72095DD
:1014A0008091E6038223DDCF21E030E001C0220FEE
:1014B0008A95EAF78091E6038227D3CF9091E603DD
:1014C000892BCFCF9091E6038923CBCF9091E60370
:1014D0008927C7CF0895262F277091E001C0990F63
:1014E0002A95EAF723E0769567952A95E1F7FB01BF
:1014F000EE0FFF1FE60FF71FE40FF51F50E040E06F
:10150000682F70E08191DF0111979B01042E02C0CA
:10151000369527950A94E2F72170219528272923EB
:1015200028272C934F5F5F4F4330510559F708959B
:10153000A82FA77023E0969587952A95E1F7FC01DF
:10154000EE0FFF1FE80FF91FE60FF71F50E040E016
:1015500080E0219130E00A2E02C0369527950A944A
:10156000E2F721703327042E01C0220F0A94EAF714
:10157000822B4F5F5F4F4330510559F70895282F55
:10158000862F911107C043EE53E070E060E0222304
:1015900041F008959C5F9230E0F7622F70E040EEDA
:1015A00053E099DFF6CF282F892F911107C0211121
:1015B0000EC063EE73E090E080E0BACF8C5F8230C3
:1015C00028F460EE73E0822F90E0F7CF80E008957A
:1015D000CF92DF92FF920F931F93CF93DF936C0113
:1015E0000091E6038091E703082BC3E0D0E010E010
:1015F000FC2EC8010C2E02C0959587950A94E2F73F
:1016000080FD0CC02197A0F7F12C8F2DDF91CF9199
:101610001F910F91FF90DF90CF900895B6018C2F0E
:10162000F4D5019779F3F1CFCF93DF93EC01D0DFBD
:10163000BE01EBD5DF91CF9108951F93CF93DF9338
:10164000EB019091DF03992331F0CB01EDDFDF91C6
:10165000CF911F910895882351F0CB01B9DF182F46
:10166000682FCE018CDFBE01812FCFD5F0CFCB010B
:101670009ADF182FF8CFE1E0F0E0DF0102C0AA0FF7
:10168000BB1F6A95E2F7BD01DF0102C0AA0FBB1FB5
:101690004A95E2F76A2B01C0EE0F2A95EAF7962FDA
:1016A0009823961302C08E2B0895E0958E230895FB
:1016B000242F462F682F8091E603DDDFD2CE1F93C3
:1016C000CF93DF93C091E80317E08091E9038C1377
:1016D00004C0DF91CF911F910895D0E01C9FF001CD
:1016E0001D9FF00D1124E651FC4F20813181428174
:1016F00053816481758186818BDE2196C770E5CF29
:101700002091220430912304409124045091250417
:1017100060912604709127048091280479CECF939C
:10172000DF9380912804807F09F04BC080912704CB
:10173000882309F446C0E091E8035091E903C09181
:101740002304D0912204609124047091250447E081
:101750005E17B9F18E2F90E0E49FF0011124E6515D
:10176000FC4F2481222381F1489FF001499FF00D15
:101770001124DF01A651BC4F11962C9111972C1307
:1017800023C02C912D1320C015962C911597211153
:101790001BC012962D913C91261B370B283C31051E
:1017A00098F4809128048F70806180932804E05120
:1017B000FC4F80818F708061808382E294E0D0DD75
:1017C0007EDFDF91CF910895FC013196E770C0CFA5
:1017D000482F2091E8039091E90357E0291302C0B4
:1017E00080E0089530E0529FF001539FF00D1124E6
:1017F000E651FC4F8181681306C08081481303C005
:1018000085818111EECF2F5F3F4F2770E7CFA4E195
:10181000B0E0EDE0FCE00C9409328C0186E0F801C8
:10182000DE011F9601900D928A95E1F7F8018481FF
:10183000E58092E2A92E94E0B92E909126049111B0
:101840001AC08823A9F0EE2089F0C801CDDDF82E5A
:10185000882361F087E0F801D50101900D928A9507
:10186000E1F7C50148DB5BDF4BDF59C0C80178DD1C
:10187000FF24F39454C0C080D18082809380F09084
:1018800027042091240430912504A401421B530B0A
:10189000FF2009F4E9C0483C510508F09CC08823AA
:1018A00009F43DC09091230480912804282F207FC3
:1018B00009F056C09D1114C090912204C91210C0A5
:1018C000E11048C08F7080618093280419DF82E2A4
:1018D00094E046DD80912804F8018683F12C1FC036
:1018E000E11038C06D2D8C2D73DF6D2D8C2D70DFC8
:1018F000E82E8111F3CFCF86D88A8F85988994DE20
:10190000292F22952F70243078F49F702230A0F078
:101910009923B1F0F8019681907F91F4FE2C8F2DE0
:101920006496ECE00C9425322A5F2F70223060F030
:10193000C80116DDEF2CF2CF992311F0882371F343
:10194000805E883058F3F4CF803F40F3815F83306E
:1019500078F7E4CF80912804816080932804BECF7B
:101960009D1112C090912204C9120EC0E1100CC04A
:101970008683C801F5DC87E0F801A2E2B4E00190BB
:101980000D928A95E1F770CFC8012EDD882309F406
:101990006DCFEE2009F46ACF80912804803280F068
:1019A0002091220430912304398728879B868A86D8
:1019B000909126049C871D868E87CE010896D0DCE8
:1019C00087E0F801A2E2B4E001900D928A95E1F778
:1019D000A6DE96DE4DCF90912804292F207F89F432
:1019E000682D9A8A898AA6017A899E2D07DD82E26E
:1019F00094E0B6DC87E0F50111928A95E9F780DE84
:101A00006DCF882309F48BCF809123048D110FC0F3
:101A100080912204C8120BC0E11009C09683C8014E
:101A20009FDC87E0F50111928A95E9F778CFC8012C
:101A3000DBDC882309F41ACFEE2009F417CF80915C
:101A40002804803208F4BCCF209122043091230472
:101A50003A8329839C828B82909126049D831E82E7
:101A60008F83CE010196ABCF483C5105A8F5882362
:101A700009F4FECEFE2CEE2009F4F8CE809123046A
:101A80008D111EC080912204C8121AC080912804B2
:101A900080FD0DC0982F907F51F08683903F09F410
:101AA00068CF982F907F905F8F70892B61CF87E0F0
:101AB000F801A2E2B4E001900D928A95E1F72FCFF0
:101AC000C80192DC81117CCF8091280481608093D1
:101AD0002804C80145DC23CF682D9A8A898AA6018B
:101AE0007A899E2D8BDC87E0F50111928A95E9F7C2
:101AF000BBCEAEE0B0E0EFE7FDE00C9412322887F9
:101B000039874A875B876C877D878E87CE010896E9
:101B10007EDE8823A9F06C85662339F02885398517
:101B20004A855B857D858E8573DC17E08091E803AF
:101B30009091E90389133BC02E96E3E00C942E327A
:101B400087E0FE013896DE01119601900D928A958C
:101B5000E1F78C85882349F32091E90330E0C9013E
:101B60000196877099274091E8034817190691F06C
:101B700097E0929FD001939FB00D1124A651BC4FC6
:101B8000FE01319601900D929A95E1F78093E90359
:101B900096DDCBCF0CDC1092E9031092E80387E0CE
:101BA000E2E2F4E0DF011D928A95E9F7BECF819F62
:101BB000C001112486519C4F2ADE882309F4BCCF32
:101BC000E091E8031E9FF0011124E651FC4F2081B3
:101BD00031814281538164817581868119DC8091D4
:101BE000E80390E00196877099278093E8039ECFE1
:101BF000809131048695869586950895809131046B
:101C00008770089590913104977081E009F480E025
:101C1000089580913D04089590913D04892B80930F
:101C20003D040895809590913D04982390933D0440
:101C3000089510923D04089590913C04892B80935F
:101C40003C040895809590913C04982390933C0423
:101C5000089510923C0408950895FECF0895909140
:101C60003204292F282329F0809589238093320478
:101C7000F4CF08950895FECF089590913304292F4D
:101C80002823281721F0982B90933304F4CF08953C
:101C900090913304292F282329F08095892380935C
:101CA0003304E9CF089580913304882321F0109202
:101CB000330480E0E0CF08950F931F93CF93DF9319
:101CC0000091200310912103C0913D0480913C04B8
:101CD000C82B80913304882329F0C82B0E94A827A1
:101CE0008111E1DFF801C083C0912003D09121036D
:101CF00048E050E069E274E0CE010E94DB32892BBB
:101D000059F088E0FE01A9E2B4E001900D928A95B5
:101D1000E1F7CE010E947C27DF91CF911F910F91B7
:101D20000895CACF08950895FECF08959091BB04F9
:101D300092FF0EC098E0899F90011124622B60935E
:101D400031049DDB80913104869586958695ECCF94
:101D500096CB1092310480E0E7CF909131048095CA
:101D6000892380933104282F277059F4891749F06B
:101D70009091BB0492FF05C086958695869589DB78
:101D8000E8CF08959091BB0492FB222720F92817F1
:101D900049F080FB92F99093BB048AEB94E049D020
:101DA00082E0DBCF08958091BB0482FB882780F915
:101DB00091E08927E7CF81E0E5CF80E0E3CF60E0E5
:101DC00070E0CB01D5C360E070E0CB01CBD3F7CF9F
:101DD000A3E0B0E0EEEEFEE00C9413321DD328D366
:101DE0001B82CE0103963BD381E08093E70341D36E
:101DF0001A8219828A8184618A83CE0101964AD32C
:101E00006DD50E949225DFDF2396E2E00C942F32FD
:101E1000DFCF089513C3089500D381110C94582582
:101E2000089512C3089521C3089523C3089526C3B6
:101E3000089530C3089535C3089574C308959EC3AB
:101E40000895A6E0B0E0E7E2FFE00C9411320E94B2
:101E50001D298C0180913E0490913F0480179107C9
:101E600079F019821A820E941D29682F49815A81AE
:101E7000792F80E090E012D810933F0400933E0445
:101E80002696E4E00C942D320E942929609349049F
:101E900070934A0480934B0490934C0460934504E0
:101EA00070934604809347049093480408950E94D9
:101EB00029296093490470934A0480934B049093BA
:101EC0004C046093410470934204809343049093C4
:101ED0004404089508950895FDCF08950895FEDF00
:101EE000FBCF0895FECF08950895FEDFFBCF88EF66
:101EF00091E1E2D3F0DFF3CF81E00895FDCF0895C3
:101F0000FBCF0895089508950895FCDFFCDFFCCF12
:101F100083DF811101C07CDF8DE494E082DF8AEBF6
:101F200094E085DF0E94E21D7EDF87DA8091E60380
:101F300094CA0E9414290E949D250E941D1C43D30F
:101F4000E7DF0E942E0780E00E9470190E94691846
:101F5000CCCFA6E0B0E0EFEAFFE00C941032CEDF89
:101F6000082F81110EC06DDF00E00E9426190E942B
:101F70007D1C882391F19BDF0E94F31B0E94C01AF5
:101F800030C029D31091400480E003D3181759F3CF
:101F900080914D0481FD03D3B3DFF82E80E0F9D2A8
:101FA000182F80914004912F9827181302C06CDFDE
:101FB000DCCF90FF0FC0FF2069F019821A820E94C7
:101FC0001D29682F49815A81792F81E0912F9170C5
:101FD0000E944E0710934004EACF0E94F31B0111A8
:101FE000CDCF0E9426230E9436072696E5E00C946A
:101FF0002C321F93CF93DF930AD1EC01C11582E5F8
:10200000D80708F03DC0C11590E5D90708F0BEC05B
:10201000C83ED105C0F4C03ED10580F4C53AD10513
:1020200048F4C430D10550F4C130D10539F0D0E0C6
:10203000C0E004C0CD3CD105D0F3D065CE01DF9126
:10204000CF911F910895C11580E4D80708F050C0C2
:10205000C11590E2D90708F0B2C0C11581E0D807D8
:1020600030F38D2F76D1182FCE019927D0D0C12FE4
:10207000D0E0DC2FCC27CC27DF71C82BD92BDECFCB
:10208000C03892E5D907A8F4C03682E5D80708F031
:1020900061C0C03492E5D90708F047C0C03282E57C
:1020A000D80778F1CF71D0E0DC2FCC27C16FD06A90
:1020B000C5CFC03C92E5D90778F48C2F8F71C03A18
:1020C000D24508F45CC045D1C82FD0E0DC2FCC2726
:1020D000CC27DF71D062B2CFC03E82E5D80708F0CE
:1020E000A6CFDC2FCC27CC27DF71C06FD06AA6CF5C
:1020F000CE0199278CD0CC27DF70C82BD92BD06A82
:102100009DCF2C2F2695269590E2299F9001112492
:102110008C2F8370C1E0D0E002C0CC0FDD1F8A9508
:10212000E2F7C22BD32BDD6889CF2C2F269526957D
:10213000277080E2289F900111248C2F8370C1E0CA
:10214000D0E002C0CC0FDD1F8A95E2F7C22BD32B63
:10215000DC6874CF2C2F26952695277090E2299F56
:10216000900111248C2F8370C1E0D0E002C0CC0F0D
:10217000DD1F8A95E2F7C22BD32BDA685FCFC82F19
:10218000D0E0DC2FCC27C46FD06A58CF8C2F8F7152
:10219000E0D055E0D695C7955A95E1F7CF70D0E0DD
:1021A000DC2FCC27282F30E084FF05C044E0220F2D
:1021B000331F4A95E1F7C22BD32BD0693FCF8D2F28
:1021C0008F71C7D0182FCE01992721D0C12FD0E011
:1021D000DC2FCC27CC27DF71C82BD92B7BCF7111FB
:1021E00005C0611108C040E00C94531E7D3F31F4DE
:1021F00041E0662341F090E080E008957C3FD9F70C
:102200006111F9CF40E00C945C1EE9DFF2CE823818
:102210009105B9F1B0F48133910509F47DC048F41A
:102220008932910509F46DC08A32910509F47BC0A9
:1022300008958533910509F45FC08933910509F14B
:102240000895833E9105D9F138F4803E910529F136
:10225000823E910579F10895863E9105D9F1873E38
:10226000910509F43EC0843E910541F52091BB04DF
:1022700021FF24C08091BA0484FD19C087EE90E04C
:1022800008952091BA04237009F05AC02091BB042C
:1022900023FF14C089E290E008952091BA0420FD44
:1022A00038C03091BB0430FF09C024FF43C090E028
:1022B00080E008952091BA0422FDF7CF089520917F
:1022C000BA0422FD3AC03091BB0430FD39C024FF6E
:1022D000F5CFEDCF2091BA0423FFF0CF24FDE7CF57
:1022E000CDCF2091BA0423FD2EC03091BB0431FF25
:1022F000EECF84EE90E008952091BA0425FFDECF62
:10230000C9CF2091BA0425FD21C02091BB0423FF31
:10231000D5CF89E390E0D2CF2091BA0426FFCECF6B
:102320008AE290E008952091BA0426FFC7CF81E3A6
:1023300090E0089583EE90E0089582EE90E0089595
:1023400080EE90E0089586EE90E0089585E390E0B9
:1023500008959091BA0492FF10C041E0282F247193
:10236000243009F040E031E0282F2871283009F0AE
:1023700030E0431711F02CE0822793FF10C041E0BA
:10238000282F2471243109F040E031E0282F2871F2
:10239000283109F030E0431711F02CE0822730910A
:1023A000BB0430FF10C051E0282F2171213009F00B
:1023B00050E041E0282F2871283009F040E0541700
:1023C00011F029E0822731FF10C041E0282F217150
:1023D000213109F040E031E0282F2871283109F03F
:1023E00030E0431711F029E0822794FD877E08959D
:1023F00080E00895CF939C01205E3245C1E02032F9
:10240000310538F4FB01C581C11103C08F710E94F1
:102410006A068C2FCF910895089590E080E00E9485
:102420008B3521E0833E9E4F09F020E0822F0895F6
:1024300063EE7EEF90E080E00C94B9356FEF7FEFB4
:1024400090E080E00C94B935CF93DF93EC0182E00B
:1024500090E00E947E358883DF91CF910895FC0142
:10246000608182E090E00C949F3583E090E00C94D2
:102470007E35682F83E090E00C949F35CF93DF93F7
:10248000EC0184E090E00E948B3599838883DF9192
:10249000CF910895FC016081718184E090E00C94FB
:1024A000B9354F925F926F927F928F929F92AF92C7
:1024B000BF920F93CF93DF93EC0188E090E00E94EE
:1024C00086352B013C01688359828A837B821C827A
:1024D0001D821E821F8283E290E00E947E35282F9B
:1024E00030E040E050E060E070E080E090E000E24A
:1024F0000E943A32242935294629572928833983CD
:102500004A835B836C837D838E839F83DF91CF912E
:102510000F91BF90AF909F908F907F906F905F9042
:102520004F9008950F93CF93DF93EC014881598129
:102530006A817B8188E090E00E94B13528813981F1
:102540004A815B816C817D818E819F8100E20E9446
:102550005532622F83E290E00E949F35DF91CF9148
:102560000F910895AB01BC018FE090E00C94B13560
:10257000AB01BC0183E190E00C94B135682F8EE093
:1025800090E00C949F350895FECF08950895FECFF6
:102590000895E82FF0E0E354FB4F808108950895FB
:1025A00054985C9A089529B1860F911D30E044E05B
:1025B000359527954A95E1F7209530952170332779
:1025C000FC0120830895ECDF1092BD041092BC043E
:1025D00081E023D0D9CFA1E0B0E0E1EFF2E10C94AB
:1025E0001232198260E0CE010196DDDF9091BC04C9
:1025F000898121E0981301C020E098138093BC04E6
:1026000041E06DEB74E08CEB94E008D0182FBFDF55
:10261000812F2196E3E00C942E320895B0E0A0E0E3
:10262000E4E1F3E10C940D326C017B01042FC22F25
:10263000222379F081E0809350040E941D29909319
:102640004F0480934E0480E0CDB7DEB7E8E00C94F1
:102650002932D0915004DD23B1F380914E04909142
:102660004F040E94AE28059770F310E0A801B60150
:10267000C7010E94DB32892B31F0A801B601C701E6
:102680000E94E832CD2F109250048C2FDDCF61CC08
:1026900008950E94B7280E94112C29DC0E94292C41
:1026A00048DC0E94322C0E94352CF1DF0E944B2C1A
:1026B0000E94FA2A2ADCF7CF9093D9038093D8039B
:1026C00008950F931F93CF938C01FB01C581CC23F9
:1026D00009F43BC09EDA8272F801E052F847EB3011
:1026E000F10530F4E950FA4C0C94CB31EAD4C0E057
:1026F0008C2FCF911F910F910895882321F0D5D46D
:10270000F6CF8823E1F3C5D4F2CF882321F040D25D
:10271000EECF8823E1F331D2EACF882321F052D2E1
:10272000E6CF8823E1F341D2E2CF882321F064D2BF
:10273000DECF8823E1F353D2DACF882321F002D110
:10274000D6CF8823E1F3EFD0D2CFC1E0D1CFEF9243
:10275000FF920F931F93CF93DF939B01682F31114B
:102760000EC0442329F0E82FF0E0EF50FE4F6491B3
:10277000762F862FCDB7DEB7E6E00C942B32C32F31
:10278000D0E0E82FF0E0442321F0EF50FE4FE49139
:10279000F0E046E0249FC00111240FEF10E0B801E3
:1027A0000E948231AB01822F90E0880F991F25E5AE
:1027B000249FB001259F700D1124861B970B982F25
:1027C000990F980FB8016C1B7D0B6E9FD0016F9F06
:1027D000B00D7E9FB00D11248B2F939F900111247B
:1027E000232F3327B801621B730B6E9F90016F9FDD
:1027F000300D7E9F300D11247801E91AF108EC9E0E
:10280000B001ED9E700DFC9E700D1124672F77278F
:10281000061B170B0E9FE0010F9FD00D1E9FD00DC2
:1028200011247D2F9E2F4230510599F048F4411517
:10283000510569F04130510581F07B2F832F07C08E
:102840004430510569F080F046305105B1F7692FE9
:1028500091CF9B2F8D2F7E2FFACF7E2F932FF7CFE7
:102860009D2F7B2F8E2FF3CF732F9B2FFBCF41E01C
:102870006ECF0895FCCF089590912503291B922FC8
:10288000E091AA03F091AB03242F462F682F892FE4
:1028900090E009950895CF93DF93762FE901682F93
:1028A000842FE8DF962F672F9E01482F892FE4DFC2
:1028B000DF91CF9108958091BE04982F9C7F29F4D9
:1028C000837084608093BE0408958C37E8F383702E
:1028D0008867F8CFF0DF8EEB94E0AFCAEEEBF4E060
:1028E00085E0808311828FEF828383831482CF01FE
:1028F000A4CA8091BE0480FF03C086958695089582
:1029000080E008958091BE04817008959091C20482
:10291000933018F49F5F9093C204882319F08EEBD4
:1029200094E08BCA089581E0F1CF9091C20499237D
:1029300019F091509093C204882319F08EEB94E023
:102940007CCA089581E0F1CF8091C20408958093FC
:10295000C20408958091BF0408958091C004089531
:102960008091C10408950F931F93CF938091BE046B
:1029700080FF09C0E091AE03F091AF030995CF91BC
:102980001F910F910895C09127030091AA03109100
:10299000AB0380912803C81768F7809125039C2F0B
:1029A000981B892F20E040E060E090E0F801099555
:1029B000CF5FEFCFEF92FF920F931F93CF93DF93F1
:1029C000D82F162F042F8091BE0480FF0BC0C0911A
:1029D0002703E090AA03F090AB0380912803C81767
:1029E00030F0C1DFCDB7DEB7E6E00C942B3280913A
:1029F00025039C2F981B892F202F412F6D2F90E0AE
:102A0000F7010995CF5FE9CF762F9091BE0490FF33
:102A100008C0682F842F2EDF962F672F482F892F0D
:102A2000C9CF0895CF93DF93EC01EC81F0E0E4513E
:102A3000FF4F4491EEEBF4E062818181E5DF8C8110
:102A40008F5F8C83DF91CF910895CF93DF93EC015B
:102A5000EEEBF4E0438162818C81D6DF8C818F5F65
:102A60008C83DF91CF910895CF93DF93EC01409158
:102A7000C1049C81892F817090FD842F692F627021
:102A800091FD642F92FF40E095DF8C8190E00196EC
:102A9000877099278C83DF91CF910895B0E0A0E0F3
:102AA000E4E5F5E10C940E32D82FF62E042FE22E39
:102AB0008091BE0480FF21C0E82FE695E695AE2FF9
:102AC000B0E0A757BC4F9C9190935E048C7F8430FC
:102AD000C9F46D2F7F2D842FCDDE962F672F482FC1
:102AE000892F68DFD093BF04F092C0040093C10423
:102AF000EE2019F08EEB94E0A0D9CDB7DEB7E7E079
:102B00000C942A32923019F40091C104EBCF963024
:102B100019F4D091BF04E6CF9D3021F7ED508E2FF0
:102B20008170D82EE695F0E0E451FE4FC49110E09C
:102B300060912903161710F016DFD4CF1C9FC00137
:102B4000112470E00E9482318D2FD1100BC0860FAE
:102B500020912703210F3327331F402F6F2D9BDE3A
:102B60001F5FE6CF861BF4CFEEEBF4E09181282FB8
:102B70004381628184E0890F91CF81E0F5CFEEEB54
:102B8000F4E09181282F438162818CEF890F86CFF9
:102B900081E0F5CFEEEBF4E0628124E0620F08F40F
:102BA0006FEF282F4381818179CF81E0F3CFEEEB66
:102BB000F4E0628124E0621B08F460E0282F438186
:102BC00081816CCF81E0F3CFEEEBF4E0438128E02C
:102BD000420F08F44FEF282F628181815FCF81E09F
:102BE000F3CFEEEBF4E0438128E0421B08F440E031
:102BF000282F6281818152CF81E0F3CF20E04ECF38
:102C00000F931F93CF93C09127030091AA031091B4
:102C1000AB0380912803C81748F1C0E00091AA03D4
:102C20001091AB0360912903C61768F19CDE2091D7
:102C3000230380915104820F8093510490912403C7
:102C4000920F90932403191654F4082E000C990B3C
:102C5000409129034150550B841795071CF021958D
:102C600020932303CF911F910F9108958091250305
:102C70009C2F981B892F20E040E060E090E0F80155
:102C80000995CF5FC6CFEC2FF0E070E0CF010E9436
:102C9000963120912703820F20915104022E000CBF
:102CA000330BE217F3079CF020912403022E000C53
:102CB000330B2E173F075CF0282F30E04091C10402
:102CC0006091C0048091BF04E6DDCF5FABCF9091EF
:102CD0002503891B20E040E060E090E0F8010995C1
:102CE000F4CFB0E0A0E0E7E7F6E10C940932EC01A4
:102CF0004C81042F10E09801D8010E94DE319B0125
:102D0000AC010E94F3314B015C01E0E2F0E0E01B1A
:102D1000F10BA5E5B0E0AC019B010E94F3316B0122
:102D20007C019F01DF010E94D8319B01AC010E9410
:102D3000FD319B01AC01280D391D4A1D5B1DC701EA
:102D4000B6010E94A931F22E822F90E039E23F15A0
:102D500018F143E0249F9001112435952795122FF7
:102D6000109500E085E5E82EEF18809129030817FB
:102D700018F1F9DD9C8181E0992319F0903219F462
:102D80008FEF8093220380912203890F8C83CDB72C
:102D9000DEB7ECE00C94253225E530E0A901481BB4
:102DA000590BCA019A01220F331F280F391F37FF11
:102DB000D4CF2F5F3F4FD1CF8E2D01FD8F2D20918E
:102DC0002703200F3327331F412F6091C00463DD99
:102DD0000F5FCBCF0F931F93CF93DF938C01D0E086
:102DE000C0E0909129039C171D0609F06CF4BBDD2F
:102DF000F801848190E00196817099278483DF91A6
:102E0000CF911F910F910895F801448120912703DC
:102E10002C0F3D2F311D6091C0048091BF04969509
:102E20009C171D0641F03CF0442339F04091C10449
:102E300032DD2196D6CF4423C9F340E0F9CFB0E08C
:102E4000A0E0E5E2F7E10C940532FC0162804480E9
:102E500081E08483ECEEF0E07490EBE6F1E0E49145
:102E6000C091C104C695C158D0E0CC0FDD1FCD2F55
:102E7000DD27812C25E0922EAA24AA94B12C55247A
:102E80005A94E719EE2EF12C80912903881630F020
:102E90006ADDCDB7DEB7E0E10C942132C82CD12C2D
:102EA00082E0861568F09C9CF0019D9CF00D112439
:102EB000EE5AFB4F8091BF0480838091C0048183D0
:102EC00041101BC09C9CF0019D9CF00D1124EE5AFA
:102ED000FB4F13821282209127032C0D3D2D311DB3
:102EE0009C9CF0019D9CF00D1124EE5AFB4F4281F9
:102EF00061818081D0DC8394C7CF9C9C80019D9CA4
:102F0000100D11240E5A1B4FF80183818823F1F014
:102F100081508383859DC0011124648170E00E94EB
:102F20008231FB01FF27E451FF4F8491E82FE7191D
:102F3000E59DC0011124B7010E9482318091C10436
:102F4000689FB0011124F8017283C5CF0E94B73287
:102F5000B5010E9496318C179D070CF0BCCFF2E0B2
:102F6000F61598F40E94B732B5010E949631F80127
:102F700080830E94B7322091C0042695622F70E0B2
:102F80000E949631280FF80121839C9CF0019D9CA2
:102F9000F00D1124EE5AFB4F12828091C104893C3E
:102FA00058F088EC9C9CF0019D9CF00D1124EE5A89
:102FB000FB4F848383838FCF8431A0F784E1F2CFEA
:102FC000EEEBF4E080818E7F8083CF010E941D0FA5
:102FD00010925F04C8CCEEEBF4E080818E7F80839A
:102FE00010925F04C0CC6091BE046695669570E057
:102FF0004BE050E08AE293E00E94CE32892B19F434
:1030000081E080935F040E941D299093580480936F
:10301000570408959091BE0490FF25C093708111CC
:1030200023C094609093BE04662321F08EEB94E05D
:103030000E941D0F6091BE046695669570E04BE09E
:1030400050E08AE293E00E94CE32892BA9F01092E0
:103050005F0481E080935A044091C1046091C004F0
:103060008091BF04CBCD08958F3110F09867DACFEF
:10307000880F880F982BD6CFB6DFEBCF682F9091B3
:10308000BE049695969581E0890F8F3108F081E016
:10309000C1CF81E0F3CF682F9091BE0496959695AD
:1030A0008FEF890F09F48EE1B5CF81E0F4CF61E0B5
:1030B000B1CFEEEBF4E080818160808386958695C8
:1030C000F6CF8091BE0480FF01C07ACFF2CF60E0DE
:1030D000A1CF80915D0481111FC08EEB94E00E940E
:1030E0001B0F8091BE048C7F29F4F8DB8EEB94E0FB
:1030F0000E941B0FE0DB10925F04E091A803F091A7
:10310000A90309958091BE0480FF03C0869586952A
:10311000DEDF81E080935D040895EEEBF4E08081D2
:103120008160808386958695D2CF8091BE0480FF92
:1031300001C051CFF2CF0F931F93CF93DF938091B4
:103140005F048823D1F190915E04E091BE04E6957E
:10315000E6958E2F891B80935904923099F5E82FBC
:10316000F0E0E851FF4FE491CE2FD0E002E115E10D
:1031700080915A04882361F010925A040E941D29FC
:10318000909358048093570410925C0410925B044F
:103190000E941D29E0915704F09158048E1B9F0B4B
:1031A0008F3F9F4750F4EC0FFD1FF0935804E093BE
:1031B000570487E594E0F8010995DF91CF911F91BD
:1031C0000F910895963051F4E82FF0E0EB51FF4F46
:1031D000E491CE2FD0E005E215E1CACF993051F449
:1031E000E82FF0E0EE51FF4FE491CE2FD0E000E069
:1031F00016E1BECFC8E2D0E001E716E19C3009F449
:10320000B7CF973139F4E0EEF0E0C591D49104E303
:1032100015E1AECFC4EFD1E00AEE16E1983109F422
:10322000A7CFC0EDD7E009E314E1993109F0A0CFB1
:1032300063E00E947631E92FF0E0E352FF4FE49122
:10324000CE2FD0E00FE117E193CF089574CF08950A
:103250000C949B270895AB0124E630E0BC0188E77D
:103260000E94F52921E0892B09F020E0822F0895A2
:10327000AB0124E630E0BC0188E70E94332A21E05C
:10328000892B09F020E0822F08950F931F939B0153
:1032900004E610E0AC0160E488E70E94722A21E0B5
:1032A000892B09F020E0822F1F910F9108950C9433
:1032B000C32908950895E6ECF4E080E092E0DF0190
:1032C0009C011D9221503040E1F7F093CB06E09332
:1032D000CA068FEF9FEF90938C0480938B04089520
:1032E000CF93E8DF0E94A9058093870480FD0FC07B
:1032F00080E880938604DBDF6BE070E08CE093E095
:10330000B7DF811106C0C0E08C2FCF91089580E215
:10331000F0CF8091870465E070E081FD24C087E0F4
:1033200093E0A6DF882379F36DE070E085EF92E00B
:103330009FDFC82F882339F30E942929605A7541DD
:103340008F4F9F4F6093C6067093C7068093C80641
:103350009093C906B0DF81E080938A04809389044A
:1033600010928804D1CF82E093E0DBCF20918604D5
:1033700036E0839FC0011124629F800D911D1124AE
:10338000811522E0920714F090E080E08A539B4F71
:103390009093CB068093CA0608952091CA06309177
:1033A000CB06205C344040918604642F70E0C90154
:1033B0000E948231481B463010F4240F311D211524
:1033C00082E0380710F030E020E02A533B4F309382
:1033D000CB062093CA0608951F93CF93DF93162F31
:1033E0008A3031F481E06FD0DF91CF911F91089541
:1033F0008D3011F480E0F7CFC091CA06D091CB0692
:1034000096E0FE01A0E6B4E001900D929A95E1F7F6
:10341000803EB0F086E0FE0111928A95E9F7111125
:103420001BC0C091CA06D091CB0646E050E0BE0159
:1034300080E694E00E94DB32892BE1F4AEDFD4CF4A
:10344000F6E08F9FB0011124695E7C4F46E050E0AA
:10345000CE010E94C532E3CFE091CA06F091CB06BF
:103460009F012A5F3F4F2E173F07D9F28081809539
:103470008193F9CFC65CD440CE0125E0969587951F
:103480002A95E1F721E030E0A90102C0440F551F61
:103490008A95E2F7CA0140918B0450918C04842BE9
:1034A000952B259645E0D695C7954A95E1F702C03C
:1034B000220F331FCA95E2F7822B932B90938C0433
:1034C00080938B04BBCFCF93382FE091CA06F09145
:1034D000CB06E65CF44020918604622F70E0CF01B9
:1034E0000E948231281B822F332361F066E00E9404
:1034F0007631C82FC15010F4CF91089560E080E27A
:103500006BDFF8CF9F01280F311D2115324018F0D5
:1035100080E0F0E0E0E08E0F9F2F911D8A539B4FDB
:103520009093CB068093CA06E7CFFF920F931F9329
:10353000CF93DF93EC01F62EFC0101900020E9F718
:103540008F0101501109C017D10728F0CDB7DEB7A0
:10355000E5E00C942C326F2D89913EDFF4CF1F9360
:10356000CF93DF93EC01162FFE018491811104C0EB
:10357000DF91CF911F910895612F2EDF2196F4CF17
:1035800080918A04811103C08091890408950E946A
:103590002929605A75418F4F9F4F6093C6067093DB
:1035A000C7068093C8069093C9068091890481114B
:1035B000EBCF62E070E083EF92E05ADE882321F3E4
:1035C00081E080938904E0CFA6E0B0E0EAEEFAE182
:1035D0000C940332182F80918B0490918C04892BCA
:1035E00001F180918A048823E1F08091880481119F
:1035F00018C0C6DF1C821B8222242394312C03E0D6
:1036000068EBE62E63E0F62E77E0672E80918B0460
:1036100090918C04009729F0BC81BB2349F01111D3
:1036200007C02696E2E10C941F322B812F5F2B837B
:103630003B81C32ED12C210102C0440C551C3A956C
:10364000E2F7920128233923232B79F38091870411
:1036500080FD3CC08B818295880F807680933703F4
:103660009601369527953695279520933A03815EE6
:103670008093380320933B0367E070E085E393E099
:10368000EADD882371F2C60135E0880F991F3A956B
:10369000E1F72091870420FD27C060E270E08A53A3
:1036A0009B4FF3DD882309F4BCCFC2018095909530
:1036B00040908B0450908C044822592250928C04E4
:1036C00040928B044C814F5F4C83A0CF8B81880F3D
:1036D000880F880F8093370310923A03895F809395
:1036E000380300933B03C8CFA6E6B4E0E0E21D92A6
:1036F000EA95E9F724EB33E03E832D8320EBC22EDD
:1037000023E0D22EAD81BE816D91BE83AD83F601E3
:1037100021916F01280F392F311DA9014A535B4FA9
:103720005A834983E62FF0E0EA59FB4F30E020E06E
:10373000762C721A922C022E01C0990C0A94EAF788
:1037400069817A81A12CDB01BD90BD01B920472D93
:103750004A194770842E042E000C550BBB2D01C056
:10376000BB0F8A94EAF78B2E51954195510947700A
:10377000552701C0B6944A95EAF78B28B0808B286C
:103780008082A39448E0A412DECF2F5F3F4F319692
:103790002830310569F6AD81BE81EA16FB0609F0D5
:1037A000B1CF60E270E086E694E07BCF809189043F
:1037B00090918A04911103C091E08927089588238C
:1037C00061F062E070E081EF92E052DD811103C0B0
:1037D0008091890408951092890480918904ECCF26
:1037E0000C94AB0508950F931F9380918A0488234E
:1037F000F1F060E080E0BADDF3DF80E0E5DE8091AB
:1038000089048823A1F00E9429290091C6061091FD
:10381000C7062091C8063091C906601B710B820B48
:10382000930B6F3F7F4F8F4F9F4708F4BFDF1F9170
:103830000F9108950C947C0F0895EEE8F4E088E071
:10384000DF011D928A95E9F716C1FC01228130E063
:103850002F5F3F4F23703327938181E09217130628
:1038600009F080E008950F931F93CF93DF93EC014D
:10387000162F042FEADF811117C08A81FE01E80F9D
:10388000F11D1F7764816078612B00FB67F9648309
:103890008F5F83708A8388818F5F888381E0DF9167
:1038A000CF911F910F91089580E0F9CFFC01A38182
:1038B00082818A17B1F0AE0FBF2FB11D14968C9183
:1038C00087FB992790F98F77DB018C93DA019C9322
:1038D00083818F5F8370838381818F5F818381E0A8
:1038E000089580E00895462F682F8EE894E0BBCFBE
:1038F000AB01BC018EE894E0D9CFAEE0B0E0E3E8E4
:10390000FCE10C940C3280918D04882351F01092CC
:103910008D04809190048093910480918E04809313
:103920008F04E4D087DF182F882309F43EC010E00D
:103930008CEFF82E93E0E92EDD24D3942DEFC22EE8
:1039400032E0B32E29C01E858D85882399F10E940F
:103950001D291983CA829C838B83BD82DE824981A3
:103960005A816B817C818D819E810E944E078D855D
:103970001E85882339F10E941D291F83C8869A87D6
:103980008987BB861C864F81588569857A858B859A
:103990009C850E944E07102FBE01635F7F4FCE01B2
:1039A0000E96A6DF082F8111CECF812F2E96E9E04B
:1039B0000C9428320E941D291983FA829C838B83E0
:1039C000ED82CCCF0E941D291F83F8869A878987B4
:1039D000EB86D8CF8FE891E00197F1F700C00000A7
:1039E000089523E9611122E93AB12F7081E090E056
:1039F00001C0880F2A95EAF7982F909593239AB9DA
:103A00009BB1892B8BB9089523E9611122E989B112
:103A100090E02F7002C0959587952A95E2F7817006
:103A200008950895CF93DF93C0E080919604C8175E
:103A300050F0D0DFC0E080919604C81760F0F1DF4D
:103A4000DF91CF91089560E08C2FCBDF61E08C2F68
:103A5000C8DFCF5FEACF60E08C2FD6DFD82F61E0E0
:103A60008C2FD2DFEC2FF0E0E856FB4F880F8D2B28
:103A70008083CF5FE0CF81E080939604D3CF1F9304
:103A8000CF93DF93182FE42FEE0F6E2BC82FD0E0CB
:103A9000DE01A856BB4FEC918E2F8370681711F191
:103AA000EE0FEE0FE62BEC93EF70F0E0E854FC4FD6
:103AB000C956DB4F80819881890F888384301CF040
:103AC00060E0812F10DF88818D3F1CF461E0812F41
:103AD0000ADF8881082E000C990B64E070E00E94D8
:103AE00096318883DF91CF911F910895CF93DF9313
:103AF000C0E080919604C81718F0DF91CF91089527
:103B000061E08C2F81DFD82F60E08C2F7DDF4D2F7F
:103B1000682F8C2FB4DFCF5FECCF849A0895FC011F
:103B2000EE0FFF1FE80FF91FE453F94F6183408345
:103B300022830895ECECF6E081836083428308954C
:103B400031B33F7E21B320614FB7F8948CEC96E0FF
:103B5000FC015191CF0168E021BB000000C057FF7C
:103B600031BB550F000000C000C000C031BB00C019
:103B70006A9591F7F6E08F3C9F0751F74FBF8FE5AD
:103B800094E00197F1F700C0000008950C940A0F2B
:103B9000089580E00E94C912817008950E94EB127E
:103BA0002FEF86E791E0215080409040E1F700C080
:103BB00000000E94EB12EDDF882319F0E7DF0C9480
:103BC00059290895EBCF0895A1E0B0E0EAEEFDE1B8
:103BD0000C940F327C01FC016081718182819381A0
:103BE0008E010F5F1F4F21E030E040E050E0EFD149
:103BF000F70180819181A281B3810196A11DB11D40
:103C000080839183A283B38389812196E6E00C941B
:103C10002B3284E00895DEC00895FFC0089518C1D6
:103C2000089549C10895CF93D3D0C0E040E060E04B
:103C30008C2F0E94D0059C0140E060E08C2FEDD0DD
:103C400041E060E08C2F0E94E0059C0141E060E0D3
:103C50008C2F31D140E060E08C2F0E94E0059C0168
:103C600040E060E08C2F27D1CF5FC430F9F6CF91D0
:103C700008950F931F938A019B0150E040E0BC011F
:103C800090E080E042D11F910F9108950F931F9310
:103C90008A019B0150E040E0BC0190E080E062D1ED
:103CA0001F910F910895843020F4642B11F440E0AB
:103CB00091C090E080E00895843018F4611101C053
:103CC000C7C090E080E0089580E108957BD1CB01EA
:103CD00008950F931F938A019B0150E040E0BC01BF
:103CE00090E080E074D11F910F9108950F931F937E
:103CF0008A019B0150E040E0BC0190E080E09CD153
:103D00001F910F91089565D0DAC14F925F926F9223
:103D10007F928F929F92AF92BF92FF920F931F93C9
:103D2000CF93DF9300D000D0CDB7DEB7F82E8FE071
:103D30008F1518F147D161507109810991098E01E0
:103D40000F5F1F4F21E030E040E050E040D189811B
:103D5000811113C037D12B013C01812C912C5401CE
:103D6000F1101DC019821A821B821C8240E0BE0124
:103D70006F5F7F4F84EE9DE1EED50F900F900F9017
:103D80000F90DF91CF911F910F91FF90BF90AF9057
:103D90009F908F907F906F905F904F9008958414C4
:103DA0009504A604B70449F38E010F5F1F4F21E06D
:103DB00030E040E050E0C501B40109D189818111B2
:103DC00001C0FA948FEF881A980AA80AB80AC8CFD7
:103DD000089508950F931F93CF93DF938430D0F409
:103DE000642BC1F4082F10E0000F111FC801899641
:103DF0000E947E35C82FD0E0DC2FCC27C8018A96E0
:103E00000E947E359E01282BC901DF91CF911F9121
:103E10000F91089590E080E0F8CF1F93CF93DF9348
:103E2000122F843088F4962F942B71F4C82FD0E091
:103E3000CC0FDD1F632FCE0189960E949F35612F25
:103E4000CE018A960E949F35DF91CF911F910895F0
:103E5000FF920F931F93CF93DF93F42E843040F59E
:103E6000611126C024E0829F800111240F5C1F4F46
:103E700082E090E0442311F090E080E0800F911FF9
:103E80000E947E35C82FD0E0DC2FCC2783E090E065
:103E9000FF2011F081E090E0800F911F0E947E359D
:103EA0009E01282BC901CDB7DEB7E5E00C942C327A
:103EB00090E080E0F8CF0F931F93CF93DF93142F00
:103EC000022F8430E8F461111BC094E0899FE00167
:103ED0001124E19682E090E0442311F090E080E02C
:103EE000632F8C0F9D1F0E949F3583E090E011236C
:103EF00011F081E090E0602F8C0F9D1F0E949F3594
:103F0000DF91CF911F910F910895B0E0A0E0EBE811
:103F1000FFE10C9409326B017C01E8014B015C016B
:103F2000820E931EA41EB51EC6018996C814D9041C
:103F3000EA04FB0429F4CDB7DEB7ECE00C9425329B
:103F400028E0C216D104E104F10450F40E947E3549
:103F5000888321968FEFC81AD80AE80AF80AE4CFB6
:103F60001882F7CFB0E0A0E0E8EBFFE10C94093253
:103F70006B017C01EB014B015C01820E931EA41EC0
:103F8000B51E9601C6018996C814D904EA04FB043B
:103F900029F4CDB7DEB7ECE00C94253248E0C41626
:103FA000D104E104F10440F42C1B3D0BF801E20FB5
:103FB000F31F60810E949F358FEFC81AD80AE80A64
:103FC000F80ADFCF6FEB73E080E090E00895B0E097
:103FD000A0E0EDEEFFE10C9405326B017C012901BC
:103FE0003A014B0121E4820E911CD0E0C0E0C401F3
:103FF0008C0F9D1FAE0170E060E04415550566050D
:10400000770528F0CDB7DEB7E0E10C9421324C0DF6
:104010005D1D6E1D7F1D5801AC0EBD1E4F3B5340F4
:104020006105710530F40E947E35F501808321968B
:10403000DECFF5011082FBCF4F925F926F927F929D
:10404000AF92BF92CF92DF92EF92FF920F931F93A6
:10405000CF93DF936B017C0129013A015B0121E4DD
:10406000A20EB11CD0E0C0E0C5018C0F9D1FAE01B7
:1040700070E060E0441555056605770578F0DF913E
:10408000CF911F910F91FF90EF90DF90CF90BF9055
:10409000AF907F906F905F904F9008954C0D5D1D95
:1040A0006E1D7F1D4F3B53406105710530F4F801D3
:1040B000EC0FFD1F60810E949F352196D5CFA0E1B6
:1040C000B0E0E5E6F0E20C940532CE0101965C0129
:1040D00080E1F50111928A95E9F70DE310E09FEB7D
:1040E000492E93E0592E612C712C21E4822E912CC3
:1040F0000150110921F46096E0E10C942132620133
:10410000F1E14F165104610471042CF080E1C82ED6
:10411000D12CE12CF12CA601B401C5010E949035EF
:104120008C0C9D1C0D2C000CEE08FF084C185D0833
:104130006E087F08DDCFCF93DF93EB0186319C477C
:1041400001F50E94090E9D81992391F08A7A91E0F0
:1041500009F490E090939904811108C089E248D74E
:104160000E94910E80E0DF91CF91089585E3F7CF13
:1041700080919904811103C089E240D7F1CF85E392
:10418000FCCF81E0F0CFCF93DF93EC01FB01858181
:10419000882309F4CEC09E0130572332310508F040
:1041A000AEC08AEB94E00E94170FFE01E150F04789
:1041B000E232F10520F4EE5FF94C0C94CB318091A2
:1041C000BA0481608093BA0493C08091BB04886074
:1041D0008093BB048DC08091BA048260F3CF80913C
:1041E000BA048460EFCF8091BA048860EBCF8091ED
:1041F000BB048160EDCF8091BB048260E9CF8091E8
:10420000BA048061DFCF8091BA048062DBCF8091F5
:10421000BA048064D7CF0E94D7098091BA0480681D
:10422000D1CF8091BA048C60CDCF8091BB048360E4
:10423000CFCF8091BA048E7FC5CF8091BB04877F9A
:10424000C7CF8091BA048D7FBDCF8091BA048B7F98
:10425000B9CF8091BA04877FB5CF8091BB048E7FA0
:10426000B7CF8091BB048D7FB3CF8091BA048F7E8E
:10427000A9CF8091BA048F7DA5CF8091BA048F7B9E
:10428000A1CF0E94D7098091BA048F779BCF8091EC
:10429000BA04837F97CF8091BB048C7F99CF8091A4
:1042A000BA0482FB992790F921E0922790FB82F9CA
:1042B00090FB83F987CF8091BB04982F90959170E4
:1042C0008E7F892B90FB81F983CF9091BA04892F3F
:1042D0008F7B96FF806476CF0E94D7099091BA04B5
:1042E000892F97FB87F980586DCF81E00E941F0FBF
:1042F0008AEB94E00E94190F0E94D70980E0DF91B9
:10430000CF91089580E0F2CF9091BA04892F8F7EEB
:1043100094FF806157CF9091BA04892F8E7F90FFD0
:10432000816050CF9091BB04892F877F93FF886075
:104330004FCF81E0E4CF282F35EB2303C0011124B8
:1043400097FF04C080589109892F089580589F4F86
:10435000FBCF8091A00480FF0DC06091410370E00D
:10436000660F771F6038710570F56115710569F189
:10437000862F089581FF07C06091410384E0689F04
:10438000B0011124EFCF6091410382FD0AC08091FA
:104390009F048823A9F02091400360914103821774
:1043A00010F088E0ECCF869FC001112433E0880F25
:1043B000991F3A95E1F7622F70E00E949631D2CFB3
:1043C00068E070E0D5CF8FE7089581E0089580918F
:1043D000A00480FF0CC060913D0370E07595679567
:1043E000759567956115710549F1862F089581FFCF
:1043F00006C060913D0370E075956795F3CF6091BD
:104400003D0382FD0BC090919E049923A1F0609121
:104410003C0380913D03961738F0682F70E06038B8
:10442000710500F38FE70895899FC001112470E0A2
:104430000E949631F4CF61E070E0D7CF81E008951B
:104440008D3C29F486DF81958093A40408958E3CE9
:1044500011F47FDFF9CF8F3C29F47BDF81958093C6
:10446000A3040895803D11F474DFF9CF893D21F450
:10447000AEDF8093A50408958A3D19F4A8DF8195E5
:10448000F8CF8B3D29F4A3DF81958093A60408958E
:104490008C3D11F49CDFF9CF9FE2980F983070F4B7
:1044A000815D990B21E030E001C0220F8A95EAF787
:1044B0008091A204822B8093A20408958D3D31F453
:1044C0008091A00481608093A00408958E3D21F422
:1044D0008091A0048260F7CF8F3DB9F78091A0044E
:1044E0008460F1CF4091A3048D3C59F48091A404E1
:1044F00087FF0DC01092A40441110BC010929F04BD
:1045000008C08E3C81F48091A40418169CF34423C7
:1045100081F08091A5049091A604892B09F05AC0DE
:1045200010929E0408958F3C49F447FFF0CF1092FB
:10453000A3048091A4048111ECCFE0CF803D19F455
:104540001416ACF3E4CF9091A504893D29F4191613
:10455000F4F61092A504DBCF8A3D19F497FFD7CF6C
:10456000F8CF9091A6048B3D29F497FFD0CF1092FD
:10457000A604CDCF8C3D19F41916CCF3C8CF9FE219
:10458000980F983090F4815D990B21E030E0B901EB
:1045900002C0660F771F8A95E2F7CB018095909154
:1045A000A20489238093A204B2CF8D3D31F480917F
:1045B000A0048E7F8093A004AACF8E3D21F4809129
:1045C000A0048D7FF7CF8F3D09F0A1CF8091A0048B
:1045D0008B7FF0CF089531D69C019091A3048091F8
:1045E000A404982B21F030939D0420939C04909177
:1045F000A5048091A604982B21F030939B0420936E
:104600009A0481EA94E085C486E0E1EAF4E0DF01FF
:104610001D928A95E9F710929F0410929E041092C1
:10462000A0040895FC01828181110EC08381811153
:104630000BC08481811108C091E08581811101C086
:1046400090E0892F8170089581E0FCCFA6E0B0E072
:10465000ECE2F3E20C94123286E0E1EAF4E0DE01EF
:10466000119601900D928A95E1F71092A304109291
:10467000A4041092A5041092A6048B819C81892B1E
:1046800081F080919C0490919D0468D5AC0190913B
:104690009F049923A9F1809142038417150608F419
:1046A0003CC08D819E81892B89F080919A049091E4
:1046B0009B0454D5AC0190919E04992309F463C0E6
:1046C00080913E038417150608F46BC0BE016F5F2E
:1046D0007F4F81EA94E0A3D4811104C081EA94E081
:1046E000A1DF811178DF86E0FE013196A1EAB4E016
:1046F00001900D928A95E1F72696E3E00C942E3214
:10470000209143038AE0289F900111242417350744
:1047100040F69F5F90939F0402C09F3FD1F71B819B
:10472000112351F016DE9FEF11160CF491E0899FD2
:10473000802D11248093A3041C81112351F009DEE4
:104740009FEF11160CF491E0899F802D1124809326
:10475000A4048091A304882309F4A3CF1091A40496
:10476000112309F49ECFE7DD882349F08093A30449
:10477000812FE1DD882329F08093A40492CF81E08A
:10478000F5CF81E0F9CF20913F038AE0289F900187
:1047900011242417350708F099CF9F5F90939E044A
:1047A00002C09F3FD1F71D81112351F010DE9FEF12
:1047B00011160CF491E0899F802D11248093A5049B
:1047C0001E81112351F003DE9FEF11160CF491E0CE
:1047D000899F802D11248093A6048091A5048823AD
:1047E00009F474CF1091A604112309F46FCFA3DD4F
:1047F000882349F08093A504812F9DDD882329F02B
:104800008093A60463CF81E0F5CF81E0F9CFB0E0DB
:10481000A0E0EDE0F4E20C940C32E82FF0E0E95A6D
:10482000F74FB490282F26952695269530E0F9016C
:10483000E950F74F0491877010E0082E02C01595DB
:1048400007950A94E2F701701127F901E951F74F32
:10485000E490F12C082E02C0F594E7940A94E2F754
:1048600091E0E922FF24F901E952F74FC491D0E029
:1048700002C0D595C7958A95E2F7C170DD27C62E8F
:10488000D12C0115110549F5E114F10431F086EE42
:104890000E948C07C601009771F5B6018B2D0E940E
:1048A000D407C601009779F5E114F104A1F50115CB
:1048B000110531F081EE0E94B707C6010097C9F5D6
:1048C000CD2B31F08CE20E94EA07C114D104C9F566
:1048D000CDB7DEB7E9E00C94283281EE0E948C0758
:1048E000C601009789F2EFE9FFE03197F1F700C0C8
:1048F00000000197F6CFEFE9FFE03197F1F700C034
:1049000000000197C8CFEFE9FFE03197F1F700C051
:1049100000000197C7CF86EE0E94B707C601009737
:1049200031F2EFE9FFE03197F1F700C000000197A5
:10493000F6CFEFE9FFE03197F1F700C000000197F3
:10494000BDCF8FE99FE00197F1F700C0000091E033
:10495000C91AD108BACFB0E0A0E0E1EBF4E20C94C0
:104960000C328C017B01D42F8AE0B82EC701F801EC
:1049700009958823A9F0813009F058C0C701F801D2
:104980000995C82F813089F4C701F80109950E9463
:10499000EA078D2F90E0009709F040C0C111E6CFE3
:1049A000CDB7DEB7E9E00C942832823031F4C7018C
:1049B000F80109950E948C07ECCF833031F4C701D0
:1049C000F80109950E94B707E4CF843011F7C701B9
:1049D000F8010995C82FD12CC12C2C2F2053330B53
:1049E000C9012A30310568F0C114D10491F28FE970
:1049F0009FE00197F1F700C0000091E0C91AD108CB
:104A0000F3CFBC9C9001BD9C300D11246C01C20EF3
:104A1000D31EC701F8010995C82FDFCFEFE9FFE0EA
:104A20003197F1F700C000000197B5CF6D2FEFDE91
:104A30009DCF1F93CF93DF9387372CE7920751F0D9
:104A4000C1E088379C47B9F4FB01C581CC2329F12B
:104A500029D005C0FB01C581CC2391F020D00E9454
:104A60003F0A23D0D82F1ED0C82F19D04D2F6C2F1E
:104A70000E94580BC0E08C2FDF91CF911F910895B9
:104A80000ED00E94490A11D0182F0CD0D82F07D071
:104A9000412F6D2F0E94580BEECF04D0F2CF8091A2
:104AA0004603089580914503089580914403089535
:104AB000A3E0B0E0EEE5F5E20C941332AE014F5FF7
:104AC0005F4FBE016E5F7F4FCE010396B8D18B81E1
:104AD000853239F48A81883021F481E099819931D5
:104AE00009F080E081702396E2E00C942F32882355
:104AF00021F049E168E085E2C8C14FEF6FEF8FEF29
:104B0000FBCF08950895CF92DF92EF92FF926B0151
:104B10007C01F8DFC701B601D7D1FF90EF90DF909D
:104B2000CF9008958BD180E0E2DF60E070E0CB01B0
:104B3000EADF79D8E8D881E0DACFE3DFBCD1E2DF81
:104B4000B7DF811101C0EECF08950C949518089538
:104B50009C01FB018581882349F0A9015757403802
:104B6000510528F4822FD1D880E0089581E008957E
:104B70002FEFFC012083089580E00895CF93DF9309
:104B8000EC0188818230E9F028F4813071F0DF9106
:104B9000CF9108958330F9F08430C9F70E94AA14A8
:104BA00089830E94AD148A83F2CF0E94B0142FEF44
:104BB000829FC00111246FEF70E00E9482316983EF
:104BC000E6CF0E948214882321F00E947914898301
:104BD000DECF80E0FCCF0E94A414F9CFCF93DF9307
:104BE000EC018881823021F128F4813069F0DF9175
:104BF000CF910895833041F18430C9F70E94B014F9
:104C0000482F6A81898111C089812FEF829FC0015D
:104C100011246FEF70E00E948231D62F0E94AD14F4
:104C2000C82F0E94AA144D2F6C2F0E94FE15DFCFB3
:104C30008981811103C00E94EB17D9CF0E948D1882
:104C400089810E946718D3CF89810E94A714CFCF92
:104C5000FC019C012E5F3F4F9081983031F09930DC
:104C600031F0973031F4C901B9CFC90187CF0C9425
:104C70006A148FEF80830895FC012181223009F4AA
:104C8000E7CF76CFEF92FF920F931F93CF93DF93EF
:104C9000EC01162F71DF811110C0E881E150E53180
:104CA000B8F4F0E0EC5DF94C0C94CB3119828CE057
:104CB0008A83612FCE010E942819CDB7DEB7E6E0C6
:104CC0000C942B3289818230B9F028F4813061F064
:104CD0008FEF8883EECF833089F08430C9F71A8252
:104CE0001B821C821D82E5CFB4D20E94D1316A831F
:104CF0007B838C839D83DDCFDED0F7CF0A81802F2D
:104D000090E07E0123E0E20EF11C892B91F680E019
:104D10000E94C912F70181937F0181E090E0053E76
:104D2000A1F7C7CF8981823029F0853089F68A8141
:104D30000CDFBFCF6A817B818C819D810E94D13144
:104D4000E2DEB7CF4B816A8189810E940B1E9827D2
:104D5000892798279D838C83ACCF2C813D81322776
:104D6000232732274B816A8189810E940D1EA1CFA2
:104D70000E94131E9ECF612FCE017EDF9ACF0E942C
:104D8000641E898396CF0E94661E982789279827DC
:104D90009A8389838ECF6B8170E089819A81AE017D
:104DA0004C5F5F4F9827892798270E94691E81CF03
:104DB0006B8170E089819A81AE014C5F5F4F9827CB
:104DC000892798270E94761E74CF0E94831E71CF78
:104DD0000E94091ED6CF6B8170E089819A81AE0155
:104DE0004C5F5F4F9827892798270E94391E61CF13
:104DF0006B8170E089819A81AE014C5F5F4F98278B
:104E0000892798270E94461E54CF41E08B8181114B
:104E100001C040E06A8189810E940F1E98CF2C81D9
:104E20003D8132272327322741E08B81811101C048
:104E300040E06A8189810E94111E3BCF0895EF9264
:104E4000FF920F931F93CF93DF937C018B01EA01B5
:104E5000892B31F085E290E00E947E35F701808356
:104E60000115110531F086E290E00E947E35F801CF
:104E70008083209729F087E290E00E947E35888326
:104E8000CDB7DEB7E6E00C942B32CF93DF93D62F6D
:104E9000C42F682F85E290E00E949F356D2F86E237
:104EA00090E00E949F356C2F87E290E00E949F3532
:104EB000DF91CF91089588E290E00E947E35682FBF
:104EC00070E090E080E0089588E290E00C949F35D7
:104ED0009093A8048093A7040895E091A704F0910B
:104EE000A804309739F00190F081E02D309711F04F
:104EF0000995089580E00895E091A704F091A80431
:104F0000309731F00280F381E02D309709F0099558
:104F10000895E091A704F091A804309759F02681F4
:104F20003781232B39F022E0DC012C930680F781B6
:104F3000E02D09950895E091A704F091A804309719
:104F400031F00284F385E02D309709F0099508953A
:104F500040912003509121039A012E5F3F4F485FFB
:104F60005F4F80E02417350709F40895F901919106
:104F70009F019923B9F38F5FF5CF882371F02091BA
:104F8000200330912103F9013296285F3F4F919120
:104F9000981729F0E217F307D1F780E0089581E030
:104FA00008959C01FC0132969FEF80E041914617E5
:104FB00051F09F3F19F4411101C0982F8F5F863047
:104FC000A9F79F3F09F40895290F311D97FD3A95E0
:104FD000F90162830895FC01329608962191261307
:104FE00003C0DF0111971C92E817F907B9F708957C
:104FF000682F8091200390912103D3CF682F809157
:10500000200390912103E7CFE0912003F091210349
:10501000329686E0DF011D928A95E9F70895DC015A
:10502000FB0111969C9111978181981322C01296D1
:105030008C911297882319F0928189131AC01396C4
:105040008C911397882319F09381891312C01596B8
:105050008C911597882319F0958189130AC01496AD
:105060009C91992321F081E02481291303C080E0E1
:1050700001C081E0817008950895FECF08958111E7
:105080000CC081E080934A0360914703709148030C
:105090008091490390914A03F0CF82E0F3CF83E0FF
:1050A00080934A03609147037091480380914903BC
:1050B00090914A03E2CFE3CF089581E080934A03C1
:1050C00060914703709148038091490390914A038E
:1050D000D4CFF3CF089591E0811101C090E0909377
:1050E000490360914703709148038091490390916F
:1050F0004A03C3CF80914903089580934803609188
:105100004703709148038091490390914A03B5CFBA
:1051100080914803089580934703609147037091FD
:1051200048038091490390914A03A7CF8091470398
:10513000089508950895FECF089508950895F9CF2C
:105140000895FBDF0E94EB12F9DF80E00E94C91294
:1051500091E0811101C090E0892F0895CF93DF93F2
:10516000EC016BD08C1B9D0BDF91CF91089585B71F
:10517000806885BF85B7806885BF08951F921FB678
:105180001F9211248F939F93AF93BF938091A90493
:10519000811113C08091CF069091D006A091D106C5
:1051A000B091D2064196A11DB11D8093CF06909378
:1051B000D006A093D106B093D206BF91AF919F9134
:1051C0008F911F901FBE1F9018958091D706843035
:1051D00031F10E9403071092A90488E190E020E4D5
:1051E0000FB6F894A895809360000FBE20936000DE
:1051F00083B7817F846083BF83B7816083BF7894E6
:10520000889583B78E7F83BF0FB6F894A895809159
:105210006000886180936000109260000FBE089566
:105220000E94D7090C94090782E084BD93E095BDE4
:105230009AEF97BD80936E0008952FB7F8948091F0
:10524000CF069091D006A091D106B091D2062FBF83
:1052500008952FB7F8946091CF067091D006809191
:10526000D1069091D2062FBF089578941F921FB651
:105270001F9211248F939F93AF93BF938091CF067A
:105280009091D006A091D106B091D2060196A11DB1
:10529000B11D8093CF069093D006A093D106B09312
:1052A000D206BF91AF919F918F911F901FBE1F900B
:1052B000189587E797E7909301088093000888E1A5
:1052C0009AE00FB6F894A895809360000FBE909373
:1052D0006000FFCF88E19AE00FB6F894A89580931C
:1052E00060000FBE90936000FFCFEF92FF920F938C
:1052F0001F93CF93DF93182FEB011092BC0084EA29
:105300008093BC009ADF7C018091BC0087FF26C09F
:105310008091B900887F883029F08091B900887F1A
:10532000803171F51093BB0084E88093BC0085DF69
:105330008C018091BC0087FF1DC02091B900287F9F
:1053400090E080E0283189F081E090E0203411F491
:1053500090E080E091958195910907C0C701FEDE3C
:10536000C817D90788F68EEF9FEFCDB7DEB7E6E016
:105370000C942B32C801F2DEC817D907D0F6F3CF50
:105380008FEF9FEFF2CF1092B9008CE08093B800BE
:1053900008950F931F93CF93DF93EB018093BB008E
:1053A00084E88093BC0049DF8C018091BC0087FFBA
:1053B00011C02091B900287F81E090E0283211F4DB
:1053C00090E080E0919581959109DF91CF911F91B7
:1053D0000F910895CF3FDC0741F3C801BFDEC81726
:1053E000D90718F78EEF9FEFF0CFB0E0A0E0EBEF1A
:1053F000F9E20C940832782E5B016A0189011DDF05
:105400004C01C1E0D0E00431110550F0C5E0D0E01E
:105410000F3F100729F0C80164E170E073D7EB017A
:10542000BE01872D62DF7C0197FF08C00F3F100788
:10543000B9F3C40193DE0817190790F7E501CA0C08
:10544000DB1CCC15DD0511F0F7FE08C084E9809364
:10545000BC00C701CDB7DEB7EDE0F6C7B801899152
:1054600098DF7C01EECFB0E0A0E0E8E3FAE2D0C73D
:10547000782E5B016A018901E0DE4C01C1E0D0E0D9
:105480000431110550F0C5E0D0E00F3F100729F0BE
:10549000C80164E170E036D7EB01BE01872D25DF3E
:1054A0007C0197FF08C00F3F1007B9F3C40156DE17
:1054B0000817190790F7E501CA0CDB1CCC15DD05B0
:1054C00011F0F7FE08C084E98093BC00C701CDB796
:1054D000DEB7EDE0B9C7FE018491B8015ADF7C0167
:1054E0002196ECCFB0E0A0E0E7E7FAE290C7682EA3
:1054F000762E5A016901A1DE4C01C1E0D0E00431F1
:10550000110550F0C5E0D0E00F3F100729F0C801A9
:1055100064E170E0F7D6EB01BE01862DE6DE7C018A
:1055200097FF1AC00F3F1007B9F3C40117DE081721
:10553000190790F784E98093BC00C701CDB7DEB7A7
:10554000EEE081C7B801899124DF7C01CC16DD062D
:1055500089F3F7FEF7CFEECFB801872D1ADF7C0174
:10556000E501CA0CDB1CF2CF089508959B01BA0136
:105570009091D7069430E1F48F708093E9009FEF0B
:105580008091E800915085FD06C085ED8A95F1F780
:1055900000009111F5CF8091E80085FF09C050E02F
:1055A00040E0C901ECD18091E8008E778093E8005B
:1055B0000895603229F440E250E0BC0182E0D6CF89
:1055C000089546E050E0BC0184E0D0CFCF93DF9354
:1055D000EC0190DD48E050E0BE0181E0C7DF88E0EB
:1055E000FE01AAEAB4E001900D928A95E1F7DF91FD
:1055F000CF910895A0E2B0E0EFEFFAE214C78091F6
:10560000D7068430F9F483E08093E9008091E800C4
:1056100082FF18C08091E80090E085FF08C050E04C
:1056200040E060E270E0CE010196F6D191E0809119
:10563000E8008B778093E800992321F060E2CE01A7
:10564000019620DBA096E2E00AC78091D606811180
:1056500007C070D3C7D38091E20084608093E200DA
:1056600008951092D606089528DD81E034CD60912A
:10567000D30681E0611101C080E011CD9091D70681
:1056800081E0943009F080E06091D30614CD42E0CF
:1056900061EC81E0CBD242E261EC84E0C7D242E22D
:1056A00061EC82E0C3D242E260EC83E0BFD2909131
:1056B000D70681E0943009F080E06091D306DFCC1A
:1056C0008091D906833009F460C030F48130D1F183
:1056D000823009F496C008958A3009F485C08B3071
:1056E00009F46DC0893009F04FC08091D80681322D
:1056F00009F04AC08091DC069091DD06009719F010
:10570000029709F041C08091E800877F8093E8000C
:105710008091E80082FF34C09091F3008091F20004
:10572000029731F48091F100813011F0863019F444
:105730008091F100E2DC8091E8008B778093E800B3
:10574000A9D222C08091D806813AF1F48091E80074
:10575000877F8093E8008091DC069091DD06892B9D
:1057600059F468E08AEA94E070E0A3D18091E800FF
:105770008B778093E800089560E090E080E0F4CFBC
:105780008091D7068111C4CF08958091D806813ABF
:10579000D9F78091DC069091DD06892BA9F78091DD
:1057A000E800877F8093E8008091E80080FFFCCFCD
:1057B000A1DC8093F1008091E8008E77BFCF8091CB
:1057C000D806813209F78091DC069091DD06892B9D
:1057D000D9F68091E800877F8093E8005BD28091C2
:1057E000DA0679DC0C94D7098091D806813261F60B
:1057F0008091E800877F8093E8004CD28091DB069F
:105800008ACC8091D806813A09F0BECF8091E80019
:10581000877F8093E8008091E80080FFFCCF86DCE2
:10582000C8CF84B7877F84BF0FB6F894A8958091BE
:105830006000886180936000109260000FBE80E875
:1058400090E00FB6F89480936100909361000FBED2
:1058500040CC70D2C7D2E2EEF0E0808184608083D9
:1058600078942AC58BE493E033CB8091D7068530BA
:1058700029F48091D706853011F0D2CC0895A5DCAB
:1058800060DC8823B1F38091D506882391F361D041
:105890000E94D709EECF08959A014091DE065091FB
:1058A000DF0600C0492F55274330510521F168F428
:1058B0004130510509F443C04230510509F444C058
:1058C00090E080E050E040E026C04132510551F1C7
:1058D00042325105A9F76330710590F7FB01EE0FD5
:1058E000FF1FE553FC4F4081518168537C4FFB0102
:1058F000808190E010C099278130910581F0009758
:1059000029F00297E9F6E7E0F9E002C0E7E2F9E002
:10591000849190E0AF01F901518340830895E5E15E
:10592000F9E0F6CF6330710558F6660F771FFB017B
:10593000EF52FC4F4081518189E090E0ECCF82E151
:1059400090E046E859E0E7CF8BE590E04BE259E084
:10595000E2CF80E189BD82E189BD09B400FEFDCFBF
:105960008091D8008F7D8093D8008091E000826084
:105970008093E0008091E00081FDFCCF0895AF921C
:10598000BF92CF92DF92FF920F931F93CF93DF933B
:105990006C01EB018A019DD1F82E811123C0011504
:1059A000110539F0F80180819181C81BD90BC80E0F
:1059B000D91EB12CA12C2097A9F08091E80085FD7B
:1059C00021C08091E8008E778093E80001151105D1
:1059D000A1F0F80180819181A80EB91EB182A08248
:1059E00085E0F82E8F2DDF91CF911F910F91FF90C1
:1059F000DF90CF90BF90AF9008956BD18823D9F2FC
:105A0000F82EF0CFF60181916F018093F10021977C
:105A1000FFEFAF1ABF0ACFCFAF92BF92CF92DF9204
:105A2000FF920F931F93CF93DF936C01EB018A01D9
:105A300050D1F82E811123C00115110539F0F8015C
:105A400080819181C81BD90BC80ED91EB12CA12C05
:105A50002097A9F08091E80085FD21C08091E800A1
:105A60008B778093E80001151105A1F0F801808182
:105A70009181A80EB91EB182A08285E0F82E8F2DEB
:105A8000DF91CF911F910F91FF90DF90CF90BF904A
:105A9000AF9008951ED18823D9F2F82EF0CF8091CF
:105AA000F100F60181936F012197FFEFAF1ABF0A52
:105AB000CFCFFC018091DE069091DF068617970715
:105AC000A0F06115710529F49091E8009E779093FC
:105AD000E80090E06115710551F4911108C08091C2
