:100000000C9448010C9465010C9465010C946501F5
:100010000C9465010C9465010C9465010C946501C8
:100020000C9465010C9465010C9467230C943B249B
:100030000C94211C0C9465010C9465010C946501D1
:100040000C9465010C9465010C9465010C94650198
:100050000C9465010C94C41C0C9465010C9465010E
:100060000C9465010C9465010C9465010C94650178
:100070000C9465010C9465010C9465010C94650168
:100080000C9465010C9465010C9465010C94650158
:100090000C94AE1E0C9465010C9465010C946501E2
:1000A0000C9465010C9465010C9465014A003500BF
:1000B0001E001F002000210022003A0000004D0019
:1000C0002B0014001A000800150017003B00000068
:1000D0004B00390004001600070009000A003C002C
:1000E00000004E00E1001D001B0006001900050085
:1000F0003D0000004C00E000E200E30029002C007D
:1001000000003E0000003F002300240025002600E0
:1001100027002D002E002A0040001C0018000C00B3
:10012000120013002F003000310041000B000D00C1
:100130000E000F00330034002800000042001100C0
:100140001000360037003800E5005200E40043009C
:1001500044004500E7000000E600500051004F0059
:100160000C0372006B0064003000310000001003CB
:10017000720069006B006B006F0064006F0000008C
:100180000403090409023B00020100A0FA0904006B
:1001900000010301010009211101000122440007AF
:1001A00005810308000109040100010300000009A2
:1001B0002111010001227B000705820320000112AA
:1001C0000100020000000814E80100000101020023
:1001D0000105010902A10185020901A10005091912
:1001E00001290815002501950875018102050109FD
:1001F0003009311581257F9502750881060938156A
:1002000081257F950175088106050C0A3802158144
:10021000257F950175088106C0C005010980A101EF
:10022000850319012AB700150126B700950175103D
:100230008100C0050C0901A101850419012AA00251
:10024000150126A002950175108100C0050109065F
:10025000A101050719E029E7150025019508750199
:1002600081029501750881010507190029FF150014
:1002700026FF009506750881000508190129051556
:10028000002501950575019102950175039101C045
:1002900011241FBECFEFDAE0DEBFCDBF11E0A0E03A
:1002A000B1E0E4E0FEE402C005900D92A83CB10785
:1002B000D9F723E0A8ECB1E001C01D92A532B20746
:1002C000E1F70E94C0130C94C1260C940000811128
:1002D00012C06A3080F4493070F4E42FF0E089E015
:1002E000689FE00DF11D1124EE0FFF1FE455FF4F35
:1002F00085919491089581E090E008950E946701AE
:10030000089581E008950E948101089581E0089593
:100310000E94810108950E948801089508950E9415
:100320008E010895A6E0B0E0E8E9F1E00C943126F2
:1003300049835A839E833091CF0189819A813111FB
:100340001AC03E81332399F0222389F00E94570777
:10035000182F682F89819A810E94330769817A81D9
:10036000812F0E945B0E2696E3E00C944D260E949E
:100370004507182FF3CF0E94570769817A81F1CF83
:10038000FC01262F40815181628173818481958196
:100390000E9492010895CF93DF93EC0161E00E94E7
:1003A000C001BE010E948301DF91CF910895CF93D8
:1003B000DF93EC0160E00E94C001BE010E948F014A
:1003C000DF91CF91089521E030E0A90102C0440FF0
:1003D000551F8A95E2F7CA010E9455060895CF93EA
:1003E000C82F81E090E00C2E02C0880F991F0A945C
:1003F000E2F70E94930B8C2F0E94E301CF910895A6
:1004000081E008950E9400020895CF93C82F0E94B2
:1004100008068C2F0E9402022FEF84E39CE02150FB
:1004200080409040E1F700C00000CF91089581E046
:100430000E9405020E94E81C089580E00E940502C7
:100440000E94F91C08950F931F93CF93DF938C01A3
:1004500061E00E94C001EC01B8010E948B01811192
:1004600006C080E0DF91CF911F910F910895B801F0
:10047000CE010E94371A8823A1F3B801CE010E9451
:100480005816882371F3B801CE010E942E168823D6
:1004900041F3B801CE010E949F0F882311F3F801A8
:1004A0008581882361F0C330FCE7DF07E9F058F469
:1004B000C115ECE7DE07A9F0C130DC47B9F0C8018F
:1004C0000E948601CFCFCB358CE7D807A9F0CC3579
:1004D000ECE7DE0771F0CA35DC4789F70E946E0B46
:1004E000EECF0E941702BDCF0E94760B0E941D0224
:1004F000B8CF0E94640BE3CF0E94720BE0CF0E9442
:10050000FD1B0E94A1020E944E1408950E94A502A4
:100510000E94021C089581E008950895CF93DF930F
:10052000D82F0E948B02C82F882319F08D2F0E948C
:100530008D028C2FDF91CF91089508950E948E0235
:10054000089580E00E949E0208950E94801A0E94F1
:100550009E020895CF930E94801AC82F8091CA01ED
:100560008C1779F0C093CA010E948D1C6093CB0157
:100570007093CC018093CD019093CE018C2F0E947B
:100580009E02CF910895ADE0B0E0E9ECF2E00C946A
:100590003226488759876A877B878C879D87911188
:1005A0000E94A40A1F8286E0FE013896DE011196A1
:1005B00001900D928A95E1F78D8181110DC02981FD
:1005C0003A814B815C816D817E818F810E94EE0931
:1005D0002D96E2E00C944E26CE0101960E94CB01AE
:1005E0008111EDCFF5CFFC012481213021F48081F0
:1005F00091810E9489070895CF93DF93C82FD62F4A
:10060000662381F00E94B9178C2F90E09C01215D38
:1006100031092830310548F46D2F0E94C914DF914B
:10062000CF9108950E941318EFCF0E948C18F7CF36
:10063000CF93C82F882399F08CEF8C0F813A88F4E0
:100640008C2F0E940C1B882329F08C2F0E944F1B9B
:100650000E94130B8C2F0E94471B0E94130BCF91FB
:10066000089580E28C0F883048F4C77081E001C0A3
:10067000880FCA95EAF70E94870AEFCFEBE5EC0FE7
:10068000E33040F4F0E0ED58FE4F808190E00E94AE
:10069000AD1AE5CFE8E5EC0FEB3150F4F0E0EE0FEA
:1006A000FF1FE35CFE4F808191810E94D21AD7CF59
:1006B00083E38C0F833198F661E08C2F0E94FC025B
:1006C000CECF882381F19CEF980F913A28F40E94B5
:1006D0004F1B0E94130B089590E2980F983050F42E
:1006E000877091E001C0990F8A95EAF7892F0E94DF
:1006F0008D0AEFCF9BE5980F933028F490E080E0CF
:100700000E94AD1A089598E5980F9B3128F490E067
:1007100080E00E94D21A089593E3980F933118F461
:1007200060E00E94FC0208951F93CF93DF93182F7F
:10073000EB010E941803209739F4812F0E94610376
:10074000DF91CF911F9108958FE99FE00197F1F715
:1007500000C000002197EFCF70E060E0893311F412
:1007600060E570E00E9494030895882321F00E94C0
:10077000870A0E94130B0895882321F00E948D0A96
:100780000E94130B0895B0E0A0E0E9ECF3E00C94B4
:100790002B266C01D62FC72FFC01158106810295EF
:1007A0000F700E947D0AE82E8823F9F0E12E1123B4
:1007B000E1F08C2F807F803461F080E28D0F8830F3
:1007C00008F18C2F807E803221F4D230D8F00023C3
:1007D000C9F08091D50282FF15C082E00E94380BDB
:1007E0000E947D0A91E0E82EE926BC2EB2949FE09B
:1007F000B922FBE0FB15B8F1EB2DF0E0ED53F94D1C
:100800000C941C26E12CF1CF0C2F0F70C07F11F03F
:100810000295007F112399F0002359F080E28D0F9B
:10082000883010F0D11107C0802F0E94870A0E94E3
:10083000130B8D2F5AC0802F0E94970AF8CF8D2F4F
:100840000E946103002379F080E28D0F883010F060
:10085000D11104C0802F0E948D0A03C0802F0E94F6
:100860009D0A0E94130BEB2DE850FF0B349720F4E8
:100870000E94801A0E949E02EE2089F00E94790A4E
:1008800080FD0DC0F60115820E94730A0E94910638
:10089000C6010E94CF050E94730A0E94A106CDB72F
:1008A000DEB7E9E00C9447262C2F2F70F22EC07F84
:1008B000C03219F0F29480EFF822DD2341F0D130FC
:1008C000D1F1112309F444C00023F1F0B2CF80919B
:1008D000D50282FD15C0112359F0FF2029F08F2D7C
:1008E0000E94870A0E94130B80E00E941803BBCF6E
:1008F00080E00E946103FF2009F4B5CF8F2DABCFBC
:10090000112369F0011104C08F2D0E94B503ABCFF4
:10091000013009F0A8CF8F2D0E94BB0AA4CF01118E
:10092000A2CF8F2D0E94BC038F2D0E94C70A8F2D4E
:100930000E94AB0A98CF112321F0063008F093CF24
:10094000E3CF053008F08FCF8F2D0E94BC038BCFF3
:100950000023D1F3D93349F43FEF87EE93E03150D0
:1009600080409040E1F700C000008D2F0E9461039D
:100970007ACF8C2F86958695837069F0813009F047
:1009800072CF8D2F9C2F9370111102C080E090E0E8
:100990000E94D21A68CF8D2F9C2F9370111102C024
:1009A00080E090E00E94AD1A5ECF612F8D2F0E94F3
:1009B000FC0259CF8C2F8370A1F5111154CF4D2F0C
:1009C000429546954770440F440F2D2F2F7030E00D
:1009D000042E02C0220F331F0A94E2F790E080E059
:1009E000D4FF09C08FE090E002C0880F991F4A959C
:1009F000E2F780959095C695C695C370822B932B90
:100A0000C23049F058F4C13019F00E9461062BCF72
:100A10000E94580628CF0E946A0625CF0E945506DC
:100A200022CF8695112311F08C2F8170882309F431
:100A30001ACF4D2F429546954770440F440F2D2FE6
:100A40002F7030E0042E02C0220F331F0A94E2F709
:100A500090E080E0D4FF09C08FE090E002C0880FF2
:100A6000991F4A95E2F780959095C695C695C370F3
:100A7000822B932BC23049F058F4C13019F00E94F8
:100A8000CC06F1CE0E94C306EECE0E94D506EBCE78
:100A90000E947906E8CECF70112329F08C2F0E9496
:100AA00091068D2F32CF8D2F0E94BC038C2F0E9478
:100AB000A106D9CED23F41F160F4D03FB9F0D13F89
:100AC00081F0112309F443C00111B3CE8C2F8F7133
:100AD0001FC0D33F01F1D43FA1F78091D50282FD21
:100AE00024C08C2F8F71112311F312C0112341F0F8
:100AF000053008F0B8CE8C2F8F710E94B306B3CEAC
:100B0000063008F0B0CEF7CF8C2F8F711111CFCFF8
:100B10000E949106A8CE112329F08C2F8F710E947C
:100B20008506A1CE0E9480069ECE112331F063E09F
:100B30008C2F8F710E941A0B96CE81E00E94380B89
:100B4000023008F490CE82E00E94380B8CCE002355
:100B500059F0D93309F009CFEFEFF7EE23E0E15078
:100B6000F0402040E1F7FFCE8C2F8F71A0CF0F9384
:100B70001F93CF93DF93EC01688179818D810E946F
:100B800094078C010E94DE060E945406B801CE0133
:100B90000E94C303DF91CF911F910F910895CF93CE
:100BA000DF93EC018C81882399F0CE010E9423020F
:100BB000811111C00E947D0A882351F08D81882304
:100BC00039F08091D50282FF03C082E00E94380B89
:100BD000DF91CF910895CE010E94B705CE010E940A
:100BE000D701F6CF90E080E00E94AD1A90E080E05F
:100BF0000E94D21A0E94A40A0E94130B0E94A818F5
:100C00000E948C1808950E94571B0E94F2050895B7
:100C10000E94940A0E940306089592959F70963050
:100C200091F058F4925F9F70923058F4803F19F021
:100C300030F4883E30F481E008959A5FF4CF843F29
:100C4000D1F380E00895883EB0F3813FD1F7F3CF30
:100C5000FC012481222339F0808191810E9489073F
:100C60000E940D06089580E00895A6E0B0E0EBE351
:100C7000F6E00C9432262696E2E00C944E26A7E08D
:100C8000B0E0E5E4F6E00C9432262796E2E00C941E
:100C90004E2608950E94490608950E944A069093A0
:100CA000030280930202089508950E944D0608955C
:100CB0002091020230910302822B932B0E944D0659
:100CC00008952091020230910302822393230E940F
:100CD0004D06089520910202309103028227932746
:100CE0000E944D0608950E94490608950E947306C9
:100CF00008950E9476069093010280930002089561
:100D000090E080E00E947906089521E030E0A9019A
:100D100002C0440F551F8A95E2F7CA010E94790666
:100D2000089521E030E002C0220F331F8A95E2F7D8
:100D30008091000290910102822B932B0E947906F0
:100D4000089521E030E002C0220F331F8A95E2F7B8
:100D50002095309580910002909101028223932387
:100D60000E947906089521E030E002C0220F331F6F
:100D70008A95E2F7809100029091010282279327E1
:100D80000E94790608952091000230910102822B81
:100D9000932B0E9479060895209100023091010260
:100DA000822393230E9479060895209100023091B6
:100DB0000102822793270E94790608950895262F1D
:100DC000277091E001C0990F2A95EAF723E0769504
:100DD00067952A95E1F7660F771F660F771FFA016F
:100DE000E60FF71F50E040E0682F70E08191DF01CF
:100DF00011979B01042E02C0369527950A94E2F7BD
:100E0000217021952827292328272C934F5F5F4F96
:100E10004430510559F70895A82FA77023E09695FF
:100E200087952A95E1F7880F991F880F991FFB0175
:100E3000E80FF91F50E040E080E0219130E00A2EF9
:100E400002C0369527950A94E2F721703327042EC5
:100E500001C0220F0A94EAF7822B4F5F5F4F4430A4
:100E6000510559F70895262F9A3070F4893060F4AF
:100E7000682F70E089E0989F600D711D112440ED8E
:100E800051E0822F0E94DF060895292F9A3068F4DE
:100E9000893058F490E060ED71E039E0239F800DD7
:100EA000911D11240E940C07089580E00895B0E080
:100EB000A0E0EDE5F7E00C942B267C010091000208
:100EC000109101028091020290910302082B192BCC
:100ED000CFE0D0E0CC24C394D12CBC2EC6010C2E84
:100EE00002C0880F991F0A94E2F780239123892B6F
:100EF00049F4219790F7B12C8B2DCDB7DEB7E9E0FF
:100F00000C944726B7018C2F0E94670E019789F336
:100F1000F3CFCF93DF93EC010E945707BE010E94ED
:100F2000670EDF91CF9108951F93CF93DF93EB016D
:100F30009091CF01992339F0CB010E948907DF916D
:100F4000CF911F910895882369F0CB010E94570724
:100F5000182F682FCE010E943307BE01812F0E94F7
:100F6000670EEDCFCB010E944507182FF6CF1F93D8
:100F7000CF93DF93C091040217E0809105028C1398
:100F800004C0DF91CF911F910895D0E01C9FF00124
:100F90001D9FF00D1124EA5FFD4F208131814281B8
:100FA00053816481758186810E943F062196C770B6
:100FB000E4CF20913E0230913F0240914002509197
:100FC00041026091420270914302809144020E946A
:100FD0003F060895CF93DF9380914402807F09F00C
:100FE0004DC080914302882309F448C0E091040277
:100FF00050910502C0913F02D0913E0260914002A3
:101000007091410247E05E17C9F18E2F90E0E49F96
:10101000F0011124EA5FFD4F2481222391F1489FC2
:10102000F001499FF00D1124DF01AA5FBD4F119619
:101030002C9111972C1325C02C912D1322C015969D
:101040002C91159721111DC012962D913C91261BB4
:10105000370B283C3105A8F4809144028F708061E1
:1010600080934402E45FFD4F80818F7080618083B4
:101070008EE392E00E94CF050E94B707DF91CF91E7
:101080000895FC013196E770BECF482F20910402ED
:101090009091050257E0291302C080E0089530E0E6
:1010A000529FF001539FF00D1124EA5FFD4F8181A3
:1010B000681306C08081481303C085818111EECF7B
:1010C0002F5F3F4F2770E7CFA4E1B0E0EAE6F8E0FA
:1010D0000C9428268C0186E0F801DE011F96019011
:1010E0000D928A95E1F7F8018481E5809EE3A92EAF
:1010F00092E0B92E9091420291111FC08823D1F045
:10110000EE20A9F0C8010E942806F82E882379F065
:1011100087E0F801D50101900D928A95E1F7C501AC
:101120000E94F3020E94EA070E94D9075FC0C8012B
:101130000E94CF05FF24F39459C0C080D1808280E3
:101140009380F09043022091400230914102A4012B
:10115000421B530BFF2009F4F9C0483C510508F02D
:10116000A7C0882309F442C090913F0280914402B5
:10117000282F207F09F05CC09D1116C090913E027F
:10118000C91212C0E1104EC08F708061809344027A
:101190000E94D9078EE392E00E94CF05809144021D
:1011A000F8018683F12C22C0E1103CC06D2D8C2DFE
:1011B0000E9445086D2D8C2D0E944508E82E811156
:1011C000F1CFCF86D88A8F8598890E948907292FE9
:1011D00022952F70243078F49F702230A8F0992344
:1011E000B9F0F8019681907F99F4FE2C8F2D6496CA
:1011F000ECE00C9444262A5F2F70223068F0C8017E
:101200000E94CF05EF2CF1CF992311F0882369F3C9
:10121000805E883050F3F3CF803F38F3815F8330B6
:1012200070F7E3CF80914402816080934402BACF8B
:101230009D1113C090913E02C9120FC0E1100DC064
:101240008683C8010E94CF0587E0F801AEE3B2E0D3
:1012500001900D928A95E1F767CFC8010E94280698
:10126000882309F464CFEE2009F461CF8091440211
:10127000803288F020913E0230913F0239872887E2
:101280009B868A86909142029C871D868E87CE011E
:1012900008960E94CF0587E0F801AEE3B2E0019026
:1012A0000D928A95E1F70E94EA070E94D90742CF82
:1012B00090914402292F207FA1F4682D9A8A898A6F
:1012C000A6017A899E2D0E9435068EE392E00E9447
:1012D000CF0587E0F50111928A95E9F70E94D907B9
:1012E00061CF882309F482CF80913F028D1110C015
:1012F00080913E02C8120CC0E1100AC09683C8015A
:101300000E94CF0587E0F50111928A95E9F76ECF2B
:10131000C8010E942806882309F409CFEE2009F4A9
:1013200006CF80914402803208F4B5CF20913E026E
:1013300030913F023A8329839C828B8290914202B2
:101340009D831E828F83CE010196A3CF483C510519
:10135000B8F5882309F4EECEFE2CEE2009F4E7CE92
:1013600080913F028D111EC080913E02C8121AC0AA
:101370008091440280FD0DC0982F907F51F08683AC
:10138000903F09F45ECF982F907F905F8F70892BEC
:1013900057CF87E0F801AEE3B2E001900D928A9555
:1013A000E1F724CFC8010E942806811174CF8091F3
:1013B0004402816080934402C8010E94CF0516CF89
:1013C000682D9A8A898AA6017A899E2D0E943506FF
:1013D00087E0F50111928A95E9F7A6CEAEE0B0E07C
:1013E000E4EFF9E00C943126288739874A875B8738
:1013F0006C877D878E87CE0108960E9464088823BB
:10140000B1F06C85662341F0288539854A855B8576
:101410007D858E850E943F0617E0809104029091A1
:10142000050289133DC02E96E3E00C944D2687E01B
:10143000FE013896DE01119601900D928A95E1F732
:101440008C85882349F32091050230E0C90101967B
:1014500087709927409104024817190699F097E080
:10146000929FD001939FB00D1124AA5FBD4FFE0142
:10147000319601900D929A95E1F7809305020E94B2
:10148000B707CACF0E940806109205021092040204
:1014900087E0EEE3F2E0DF011D928A95E9F7BCCF29
:1014A000819FC00111248A5F9D4F0E946408882398
:1014B00009F4B9CFE09104021E9FF0011124EA5F04
:1014C000FD4F208131814281538164817581868104
:1014D0000E943F068091040290E001968770992750
:1014E000809304029ACF80914D02869586958695C9
:1014F000089580914D028770089590914D029770E4
:1015000081E009F480E00895809159020895909156
:101510005902892B80935902089580959091590220
:10152000982390935902089510925902089590912A
:101530005802892B80935802089580959091580203
:101540009823909358020895109258020895089590
:101550000E94A70A089590914E02292F282331F066
:101560008095892380934E020E94A80A08950895C9
:101570000E94B70A089590914F02292F2823281717
:1015800029F0982B90934F020E94B80A08959091E9
:101590004F02292F282331F08095892380934F0211
:1015A0000E94B80A089580914F02882329F0109272
:1015B0004F0280E00E94B80A08950F931F93CF93C3
:1015C000DF930091000110910101C09159028091B7
:1015D0005802C82B80914F02882331F0C82B0E94FB
:1015E000F71A81110E94D30AF801C083C09100014B
:1015F000D091010148E050E065E472E0CE010E9424
:101600005926892B59F088E0FE01A5E4B2E001904B
:101610000D928A95E1F7CE010E94941ADF91CF9145
:101620001F910F9108950E94DD0A089508950E9468
:10163000160B08959091D50292FF11C098E0899FF2
:1016400090011124622B60934D020E9491068091BB
:101650004D028695869586950E94170B08950E94E7
:101660009106089510924D0280E00E94170B089594
:1016700090914D028095892380934D02282F2770E9
:1016800069F4891759F09091D50292FF07C08695A9
:10169000869586950E94A1060E94320B089590912E
:1016A000D50292FB222720F9281769F080FB92F9D6
:1016B0009093D5028091D4029091D5020E949E0B06
:1016C00082E00E94380B08958091D50282FB882722
:1016D00080F991E089270E944F0B089581E00E94D4
:1016E0004F0B089580E00E944F0B08956FEF7FEF3E
:1016F00090E080E00E94AB26089590E080E00E9498
:10170000772621E0853E9E4F09F020E0822F089544
:1017100082E090E00E946F26089583E090E00E94AE
:101720006F2690E00895682F83E090E00E948D2658
:10173000089584E090E00E9477260895BC0184E03B
:1017400090E00E94AB260895AB01BC018FE090E0D1
:101750000E949F260895AB01BC0183E190E00E94A6
:101760009F26089560E070E0CB010E94AB0B0895C6
:1017700060E070E0CB010E94A40B0E94B20B0895C0
:10178000A8E0B0E0E6ECFBE00C94322665EE7EEFDC
:1017900090E080E00E94AB2660E082E090E00E9452
:1017A0008D2681E090E090930302809302020E94D4
:1017B000930B60E074E184E090E00E94AB2660E06F
:1017C00086E090E00E948D2660E087E090E00E9435
:1017D0008D2640E050E0BA0188E090E00E949F260C
:1017E00060E083E290E00E948D2660E08CE090E073
:1017F0000E948D2660E08DE090E00E948D26198287
:101800001A821B821C821D821E821F82188648E05B
:1018100050E067E170E0CE0101960E947D2640E035
:1018200050E0BA018FE190E00E949F260E94B80B21
:101830002896E2E00C944E260E94C00B0895682F73
:101840008EE090E00E948D260895A6E0B0E0EBE2E5
:10185000FCE00C9430260E94811C8C0180915A027D
:1018600090915B028017910781F019821A820E9481
:10187000811C682F49815A81792F80E090E00E9475
:10188000C30210935B0200935A022696E4E00C9484
:101890004C260E94830F60937802709379028093A4
:1018A0007A0290937B026093740270937502809326
:1018B00076029093770208950E94830F60937802D6
:1018C0007093790280937A0290937B026093700206
:1018D0007093710280937202909373020895089539
:1018E00008950E946F0C089508950E94740C089545
:1018F00081E008958DE99FE00E94D5130E94700C4D
:101900000E94710C08950E94911108950895089500
:101910000E94860C0E94870C08950E947D0B811105
:1019200002C00E941C0C0E94880B80937C020E94C3
:10193000990B9093D5028093D4020E9413160E94B3
:101940008D0B0E94550680910002909101020E9429
:10195000760608950E94781C0E945D0F0E949411E3
:101960000E94D7100E948D0C0E949D020E941616A4
:101970000E94A6110E9418140E94750C0895A6E0FA
:10198000B0E0E5ECFCE00C9426260E94780C811176
:1019900011C00E94250C0E9491110E944E148111C9
:1019A0000E945C0C0E94E5180E94AA022696EEE0B6
:1019B0000C9442260E94FA102CE5822E22E0922EF0
:1019C000640110E0F601E190F1906F01812F0E9417
:1019D000B90F1F5F1A3009F44BC0E816F90691F3EE
:1019E00080917C0281FD0E94C20F0E94830C782EA0
:1019F00010E066246394812F0E94B90F7C01F401EA
:101A0000A190B1904F018A159B0561F1A826BF24D2
:101A100000E0CC24C394D12CC5018C219D21892BBD
:101A2000C1F07720B1F009831A830E94811C9C8346
:101A30008B836D8221E0C7018C219D21892B09F4C4
:101A400020E049815A816B817C818D81922F0E9497
:101A5000C3020F5FCC0CDD1C0930F1F6F4013297A4
:101A6000F182E0821F5F1A3031F60E94490C93CF59
:101A7000E816F90609F0B4CF8CCF1F93CF93DF930C
:101A80000E946C0EEC01C11580E5D807F0F5C11578
:101A900080E4D80708F09CC0C03ED10520F5CD3CBD
:101AA000D10508F082C0C83AD10578F4C53AD1050D
:101AB00008F073C0C130D10519F1209709F1C43085
:101AC000D105F0F4D0E0C0E01BC0C33CD105D0F795
:101AD000C85AD0E0CC0FDD1FCA58DE4F0990D8811C
:101AE000C02DD4640DC0C11580E2D80708F0D1C064
:101AF000C11581E0D80708F05AC0C83ED10510F7DB
:101B0000CE01DF91CF911F910895C03682E5D807AD
:101B100018F5C03482E5D80708F06BC0C03282E502
:101B2000D80708F05FC0C11582E5D80708F497C050
:101B30002C2F2695269580E2289F900111248C2F2A
:101B40008370C1E0D0E002C0CC0FDD1F8A95E2F7C0
:101B5000C22BD32BDD68D4CFC03A82E5D80760F41E
:101B6000C03882E5D80708F459C0CF71D0E0DC2F27
:101B7000CC27C46FD06AC4CFC03C82E5D80708F434
:101B800062C0C03E82E5D80708F09CCFDC2FCC278E
:101B9000CC27DF71C06FD06AB3CFC55AD0E0C4552F
:101BA000DE4FC881D0E0D064ABCFD065A9CF8D2FF8
:101BB0000E940E0F182FCE0199270E946C0EC12F84
:101BC000D0E0DC2FCC27CC27DF71C82BD92B98CFC6
:101BD000CE0199270E946C0ECC27DF70C82BD92B21
:101BE000D06A8ECFCF71D0E0DC2FCC27C16FD06A06
:101BF00087CF2C2F26952695277080E2289F90016D
:101C000011248C2F8370C1E0D0E002C0CC0FDD1F07
:101C10008A95E2F7C22BD32BDC6872CF2C2F269546
:101C20002695277080E2289F900111248C2F8370C5
:101C3000C1E0D0E002C0CC0FDD1F8A95E2F7C22BD5
:101C4000D32BDA685DCF8C2F8F710E940E0FC82FB7
:101C5000D0E0DC2FCC27CC27DF71D06251CF8C2F86
:101C60008F710E940E0F55E0D695C7955A95E1F7F2
:101C7000CF70D0E0DC2FCC27282F30E084FF05C0C8
:101C800044E0220F331F4A95E1F7C22BD32BD069D2
:101C900037CF8D2F8F710E940E0F182FCE019927ED
:101CA0000E946C0EC12FD0E0DC2FCC27CC27DF7137
:101CB000C82BD92BD2CF462F7A3030F4693020F49C
:101CC000672F0E947E01089590E080E008950E94B1
:101CD0005B0E0E943D0D089582389105B9F1B0F474
:101CE0008133910509F47DC048F48932910509F4E6
:101CF0006DC08A32910509F47BC008958533910542
:101D000009F45FC08933910509F10895833E910577
:101D1000D9F138F4803E910529F1823E910579F19F
:101D20000895863E9105D9F1873E910509F43EC09C
:101D3000843E910541F52091D50221FF24C0809178
:101D4000D40284FD19C087EE90E008952091D4025A
:101D5000237009F05AC02091D50223FF14C089E2F4
:101D600090E008952091D40220FD38C03091D50232
:101D700030FF09C024FF43C090E080E00895209127
:101D8000D40222FDF7CF08952091D40222FD3AC05B
:101D90003091D50230FD39C024FFF5CFEDCF209131
:101DA000D40223FFF0CF24FDE7CFCDCF2091D40282
:101DB00023FD2EC03091D50231FFEECF84EE90E0AE
:101DC00008952091D40225FFDECFC9CF2091D402FF
:101DD00025FD21C02091D50223FFD5CF89E390E0D6
:101DE000D2CF2091D40226FFCECF8AE290E0089590
:101DF0002091D40226FFC7CF81E390E0089583EEBF
:101E000090E0089582EE90E0089580EE90E00895CD
:101E100086EE90E0089585E390E008959091D402D5
:101E200092FF10C041E0282F2471243009F040E0D7
:101E300031E0282F2871283009F030E0431711F0E5
:101E40002CE0822793FF10C041E0282F2471243119
:101E500009F040E031E0282F2871283109F030E006
:101E6000431711F02CE082273091D50230FF10C0CB
:101E700051E0282F2171213009F050E041E0282F56
:101E80002871283009F040E0541711F029E082272A
:101E900031FF10C041E0282F2171213109F040E0CD
:101EA00031E0282F2871283109F030E0431711F074
:101EB00029E0822794FD877E08951092D602109221
:101EC000D7021092D8021092D9020895CF92DF92D1
:101ED000EF92FF926B017C010E94911181110EC063
:101EE0000E948D1CC61AD70AE80AF90AC092D602C7
:101EF000D092D702E092D802F092D902FF90EF90F0
:101F0000DF90CF9008950F931F930E949111882323
:101F100029F00E948D1C1F910F9108950E948D1C25
:101F20000091D6021091D7022091D8023091D902A7
:101F3000600F711F821F931FEECF80E00895CF9333
:101F40009C01205E3245C1E02032310538F4FB01AE
:101F5000C581C11103C08F710E94EF018C2FCF91F9
:101F6000089508950E94B10F089508950E94B50F35
:101F70000895E82FF0E0EE0FFF1FE151FD4F808143
:101F800091810895089580EA8A95F1F7089500C037
:101F900008950E94C30F089508950E94CC0F0895DC
:101FA000AAE0B0E0E6EDFFE00C942E260E9491112D
:101FB000F82E60910303882309F446C05AE0E52E09
:101FC0008E010F5F1F4FF8018E2D11928A95E9F750
:101FD000862F90E0880F991FB80181519D4F0E9474
:101FE000B4118823C9F08091DA0290E0880F991F1C
:101FF0004AE050E0B80181519D4F0E94592621E0EE
:1020000020937D02892B91F4F12C0E94B60F8F2D25
:102010002A96E6E00C944A2680917D028823A1F35B
:10202000F8011192EA94E9F710927D02A091DA0288
:10203000B0E0AA0FBB1FA151BD4F8AE0F80101908B
:102040000D928A95E1F7E1CF70E0660F771F61513D
:102050007D4F8091DA0290E0880F991F81519D4F4A
:102060000E9481120E94CD0FD2CFF894E82FE29502
:10207000EF70F0E031A1282F2F7081E090E001C0D7
:10208000880F2A95EAF7982F9095932391A392A110
:10209000892B82A378940895CF93DF93C8EBD1E086
:1020A00089918F3F11F00E94351081E0CD3BD80718
:1020B000B9F7CFEAD1E089918F3F11F00E94351036
:1020C00081E0C83BD807B9F7DF91CF910895AF926F
:1020D000BF92DF92EF92FF920F931F93CF93DF9304
:1020E0008C01D62EC62FD0E0CE0188549E4F7C01A5
:1020F000FC0120812F3F09F44DC0F894E22FE295B6
:10210000EF70F0E031A12F7081E090E001C0880F06
:102110002A95EAF7932F982B91A392A18095892372
:1021200082A378940E94C70FEFEAF1E048EB51E0F8
:1021300021E030E0B12CA12C61916F3FA9F1A62FD5
:10214000A295AF70B0E090968C9190E06F7002C055
:10215000959587956A95E2F780FD26C0C901A82A62
:10216000B92A220F331F4E175F0731F7F70180811D
:102170008F3F11F00E94351061E0A114B10409F401
:1021800060E08D2D0E94C90FCC0FDD1FC00FD11F45
:10219000B982A882DF91CF911F910F91FF90EF90AC
:1021A000DF90BF90AF90089590E080E0D8CF80910D
:1021B00002018091020195E0811190E09093030368
:1021C00085E0891B8093DA020E944C1084E1EFEED7
:1021D000F2E0DF01982F1D929A95E9F7EBEDF2E01E
:1021E000DF011D928A95E9F785E00E943A110E946D
:1021F000B20F0895A4E1B0E0E0E0F1E10C942F26E5
:102200008E010F5F1F4F84E1F80111928A95E9F763
:10221000F12C6F2DC8010E946710F394F5E0FF12B6
:10222000F8CF44E150E0B8018BED92E00E945926CE
:1022300021E0009709F420E0892B41F084E1F801C6
:10224000ABEDB2E001900D928A95E1F76091030346
:1022500070E0660F771F61517D4F45E08BED92E096
:102260000E943B11182F0E94D00F812B6496E5E04D
:102270000C944B260895B0E0A0E0E1E4F1E10C9469
:102280002C266C017B01042FC22F222379F081E0E0
:10229000809380020E94811C90937F0280937E0233
:1022A00080E0CDB7DEB7E8E00C944826D0918002FC
:1022B000DD23B1F380917E0290917F020E94991CF0
:1022C000059770F310E0000F111FA801B601C701B8
:1022D0000E945926892B31F0A801B601C7010E943E
:1022E0006626CD2F109280028C2FDBCF52985A9801
:1022F0008FE891E00197F1F700C0000089B182FBFF
:10230000882780F90895CF930E94E725C82F81116F
:1023100002C00E94E2258C2FCF9108958091840203
:1023200008958091830208950E948311809383020F
:102330000E947611809384020E948E118093020184
:102340000E94911181110E94EA1108950E94911139
:10235000811102C00E94ED11089581E090918502E3
:102360009A3008F080E008950F931F93CF93DF9386
:10237000EC018B01809185028A30B8F4B801CE015E
:102380000E947E12C82F811122C0809185028F3F4A
:10239000B9F40E94811C90938202809381028C2F59
:1023A000DF91CF911F910F910895809181029091BB
:1023B00082020E94991C843F914000F7C0E0EFCF59
:1023C0008F5F809385028A3020F7C1E0E8CF1092BA
:1023D0008502E5CF0E94561D089582E30E94A81E43
:1023E00008950F931F9398E08902F0011124ED5F87
:1023F000FE4F26813781232BA1F080930803609143
:102400000401709105012091030130E0AB01485FA8
:102410005C4F04E610E082E30E94D01D1F910F91F3
:10242000089590E080E0FACFB0E0A0E0EAE1F2E1C8
:102430000C942526582E69015801C82F880FDD0BF2
:102440004115510559F4852D0E94F11197FF2CC0BB
:1024500080E0CDB7DEB7EFE00C944126CE0123E05B
:10246000880F991F2A95E1F7FC01ED5FFE4FE08090
:10247000F12C4E155F0508F47A018D5F9E4FFC012B
:1024800081809280C401885F9C4F3C01A7010E941B
:10249000662604E610E09701A301682D82E30E94FE
:1024A000D01D97FFD0CFD4CFA114B10429F183E080
:1024B000CC0FDD1F8A95E1F7FE01ED5FFE4FE38053
:1024C000F12CAE14BF0408F47501CD5FDE4F6C81B2
:1024D0007D81AB01485F5C4F04E610E0970182E329
:1024E0000E941A1E97FDB4CF6C817D81685F7C4F7E
:1024F000A701C6010E94662681E0ABCF0E9470133F
:1025000008950E9487130895A4E0B0E0EAE8F2E19C
:102510000C943026609198027091990280919A02F1
:1025200090919B020E94A81C11E064367105810500
:10253000910518F10E94830F6E5F7F4F8F4F9F4F61
:1025400069837A838B839C8310E000E030E020E095
:1025500044E050E0BE016F5F7F4F83E00E941412A1
:10256000182F882351F00E948D1C6093980270935D
:10257000990280939A0290939B02812F2496E4E023
:102580000C944C26B0E0A0E0E8ECF2E10C942A2692
:102590007C015B016A010E94AD1101E010E088231B
:1025A00011F00AE010E0C1E0D0E0B501C701F6018A
:1025B0000995811104C021960C171D072CF4CDB785
:1025C000DEB7EAE00C944626CC9F9001CD9F300DFB
:1025D000300D112490E080E045E34A95F1F70000CA
:1025E000019682179307C1F7E0CFABE0B0E0EBEFC5
:1025F000F2E10C942A267B01C090BD01D090BE016F
:1026000001E010E09E01255F3F4F50E040E070E0A8
:1026100060E081E00E941412182F882309F448C05A
:10262000560182E0A80EB11C60919402709195024F
:1026300080919602909197020E94A81C64367105C1
:102640008105910568F10AE010E09E012F5F3F4F80
:1026500050E040E070E060E082E00E941412D82E6A
:102660006AE070E0C5010E94171611E09B8598137F
:1026700010E01D2141F10E948D1C60939402709323
:10268000950280939602909397028AE0FE0131961C
:10269000AAE8B2E001900D928A95E1F711E013C02B
:1026A0006AE070E0C5010E9417169B858913CBCFA5
:1026B0008AE0F6013296DE01119601900D928A951C
:1026C000E1F71111E2CF8AE0EAE8F2E0D7010190E8
:1026D0000D928A95E1F7812F2B96EAE00C9446261D
:1026E0000F931F93CF93DF93EC018B0145EF52E1E2
:1026F0000E94C212882331F044E852E1B801CE01B1
:102700000E94C212DF91CF911F910F9108950F93F4
:102710001F93CF93DF93C091BD01D091BE01CE0135
:1027200002962AE0FB01DC0101900D922A95E1F767
:102730006AE070E00E94171689836C857D858E851E
:102740009F85009186021091870220918802309126
:102750008902601771078207930751F06093860220
:102760007093870280938802909389020E94660F7B
:10277000DF91CF911F910F9108950E94BF0C089592
:102780000E941A1C0E949E200E947A0C0E94B8206F
:102790000E94AA0C0E94C5200E94CA200E94BD135C
:1027A0000E94E4200E94880CF7CF9093C901809387
:1027B000C801089508950895ACE0B0E0E2EEF3E1B9
:1027C0000C9432264F83588769877A878B879C873A
:1027D00086E0FE013796DE01119601900D928A95F2
:1027E000E1F729813A814B815C816D817E8180E0B6
:1027F00090E02C96E2E00C944E26ACE0B0E0E3E0F2
:10280000F4E10C9432260E94DC1380E090E02C96D8
:10281000E2E00C944E2621E030E001C0220F4A9500
:10282000EAF7662311F0822B0895209582230895FC
:10283000E0912301F09124010190F081E02D0995B0
:102840000E94DA130E94DB130895CF936CE972E0C3
:1028500083EA92E00E94621BC82F882321F083EA5A
:1028600092E00E949F1A9091A40286E0E3EAF2E0CF
:10287000DF01282F1D922A95E9F79093A402ACE975
:10288000B2E001900D928A95E1F781E0C11103C099
:10289000911101C080E08170CF910895A2E1B0E074
:1028A000E4E5F4E10C943226E0912301F091240157
:1028B0000280F381E02D4091A3025091A402609127
:1028C000A5027091A6028091A7029091A802099595
:1028D0002093A3023093A4024093A5025093A60232
:1028E0006093A7027093A80286E0E3EAF2E0DE01BB
:1028F0001D9601900D928A95E1F786E0FE013D96C6
:10290000DE01119601900D928A95E1F786E0FE01B5
:102910003196DE01179601900D928A95E1F786E0D7
:10292000FE013796A3EAB2E001900D928A95E1F795
:102930004091A3025091A4026091A5027091A60259
:102940008091A7029091A8020E94FD132093A302F8
:102950003093A4024093A5025093A6026093A7026D
:102960007093A8020E94B6188091A402832B8093D2
:10297000A4020E942514811109C08091A202109224
:10298000A20281706296E2E00C944E2681E090E013
:10299000F6CF9C01215D31092830310550F44FE21A
:1029A000480F8091A4020E940B148093A4020E94FD
:1029B0002514089580912501909126012DE7AC0101
:1029C000249FC001259F900D112408959C01893FEB
:1029D000910538F481E090E09093260180932501E1
:1029E0000895EDE7F0E0BF010E94F425A901481B1E
:1029F000590BCA01BF010E94F42570932601609310
:102A000025010895A4E0B0E0E8E0F5E10C9430265B
:102A100089836A834B832C8304E610E024E030E052
:102A2000AE014F5F5F4F60E084E10E94D01D2496AD
:102A3000E4E00C944C260E94561D20E040E060E04B
:102A400080E00E94021508950F931F9304E610E0A2
:102A500025E030E0AC0164E084E10E941A1E1F9181
:102A60000F910895681708F5861B682F21E0469F8F
:102A7000A0011124649FF001659FF00D1124409185
:102A8000250150912601E49FC001E59F900DF49F20
:102A9000900D1124880F892F881F990B919522235F
:102AA00019F09195819591090895681B20E0DFCF79
:102AB000FC01208131812038310534F02F57310954
:102AC000318320838FE7089520388FEF380734F45F
:102AD00021583F4F3183208380E80895822F11824F
:102AE00010820895A1E1B0E0E8E7F5E10C942F260B
:102AF0004C87888B998B152FF62E072FCE010796C2
:102B000025E0FC0111922A95E9F72091AF022A30C5
:102B100008F03FC00E942415892B09F060C0109274
:102B2000AF028B8540E087FD52C060E0812F0E949C
:102B30000B14182F8091AD029091AE02009709F00E
:102B400040C045E06F8188850E9432152091AB021C
:102B50003091AC02820F931F9093AC028093AB0232
:102B600045E069858A850E9432152091A90230913D
:102B7000AA02820F931F9093AA028093A9028BEA64
:102B800092E00E945815F82E89EA92E00E945815AA
:102B9000082F1D87FE860F8786E0FE013C96DE012A
:102BA000119601900D928A95E1F729813A814B8126
:102BB0005C816D817E8180E090E06196E5E00C941F
:102BC0004B2601979093AE028093AD02E2CF61E075
:102BD000812F0E940B14182F84E190E0F3CF809195
:102BE000AF028F5F8093AF02D4CF0E94760B08951F
:102BF00080E00E94B90F817008950E94FA102FEFB3
:102C000086E791E0215080409040E1F700C000004D
:102C10000E94FA100E94F815882321F00E94F515F1
:102C20000E94E81C08950E94FD1508950895FC0176
:102C3000680F791F8FEF91E36E177F0709F40895EE
:102C40002191822728E030E087FF06C0880F89277E
:102C500021503109C9F7F0CF880FFACFCF93DF9316
:102C6000EB0186319C4711F50E94840A9D819923CE
:102C700099F08A7A91E009F490E09093B002811182
:102C800009C089E20E94471B0E94130B80E0DF917C
:102C9000CF91089585E3F6CF8091B002811104C0F1
:102CA00089E20E944F1BF0CF85E3FBCF81E0EFCF9D
:102CB000CF93DF93EC01FB018581882309F4D2C017
:102CC0009E0130572332310508F0B2C00E94990BA3
:102CD0009093D5028093D402FE01E150F047E23296
:102CE000F10520F4E153F94D0C941C268091D40297
:102CF00081608093D40293C08091D50288608093D4
:102D0000D5028DC08091D4028260F3CF8091D4022D
:102D10008460EFCF8091D4028860EBCF8091D502A0
:102D20008160EDCF8091D5028260E9CF8091D4029D
:102D30008061DFCF8091D4028062DBCF8091D402AA
:102D40008064D7CF0E9408068091D4028068D1CFDA
:102D50008091D4028C60CDCF8091D5028360CFCF9B
:102D60008091D4028E7FC5CF8091D502877FC7CF57
:102D70008091D4028D7FBDCF8091D4028B7FB9CF5B
:102D80008091D402877FB5CF8091D5028E7FB7CF57
:102D90008091D5028D7FB3CF8091D4028F7EA9CF51
:102DA0008091D4028F7DA5CF8091D4028F7BA1CF5B
:102DB0000E9408068091D4028F779BCF8091D40225
:102DC000837F97CF8091D5028C7F99CF8091D40259
:102DD00082FB992790F921E0922790FB82F990FBE2
:102DE00083F987CF8091D502982F909591708E7F2F
:102DF000892B90FB81F983CF9091D402892F8F7B0F
:102E000096FF806476CF0E9408069091D402892FA5
:102E100097FB87F980586DCF81E00E941F0C80914D
:102E2000D4029091D5020E949E0B0E94080680E079
:102E3000DF91CF91089580E0F0CF9091D402892F57
:102E40008F7E94FF806155CF9091D402892F8E7F21
:102E500090FF81604ECF9091D502892F877F93FF9D
:102E600088604DCF81E0E4CF282F35EB2303C001EC
:102E7000112497FF04C080589109892F0895805824
:102E80009F4FFBCF8091B70280FF0DC060912C0156
:102E900070E0660F771F6038710570F56115710578
:102EA00069F1862F089581FF07C060912C0184E0AD
:102EB000689FB0011124EFCF60912C0182FD0AC000
:102EC0008091B6028823A9F020912B0160912C01FA
:102ED000821710F088E0ECCF869FC001112433E008
:102EE000880F991F3A95E1F7622F70E00E9408263B
:102EF000D2CF68E070E0D5CF8FE7089581E00895E4
:102F00008091B70280FF0CC06091280170E0759538
:102F10006795759567956115710549F1862F089537
:102F200081FF06C06091280170E075956795F3CF29
:102F30006091280182FD0BC09091B5029923A1F008
:102F40006091270180912801961738F0682F70E072
:102F50006038710500F38FE70895899FC00111243F
:102F600070E00E940826F4CF61E070E0D7CF81E0E6
:102F700008958D3C31F40E94421781958093BB02E5
:102F800008958E3C19F40E944217F8CF8F3C31F41B
:102F90000E94421781958093BA020895803D19F4EA
:102FA0000E944217F8CF893D29F40E948017809330
:102FB000BC0208958A3D21F40E9480178195F7CFC5
:102FC0008B3D31F40E94801781958093BD02089556
:102FD0008C3D19F40E948017F8CF9FE2980F98302B
:102FE00070F4815D990B21E030E001C0220F8A95D9
:102FF000EAF78091B902822B8093B90208958D3D42
:1030000031F48091B70281608093B70208958E3DBC
:1030100021F48091B7028260F7CF8F3DB9F780919C
:10302000B7028460F1CF4091BA028D3C59F480918F
:10303000BB0287FF0DC01092BB0241110BC0109262
:10304000B60208C08E3C81F48091BB0218169CF336
:10305000442381F08091BC029091BD02892B09F03C
:103060005AC01092B50208958F3C49F447FFF0CF43
:103070001092BA028091BB028111ECCFE0CF803D6B
:1030800019F41416ACF3E4CF9091BC02893D29F4F5
:103090001916F4F61092BC02DBCF8A3D19F497FFA3
:1030A000D7CFF8CF9091BD028B3D29F497FFD0CFB9
:1030B0001092BD02CDCF8C3D19F41916CCF3C8CFB8
:1030C0009FE2980F983090F4815D990B21E030E0F9
:1030D000B90102C0660F771F8A95E2F7CB01809590
:1030E0009091B90289238093B902B2CF8D3D31F41A
:1030F0008091B7028E7F8093B702AACF8E3D21F4D4
:103100008091B7028D7FF7CF8F3D09F0A1CF8091DD
:10311000B7028B7FF0CF08950E94811C9C01909193
:10312000BA028091BB02982B21F03093B402209315
:10313000B3029091BC028091BD02982B21F0309394
:10314000B2022093B10288EB92E00E949F1A089588
:1031500086E0E8EBF2E0DF011D928A95E9F7109234
:10316000B6021092B5021092B7020895A6E0B0E040
:10317000ECEBF8E10C94322686E0E8EBF2E0DE01BD
:10318000119601900D928A95E1F729813A814B8140
:103190005C816D817E8180E090E02696E2E00C9477
:1031A0004E26FC01828181110EC0838181110BC0EA
:1031B0008481811108C091E08581811101C090E076
:1031C000892F8170089581E0FCCFA6E0B0E0EBEE9E
:1031D000F8E10C94312686E0E8EBF2E0DE0111968E
:1031E00001900D928A95E1F71092BA021092BB02FB
:1031F0001092BC021092BD028B819C81892B89F0B8
:103200008091B3029091B4020E94991CAC019091FC
:10321000B6029923C9F180912D018417150608F48F
:1032200040C08D819E81892B91F08091B102909157
:10323000B2020E94991CAC019091B502992309F445
:103240006AC0809129018417150608F472C0BE0176
:103250006F5F7F4F88EB92E00E94621B811105C077
:1032600088EB92E00E94D11881110E948C1886E0B0
:10327000FE013196A8EBB2E001900D928A95E1F73C
:103280002696E3E00C944D2620912E018AE0289F9B
:10329000900111242417350720F69F5F9093B60202
:1032A00002C09F3FD1F71B81112359F00E944217A2
:1032B0009FEF11160CF491E0899F802D11248093CB
:1032C000BA021C81112359F00E9442179FEF111678
:1032D0000CF491E0899F802D11248093BB02809192
:1032E000BA02882309F49DCF1091BB02112309F47F
:1032F00098CF0E943417882351F08093BA02812F0F
:103300000E943417882329F08093BB028ACF81E082
:10331000F4CF81E0F9CF20912A018AE0289F900123
:1033200011242417350708F092CF9F5F9093B502C0
:1033300002C09F3FD1F71D81112359F00E948017D1
:103340009FEF11160CF491E0899F802D112480933A
:10335000BC021E81112359F00E9480179FEF1116A5
:103360000CF491E0899F802D11248093BD028091FF
:10337000BC02882309F46BCF1091BD02112309F41C
:1033800066CF0E943417882351F08093BC02812FAE
:103390000E943417882329F08093BD0258CF81E022
:1033A000F4CF81E0F9CF0F931F93CF93DF93C42F16
:1033B000D22FFC0185818823C9F04093C0020E946E
:1033C000811C9093BF028093BE0280E28C0F8830F4
:1033D00040F4C77081E001C0880FCA95EAF70E94E7
:1033E000B503DF91CF911F910F9108951091C00205
:1033F000141332C08091BE029091BF020E94991CAA
:10340000883C910548F5C0E2CD0F1D17B9F080E268
:10341000810F883040F4177081E001C0880F1A9541
:10342000EAF70E94BC03C83048F481E09D2F9770F2
:1034300001C0880F9A95EAF70E94B503802F0E9479
:10344000AC03C83070F6D77081E001C0880FDA9500
:10345000EAF70E94BC03C5CF80E28C0F883008F6E3
:10346000C77081E001C0880FCA95EAF7F2CF0F93C9
:10347000DB0188519C4787309105A0F5FC01EF5096
:10348000F94D0C941C2606E221EE41EE6AE17CE740
:10349000CD010E94D31980E00F91089507E225EE37
:1034A00045EE6BE17CE7F4CF06E221EE40EE68E109
:1034B0007CE7EECF07E225EE44EE69E17CE7E8CF5A
:1034C00006E221EE42EE6CE17CE7E2CF07E225EE78
:1034D00046EE6DE17CE7DCCF08E221E045EE6EE1EF
:1034E0007CE7D6CF15968C91882319F01092C002F4
:1034F000D3CF81E0D1CF9093C7028093C6020895C5
:103500000E949111811103C08091C1020895E09140
:10351000C602F091C702309729F00190F081E02DAA
:103520000995089580E00895E091C602F091C702E0
:10353000309721F00280F381E02D09950895E09104
:10354000C602F091C702309739F022E0DC012C93DB
:103550000680F781E02D09950895A3E0B0E0E3EB44
:10356000FAE10C9432262091C4023091C50228174A
:103570003907A1F09093C5028093C402E091C6027E
:10358000F091C702309751F023E029839B838A830F
:103590000084F185E02DCE01019609952396E2E0A5
:1035A0000C944E26A3E0B0E0E8EDFAE10C9432264C
:1035B0002091C2023091C30228173907A1F09093DD
:1035C000C3028093C202E091C602F091C702309715
:1035D00051F024E029839B838A830084F185E02DC8
:1035E000CE01019609952396E2E00C944E26409177
:1035F0000001509101019A012E5F3F4F485F5F4FDC
:1036000080E02417350709F40895F90191919F018D
:103610009923B9F38F5FF5CF882371F020910001D2
:1036200030910101F9013296285F3F4F919198172F
:1036300029F0E217F307D1F780E0089581E00895BB
:103640009C01FC0132969FEF80E04191461751F0BA
:103650009F3F19F4411101C0982F8F5F8630A9F761
:103660009F3F09F40895290F311D97FD3A95F901FF
:1036700062830895FC01329608962191261303C0B7
:10368000DF0111971C92E817F907B9F70895682F21
:1036900080910001909101010E94201B0895682FE4
:1036A00080910001909101010E943A1B0895E091E0
:1036B0000001F0910101329686E0DF011D928A95AA
:1036C000E9F70895DC01FB0111969C911197818126
:1036D000981322C012968C911297882319F0928128
:1036E00089131AC013968C911397882319F093812C
:1036F000891312C015968C911597882319F095811E
:1037000089130AC014969C91992321F081E02481A9
:10371000291303C080E001C081E0817008950895FD
:103720000E948F1B089581110EC081E080933201A9
:1037300060912F017091300180913101909132019F
:103740000E94901B089582E0F1CF83E080933201C4
:1037500060912F017091300180913101909132017F
:103760000E94901B08950E94931B089581E080930E
:10377000320160912F01709130018091310190915F
:1037800032010E94901B08950E94B61B089591E09B
:10379000811101C090E09093310160912F017091EF
:1037A000300180913101909132010E94901B089567
:1037B0008091310108958093300160912F017091C3
:1037C000300180913101909132010E94901B089547
:1037D00080913001089580932F0160912F017091A5
:1037E000300180913101909132010E94901B089527
:1037F00080912F010895089508950E94FC1B08955B
:10380000089508950E94FB1B0895CF930E94001C09
:103810000E94FA100E94011CC0E08C2F0E94B90F78
:10382000892B31F4CF5FCA30C1F780E0CF91089582
:1038300081E0FCCF85B7806885BF85B7806885BF8C
:1038400008951F921FB61F9211248F939F93AF93D9
:10385000BF938091C802811113C08091040390919D
:103860000503A0910603B09107034196A11DB11D68
:103870008093040390930503A0930603B09307037A
:10388000BF91AF919F918F911F901FBE1F90189570
:1038900080911C03843031F10E947F021092C80293
:1038A00088E190E020E40FB6F894A895809360003A
:1038B0000FBE2093600083B7817F846083BF83B78E
:1038C000816083BF7894889583B78E7F83BF0FB65E
:1038D000F894A895809160008861809360001092B0
:1038E00060000FBE08950E9408060E948602089597
:1038F00082E084BD93E095BD9AEF97BD80936E0002
:1039000008952FB7F8948091040390910503A09136
:103910000603B09107032FBF08952FB7F894609165
:1039200004037091050380910603909107032FBF54
:1039300008959C014FB7F89480910403909105037A
:10394000A0910603B09107034FBF821B930B08950C
:10395000CF92DF92EF92FF922FB7F894C0900403BA
:10396000D0900503E0900603F09007032FBFA70156
:103970009601261B370B480B590BCA01B901FF9062
:10398000EF90DF90CF90089578941F921FB61F920A
:1039900011248F939F93AF93BF93809104039091D1
:1039A0000503A0910603B09107030196A11DB11D67
:1039B0008093040390930503A0930603B093070339
:1039C000BF91AF919F918F911F901FBE1F9018952F
:1039D00087E797E7909301088093000888E19AE0D1
:1039E0000FB6F894A895809360000FBE9093600086
:1039F000FFCF88E19AE00FB6F894A8958093600015
:103A00000FBE90936000FFCFEF92FF920F931F9332
:103A1000CF93DF93182FEB011092BC0084EA8093C0
:103A2000BC000E94811C7C018091BC0087FF27C0E4
:103A30008091B900887F883029F08091B900887F13
:103A4000803189F51093BB0084E88093BC000E940C
:103A5000811C8C018091BC0087FF1EC02091B900A1
:103A6000287F90E080E0283191F081E090E02034E0
:103A700011F490E080E091958195910908C0C7010B
:103A80000E94991CC817D90778F68EEF9FEFCDB723
:103A9000DEB7E6E00C944A26C8010E94991CC817BC
:103AA000D907C0F6F2CF8FEF9FEFF1CF1092B90098
:103AB00088E48093B80008950F931F93CF93DF930A
:103AC000EB018093BB0084E88093BC000E94811CC2
:103AD0008C018091BC0087FF11C02091B900287F24
:103AE00081E090E0283211F490E080E0919581959A
:103AF0009109DF91CF911F910F910895CF3FDC077E
:103B000041F3C8010E94991CC817D90710F78EEF1E
:103B10009FEFEFCF0F931F93CF93DF93EC0184ECD4
:103B20008093BC000E94811C8C018091BC0087FFA7
:103B300008C08091BB0090E0DF91CF911F910F9161
:103B40000895CF3FDC0789F3C8010E94991CC8176C
:103B5000D90758F78EEF9FEFEFCF0F931F93CF93B7
:103B6000DF93EC0184E88093BC000E94811C8C01EF
:103B70008091BC0087FF08C08091BB0090E0DF917E
:103B8000CF911F910F910895CF3FDC0789F3C801B2
:103B90000E94991CC817D90758F78EEF9FEFEFCFF7
:103BA000B0E0A0E0E6EDFDE10C942626682E762E2E
:103BB0005A0169010E94811C4C01C1E0D0E004312E
:103BC000110558F0C5E0D0E00F3F100731F0C801F3
:103BD00064E170E00E94F425EB01BE01862D0E9495
:103BE000041D7C0197FF1DC00F3F1007B1F3C401F6
:103BF0000E94991C0817190780F784E98093BC007C
:103C0000C701CDB7DEB7EEE00C944226B80189912A
:103C10000E945C1D7C01CC16DD0679F3F7FEF6CF21
:103C2000ECCFB801872D0E945C1D7C01E501CA0C18
:103C3000DB1CF1CFB0E0A0E0E0E2FEE10C94262630
:103C4000782E662E6A01E9010E94811C5C01EE2437
:103C5000E394F12C0431110560F025E0E22EF12C03
:103C60000F3F100731F0C80164E170E00E94F425B5
:103C70007B01B701872D0E94041D4C0197FF23C0D3
:103C80000F3F1007B1F3C5010E94991C08171907CF
:103C900080F784E98093BC00C4011816190614F457
:103CA00090E080E0CDB7DEB7EEE00C94422697FCC2
:103CB000F0CFC8010E94AD1D4C0197FDEACFCC0D9D
:103CC000DD1D8883E6CFB801862D0E945C1D4C0166
:103CD00097FDDFCF689470F80E94811C5C01EE2490
:103CE000E394F12C0431110560F085E0E82EF12C0D
:103CF0000F3F100731F0C80164E170E00E94F42525
:103D00007B01B701872D0E94041D4C0197FF09C05C
:103D10000F3F1007B1F3C5010E94991C081719073E
:103D200080F7F12CE12C2197EC16FD0608F0BFCFAF
:103D300097FCAFCFC8010E948A1D4C0197FD04C0BB
:103D4000F601EE0DFF1D80838FEFE81AF80AECCF25
:103D50008093BA0085EC8093BC0008951F920F9267
:103D60000FB60F9211242F933F934F935F936F934E
:103D70007F938F939F93AF93BF93CF93DF93EF93F3
:103D8000FF938091B900887F8038F9F038F4882358
:103D900009F48EC08036A1F081E035C0883A11F078
:103DA000883BD1F7E091CA02F0E0E85FFC4F8081E8
:103DB0008093BB008091CA028F5F8093CA02ECCFD0
:103DC0001092C9021092CB02E7CF8091C9028111F3
:103DD00039C08091BB008093CA028091CA028031B1
:103DE00078F11092CA0280E091E09093C90240916C
:103DF000CA0220910401309105014217130609F00F
:103E000090E09093CB029091BC008295880F880F30
:103E1000807C892B85688093BC00FF91EF91DF91B6
:103E2000CF91BF91AF919F918F917F916F915F9152
:103E30004F913F912F910F900FBE0F901F901895AB
:103E400081E0D2CFE091CA02F0E08091BB00E85F50
:103E5000FC4F80838091CA028F5F8093CA02809159
:103E6000CB02882309F498CFC091BD01D091BE0147
:103E7000A88188E0A802D0011124AD5FBE4F16963C
:103E8000ED91FC911797309709F486CF14962D91F8
:103E90003C9115972C0F3D1F11966D917C911297B7
:103EA0006C0F7D1F13964C9113978C91099574CFCD
:103EB0001092BC0071CF08959B01BA0190911C0330
:103EC0009430E9F48F708093E9009FEF8091E800CF
:103ED000915085FD06C085ED8A95F1F7000091119E
:103EE000F5CF8091E80085FF0AC050E040E0C901AD
:103EF0000E945B218091E8008E778093E80008950E
:103F000043E050E0BC0182E00E945C1F089546E05F
:103F100050E0BC0182E00E945C1F0895CF93DF93C4
:103F2000EC010E94D81B48E050E0BE0181E00E94F5
:103F30005C1F88E0FE01ACECB2E001900D928A9526
:103F4000E1F7DF91CF91089580911B03811109C0A2
:103F50000E94EB220E9448238091E20084608093BB
:103F6000E200089510921B0308950E94B61B81E0A1
:103F70000E94C71B08956091180381E0611101C080
:103F800080E00E94A51B089590911C0381E094306D
:103F900009F080E0609118030E94B31B089542E08D
:103FA00061EC81E00E94672242E261EC82E00E94C3
:103FB000672290911C0381E0943009F080E06091C9
:103FC00018030E94931B089580911E03833009F407
:103FD00061C030F48130D1F1823009F49EC008957F
:103FE0008A3009F48AC08B3009F46FC0893009F037
:103FF00050C080911D03813209F04BC08091210394
:1040000090912203029708F044C08091E800877FD6
:104010008093E8008091E80082FF37C09091F30020
:104020008091F200029731F48091F100813011F01B
:10403000863021F48091F1000E94DB1B8091E80022
:104040008B778093E8000E949B2223C080911D0300
:10405000813AF9F48091E800877F8093E8008091AD
:10406000210390912203892B61F468E08CEC92E0AB
:1040700070E00E94AA218091E8008B778093E8008D
:10408000089560E090E080E0F3CF80911C038111FF
:10409000C1CF089580911D03813AD9F78091210302
:1040A00090912203892BA9F78091E800877F809364
:1040B000E8008091E80080FFFCCF0E94D81B80932D
:1040C000F1008091E8008E77BCCF80911D03813292
:1040D00001F78091210390912203892BD1F68091E1
:1040E000E800877F8093E8000E949B2280911F0355
:1040F0000E94C71B0E940806089580911D0381320B
:1041000041F68091E800877F8093E8000E949B221F
:10411000809120030E94EB1B089580911D03813A3A
:1041200009F0B7CF8091E800877F8093E800809105
:10413000E80080FFFCCF0E94F81BC1CF84B7877FC7
:1041400084BF0FB6F894A895809160008861809331
:104150006000109260000FBE80E890E00FB6F89407
:1041600080936100909361000FBE0E94C41B08956C
:104170000E94EB220E944823E2EEF0E080818460FE
:10418000808378940E94C725089583E391E00E947C
:104190007B1A089580911C03853031F480911C03B3
:1041A000853019F00E94731C08950E94481C0E94DB
:1041B000051C882399F380911A03882379F30E94C0
:1041C00045210E940806EACF08959A0140912303F1
:1041D000509124030E94ED200895492F5527433024
:1041E000510519F168F44130510509F444C04230D9
:1041F000510509F445C090E080E050E040E025C062
:104200004132510549F142325105A9F784E490E069
:104210004CE452E061157105C1F08BE790E041ED8F
:1042200051E06130710589F0E6CF99278130910521
:1042300081F0009729F00297F1F6E0E6F1E002C084
:10424000E0E8F1E0849190E0AF01F901518340830F
:104250000895EEE6F1E0F6CF89E090E046E951E01E
:104260006115710591F389E090E04FEA51E061300A
:10427000710559F3C0CF82E190E04FEB51E0E5CFFB
:104280008BE390E044E851E0E0CF80E189BD82E13A
:1042900089BD09B400FEFDCF8091D8008F7D809349
:1042A000D8008091E00082608093E0008091E0007F
:1042B00081FDFCCF0895AF92BF92CF92DF92FF9223
:1042C0000F931F93CF93DF936C01EB018A010E9440
:1042D000BA22F82E811123C00115110539F0F80119
:1042E00080819181C81BD90BC80ED91EB12CA12C7D
:1042F0002097A9F08091E80085FD22C08091E80018
:104300008E778093E80001151105A1F0F8018081F6
:104310009181A80EB91EB182A08285E0F82E8F2D62
:10432000DF91CF911F910F91FF90DF90CF90BF90C1
:10433000AF9008950E94BA228823D1F2F82EEFCFD1
:10434000F60181916F018093F1002197FFEFAF1A81
:10435000BF0ACECFFC0180912303909124038617DE
:104360009707A0F06115710529F49091E8009E77F8
:104370009093E80090E06115710551F4911108C027
:104380008091E80082FF34C080E00895BC01F2CF44
:1043900080911C038823C1F18530C1F18091E80030
:1043A00083FD30C08091E80082FDEACF8091E80073
:1043B00080FFE1CF8091F3002091F200382F61154A
:1043C000710519F02830310558F091E02830310599
:1043D00009F090E02091E8002E772093E800CBCF01
:1043E00081918093F100615071092F5F3F4FE7CFBA
:1043F00080911C03882341F0853041F08091E800D2
:1044000083FFBECF81E0089582E0089583E00895A0
:10441000FC01809123039091240386179707A0F055
:104420006115710529F48091E8008E778093E8008A
:1044300090E06115710551F4911108C08091E80078
:1044400082FF35C080E00895BC01F2CF80911C034B
:104450008823C9F18530C9F18091E80083FD31C01E
:104460008091E80082FDEACF8091E80080FFE1CFF3
:104470008091F3002091F200382F6115710519F039
:104480002830310558F091E02830310509F090E0EE
:104490008091E8008E778093E800CBCF8491809361
:1044A000F1003196615071092F5F3F4FE6CF809147
:1044B0001C03882341F0853041F08091E80083FFA0
:1044C000BDCF81E0089582E0089583E00895982F9C
:1044D000973028F08F708093E90081E008959093E1
:1044E000E900242F762F50E0981731F07091EC00FE
:1044F0002091ED005091F00021FD02C09F5FE8CFB8
:104500003091EB003E7F3093EB003091ED003D7F2A
:104510003093ED003091EB0031603093EB007093FD
:10452000EC002093ED005093F0002091EE0027FD69
:10453000E5CF80E0089580911D0387FF13C080912F
:10454000E80082FF06C08091E8008B778093E80046
:1045500004C080911C038111F2CF089580911C0347
:104560008823D9F38091E80080FFF8CF8091E8009C
:104570008E77ECCF2091E4003091E50095E6A9011B
:104580002091EC00822F817020FF06C08091E8000E
:1045900080FF06C080E008952091E80022FD1AC047
:1045A00080911C03882389F0853089F08091EB008D
:1045B00085FD0FC02091E4003091E50042175307BC
:1045C000F9F29150E1F684E0089582E0089583E0E5
:1045D000089581E008950E945A230E946223E0EE2C
:1045E000F0E0808181608083E8EDF0E080818F776A
:1045F000808319BCA7EDB0E08C918E7F8C93808175
:104600008F7E808310921B0308950F931F93CF9387
:10461000DF930E945A230E946223C8EDD0E0888174
:104620008F77888388818068888388818F7D88835D
:1046300019BC10921C031092180310921A031092C6
:10464000190300EE10E0F80180818B7F8083888160
:104650008160888342E060E080E00E946722E1EEB2
:10466000F0E080818E7F8083E2EEF0E080818160E7
:104670008083808188608083F80180818E7F808341
:10468000888180618883DF91CF911F910F91089578
:10469000E8EDF0E080818F7E8083E7EDF0E08081BF
:1046A0008160808384E082BF81E080931B030E944D
:1046B00005230895E8EDF0E080818E7F80831092DD
:1046C000E20008951092DA001092E10008951F921E
:1046D0000F920FB60F9211242F933F934F935F9336
:1046E0006F937F938F939F93AF93BF93EF93FF93BA
:1046F0008091E10082FF0BC08091E20082FF07C041
:104700008091E1008B7F8093E1000E94C62580911B
:10471000DA0080FF19C08091D80080FF15C0809119
:10472000DA008E7F8093DA008091D90080FF96C0F6
:1047300080E189BD82E189BD09B400FEFDCF81E041
:1047400080931C030E94A41F8091E10080FF19C088
:104750008091E20080FF15C08091E2008E7F8093FF
:10476000E2008091E20080618093E2008091D800B5
:1047700080628093D80019BC85E080931C030E945E
:10478000BB1F8091E10084FF2BC08091E20084FF79
:1047900027C080E189BD82E189BD89B5982F9170DC
:1047A00080FFFBCF8091D8008F7D8093D8008091CF
:1047B000E1008F7E8093E1008091E2008F7E809304
:1047C000E2008091E20081608093E2008091180312
:1047D000882309F449C084E080931C030E94C41F0D
:1047E0008091E10083FF29C08091E20083FF25C012
:1047F0008091E100877F8093E10082E080931C0339
:10480000109218038091E1008E7F8093E1008091E7
:10481000E2008E7F8093E2008091E20080618093CD
:10482000E20042E060E080E00E9467228091F000B8
:1048300088608093F0000E94B51FFF91EF91BF91B7
:10484000AF919F918F917F916F915F914F913F9128
:104850002F910F900FBE0F901F90189519BC1092BA
:104860001C030E94B21F70CF8091E30087FD93E08C
:1048700090931C03B3CF1F920F920FB60F92112487
:104880002F933F934F935F936F937F938F939F9358
:10489000AF93BF93CF93DF93EF93FF93D091E90052
:1048A000DF708091EC00C82FC17080FDC0E81092CD
:1048B000E9008091F000877F8093F00078940E9457
:1048C0007F241092E9008091F00088608093F000CE
:1048D000CD2BCF70C093E900FF91EF91DF91CF9185
:1048E000BF91AF919F918F917F916F915F914F9108
:1048F0003F912F910F900FBE0F901F901895AAE235
:10490000B0E0E5E8F4E20C9431268DE193E02091EB
:10491000F100FC012193CF01F3E085329F07B9F745
:104920000E94E41F8091E80083FF1EC180911D0357
:1049300090911E039A3008F017C1E92FF0E0E8507B
:10494000F94D0C941C26803899F0823809F00CC17E
:10495000809121038F70873008F006C18093E900B1
:104960008091EB0085FB882780F91092E90006C052
:104970008091190390911A03911182609091E8003F
:10498000977F9093E8008093F1001092F10080915E
:10499000E8008E77E5C0882309F4D3C0823009F09F
:1049A000E3C080911F038111D6C0809121038F70D5
:1049B0002FEF280F263008F0D7C08093E900209110
:1049C000EB0020FFC8C0933031F48091EB0080628F
:1049D0008093EB00C0C09091EB0090619093EB004E
:1049E00021E030E001C0220F8A95EAF72093EA0027
:1049F0001092EA008091EB008860EACF8111B4C088
:104A000010911F031F778091E3008078812B8093A2
:104A1000E3008091E800877F8093E8000E949B225A
:104A20008091E80080FFFCCF8091E3008068809354
:104A3000E30082E0111183E080931C0395C080584D
:104A4000823008F091C080911F03909120038C3D2B
:104A500023E09207A1F583E08A838AE289834FB736
:104A6000F894DE01139620E03EE051E2E32FF0E0FF
:104A700050935700E49120FF03C0E295EF703F5F31
:104A8000EF708E2F90E0EA30C0F0C7968D939D9323
:104A90002F5F243159F74FBF8091E800877F8093C3
:104AA000E8006AE270E0CE0101960E94AA2180919E
:104AB000E8008B778093E80057C0C096E7CF6091FD
:104AC000210370912203AE014F5F5F4F0E94E520EA
:104AD000BC01892B09F448C09091E800977F90931E
:104AE000E80089819A810E940822E1CF8038E1F5AF
:104AF0008091E800877F8093E8008091180380937D
:104B0000F10045CF811130C090911F03923060F5C4
:104B10008091E800877F8093E800909318030E94BB
:104B20009B2280911803882311F084E005C08091B6
:104B3000E30087FDFACF81E080931C030E94CF1F22
:104B400013C080911F03813079F481E0933009F024
:104B500080E080931A031092E9008091E800877F3B
:104B60008093E8000E949B228091E80083FF0AC0A6
:104B70008091E800877F8093E8008091EB0080625D
:104B80008093EB00AA96E3E00C944D260895CF9312
:104B900080911C038823A1F0C091E900CF7090910F
:104BA000EC00892F817090FD80E8C82B1092E900FD
:104BB0008091E80083FD0E947F24CF70C093E900BC
:104BC000CF9108950E94EB2210921C030895E8ED06
:104BD000F0E08081806180838AE18A95F1F700C0EE
:104BE0008091D90081700895AA1BBB1B51E107C0B9
:104BF000AA1FBB1FA617B70710F0A61BB70B881F6D
:104C0000991F5A95A9F780959095BC01CD010895FB
:104C100097FB072E16F4009407D077FD09D00E9469
:104C2000F42507FC05D03EF4909581959F4F08959B
:104C3000709561957F4F0895EE0FFF1F0590F491D9
:104C4000E02D09942F923F924F925F926F927F9244
:104C50008F929F92AF92BF92CF92DF92EF92FF928C
:104C60000F931F93CF93DF93CDB7DEB7CA1BDB0B38
:104C70000FB6F894DEBF0FBECDBF09942A883988DD
:104C800048885F846E847D848C849B84AA84B984E4
:104C9000C884DF80EE80FD800C811B81AA81B981F0
:104CA000CE0FD11D0FB6F894DEBF0FBECDBFED0104
:104CB0000895FB01DC0104C08D910190801921F45D
:104CC00041505040C8F7881B990B0895FB01DC0147
:104CD00002C001900D9241505040D8F70895F999C3
:104CE000FECF92BD81BDF89A992780B50895A8E1BD
:104CF000B0E042E050E00C94B326DC01A40FB51FF5
:104D00004150504048F0CB01840F951F2E910E94D6
:104D10008E2641505040D0F70895262FF999FECFA6
:104D200092BD81BDF89A019700B4021639F01FBAFE
:104D300020BD0FB6F894FA9AF99A0FBE089503961B
:104D4000272F0E948E260E948D26252F0E948E26B8
:104D5000242F0C948E260196272F0E948E260C94C9
:104D60008D26DC01CB01FC01F999FECF06C0F2BD16
:104D7000E1BDF89A319600B40D9241505040B8F719
:104D80000895F894FFCF0404040454045404B904AF
:104D9000D50433043304DA044B055A055A05B0161A
:104DA0002417B81682168616BC168A16C016CC169C
:104DB00096161D179A16D0169E16D416FC16A21615
:104DC000D8160317A816DE16E6168E16C416921607
:104DD000C816AC16E216F2160C171B177C16B41682
:104DE0002B17541A5A1A431A4E1A601A661A6C1A5A
:104DF000A324CB24B425CB24B425FE241F25B4251D
:044E0000762582256C
:104E04005002010100000000000000000000010148
:104E14000000000000000A02000000040C00000072
:104E2400000000BF018000280850011E0A14010080
:104E3400000100E81B8E1F5B1F871F801FE200E933
:104E440000EA00B500B600B700CD008301CC008AAB
:104E54000192019401210223022402250226022741
:104E6400022A02B300B4006F0070009F01CB019FBF
:104E740002A002818283E200E900EA00B500B600E4
:104E8400B700CD008301CC008A0192019401210274
:104E9400230224022502260227022A02B300B400B8
:104EA4006F0070009F01CB019F02A002818283F4F6
:104EB400F5F6F73133323635946697C63408031B5A
:084EC400157215E614DA140062
:00000001FF
