:100000000C94CF020C94EC020C94EC020C94EC02D5
:100010000C94EC020C94EC020C94EC020C94EC02A8
:100020000C94EC020C94EC020C94C3290C94972AC7
:100030000C94EB210C94EC020C94EC020C94EC026A
:100040000C94EC020C94EC020C94EC020C94EC0278
:100050000C94EC020C948E220C94EC020C94EC02A6
:100060000C94EC020C94EC020C94EC020C94EC0258
:100070000C94EC020C94EC020C94EC020C94EC0248
:100080000C94EC020C94EC020C94EC020C94EC0238
:100090000C9478240C94EC020C94EC020C94EC027A
:1000A0000C94EC020C94EC020C94EC024A00350027
:1000B0001E001F002000210022003A0000004D0019
:1000C0002B0014001A000800150017003B00000068
:1000D0004B00390004001600070009000A003C002C
:1000E00000004E00E1001D001B0006001900050085
:1000F0003D0000004C00E000E200E30029002C007D
:1001000000003E0000003F002300240025002600E0
:1001100027002D002E002A0040001C0018000C00B3
:10012000120013002F003000310041000B000D00C1
:100130000E000F00330034002800000042001100C0
:100140001000360037003800E5005200E40043009C
:1001500044004500E7000000E600500051004F0059
:100160000100010001000100010001000100010087
:100170000000010001000100010001000100010078
:100180000100000001000100010001000100010068
:100190000100010000000100010001000100010058
:1001A0000100010001000000010001000100010048
:1001B0000100010000000100000001000100010039
:1001C0000100010001000100010001000100010027
:1001D0000100010001000100010001000100010017
:1001E0000100010001000100010001000100000008
:1001F00001000100010001000100010001000100F7
:1002000001000100010001000100000001000100E7
:1002100001000100010001000100010001000100D6
:1002200001000100000001000100010001000100C7
:1002300001000100010000000100010001000100B7
:1002400001000100010001000000010001000100A7
:100250000100010001000100010000000100010097
:100260000100010001000100000001000000010088
:100270000100010001000100010001000100010076
:100280000100010001000100010001000100010066
:100290000100010001000100010001000100010056
:1002A0000100000001000100010001000100010047
:1002B0000100010001000100010001000100000037
:1002C0000100010001000100010001000100010026
:1002D0000100010001000100000001000100010017
:1002E0000100010001000100010000000100010007
:1002F00001000100010001000100010000000100F7
:1003000001000100010001000100010001000000E6
:1003100001000100010001000100010000000100D6
:1003200000000100010001000100010001000100C6
:1003300001000100010001000100010001000100B5
:1003400001000100010001000100010001000100A5
:100350000100010001000000010001000100010096
:100360000100010001000100010001000100010085
:100370000100000001000100010001000000000078
:10038000000000002A2B28000000000000000000F0
:100390000000000000000029000000002C1E342096
:1003A000212224342627252E362D3738271E1F20BC
:1003B0002122232425263333362E37381F04050601
:1003C0000708090A0B0C0D0E0F1011121314151645
:1003D0001718191A1B1C1D2F3130232D3504050643
:1003E0000708090A0B0C0D0E0F1011121314151625
:1003F0001718191A1B1C1D2F3130354C0000000036
:1004000000000000000000000000000000000000EC
:1004100000000000000000000000000000000000DC
:100420007E0F00D4FFFFFFC7000000780C037200AE
:100430006B0064003000310000001003720069009E
:100440006B006B006F0064006F0000000403090480
:1004500009025B00030100A0FA0904000001030186
:100460000100092111010001224400070581030850
:10047000000109040100020300000009211101002C
:100480000122220007058203200001070503032043
:10049000000109040200010300000009211101000C
:1004A00001227B00070584032000011201000200E5
:1004B00000000814E801000001010200010660FFCD
:1004C0000961A1010962150026FF009520750881C8
:1004D000020963150026FF00952075089102C005EA
:1004E000010902A10185020901A1000509190129DB
:1004F00008150025019508750181020501093009DB
:10050000311581257F9502750881060938158125E9
:100510007F950175088106050C0A38021581257F33
:10052000950175088106C0C005010980A1018503F8
:1005300019012AB700150126B70095017510810031
:10054000C0050C0901A101850419012AA0021501A9
:1005500026A002950175108100C005010906A101C0
:10056000050719E029E715002501950875018102A5
:100570009501750881010507190029FF150026FF5F
:100580000095067508810005081901290515002543
:1005900001950575019102950175039101C0112422
:1005A0001FBECFEFDAE0DEBFCDBF11E0A0E0B1E0CB
:1005B000E0EFFAE502C005900D92AA3DB107D9F728
:1005C00023E0AAEDB1E001C01D92A932B207E1F724
:1005D0000E9443150C94242D0C9400008430B8F430
:1005E0006A30A8F4493098F450E099E0699F400DD2
:1005F000511D1124FA019AE5899FE00DF11D112486
:10060000EE0FFF1FE455FF4F85919491089581E00F
:1006100090E0089581E008950E940A03089581E022
:1006200008950E940A0308950E94110308950895F1
:100630000E9417030895A6E0B0E0E1E2F3E00C9415
:10064000942C49835A839E833091E10189819A8158
:1006500031111AC03E81332399F0222389F00E9480
:10066000B608182F682F89819A810E9492086981A3
:100670007A81812F0E94DE0F2696E3E00C94B02C45
:100680000E94A408182FF3CF0E94B60869817A81CE
:10069000F1CFFC01262F40815181628173818481D9
:1006A00095810E941B030895CF93DF93EC0161E0D5
:1006B0000E944903BE010E940C03DF91CF9108956F
:1006C000CF93DF93EC0160E00E944903BE010E94DA
:1006D0001803DF91CF91089591E001C0990F8A9599
:1006E000EAF7892F0E94D9070895CF93C82F81E098
:1006F0000C2E01C0880F0A94EAF70E94140D8C2F6B
:100700000E946C03CF91089581E008950E948403B4
:100710000895CF93C82F0E948E078C2F0E948603C6
:100720002FEF84E39CE0215080409040E1F700C02F
:100730000000CF91089581E00E9489030E94B222B7
:10074000089580E00E9489030E94C32208950F93B8
:100750001F93CF93DF938C0161E00E944903EC016A
:10076000B8010E945E1F811106C080E0DF91CF9129
:100770001F910F910895B801CE010E9414038823A0
:10078000A1F3B801CE010E946B1E882371F3B8015A
:10079000CE010E947D19882341F3B801CE010E9449
:1007A0005319882311F3B801CE010E94AF1E88238C
:1007B000E1F2B801CE010E9422118823B1F2F801C2
:1007C0008581882361F0C330FCE7DF07E9F058F446
:1007D000C115ECE7DE07A9F0C130DC47B9F0C8016C
:1007E0000E940F03C3CFCB358CE7D807A9F0CC35D7
:1007F000ECE7DE0771F0CA35DC4789F70E94EF0CA1
:10080000EECF0E949B03B1CF0E94F70C0E94A10380
:10081000ACCF0E94E50CE3CF0E94F30CE0CF0E9426
:10082000C7210E9431040E94D31508950E94350407
:100830000E94CC21089581E008950895CF93DF931D
:10084000D82F0E941B04C82F882319F08D2F0E94D7
:100850001D048C2FDF91CF91089508950E941E04EE
:10086000089580E00E942E0408950E944A200E946C
:100870002E040895CF930E944A20C82F8091DC0156
:100880008C1779F0C093DC010E9457226093DD0140
:100890007093DE018093DF019093E0018C2F0E9422
:1008A0002E04CF910895ADE0B0E0E9E5F4E00C94BA
:1008B000952C488759876A877B878C879D879111FC
:1008C0000E94250C1F8286E0FE013896DE011196FB
:1008D00001900D928A95E1F78D8181110DC02981DA
:1008E0003A814B815C816D817E818F810E946F0B8B
:1008F0002D96E2E00C94B12CCE0101960E94540397
:100900008111EDCFF5CFFC012481213021F48081CC
:1009100091810E94E3080895CF93DF93C82FD62FCB
:10092000662381F00E94DE1A8C2F90E09C01215DED
:1009300031092830310548F46D2F0E944E16DF91A1
:10094000CF9108950E94381BEFCF0E94B11BF7CFC3
:10095000CF93C82F882399F08CEF8C0F813A88F4BD
:100960008C2F0E94D620882329F08C2F0E941921D9
:100970000E94940C8C2F0E9411210E94940CCF9104
:10098000089580E28C0F883048F4C77081E001C080
:10099000880FCA95EAF70E94080CEFCFEBE5EC0F41
:1009A000E33040F4F0E0EA58FE4F808190E00E948E
:1009B0007720E5CFE8E5EC0FEB3150F4F0E0EE0FF7
:1009C000FF1FE05CFE4F808191810E949C20D7CF69
:1009D00083E38C0F833198F661E08C2F0E948C04A6
:1009E000CECF882381F19CEF980F913A28F40E9492
:1009F00019210E94940C089590E2980F983050F4B9
:100A0000877091E001C0990F8A95EAF7892F0E94BB
:100A10000E0CEFCF9BE5980F933028F490E080E028
:100A20000E947720089598E5980F9B3128F490E074
:100A300080E00E949C20089593E3980F933118F46E
:100A400060E00E948C0408951F93CF93DF93182FCA
:100A5000EB010E94A804209739F4812F0E94F10431
:100A6000DF91CF911F9108958FE99FE00197F1F7F2
:100A700000C000002197EFCF70E060E0893311F4EF
:100A800060E570E00E9424050895882321F00E940B
:100A9000080C0E94940C0895882321F00E940E0CEB
:100AA0000E94940C0895B0E0A0E0E9E5F5E00C9414
:100AB0008E2C6C01D62FC72FFC0115810681029563
:100AC0000F700E94FE0BE82E8823F9F0E12E11230F
:100AD000E1F08C2F807F803461F080E28D0F8830D0
:100AE00008F18C2F807E803221F4D230D8F00023A0
:100AF000C9F08091D90282FF15C082E00E94B90C32
:100B00000E94FE0B91E0E82EE926BC2EB2949FE0F5
:100B1000B922FBE0FB15B8F1EB2DF0E0EA5DF24DF8
:100B20000C94782CE12CF1CF0C2F0F70C07F11F0BA
:100B30000295007F112399F0002359F080E28D0F78
:100B4000883010F0D11107C0802F0E94080C0E943D
:100B5000940C8D2F5AC0802F0E94180CF8CF8D2F27
:100B60000E94F104002379F080E28D0F883010F0AC
:100B7000D11104C0802F0E940E0C03C0802F0E9450
:100B80001E0C0E94940CEB2DE850FF0B349720F4C0
:100B90000E944A200E942E04EE2089F00E94FA0B47
:100BA00080FD0DC0F60115820E94F40B0E9406081C
:100BB000C6010E9455070E94F40B0E941208CDB78F
:100BC000DEB7E9E00C94AA2C2C2F2F70F22EC07FF8
:100BD000C03219F0F29480EFF822DD2341F0D130D9
:100BE000D1F1112309F444C00023F1F0B2CF809178
:100BF000D90282FD15C0112359F0FF2029F08F2D55
:100C00000E94080C0E94940C80E00E94A804BBCFB4
:100C100080E00E94F104FF2009F4B5CF8F2DABCF07
:100C2000112369F0011104C08F2D0E944505ABCF3F
:100C3000013009F0A8CF8F2D0E943C0CA4CF0111E8
:100C4000A2CF8F2D0E944C058F2D0E94480C8F2D16
:100C50000E942C0C98CF112321F0063008F093CF7E
:100C6000E3CF053008F08FCF8F2D0E944C058BCF3E
:100C70000023D1F3D93349F43FEF87EE93E03150AD
:100C800080409040E1F700C000008D2F0E94F104E9
:100C90007ACF8C2F86958695837069F0813009F024
:100CA00072CF8D2F9C2F9370111102C080E090E0C5
:100CB0000E949C2068CF8D2F9C2F9370111102C031
:100CC00080E090E00E9477205ECF612F8D2F0E9400
:100CD0008C0459CF8C2F837079F5111154CF4D2F7F
:100CE000429546954770440F440F8D2F8F70042E08
:100CF00001C0880F0A94EAF72D2F2071D4FF07C096
:100D00002FE030E001C0220F4A95EAF72095C69502
:100D1000C695C370822BC23049F058F4C13019F027
:100D20000E94E20730CF0E94DC072DCF0E94E80727
:100D30002ACF0E94D90727CF8695112311F08C2F37
:100D40008170882309F41FCF4D2F42954695477037
:100D5000440F440F8D2F8F70042E01C0880F0A940A
:100D6000EAF72D2F2071D4FF07C02FE030E001C03B
:100D7000220F4A95EAF72095C695C695C370822B37
:100D8000C23049F058F4C13019F00E943108FBCE4E
:100D90000E942B08F8CE0E943708F5CE0E94F40777
:100DA000F2CECF70112329F08C2F0E9406088D2FD0
:100DB0003CCF8D2F0E944C058C2F0E941208E3CE51
:100DC000D23F41F160F4D03FB9F0D13F81F011231F
:100DD00009F443C00111BDCE8C2F8F711FC0D33FCA
:100DE00001F1D43FA1F78091D90282FD24C08C2F5C
:100DF0008F71112311F312C0112341F0053008F057
:100E0000C2CE8C2F8F710E941F08BDCE063008F015
:100E1000BACEF7CF8C2F8F711111CFCF0E94060859
:100E2000B2CE112329F08C2F8F710E94FD07ABCE1B
:100E30000E94F907A8CE112331F063E08C2F8F7147
:100E40000E949B0CA0CE81E00E94B90C023008F4F5
:100E50009ACE82E00E94B90C96CE002359F0D93385
:100E600009F013CFEFEFF7EE23E0E150F040204020
:100E7000E1F709CF8C2F8F71A0CF0F931F93CF93E2
:100E8000DF93EC01688179818D810E94EE088C01ED
:100E90000E943D080E94D807B801CE010E94530568
:100EA000DF91CF911F910F910895CF93DF93EC01C4
:100EB0008C81882399F0CE010E94A703811111C073
:100EC0000E94FE0B882351F08D81882339F0809198
:100ED000D90282FF03C082E00E94B90CDF91CF915A
:100EE0000895CE010E943D07CE010E946003F6CF17
:100EF00090E080E00E94772090E080E00E949C20BB
:100F00000E94250C0E94940C0E94CD1B0E94B11BD4
:100F100008950E9421210E94780708950E94150CCF
:100F20000E948907089592959F70963091F058F429
:100F3000925F9F70923058F4803F19F030F4883EF1
:100F400030F481E008959A5FF4CF843FD1F380E0DC
:100F50000895883EB0F3813FD1F7F3CFFC0124819F
:100F6000222339F0808191810E94E3080E94930737
:100F7000089580E00895A6E0B0E0E1ECF7E00C947D
:100F8000952C2696E2E00C94B12CA7E0B0E0EBECB7
:100F9000F7E00C94952C2796E2E00C94B12C089580
:100FA0000E94CF0708950E94D007809307020895FA
:100FB00008950E94D307089590910702892B0E94FB
:100FC000D30708959091070289230E94D3070895BB
:100FD0009091070289270E94D30708950E94CF07A6
:100FE00008950E94EE0708950E94F107809306027B
:100FF000089580E00E94F407089591E001C0990FE0
:101000008A95EAF7892F0E94F407089521E030E0DD
:1010100001C0220F8A95EAF780910602822B0E9476
:10102000F407089521E030E001C0220F8A95EAF725
:1010300020958091060282230E94F407089521E002
:1010400030E001C0220F8A95EAF7809106028227DC
:101050000E94F407089590910602892B0E94F407DC
:1010600008959091060289230E94F40708959091B3
:10107000060289270E94F40708950895262F2770F5
:1010800091E001C0990F2A95EAF723E076956795DC
:101090002A95E1F7FB01EE0FFF1FE60FF71FE40FA4
:1010A000F51F50E040E0682F70E08191DF0111975B
:1010B0009B01042E02C0369527950A94E2F7217011
:1010C00021952827292328272C934F5F5F4F4330F2
:1010D000510559F70895A82FA77023E09695879595
:1010E0002A95E1F7FC01EE0FFF1FE80FF91FE60F4D
:1010F000F71F50E040E080E0219130E00A2E02C06E
:10110000369527950A94E2F721703327042E01C003
:10111000220F0A94EAF7822B4F5F5F4F433051054D
:1011200059F70895262F9A3070F4893060F4682FAB
:1011300070E089E0989F600D711D112442EE51E02E
:10114000822F0E943E080895292F9A3068F4893032
:1011500058F490E062EE71E039E0239F800D911D1C
:1011600011240E946B08089580E00895CF92DF92C9
:10117000FF920F931F93CF93DF936C0100910602B0
:1011800080910702082BC3E0D0E010E0FC2EC801DC
:101190000C2E02C0959587950A94E2F780FD0CC04D
:1011A0002197A0F7F12C8F2DDF91CF911F910F91F7
:1011B000FF90DF90CF900895B6018C2F0E94EA0F28
:1011C000019771F3F0CFCF93DF93EC010E94B60843
:1011D000BE010E94EA0FDF91CF9108951F93CF9334
:1011E000DF93EB019091E101992339F0CB010E944B
:1011F000E308DF91CF911F910895882369F0CB0117
:101200000E94B608182F682FCE010E949208BE01D6
:10121000812F0E94EA0FEDCFCB010E94A408182F66
:10122000F6CFE1E0F0E0DF0102C0AA0FBB1F6A9534
:10123000E2F7BD01DF0102C0AA0FBB1F4A95E2F72A
:101240006A2B01C0EE0F2A95EAF7962F9823961382
:1012500002C08E2B0895E0958E230895242F462FEB
:10126000682F809106020E9411090E94F4070895D8
:101270001F93CF93DF93C091080217E0809109027A
:101280008C1304C0DF91CF911F910895D0E01C9F73
:10129000F0011D9FF00D1124E65FFD4F208131818B
:1012A000428153816481758186810E94C5072196A0
:1012B000C770E4CF20914202309143024091440232
:1012C0005091450260914602709147028091480218
:1012D0000E94C5070895CF93DF9380914802807FD5
:1012E00009F04DC080914702882309F448C0E0917D
:1012F000080250910902C0914302D09142026091CC
:1013000044027091450247E05E17C9F18E2F90E0CC
:10131000E49FF0011124E65FFD4F2481222391F127
:10132000489FF001499FF00D1124DF01A65FBD4FDA
:1013300011962C9111972C1325C02C912D1322C09E
:1013400015962C91159721111DC012962D913C9147
:10135000261B370B283C3105A8F4809148028F707A
:10136000806180934802E05FFD4F80818F708061D3
:10137000808382E492E00E9455070E943809DF9141
:10138000CF910895FC013196E770BECF482F209190
:1013900008029091090257E0291302C080E00895E5
:1013A00030E0529FF001539FF00D1124E65FFD4F96
:1013B0008181681306C08081481303C08581811133
:1013C000EECF2F5F3F4F2770E7CFA4E1B0E0EBEE09
:1013D000F9E00C948B2C8C0186E0F801DE011F965D
:1013E00001900D928A95E1F7F8018481E58092E4FD
:1013F000A92E92E0B92E9091460291111FC0882328
:10140000D1F0EE20A9F0C8010E94AE07F82E882383
:1014100079F087E0F801D50101900D928A95E1F706
:10142000C5010E9483040E946B090E945A095FC093
:10143000C8010E945507FF24F39459C0C080D18091
:1014400082809380F09047022091440230914502BF
:10145000A401421B530BFF2009F4F9C0483C51057D
:1014600008F0A7C0882309F442C0909143028091FC
:101470004802282F207F09F05CC09D1116C0909172
:101480004202C91212C0E1104EC08F708061809379
:1014900048020E945A0982E492E00E945507809116
:1014A0004802F8018683F12C22C0E1103CC06D2D6A
:1014B0008C2D0E94C6096D2D8C2D0E94C609E82E28
:1014C0008111F1CFCF86D88A8F8598890E94E30851
:1014D000292F22952F70243078F49F702230A8F0A5
:1014E0009923B9F0F8019681907F99F4FE2C8F2D05
:1014F0006496ECE00C94A72C2A5F2F70223068F0E1
:10150000C8010E945507EF2CF1CF992311F08823D1
:1015100069F3805E883050F3F3CF803F38F3815F0A
:10152000833070F7E3CF8091480281608093480256
:10153000BACF9D1113C090914202C9120FC0E110A1
:101540000DC08683C8010E94550787E0F801A2E418
:10155000B2E001900D928A95E1F767CFC8010E9431
:10156000AE07882309F464CFEE2009F461CF80919F
:101570004802803288F0209142023091430239873C
:1015800028879B868A86909146029C871D868E8737
:10159000CE0108960E94550787E0F801A2E4B2E068
:1015A00001900D928A95E1F70E946B090E945A09F9
:1015B00042CF90914802292F207FA1F4682D9A8A6A
:1015C000898AA6017A899E2D0E94BB0782E492E057
:1015D0000E94550787E0F50111928A95E9F70E946C
:1015E0005A0961CF882309F482CF809143028D117B
:1015F00010C080914202C8120CC0E1100AC096834C
:10160000C8010E94550787E0F50111928A95E9F714
:101610006ECFC8010E94AE07882309F409CFEE20DF
:1016200009F406CF80914802803208F4B5CF2091AA
:101630004202309143023A8329839C828B829091AB
:1016400046029D831E828F83CE010196A3CF483C24
:101650005105B8F5882309F4EECEFE2CEE2009F4EE
:10166000E7CE809143028D111EC080914202C812C4
:101670001AC08091480280FD0DC0982F907F51F0D4
:101680008683903F09F45ECF982F907F905F8F7094
:10169000892B57CF87E0F801A2E4B2E001900D92C8
:1016A0008A95E1F724CFC8010E94AE07811174CF5B
:1016B00080914802816080934802C8010E945507CA
:1016C00016CF682D9A8A898AA6017A899E2D0E9452
:1016D000BB0787E0F50111928A95E9F7A6CEAEE047
:1016E000B0E0E5E7FBE00C94942C288739874A8723
:1016F0005B876C877D878E87CE0108960E94E509FF
:101700008823B1F06C85662341F0288539854A85A8
:101710005B857D858E850E94C50717E08091080254
:101720009091090289133DC02E96E3E00C94B02CF1
:1017300087E0FE013896DE01119601900D928A95A0
:10174000E1F78C85882349F32091090230E0C90133
:10175000019687709927409108024817190699F059
:1017600097E0929FD001939FB00D1124A65FBD4FCB
:10177000FE01319601900D929A95E1F7809309024E
:101780000E943809CACF0E948E0710920902109257
:10179000080287E0E2E4F2E0DF011D928A95E9F7B2
:1017A000BCCF819FC0011124865F9D4F0E94E50937
:1017B000882309F4B9CFE09108021E9FF00111249B
:1017C000E65FFD4F208131814281538164817581C3
:1017D00086810E94C5078091080290E0019687707B
:1017E0009927809308029ACF809151028695869519
:1017F00086950895809151028770089590915102C5
:10180000977081E009F480E0089580915D02089569
:1018100090915D02892B80935D020895809590914F
:101820005D02982390935D02089510925D020895E1
:1018300090915C02892B80935C0208958095909131
:101840005C02982390935C02089510925C020895C4
:1018500008950E94280C089590915202292F282360
:1018600031F080958923809352020E94290C0895BB
:1018700008950E94380C089590915302292F28232F
:10188000281729F0982B909353020E94390C089541
:1018900090915302292F282331F08095892380933A
:1018A00053020E94390C089580915302882329F035
:1018B0001092530280E00E94390C08950F931F93F9
:1018C000CF93DF930091000110910101C0915D025F
:1018D00080915C02C82B80915302882331F0C82B81
:1018E0000E94C12081110E94540CF801C083C09154
:1018F0000001D091010148E050E069E472E0CE01BE
:101900000E94BC2C892B59F088E0FE01A9E4B2E0CA
:1019100001900D928A95E1F7CE010E945E20DF9141
:10192000CF911F910F9108950E945E0C0895089524
:101930000E94970C08959091D90292FF11C098E0EF
:10194000899F90011124622B609351020E94060826
:10195000809151028695869586950E94980C0895EF
:101960000E94060808951092510280E00E94980C8F
:101970000895909151028095892380935102282FD8
:10198000277069F4891759F09091D90292FF07C026
:101990008695869586950E9412080E94B30C08953C
:1019A0009091D90292FB222720F9281769F080FB39
:1019B00092F99093D9028091D8029091D9020E9415
:1019C0001F0D82E00E94B90C08958091D90282FB1C
:1019D000882780F991E089270E94D00C089581E042
:1019E0000E94D00C089580E00E94D00C08956FEF03
:1019F0007FEF90E080E00E940E2D089590E080E05F
:101A00000E94DA2C853E9E4F19F40E94F81E08951C
:101A100080E0089582E090E00E94D22C089583E057
:101A200090E00E94D22C0895682F83E090E00E94FD
:101A3000F02C089584E090E00E94DA2C0895BC0117
:101A400084E090E00E940E2D0895AB01BC018FE070
:101A500090E00E94022D0895AB01BC0183E190E06B
:101A60000E94022D089560E070E0CB010E942C0DD1
:101A7000089560E070E0CB010E94250D0E94330DB7
:101A80000895A8E0B0E0E7E4FDE00C94952C65EE45
:101A90007EEF90E080E00E940E2D60E082E090E01A
:101AA0000E94F02C81E0809307020E94140D60E0F8
:101AB00074E184E090E00E940E2D60E086E090E00A
:101AC0000E94F02C60E087E090E00E94F02C40E063
:101AD00050E0BA0188E090E00E94022D60E083E2CD
:101AE00090E00E94F02C60E08CE090E00E94F02CEE
:101AF00060E08DE090E00E94F02C19821A821B8237
:101B00001C821D821E821F82188648E050E067E119
:101B100070E0CE0101960E94E02C40E050E0BA0156
:101B20008FE190E00E94022D80E00E94111F0E9430
:101B3000401F0E94390D2896E2E00C94B12C0E94BF
:101B4000410D0895682F8EE090E00E94F02C0895DA
:101B5000A6E0B0E0EEEAFDE00C94932C0E944B224C
:101B60008C0180915E0290915F028017910781F055
:101B700019821A820E944B22682F49815A81792F3B
:101B800080E090E00E94530410935F0200935E0295
:101B90002696E4E00C94AF2C0E94061160937C0220
:101BA00070937D0280937E0290937F02609378020F
:101BB0007093790280937A0290937B0208950E9439
:101BC000061160937C0270937D0280937E02909355
:101BD0007F026093740270937502809376029093F3
:101BE00077020895089508950E94F20D08950895CA
:101BF0000E94F70D089581E0089580E291E10E942E
:101C00005A150E94F30D0E94F40D08950E941413BA
:101C10000895089508950E94090E0E940A0E0895DD
:101C20000E94FE0C811102C00E949F0D0E940A0DAD
:101C3000809380020E941A0D9093D9028093D8025B
:101C40000E9498170E940F0D0E94D90780910602EA
:101C50000E94F10708950E9442220E94E0100E9413
:101C6000501F0E9417130E945A120E94100E0E94C9
:101C70002D040E949B170E9429130E949D150E940B
:101C8000F80D0895A6E0B0E0E8E4FEE00C94892C9D
:101C90000E94FB0D811111C00E94A80D0E94141317
:101CA0000E94D31581110E94DF0D0E940A1C0E9420
:101CB0003A042696EEE00C94A52C0E947D1220E6B4
:101CC000822E22E0922E640110E0F601E190F19064
:101CD0006F01812F0E943C111F5F1A3009F44BC025
:101CE000E816F90691F38091800281FD0E9445116A
:101CF0000E94060E782E10E066246394812F0E94C5
:101D00003C117C01F401A190B1904F018A159B0513
:101D100061F1A826BF2400E0CC24C394D12CC501D6
:101D20008C219D21892BC1F07720B1F009831A8382
:101D30000E944B229C838B836D8221E0C7018C2102
:101D40009D21892B09F420E049815A816B817C8196
:101D50008D81922F0E9453040F5FCC0CDD1C093043
:101D6000F1F6F4013297F182E0821F5F1A3031F60A
:101D70000E94CC0D93CFE816F90609F0B4CF8CCFB2
:101D80001F93CF93DF930E94EF0FEC01C11580E505
:101D9000D807F0F5C11580E4D80708F09CC0C03E14
:101DA000D10520F5CD3CD10508F082C0C83AD10557
:101DB00078F4C53AD10508F073C0C130D10519F1E6
:101DC000209709F1C430D105F0F4D0E0C0E01BC089
:101DD000C33CD105D0F7C85AD0E0CC0FDD1FC7589F
:101DE000DE4F0990D881C02DD4640DC0C11580E2AA
:101DF000D80708F0D1C0C11581E0D80708F05AC053
:101E0000C83ED10510F7CE01DF91CF911F91089503
:101E1000C03682E5D80718F5C03482E5D80708F047
:101E20006BC0C03282E5D80708F05FC0C11582E5FB
:101E3000D80708F497C02C2F2695269580E2289F76
:101E4000900111248C2F8370C1E0D0E002C0CC0F30
:101E5000DD1F8A95E2F7C22BD32BDD68D4CFC03AC1
:101E600082E5D80760F4C03882E5D80708F459C085
:101E7000CF71D0E0DC2FCC27C46FD06AC4CFC03C78
:101E800082E5D80708F462C0C03E82E5D80708F0B2
:101E90009CCFDC2FCC27CC27DF71C06FD06AB3CFAB
:101EA000C55AD0E0C155DE4FC881D0E0D064ABCF79
:101EB000D065A9CF8D2F0E949110182FCE019927A0
:101EC0000E94EF0FC12FD0E0DC2FCC27CC27DF7191
:101ED000C82BD92B98CFCE0199270E94EF0FCC2782
:101EE000DF70C82BD92BD06A8ECFCF71D0E0DC2F1A
:101EF000CC27C16FD06A87CF2C2F269526952770C7
:101F000080E2289F900111248C2F8370C1E0D0E0E3
:101F100002C0CC0FDD1F8A95E2F7C22BD32BDC6801
:101F200072CF2C2F26952695277080E2289F90014E
:101F300011248C2F8370C1E0D0E002C0CC0FDD1FD4
:101F40008A95E2F7C22BD32BDA685DCF8C2F8F7185
:101F50000E949110C82FD0E0DC2FCC27CC27DF7156
:101F6000D06251CF8C2F8F710E94911055E0D69581
:101F7000C7955A95E1F7CF70D0E0DC2FCC27282FFA
:101F800030E084FF05C044E0220F331F4A95E1F79B
:101F9000C22BD32BD06937CF8D2F8F710E94911018
:101FA000182FCE0199270E94EF0FC12FD0E0DC2F10
:101FB000CC27CC27DF71C82BD92BD2CF462F7A3034
:101FC00030F4693020F4672F0E946B18089590E078
:101FD00080E008950E94DE0F0E94C00E08958238AE
:101FE0009105B9F1B0F48133910509F47DC048F44D
:101FF0008932910509F46DC08A32910509F47BC0DC
:1020000008958533910509F45FC08933910509F17D
:102010000895833E9105D9F138F4803E910529F168
:10202000823E910579F10895863E9105D9F1873E6A
:10203000910509F43EC0843E910541F52091D902F5
:1020400021FF24C08091D80284FD19C087EE90E062
:1020500008952091D802237009F05AC02091D90226
:1020600023FF14C089E290E008952091D80220FD5A
:1020700038C03091D90230FF09C024FF43C090E03E
:1020800080E008952091D80222FDF7CF0895209195
:10209000D80222FD3AC03091D90230FD39C024FF68
:1020A000F5CFEDCF2091D80223FFF0CF24FDE7CF6D
:1020B000CDCF2091D80223FD2EC03091D90231FF1F
:1020C000EECF84EE90E008952091D80225FFDECF78
:1020D000C9CF2091D80225FD21C02091D90223FF2C
:1020E000D5CF89E390E0D2CF2091D80226FFCECF82
:1020F0008AE290E008952091D80226FFC7CF81E3BD
:1021000090E0089583EE90E0089582EE90E00895C7
:1021100080EE90E0089586EE90E0089585E390E0EB
:1021200008959091D80292FF10C041E0282F2471A9
:10213000243009F040E031E0282F2871283009F0E0
:1021400030E0431711F02CE0822793FF10C041E0EC
:10215000282F2471243109F040E031E0282F287124
:10216000283109F030E0431711F02CE0822730913C
:10217000D90230FF10C051E0282F2171213009F021
:1021800050E041E0282F2871283009F040E0541732
:1021900011F029E0822731FF10C041E0282F217182
:1021A000213109F040E031E0282F2871283109F071
:1021B00030E0431711F029E0822794FD877E0895CF
:1021C0001092DA021092DB021092DC021092DD0211
:1021D0000895CF92DF92EF92FF926B017C010E94F3
:1021E000141381110EC00E945722C61AD70AE80A9A
:1021F000F90AC092DA02D092DB02E092DC02F0929D
:10220000DD02FF90EF90DF90CF9008950F931F9322
:102210000E941413882329F00E9457221F910F91C6
:1022200008950E9457220091DA021091DB0220915A
:10223000DC023091DD02600F711F821F931FEECF11
:1022400080E00895CF939C01205E3245C1E02032AA
:10225000310538F4FB01C581C11103C08F710E94A3
:1022600075038C2FCF91089508950E94341108951D
:1022700008950E9438110895E82FF0E0EE0FFF1F37
:10228000ED50FD4F808191810895089580EA8A95EF
:10229000F1F7089500C008950E9446110895089529
:1022A0000E944F110895AAE0B0E0E9E5F1E10C9435
:1022B000912C0E941413F82E60910703882309F4CF
:1022C00046C05AE0E52E8E010F5F1F4FF8018E2D9C
:1022D00011928A95E9F7862F90E0880F991FB8012F
:1022E0008D509D4F0E9437138823C9F08091DE02E4
:1022F00090E0880F991F4AE050E0B8018D509D4F43
:102300000E94BC2C21E020938102892B91F4F12CB6
:102310000E9439118F2D2A96E6E00C94AD2C809105
:1023200081028823A1F3F8011192EA94E9F710924F
:102330008102A091DE02B0E0AA0FBB1FAD50BD4FDD
:102340008AE0F80101900D928A95E1F7E1CF70E003
:10235000660F771F6D507D4F8091DE0290E0880FF1
:10236000991F8D509D4F0E9404140E945011D2CF8E
:10237000F894E82FE295EF70F0E031A1282F2F704C
:1023800081E090E001C0880F2A95EAF7982F909598
:10239000932391A392A1892B82A378940895CF933C
:1023A000DF93CBEBD1E089918F3F11F00E94B81100
:1023B00081E0C03CD807B9F7C2EBD1E089918F3FEB
:1023C00011F00E94B81181E0CB3BD807B9F7DF913B
:1023D000CF910895AF92BF92DF92EF92FF920F9349
:1023E0001F93CF93DF938C01D62EC62FD0E0CE0162
:1023F00085549E4F7C01FC0120812F3F09F44DC084
:10240000F894E22FE295EF70F0E031A12F7081E0B7
:1024100090E001C0880F2A95EAF7932F982B91A39B
:1024200092A18095892382A378940E944A11E2EBBD
:10243000F1E04BEB51E021E030E0B12CA12C6191B7
:102440006F3FA9F1A62FA295AF70B0E090968C9146
:1024500090E06F7002C0959587956A95E2F780FDD0
:1024600026C0C901A82AB92A220F331F4E175F07B9
:1024700031F7F70180818F3F11F00E94B81161E0C0
:10248000A114B10409F460E08D2D0E944C11CC0F11
:10249000DD1FC00FD11FB982A882DF91CF911F919C
:1024A0000F91FF90EF90DF90BF90AF90089590E074
:1024B00080E0D8CF809102018091020195E08111E6
:1024C00090E09093070385E0891B8093DE020E94D1
:1024D000CF1184E1E3EFF2E0DF01982F1D929A958E
:1024E000E9F7EFEDF2E0DF011D928A95E9F785E06B
:1024F0000E94BD120E9435110895A4E1B0E0E3E806
:10250000F2E10C94922C8E010F5F1F4F84E1F801D1
:1025100011928A95E9F7F12C6F2DC8010E94EA11FA
:10252000F394F5E0FF12F8CF44E150E0B8018FEDED
:1025300092E00E94BC2C21E0009709F420E0892B56
:1025400041F084E1F801AFEDB2E001900D928A957F
:10255000E1F76091070370E0660F771F6D507D4FC4
:1025600045E08FED92E00E94BE12182F0E94531199
:10257000812B6496E5E00C94AE2C0895B0E0A0E0C9
:10258000E4ECF2E10C948F2C6C017B01042FC22F40
:10259000222379F081E0809384020E944B22909361
:1025A00083028093820280E0CDB7DEB7E8E00C942E
:1025B000AB2CD0918402DD23B1F380918202909103
:1025C00083020E946322059770F310E0000F111F31
:1025D000A801B601C7010E94BC2C892B31F0A801CB
:1025E000B601C7010E94C92CCD2F109284028C2FF6
:1025F000DBCF52985A988FE891E00197F1F700C02D
:10260000000089B182FB882780F90895CF930E944A
:10261000432CC82F811102C00E943E2C8C2FCF91D9
:1026200008958091880208958091870208950E94FC
:102630000613809387020E94F912809388020E94F9
:102640001113809302010E94141381110E946D13D3
:1026500008950E941413811102C00E9470130895FE
:1026600081E0909189029A3008F080E008950F93FC
:102670001F93CF93DF93EC018B01809189028A3005
:10268000B8F4B801CE010E940114C82F811122C0F4
:10269000809189028F3FB9F40E944B229093860269
:1026A000809385028C2FDF91CF911F910F91089518
:1026B00080918502909186020E946322843F91401E
:1026C00000F7C0E0EFCF8F5F809389028A3020F758
:1026D000C1E0E8CF10928902E5CF0E94202308953F
:1026E00082E30E94722408950F931F9398E0890259
:1026F000F0011124ED5FFE4F26813781232BA1F0DD
:1027000080930C03609104017091050120910301F5
:1027100030E0AB01445F5C4F04E610E082E30E94CE
:102720009A231F910F91089590E080E0FACFB0E0D6
:10273000A0E0EDE9F3E10C94882C582E69015801D2
:10274000C82F880FDD0B4115510559F4852D0E94C6
:10275000741397FF2CC080E0CDB7DEB7EFE00C9488
:10276000A42CCE0123E0880F991F2A95E1F7FC01E4
:10277000ED5FFE4FE080F12C4E155F0508F47A0105
:102780008D5F9E4FFC0181809280C401845F9C4FCD
:102790003C01A7010E94C92C04E610E09701A301A7
:1027A000682D82E30E949A2397FFD0CFD4CFA11443
:1027B000B10429F183E0CC0FDD1F8A95E1F7FE011A
:1027C000ED5FFE4FE380F12CAE14BF0408F47501F9
:1027D000CD5FDE4F6C817D81AB01445F5C4F04E6D1
:1027E00010E0970182E30E94E42397FDB4CF6C814F
:1027F0007D81645F7C4FA701C6010E94C92C81E0E6
:10280000ABCF0E94F31408950E940A150895A4E026
:10281000B0E0EDE0F4E10C94932C60919C02709197
:102820009D0280919E0290919F020E94722211E06F
:10283000643671058105910518F10E9406116E5FDD
:102840007F4F8F4F9F4F69837A838B839C8310E0E8
:1028500000E030E020E044E050E0BE016F5F7F4FD9
:1028600083E00E949713182F882351F00E9457226B
:1028700060939C0270939D0280939E0290939F02AE
:10288000812F2496E4E00C94AF2CB0E0A0E0EBE4C0
:10289000F4E10C948D2C7C015B016A010E943013E1
:1028A00001E010E0882311F00AE010E0C1E0D0E080
:1028B000B501C701F6010995811104C021960C17D5
:1028C0001D072CF4CDB7DEB7EAE00C94A92CCC9F01
:1028D0009001CD9F300D300D112490E080E045E354
:1028E0004A95F1F70000019682179307C1F7E0CFF0
:1028F000ABE0B0E0EEE7F4E10C948D2C7B01C090EE
:10290000C001D090C10101E010E09E01255F3F4F62
:1029100050E040E070E060E081E00E949713182FE3
:10292000882309F448C0560182E0A80EB11C6091CA
:1029300098027091990280919A0290919B020E9454
:102940007222643671058105910568F10AE010E094
:102950009E012F5F3F4F50E040E070E060E082E07A
:102960000E949713D82E6AE070E0C5010E949C1760
:1029700011E09B85981310E01D2141F10E94572220
:10298000609398027093990280939A0290939B02AD
:102990008AE0FE013196AEE8B2E001900D928A9590
:1029A000E1F711E013C06AE070E0C5010E949C17D6
:1029B0009B858913CBCF8AE0F6013296DE01119612
:1029C00001900D928A95E1F71111E2CF8AE0EEE8CD
:1029D000F2E0D70101900D928A95E1F7812F2B96B5
:1029E000EAE00C94A92C0F931F93CF93DF93EC0193
:1029F0008B0148E754E10E944514882331F047E0F9
:102A000054E1B801CE010E944514DF91CF911F918E
:102A10000F9108950F931F93CF93DF93C091C0013F
:102A2000D091C101CE0102962AE0FB01DC010190A8
:102A30000D922A95E1F76AE070E00E949C17898365
:102A40006C857D858E859F8500918A0210918B0211
:102A500020918C0230918D026017710782079307D5
:102A600051F060938A0270938B0280938C02909352
:102A70008D020E94E910DF91CF911F910F9108956F
:102A80000E94420E08950E94E4210E94AC260E94FA
:102A9000FD0D0E94C6260E942B0E0E94D3260E9486
:102AA000D8260E9440150E94F2260E9477250E9497
:102AB0000B0EF5CF9093DB018093DA010895089512
:102AC0000895ACE0B0E0E7E6F5E10C94952C4F8377
:102AD000588769877A878B879C8786E0FE013796BF
:102AE000DE01119601900D928A95E1F729813A81D4
:102AF0004B815C816D817E8180E090E02C96E2E0EC
:102B00000C94B12CACE0B0E0E8E8F5E10C94952C25
:102B10000E94611580E090E02C96E2E00C94B12CCC
:102B200021E030E001C0220F4A95EAF7662311F058
:102B3000822B0895209582230895E0912301F0913E
:102B400024010190F081E02D09950E945F150E94FB
:102B500060150895CF9360EA72E087EA92E00E94E0
:102B60002C21C82F882321F087EA92E00E94692057
:102B70009091A80286E0E7EAF2E0DF01282F1D929B
:102B80002A95E9F79093A802A0EAB2E001900D928D
:102B90008A95E1F781E0C11103C0911101C080E085
:102BA0008170CF910895A2E1B0E0E9EDF5E10C94D8
:102BB000952CE0912301F09124010280F381E02D16
:102BC0004091A7025091A8026091A9027091AA02B7
:102BD0008091AB029091AC0209952093A7023093AB
:102BE000A8024093A9025093AA026093AB0270938B
:102BF000AC0286E0E7EAF2E0DE011D9601900D925C
:102C00008A95E1F786E0FE013D96DE01119601907E
:102C10000D928A95E1F786E0FE013196DE01179666
:102C200001900D928A95E1F786E0FE013796A7EABA
:102C3000B2E001900D928A95E1F74091A702509180
:102C4000A8026091A9027091AA028091AB029091B2
:102C5000AC020E9482152093A7023093A8024093F1
:102C6000A9025093AA026093AB027093AC020E9437
:102C7000DB1B8091A802832B8093A8020E94AA15D7
:102C8000811109C08091A6021092A60281706296FD
:102C9000E2E00C94B12C81E090E0F6CF9C01215D44
:102CA00031092830310550F44FE2480F8091A802D5
:102CB0000E9490158093A8020E94AA150895809101
:102CC0002501909126012DE7AC01249FC001259F8D
:102CD000900D112408959C01893F910538F481E0FD
:102CE00090E090932601809325010895EDE7F0E0B0
:102CF000BF010E94502CA901481B590BCA01BF01FA
:102D00000E94502C70932601609325010895A4E041
:102D1000B0E0EDE8F6E10C94932C89836A834B8351
:102D20002C8304E610E024E030E0AE014F5F5F4FFB
:102D300060E084E10E949A232496E4E00C94AF2C96
:102D40000E94202320E040E060E080E00E9487169F
:102D500008950F931F9304E610E025E030E0AC01E6
:102D600064E084E10E94E4231F910F9108956817A5
:102D700008F5861B682F21E0469FA0011124649F5F
:102D8000F001659FF00D112440912501509126011D
:102D9000E49FC001E59F900DF49F900D1124880FD2
:102DA000892F881F990B9195222319F09195819570
:102DB00091090895681B20E0DFCFFC01208131815B
:102DC0002038310534F02F573109318320838FE7C4
:102DD000089520388FEF380734F421583F4F31835E
:102DE000208380E80895822F118210820895A1E146
:102DF000B0E0EDEFF6E10C94922C4C87888B998B28
:102E0000152FF62E072FCE01079625E0FC01119213
:102E10002A95E9F72091B3022A3008F03FC00E94BA
:102E2000A916892B09F060C01092B3028B8540E08F
:102E300087FD52C060E0812F0E949015182F80916D
:102E4000B1029091B202009709F040C045E06F8155
:102E500088850E94B7162091AF023091B002820F90
:102E6000931F9093B0028093AF0245E069858A85F5
:102E70000E94B7162091AD023091AE02820F931FCF
:102E80009093AE028093AD028FEA92E00E94DD162D
:102E9000F82E8DEA92E00E94DD16082F1D87FE862F
:102EA0000F8786E0FE013C96DE01119601900D929F
:102EB0008A95E1F729813A814B815C816D817E8120
:102EC00080E090E06196E5E00C94AE2C0197909341
:102ED000B2028093B102E2CF61E0812F0E9490158F
:102EE000182F84E190E0F3CF8091B3028F5F80933D
:102EF000B302D4CF0E94F70C089580E00E943C11E9
:102F0000817008950E947D122FEF86E791E0215095
:102F100080409040E1F700C000000E947D120E94B6
:102F20007D17882321F00E947A170E94B22208950B
:102F30000E94821708950895FC01680F791F8FEF92
:102F400091E36E177F0709F408952191822728E005
:102F500030E087FF06C0880F892721503109C9F763
:102F6000F0CF880FFACF84E0089550E0440F551F4A
:102F700092E1699F400D511D112494EB899F400DF2
:102F8000511D1124CA01889608950F931F93CF9362
:102F9000DF938430C8F46A30B8F44930A8F40E9452
:102FA000B5178C010E94D22CC82FD0E0DC2FCC2783
:102FB000C80101960E94D22C9E01282BC901DF91E5
:102FC000CF911F910F91089590E080E0F8CF0F937B
:102FD0001F93CF93DF93122F032F843078F46A303E
:102FE00068F4493058F40E94B517EC01602F0E9434
:102FF000F02C612FCE0101960E94F02CDF91CF9131
:103000001F910F9108951F93CF93DF93D0E0C0E0FD
:1030100011C0412F6C2F8D2F0E94EE029C01412F79
:103020006C2F8D2F0E94E7171F5F193091F7CF5F2C
:10303000CA3011F010E0EDCFDF5FD43041F7DF91FF
:10304000CF911F910895EF92FF920F931F93CF930B
:10305000DF93EC018A017C01E60EF71ECE01889613
:10306000CE15DF0529F4CDB7DEB7E6E00C94AD2C24
:10307000C03D22E0D20740F40E94D22CF8018083A8
:103080000F5F1F4F2196EACFF8011082F9CFB0E011
:10309000A0E0EDE4F8E10C948F2C7C016A018C0136
:1030A000060F171FEC01CE018896C017D10729F42F
:1030B000CDB7DEB7E8E00C94AB2CC03D22E0D207E0
:1030C00040F4FE01EE19FF09EC0DFD1D60810E9428
:1030D000F02C2196E8CF843038F46A3028F4493057
:1030E00018F40E94C517089590E080E0089580E1EB
:1030F000089588E091E00895EF92FF920F931F9357
:10310000CF93DF93EC018A017C01E60EF71ECE011E
:1031100088509D4FCE15DF0529F4CDB7DEB7E6E028
:103120000C94AD2CC83021E0D20740F40E94D22C80
:10313000F80180830F5F1F4F2196E9CFF8011082BD
:10314000F9CFB0E0A0E0E7EAF8E10C948F2C7C0125
:103150006A018C01060F171FEC01CE0188509D4FAC
:10316000C017D10729F4CDB7DEB7E8E00C94AB2C3B
:10317000C83021E0D20740F4FE01EE19FF09EC0D42
:10318000FD1D60810E94F02C2196E7CFCF93DF9345
:10319000C8EFD2E060E0CE010E94F02C2196C1156C
:1031A00084E0D807B9F7DF91CF910895A8E0B0E0A7
:1031B000ECEDF8E10C948D2CF82E8FE08F1508F4CF
:1031C0006EC08FEF93E00E94D22C811168C008EF8F
:1031D00012E0F11035C0FE0131966F0188E01192C6
:1031E0008A95E9F77801FFEFEF1AFF0AC8010E94FC
:1031F000D22C89831A82882309F451C08130D1F4FA
:10320000580182E0A80EB11CC7010E94D22C8A830B
:10321000882309F444C09FEF980F9330F0F47801AD
:1032200093E0E90EF11CC5010E94D22C8B83882308
:10323000B1F11C8260E0C6010E949C1D8701D2CFC3
:10324000011594E0190759F1C8010E94D22C81118F
:1032500001C0FA940F5F1F4FBCCF7501843051F746
:1032600002E010E07501EFEFEE1AFE0AC5010E94C0
:10327000D22CF601E00FF11F8083882381F08C3778
:1032800041F4E2E0F0E0EC0FFD1FE00FF11F1082CF
:10329000D1CF0F5F1F4F57010730110519F728963F
:1032A000EAE00C94A92CCF93DF93EB0186319C4785
:1032B00011F50E94050C9D81992399F08A7A91E07D
:1032C00009F490E09093B402811109C089E20E9450
:1032D00011210E94940C80E0DF91CF91089585E345
:1032E000F6CF8091B402811104C089E20E941921B5
:1032F000F0CF85E3FBCF81E0EFCFCF93DF93EC01FD
:10330000FB018581882309F4D2C09E013057233206
:10331000310508F0B2C00E941A0D9093D902809333
:10332000D802FE01E150F047E232F10520F4EE5CF4
:10333000F24D0C94782C8091D80281608093D80251
:1033400093C08091D90288608093D9028DC080910A
:10335000D8028260F3CF8091D8028460EFCF809151
:10336000D8028860EBCF8091D9028160EDCF809147
:10337000D9028260E9CF8091D8028061DFCF80914D
:10338000D8028062DBCF8091D8028064D7CF0E94C0
:103390008E078091D8028068D1CF8091D8028C604E
:1033A000CDCF8091D9028360CFCF8091D8028E7F1C
:1033B000C5CF8091D902877FC7CF8091D8028D7FFA
:1033C000BDCF8091D8028B7FB9CF8091D802877F03
:1033D000B5CF8091D9028E7FB7CF8091D9028D7FF2
:1033E000B3CF8091D8028F7EA9CF8091D8028F7DF4
:1033F000A5CF8091D8028F7BA1CF0E948E078091AC
:10340000D8028F779BCF8091D802837F97CF80910E
:10341000D9028C7F99CF8091D80282FB992790F9AD
:1034200021E0922790FB82F990FB83F987CF80916E
:10343000D902982F909591708E7F892B90FB81F9FE
:1034400083CF9091D802892F8F7B96FF806476CFAF
:103450000E948E079091D802892F97FB87F9805898
:103460006DCF81E00E94A20D8091D8029091D90287
:103470000E941F0D0E948E0780E0DF91CF9108957A
:1034800080E0F0CF9091D802892F8F7E94FF8061E9
:1034900055CF9091D802892F8E7F90FF81604ECFBB
:1034A0009091D902892F877F93FF88604DCF81E06B
:1034B000E4CF282F35EB2303C001112497FF04C06C
:1034C00080589109892F089580589F4FFBCF809194
:1034D000BB0280FF0DC060912C0170E0660F771F6A
:1034E0006038710570F56115710569F1862F0895D1
:1034F00081FF07C060912C0184E0689FB001112416
:10350000EFCF60912C0182FD0AC08091BA0288231E
:10351000A9F020912B0160912C01821710F088E016
:10352000ECCF869FC001112433E0880F991F3A9594
:10353000E1F7622F70E00E94642CD2CF68E070E067
:10354000D5CF8FE7089581E008958091BB0280FF79
:103550000CC06091280170E0759567957595679529
:103560006115710549F1862F089581FF06C06091AC
:10357000280170E075956795F3CF6091280182FD71
:103580000BC09091B9029923A1F06091270180911D
:103590002801961738F0682F70E06038710500F345
:1035A0008FE70895899FC001112470E00E94642C68
:1035B000F4CF61E070E0D7CF81E008958D3C31F425
:1035C0000E94671A81958093BF0208958E3C19F47A
:1035D0000E94671AF8CF8F3C31F40E94671A8195D8
:1035E0008093BE020895803D19F40E94671AF8CFB7
:1035F000893D29F40E94A51A8093C00208958A3D4E
:1036000021F40E94A51A8195F7CF8B3D31F40E94D9
:10361000A51A81958093C10208958C3D19F40E94EA
:10362000A51AF8CF9FE2980F983070F4815D990B3E
:1036300021E030E001C0220F8A95EAF78091BD02B7
:10364000822B8093BD0208958D3D31F48091BB02A1
:1036500081608093BB0208958E3D21F48091BB026E
:103660008260F7CF8F3DB9F78091BB028460F1CFC4
:103670004091BE028D3C59F48091BF0287FF0DC07E
:103680001092BF0241110BC01092BA0208C08E3CCA
:1036900081F48091BF0218169CF3442381F080913D
:1036A000C0029091C102892B09F05AC01092B90250
:1036B00008958F3C49F447FFF0CF1092BE028091ED
:1036C000BF028111ECCFE0CF803D19F41416ACF3AA
:1036D000E4CF9091C002893D29F41916F4F61092B6
:1036E000C002DBCF8A3D19F497FFD7CFF8CF909176
:1036F000C1028B3D29F497FFD0CF1092C102CDCFEC
:103700008C3D19F41916CCF3C8CF9FE2980F98306E
:1037100090F4815D990B21E030E0B90102C0660FA1
:10372000771F8A95E2F7CB0180959091BD0289239E
:103730008093BD02B2CF8D3D31F48091BB028E7F6C
:103740008093BB02AACF8E3D21F48091BB028D7F76
:10375000F7CF8F3D09F0A1CF8091BB028B7FF0CFD7
:1037600008950E944B229C019091BE028091BF025D
:10377000982B21F03093B8022093B7029091C002A9
:103780008091C102982B21F03093B6022093B502AC
:103790008CEB92E00E946920089586E0ECEBF2E069
:1037A000DF011D928A95E9F71092BA021092B902D0
:1037B0001092BB020895A6E0B0E0E1EEFBE10C94AC
:1037C000952C86E0ECEBF2E0DE01119601900D9273
:1037D0008A95E1F729813A814B815C816D817E81F7
:1037E00080E090E02696E2E00C94B12CFC0182810E
:1037F00081110EC0838181110BC08481811108C0A9
:1038000091E08581811101C090E0892F8170089538
:1038100081E0FCCFA6E0B0E0E0E1FCE10C94942C68
:1038200086E0ECEBF2E0DE01119601900D928A95B4
:10383000E1F71092BE021092BF021092C0021092E5
:10384000C1028B819C81892B89F08091B702909174
:10385000B8020E946322AC019091BA029923C9F187
:1038600080912D018417150608F440C08D819E813A
:10387000892B91F08091B5029091B6020E9463224B
:10388000AC019091B902992309F46AC08091290191
:103890008417150608F472C0BE016F5F7F4F8CEB72
:1038A00092E00E942C21811105C08CEB92E00E94D5
:1038B000F61B81110E94B11B86E0FE013196ACEB34
:1038C000B2E001900D928A95E1F72696E3E00C9420
:1038D000B02C20912E018AE0289F900111242417FA
:1038E000350720F69F5F9093BA0202C09F3FD1F741
:1038F0001B81112359F00E94671A9FEF11160CF4D7
:1039000091E0899F802D11248093BE021C81112398
:1039100059F00E94671A9FEF11160CF491E0899FED
:10392000802D11248093BF028091BE02882309F468
:103930009DCF1091BF02112309F498CF0E94591A0C
:10394000882351F08093BE02812F0E94591A882348
:1039500029F08093BF028ACF81E0F4CF81E0F9CFD4
:1039600020912A018AE0289F90011124241735070D
:1039700008F092CF9F5F9093B90202C09F3FD1F7AA
:103980001D81112359F00E94A51A9FEF11160CF406
:1039900091E0899F802D11248093C0021E81112304
:1039A00059F00E94A51A9FEF11160CF491E0899F1F
:1039B000802D11248093C1028091C002882309F4D4
:1039C0006BCF1091C102112309F466CF0E94591ADE
:1039D000882351F08093C002812F0E94591A8823B6
:1039E00029F08093C10258CF81E0F4CF81E0F9CF74
:1039F000B0E0A0E0EEEFFCE10C948E2CE82FF0E0BC
:103A0000E458FC4FB490282F26952695269530E053
:103A1000F901E45EFB4F0491877010E0082E02C0AC
:103A2000159507950A94E2F701701127F901E45FF3
:103A3000FB4FE490F12C082E02C0F594E7940A9411
:103A4000E2F791E0E922FF24F901E450FC4FC49130
:103A5000D0E002C0D595C7958A95E2F7C170DD2701
:103A6000C62ED12C0115110549F5E114F10431F0F0
:103A700086EE0E94A804C601009771F5B6018B2D51
:103A80000E942405C601009779F5E114F104A1F51F
:103A90000115110531F081EE0E94F104C601009775
:103AA000C9F5CD2B31F08CE20E943C05C114D10444
:103AB000C9F5CDB7DEB7E9E00C94AA2C81EE0E94DF
:103AC000A804C601009789F2EFE9FFE03197F1F70A
:103AD00000C000000197F6CFEFE9FFE03197F1F762
:103AE00000C000000197C8CFEFE9FFE03197F1F780
:103AF00000C000000197C7CF86EE0E94F104C60106
:103B0000009731F2EFE9FFE03197F1F700C00000D4
:103B10000197F6CFEFE9FFE03197F1F700C0000021
:103B20000197BDCF8FE99FE00197F1F700C000003A
:103B300091E0C91AD108BACFEF92FF920F931F9369
:103B4000CF93DF93EC01162F0AE08881882309F4D4
:103B500059C0813009F052C08981813071F47E01F1
:103B600082E0E80EF11C8A810E943C05E701812F6A
:103B700090E00097D9F52196E8CF823041F47E019C
:103B8000E2E0EE0EF11C8A810E94A804EFCF8330A0
:103B900041F47E01F2E0EF0EF11C8A810E94F104F3
:103BA000E5CF843011F02196E2CF2A81229690E071
:103BB00080E0AE014F5F5F4F2053330B2A30310559
:103BC00050F00097A1F2EFE9FFE03197F1F700C064
:103BD00000000197F6CF089FB001099F700D1124D6
:103BE000C901860F971F2981EA01E3CFEFE9FFE0C2
:103BF0003197F1F700C000000197BBCF612F0E9401
:103C0000F81CB9CFCDB7DEB7E6E00C94AD2C0F931E
:103C10001F93CF93DF93C42FD22FFC01858188237C
:103C2000C9F04093C4020E944B229093C302809338
:103C3000C20280E28C0F883040F4C77081E001C07E
:103C4000880FCA95EAF70E944505DF91CF911F9131
:103C50000F9108951091C402141332C08091C202D2
:103C60009091C3020E946322883C910548F5C0E20E
:103C7000CD0F1D17B9F080E2810F883040F4177026
:103C800081E001C0880F1A95EAF70E944C05C83000
:103C900048F481E09D2F977001C0880F9A95EAF74C
:103CA0000E944505802F0E943C05C83070F6D770F1
:103CB00081E001C0880FDA95EAF70E944C05C5CF74
:103CC00080E28C0F883008F6C77081E001C0880F51
:103CD000CA95EAF7F2CF0F93DB0188519C478730F2
:103CE0009105A0F5FC01EC5AF24D0C94782C06E2FB
:103CF00021EE41EE6AE17CE7CD010E94071E80E0E3
:103D00000F91089507E225EE45EE6BE17CE7F4CFD5
:103D100006E221EE40EE68E17CE7EECF07E225EE19
:103D200044EE69E17CE7E8CF06E221EE42EE6CE189
:103D30007CE7E2CF07E225EE46EE6DE17CE7DCCFE3
:103D400008E221E045EE6EE17CE7D6CF15968C9136
:103D5000882319F01092C402D3CF81E0D1CF1F93F2
:103D6000CF93DF9387372CE7920759F0C1E088376C
:103D70009C47E1F4FB01C581CC2371F10E94F21E46
:103D800006C0FB01C581CC23B1F00E94EF1E0E944A
:103D900006080E94F51ED82F0E94F21EC82F0E940E
:103DA000EF1E4D2F6C2F0E942E09C0E08C2FDF914B
:103DB000CF911F9108950E94EF1E0E9412080E9449
:103DC000F51E182F0E94F21ED82F0E94EF1E412FC1
:103DD0006D2F0E942E09EACF0E94F21EEECF809135
:103DE0003101089580913001089580912F01089547
:103DF00084E290E00E94D22C853289F485E290E042
:103E00000E94D22C823059F486E290E00E94D22C9B
:103E100091E0803209F090E0892F8170089580E070
:103E2000FCCFCF93C82F6FEF811165E284E290E061
:103E30000E94F02C6FEFC11162E085E290E00E94D9
:103E4000F02C6FEFC11160E286E290E00E94F02C4E
:103E5000CF910895089587E290E00E94D22C682FB8
:103E600070E090E080E008950895CF93C62F0E94FF
:103E7000341F6C2F87E290E00E94F02CCF910895C0
:103E800080E00E94111F60E070E0CB010E94351FAE
:103E90000E9403180E94C61881E00E94111F089515
:103EA0000E942A1F0E942B1F0E94341F0E94F81E8E
:103EB000811102C00E94401F089508959C01FB01DA
:103EC0008581882351F0A90157574038510530F4B6
:103ED000822F0E94D61880E0089581E008952FEF88
:103EE000FC01208308950E946F1F089580E00895CB
:103EF000B0E0A0E0EEE7FFE10C948F2CEC01C62EC1
:103F00000E94761F811110C0E881E150E331B8F4BE
:103F1000F0E0E55AF24D0C94782C19828CE08A83FB
:103F20006C2DCE010E946E25CDB7DEB7E8E00C9473
:103F3000AB2C89818230C1F028F4813061F08FEFA1
:103F40008883EECF833099F08430C9F71A821B82C0
:103F50001C821D82E5CF0E9457220E947E2C6A831C
:103F60007B838C839D83DCCF0E942B1FF6CF8A81BD
:103F7000082F10E07E019EE0D92ED80E0A301105E0
:103F800078F6802F0E943C11F701938384830F5FA2
:103F90001F4FF2E0EF0EF11CD012F0CFC1CF89819C
:103FA000823031F0853059F68A810E945D1FB8CF8A
:103FB0006A817B818C819D810E947E2C0E94351FAD
:103FC000AFCF4B816A8189810E94C51798278927C5
:103FD00098279D838C83A4CF2C813D813227232772
:103FE00032274B816A8189810E94E71799CF0E940D
:103FF000031896CF6C2DCE010E94731F91CF0E94A3
:10400000771889838DCF0E94791898278927982758
:104010009A83898385CF6B8170E089819A81AE0113
:104020004C5F5F4F9827892798270E947C1878CF8C
:104030006B8170E089819A81AE014C5F5F4F982758
:10404000892798270E94A1186BCF0E94C61868CFB5
:104050000E94B317D6CF6B8170E089819A81AE013F
:104060004C5F5F4F9827892798270E94231858CFC5
:104070006B8170E089819A81AE014C5F5F4F982718
:10408000892798270E9447184BCF9093CB028093A3
:10409000CA0208950E941413811103C08091C502C1
:1040A0000895E091CA02F091CB02309729F0019077
:1040B000F081E02D0995089580E00895E091CA020D
:1040C000F091CB02309721F00280F381E02D099529
:1040D0000895E091CA02F091CB02309739F022E0C6
:1040E000DC012C930680F781E02D09950895A3E06B
:1040F000B0E0EDE7F0E20C94952C2091C8023091ED
:10410000C90228173907A1F09093C9028093C80209
:10411000E091CA02F091CB02309751F023E029835D
:104120009B838A830084F185E02DCE010196099559
:104130002396E2E00C94B12CA3E0B0E0E2EAF0E2D6
:104140000C94952C2091C6023091C702281739078C
:10415000A1F09093C7028093C602E091CA02F09149
:10416000CB02309751F024E029839B838A8300841B
:10417000F185E02DCE01019609952396E2E00C949D
:10418000B12C40910001509101019A012E5F3F4FE7
:10419000485F5F4F80E02417350709F40895F9015F
:1041A00091919F019923B9F38F5FF5CF882371F027
:1041B0002091000130910101F9013296285F3F4FB3
:1041C0009191981729F0E217F307D1F780E008954D
:1041D00081E008959C01FC0132969FEF80E04191BF
:1041E000461751F09F3F19F4411101C0982F8F5F7E
:1041F0008630A9F79F3F09F40895290F311D97FDD7
:104200003A95F90162830895FC013296089621914E
:10421000261303C0DF0111971C92E817F907B9F7BD
:104220000895682F80910001909101010E94EA2079
:104230000895682F80910001909101010E9404214E
:104240000895E0910001F0910101329686E0DF01CE
:104250001D928A95E9F70895DC01FB0111969C9166
:1042600011978181981322C012968C9112978823FE
:1042700019F0928189131AC013968C911397882391
:1042800019F09381891312C015968C911597882384
:1042900019F0958189130AC014969C91992321F0F5
:1042A00081E02481291303C080E001C081E0817096
:1042B000089508950E945921089581110EC081E04A
:1042C0008093350160913201709133018091340106
:1042D000909135010E945A21089582E0F1CF83E048
:1042E00080933501609132017091330180913401E6
:1042F000909135010E945A2108950E945D210895F0
:1043000081E0809335016091320170913301809199
:104310003401909135010E945A2108950E94802114
:10432000089591E0811101C090E090933401609173
:1043300032017091330180913401909135010E94D6
:104340005A2108958091340108958093330160913A
:1043500032017091330180913401909135010E94B6
:104360005A2108958091330108958093320160911C
:1043700032017091330180913401909135010E9496
:104380005A210895809132010895089508950E9458
:10439000C6210895089508950E94C5210895CF93D8
:1043A0000E94CA210E947D120E94CB21C0E08C2F66
:1043B0000E943C11892B31F4CF5FCA30C1F780E0F5
:1043C000CF91089581E0FCCF85B7806885BF85B720
:1043D000806885BF08951F921FB61F9211248F9386
:1043E0009F93AF93BF938091CC02811113C08091B2
:1043F000080390910903A0910A03B0910B03419621
:10440000A11DB11D8093080390930903A0930A0393
:10441000B0930B03BF91AF919F918F911F901FBEDF
:104420001F90189580912003843031F10E940F0471
:104430001092CC0288E190E020E40FB6F894A895A1
:10444000809360000FBE2093600083B7817F8460FB
:1044500083BF83B7816083BF7894889583B78E7F4D
:1044600083BF0FB6F894A89580916000886180930F
:104470006000109260000FBE08950E948E070E9497
:104480001604089582E084BD93E095BD9AEF97BD30
:1044900080936E0008952FB7F8948091080390914F
:1044A0000903A0910A03B0910B032FBF08952FB702
:1044B000F894609108037091090380910A03909128
:1044C0000B032FBF08959C014FB7F8948091080308
:1044D00090910903A0910A03B0910B034FBF821B77
:1044E000930B0895CF92DF92EF92FF922FB7F8943B
:1044F000C0900803D0900903E0900A03F0900B03EA
:104500002FBFA7019601261B370B480B590BCA0179
:10451000B901FF90EF90DF90CF90089578941F92AB
:104520001FB61F9211248F939F93AF93BF938091D7
:10453000080390910903A0910A03B0910B0301961F
:10454000A11DB11D8093080390930903A0930A0352
:10455000B0930B03BF91AF919F918F911F901FBE9E
:104560001F90189587E797E79093010880930008BC
:1045700088E19AE00FB6F894A895809360000FBE8A
:1045800090936000FFCF88E19AE00FB6F894A89569
:10459000809360000FBE90936000FFCFEF92FF9278
:1045A0000F931F93CF93DF93182FEB011092BC0052
:1045B00084EA8093BC000E944B227C018091BC0065
:1045C00087FF27C08091B900887F883029F08091CB
:1045D000B900887F803189F51093BB0084E880930F
:1045E000BC000E944B228C018091BC0087FF1EC042
:1045F0002091B900287F90E080E0283191F081E09F
:1046000090E0203411F490E080E09195819591093B
:1046100008C0C7010E946322C817D90778F68EEF39
:104620009FEFCDB7DEB7E6E00C94AD2CC8010E9439
:104630006322C817D907C0F6F2CF8FEF9FEFF1CFF3
:104640001092B90088E48093B80008950F931F93E7
:10465000CF93DF93EB018093BB0084E88093BC0091
:104660000E944B228C018091BC0087FF11C02091D9
:10467000B900287F81E090E0283211F490E080E0DA
:10468000919581959109DF91CF911F910F91089597
:10469000CF3FDC0741F3C8010E946322C817D90746
:1046A00010F78EEF9FEFEFCF0F931F93CF93DF9312
:1046B000EC0184EC8093BC000E944B228C01809121
:1046C000BC0087FF08C08091BB0090E0DF91CF91D4
:1046D0001F910F910895CF3FDC0789F3C8010E9415
:1046E0006322C817D90758F78EEF9FEFEFCF0F93CC
:1046F0001F93CF93DF93EC0184E88093BC000E946A
:104700004B228C018091BC0087FF08C08091BB00C8
:1047100090E0DF91CF911F910F910895CF3FDC077B
:1047200089F3C8010E946322C817D90758F78EEF92
:104730009FEFEFCFB0E0A0E0E0EAF3E20C94892C29
:10474000682E762E5A0169010E944B224C01C1E06D
:10475000D0E00431110558F0C5E0D0E00F3F10075C
:1047600031F0C80164E170E00E94502CEB01BE0101
:10477000862D0E94CE227C0197FF1DC00F3F10079F
:10478000B1F3C4010E9463220817190780F784E976
:104790008093BC00C701CDB7DEB7EEE00C94A52C2A
:1047A000B80189910E9426237C01CC16DD0679F39D
:1047B000F7FEF6CFECCFB801872D0E9426237C01AF
:1047C000E501CA0CDB1CF1CFB0E0A0E0EAEEF3E2B9
:1047D0000C94892C782E662E6A01E9010E944B22E6
:1047E0005C01EE24E394F12C0431110560F025E026
:1047F000E22EF12C0F3F100731F0C80164E170E0A8
:104800000E94502C7B01B701872D0E94CE224C01C3
:1048100097FF23C00F3F1007B1F3C5010E94632229
:104820000817190780F784E98093BC00C4011816A3
:10483000190614F490E080E0CDB7DEB7EEE00C94FA
:10484000A52C97FCF0CFC8010E9477234C0197FD5F
:10485000EACFCC0DDD1D8883E6CFB801862D0E94FE
:1048600026234C0197FDDFCF689470F80E944B22FD
:104870005C01EE24E394F12C0431110560F085E035
:10488000E82EF12C0F3F100731F0C80164E170E011
:104890000E94502C7B01B701872D0E94CE224C0133
:1048A00097FF09C00F3F1007B1F3C5010E946322B3
:1048B0000817190780F7F12CE12C2197EC16FD065B
:1048C00008F0BFCF97FCAFCFC8010E9454234C0122
:1048D00097FD04C0F601EE0DFF1D80838FEFE81AEF
:1048E000F80AECCF8093BA0085EC8093BC00089561
:1048F0001F920F920FB60F9211242F933F934F9355
:104900005F936F937F938F939F93AF93BF93CF9357
:10491000DF93EF93FF938091B900887F8038F9F09F
:1049200038F4882309F48EC08036A1F081E035C0C8
:10493000883A11F0883BD1F7E091CE02F0E0E45FD5
:10494000FC4F80818093BB008091CE028F5F80936B
:10495000CE02ECCF1092CD021092CF02E7CF809121
:10496000CD02811139C08091BB008093CE0280912D
:10497000CE02803178F11092CE0280E091E09093E7
:10498000CD024091CE0220910401309105014217E1
:10499000130609F090E09093CF029091BC008295AD
:1049A000880F880F807C892B85688093BC00FF91DD
:1049B000EF91DF91CF91BF91AF919F918F917F91B7
:1049C0006F915F914F913F912F910F900FBE0F907C
:1049D0001F90189581E0D2CFE091CE02F0E0809157
:1049E000BB00E45FFC4F80838091CE028F5F809399
:1049F000CE028091CF02882309F498CFC091C001E4
:104A0000D091C101A88188E0A802D0011124AD5F36
:104A1000BE4F1696ED91FC911797309709F486CF0B
:104A200014962D913C9115972C0F3D1F11966D9169
:104A30007C9112976C0F7D1F13964C9113978C915C
:104A4000099574CF1092BC0071CF08959B01BA01F3
:104A5000909120039430E9F48F708093E9009FEFE8
:104A60008091E800915085FD06C085ED8A95F1F7AB
:104A700000009111F5CF8091E80085FF0AC050E059
:104A800040E0C9010E9468278091E8008E778093FA
:104A9000E800089543E050E0BC0184E00E94262530
:104AA000089546E050E0BC0184E00E942625089568
:104AB000CF93DF93EC010E94A22148E050E0BE01B9
:104AC00081E00E94262588E0FE01A0EDB2E0019081
:104AD0000D928A95E1F7DF91CF910895603231F41C
:104AE00040E250E0BC0182E00E9426250895A0E249
:104AF000B0E0EDE7F5E20C94952C80912003843032
:104B000009F583E08093E9008091E80082FF1AC0F4
:104B10008091E80090E085FF09C050E040E060E24D
:104B200070E0CE0101960E94B72791E08091E800E5
:104B30008B778093E800992329F060E2CE010196FB
:104B40000E94781FA096E2E00C94B12C80911F0384
:104B5000811109C00E9447290E94A4298091E20086
:104B600084608093E200089510921F0308950E94CC
:104B7000802181E00E949121089560911C0381E0D1
:104B8000611101C080E00E946F210895909120037F
:104B900081E0943009F080E060911C030E947D2147
:104BA000089542E061EC81E00E94C32842E261EC9A
:104BB00084E00E94C32842E261EC82E00E94C328A4
:104BC00042E260EC83E00E94C3289091200381E0E0
:104BD000943009F080E060911C030E945D210895EB
:104BE00080912203833009F463C030F48130E1F115
:104BF000823009F4A0C008958A3009F48CC08B304B
:104C000009F471C0893009F052C0809121038132CA
:104C100009F04DC08091250390912603009719F06B
:104C2000029709F044C08091E800877F8093E800F4
:104C30008091E80082FF37C09091F3008091F200EC
:104C4000029731F48091F100813011F0863021F427
:104C50008091F1000E94A5218091E8008B778093DC
:104C6000E8000E94F72823C080912103813AF9F4DB
:104C70008091E800877F8093E800809125039091E0
:104C80002603892B61F468E080ED92E070E00E94D9
:104C900006288091E8008B778093E800089560E013
:104CA00090E080E0F3CF809120038111C1CF08957F
:104CB00080912103813AD9F78091250390912603B1
:104CC000892BA9F78091E800877F8093E800809185
:104CD000E80080FFFCCF0E94A2218093F100809128
:104CE000E8008E77BCCF80912103813201F780915B
:104CF000250390912603892BD1F68091E800877FC8
:104D00008093E8000E94F728809123030E9491215C
:104D10000E948E07089580912103813241F680918F
:104D2000E800877F8093E8000E94F72880912403A1
:104D30000E94B521089580912103813A09F0B7CFEF
:104D40008091E800877F8093E8008091E80080FFF1
:104D5000FCCF0E94C221C1CF84B7877F84BF0FB62A
:104D6000F894A8958091600088618093600010920B
:104D700060000FBE80E890E00FB6F8948093610069
:104D8000909361000FBE0E948E2108950E944729D2
:104D90000E94A429E2EEF0E0808184608083789410
:104DA0000E94232C089586E391E00E9445200895F7
:104DB00080912003853031F480912003853019F0F3
:104DC0000E943D2208950E9412220E94CF21882332
:104DD00099F380911E03882379F30E9452270E9441
:104DE0008E07EACF08959A01409127035091280336
:104DF0000E94FB260895492F55274330510521F184
:104E000068F44130510509F443C04230510509F4BA
:104E100044C090E080E050E040E026C041325105BF
:104E200051F142325105A9F76330710590F7FB014A
:104E3000EE0FFF1FE353FE4F4081518166537E4FBB
:104E4000FB01808190E010C099278130910581F0AD
:104E5000009729F00297E9F6ECE2F4E002C0ECE4F6
:104E6000F4E0849190E0AF01F9015183408308950B
:104E7000EAE3F4E0F6CF6330710558F6660F771F6A
:104E8000FB01ED52FE4F4081518189E090E0ECCF73
:104E900082E190E04BEA54E0E7CF8BE590E040E51B
:104EA00054E0E2CF80E189BD82E189BD09B400FE12
:104EB000FDCF8091D8008F7D8093D8008091E00055
:104EC00082608093E0008091E00081FDFCCF089536
:104ED000AF92BF92CF92DF92FF920F931F93CF9327
:104EE000DF936C01EB018A010E941629F82E8111D3
:104EF00023C00115110539F0F80180819181C81B8B
:104F0000D90BC80ED91EB12CA12C2097A9F08091E5
:104F1000E80085FD22C08091E8008E778093E8004C
:104F200001151105A1F0F80180819181A80EB91E2B
:104F3000B182A08285E0F82E8F2DDF91CF911F9155
:104F40000F91FF90DF90CF90BF90AF9008950E9497
:104F500016298823D1F2F82EEFCFF60181916F0147
:104F60008093F1002197FFEFAF1ABF0ACECFAF9227
:104F7000BF92CF92DF92FF920F931F93CF93DF9355
:104F80006C01EB018A010E941629F82E811123C0C1
:104F90000115110539F0F80180819181C81BD90BE9
:104FA000C80ED91EB12CA12C2097A9F08091E80041
:104FB00085FD22C08091E8008B778093E800011581
:104FC0001105A1F0F80180819181A80EB91EB1826E
:104FD000A08285E0F82E8F2DDF91CF911F910F9148
:104FE000FF90DF90CF90BF90AF9008950E94162958
:104FF0008823D1F2F82EEFCF8091F100F601819352
:105000006F012197FFEFAF1ABF0ACECFFC0180914D
:1050100027039091280386179707A0F06115710563
:1050200029F49091E8009E779093E80090E0611554
:10503000710551F4911108C08091E80082FF34C0DD
:1050400080E00895BC01F2CF809120038823C1F154
:105050008530C1F18091E80083FD30C08091E80087
:1050600082FDEACF8091E80080FFE1CF8091F300DC
:105070002091F200382F6115710519F028303105A3
:1050800058F091E02830310509F090E02091E800D7
:105090002E772093E800CBCF81918093F10061506F
:1050A00071092F5F3F4FE7CF80912003882341F0A4
:1050B000853041F08091E80083FFBECF81E0089504
:1050C00082E0089583E00895FC0180912703909188
:1050D000280386179707A0F06115710529F48091C0
:1050E000E8008E778093E80090E06115710551F437
:1050F000911108C08091E80082FF35C080E00895DA
:10510000BC01F2CF809120038823C9F18530C9F119
:105110008091E80083FD31C08091E80082FDEACFF4
:105120008091E80080FFE1CF8091F3002091F200B0
:10513000382F6115710519F02830310558F091E0CC
:105140002830310509F090E08091E8008E77809357
:10515000E800CBCF84918093F100319661507109C2
:105160002F5F3F4FE6CF80912003882341F08530A9
:1051700041F08091E80083FFBDCF81E0089582E097
:10518000089583E00895982F973028F08F708093CA
:10519000E90081E008959093E900242F762F50E0F4
:1051A000981731F07091EC002091ED005091F000D3
:1051B00021FD02C09F5FE8CF3091EB003E7F30932E
:1051C000EB003091ED003D7F3093ED003091EB002E
:1051D00031603093EB007093EC002093ED0050931E
:1051E000F0002091EE0027FDE5CF80E0089580914A
:1051F000210387FF13C08091E80082FF06C08091E1
:10520000E8008B778093E80004C08091200381112F
:10521000F2CF0895809120038823D9F38091E8008C
:1052200080FFF8CF8091E8008E77ECCF2091E400EA
:105230003091E50095E6A9012091EC00822F817064
:1052400020FF06C08091E80080FF06C080E008953E
:105250002091E80022FD1AC080912003882389F064
:10526000853089F08091EB0085FD0FC02091E4002E
:105270003091E50042175307F9F29150E1F684E0CE
:10528000089582E0089583E0089581E008950E94E2
:10529000B6290E94BE29E0EEF0E080818160808323
:1052A000E8EDF0E080818F77808319BCA7EDB0E056
:1052B0008C918E7F8C9380818F7E808310921F03D0
:1052C00008950F931F93CF93DF930E94B6290E94F6
:1052D000BE29C8EDD0E088818F7788838881806877
:1052E000888388818F7D888319BC10922003109257
:1052F0001C0310921E0310921D0300EE10E0F80133
:1053000080818B7F808388818160888342E060E038
:1053100080E00E94C328E1EEF0E080818E7F8083F0
:10532000E2EEF0E08081816080838081886080830C
:10533000F80180818E7F8083888180618883DF91FE
:10534000CF911F910F910895E8EDF0E080818F7E5D
:105350008083E7EDF0E080818160808384E082BF1C
:1053600081E080931F030E9461290895E8EDF0E039
:1053700080818E7F80831092E20008951092DA007F
:105380001092E10008951F920F920FB60F92112410
:105390002F933F934F935F936F937F938F939F933D
:1053A000AF93BF93EF93FF938091E10082FF0BC017
:1053B0008091E20082FF07C08091E1008B7F8093A3
:1053C000E1000E94222C8091DA0080FF19C08091B8
:1053D000D80080FF15C08091DA008E7F8093DA00BC
:1053E0008091D90080FF96C080E189BD82E189BDAE
:1053F00009B400FEFDCF81E0809320030E94A62522
:105400008091E10080FF19C08091E20080FF15C00B
:105410008091E2008E7F8093E2008091E2008061C3
:105420008093E2008091D80080628093D80019BCFC
:1054300085E0809320030E94BD258091E10084FFD8
:105440002BC08091E20084FF27C080E189BD82E10A
:1054500089BD89B5982F917080FFFBCF8091D800CE
:105460008F7D8093D8008091E1008F7E8093E10052
:105470008091E2008F7E8093E2008091E200816063
:105480008093E20080911C03882309F449C084E0E2
:10549000809320030E94C6258091E10083FF29C0EC
:1054A0008091E20083FF25C08091E100877F809397
:1054B000E10082E08093200310921C038091E100C0
:1054C0008E7F8093E1008091E2008E7F8093E200E6
:1054D0008091E20080618093E20042E060E080E041
:1054E0000E94C3288091F00088608093F0000E94A1
:1054F000B725FF91EF91BF91AF919F918F917F91D0
:105500006F915F914F913F912F910F900FBE0F9030
:105510001F90189519BC109220030E94B42570CFDB
:105520008091E30087FD93E090932003B3CF1F9217
:105530000F920FB60F9211242F933F934F935F93C7
:105540006F937F938F939F93AF93BF93CF93DF938B
:10555000EF93FF93D091E900DF708091EC00C82FAA
:10556000C17080FDC0E81092E9008091F000877F53
:105570008093F00078940E94DB2A1092E9008091D9
:10558000F00088608093F000CD2BCF70C093E900CD
:10559000FF91EF91DF91CF91BF91AF919F918F914B
:1055A0007F916F915F914F913F912F910F900FBE1F
:1055B0000F901F901895AAE2B0E0E1EEFAE20C9489
:1055C000942C81E293E02091F100FC012193CF0122
:1055D000F3E089329F07B9F70E94F0258091E80037
:1055E00083FF1EC180912103909122039A3008F01D
:1055F00017C1E92FF0E0E259F24D0C94782C803875
:1056000099F0823809F00CC1809125038F708730A2
:1056100008F006C18093E9008091EB0085FB8827A4
:1056200080F91092E90006C080911D0390911E033D
:10563000911182609091E800977F9093E8008093A9
:10564000F1001092F1008091E8008E77E5C0882388
:1056500009F4D3C0823009F0E3C0809123038111A3
:10566000D6C0809125038F702FEF280F263008F0C9
:10567000D7C08093E9002091EB0020FFC8C0933091
:1056800031F48091EB0080628093EB00C0C0909178
:10569000EB0090619093EB0021E030E001C0220F1D
:1056A0008A95EAF72093EA001092EA008091EB00D5
:1056B0008860EACF8111B4C0109123031F778091D5
:1056C000E3008078812B8093E3008091E800877F5E
:1056D0008093E8000E94F7288091E80080FFFCCFCB
:1056E0008091E30080688093E30082E0111183E001
:1056F0008093200395C08058823008F091C080913B
:105700002303909124038C3D23E09207A1F583E0CD
:105710008A838AE289834FB7F894DE01139620E0EA
:105720003EE051E2E32FF0E050935700E49120FF78
:1057300003C0E295EF703F5FEF708E2F90E0EA308C
:10574000C0F0C7968D939D932F5F243159F74FBFBB
:105750008091E800877F8093E8006AE270E0CE01E4
:1057600001960E9406288091E8008B778093E800DC
:1057700057C0C096E7CF6091250370912603AE0114
:105780004F5F5F4F0E94F326BC01892B09F448C08C
:105790009091E800977F9093E80089819A810E9418
:1057A0006428E1CF8038E1F58091E800877F80931D
:1057B000E80080911C038093F10045CF811130C037
:1057C00090912303923060F58091E800877F809369
:1057D000E80090931C030E94F72880911C03882303
:1057E00011F084E005C08091E30087FDFACF81E0ED
:1057F000809320030E94D12513C080912303813020
:1058000079F481E0933009F080E080931E031092D8
:10581000E9008091E800877F8093E8000E94F728E4
:105820008091E80083FF0AC08091E800877F809321
:10583000E8008091EB0080628093EB00AA96E3E0A1
:105840000C94B02C0895CF93809120038823A1F06D
:10585000C091E900CF709091EC00892F817090FD8C
:1058600080E8C82B1092E9008091E80083FD0E9437
:10587000DB2ACF70C093E900CF9108950E94472999
:10588000109220030895E8EDF0E08081806180832C
:105890008AE18A95F1F700C08091D900817008955E
:1058A000AA1BBB1B51E107C0AA1FBB1FA617B70746
:1058B00010F0A61BB70B881F991F5A95A9F7809562
:1058C0009095BC01CD01089597FB072E16F4009426
:1058D00007D077FD09D00E94502C07FC05D03EF47C
:1058E000909581959F4F0895709561957F4F08958C
:1058F000EE0FFF1F0590F491E02D0994692796277C
:10590000692778278727782708952F923F924F920B
:105910005F926F927F928F929F92AF92BF92CF923F
:10592000DF92EF92FF920F931F93CF93DF93CDB748
:10593000DEB7CA1BDB0B0FB6F894DEBF0FBECDBFC0
:1059400009942A88398848885F846E847D848C8491
:105950009B84AA84B984C884DF80EE80FD800C819A
:105960001B81AA81B981CE0FD11D0FB6F894DEBF7D
:105970000FBECDBFED010895FB01DC0104C08D9188
:105980000190801921F441505040C8F7881B990BB1
:105990000895FB01DC0102C001900D92415050407E
:1059A000D8F70895F999FECF92BD81BDF89A99274D
:1059B00080B50895A8E1B0E042E050E00C94162DC7
:1059C000DC01A40FB51F4150504048F0CB01840FBB
:1059D000951F2E910E94F12C41505040D0F7089510
:1059E000262FF999FECF92BD81BDF89A019700B498
:1059F000021639F01FBA20BD0FB6F894FA9AF99A38
:105A00000FBE08950396272F0E94F12C0E94F02CC0
:105A1000252F0E94F12C242F0C94F12C0196272F76
:105A20000E94F12C0C94F02CDC01CB01FC01F999C3
:105A3000FECF06C0F2BDE1BDF89A319600B40D92DA
:105A400041505040B8F70895F894FFCF940594055D
:105A5000E405E40549066506C305C3056A06D106E3
:105A6000E006E006D519491ADD19A719AB19E119A5
:105A7000AF19E519F119BB19421ABF19F519C31964
:105A8000F919211AC719FD19281ACD19031A0B1A69
:105A9000B319E919B719ED19D119071A171A311ADB
:105AA000401AA119D919501A881E8E1E771E821EFF
:105AB000941E9A1EA01E8D1F991FCF1FE11FEC1F61
:105AC000F71FFA1FFA1FFA1F9F1F9F1FFF1F0320B8
:105AD0000B201820252028202B203820FF2A272BB8
