:100000000C9448010C94F81A0C9465010C94650149
:100010000C9465010C9465010C9465010C946501C8
:100020000C9465010C9465010C9420200C94F42030
:100030000C9477190C9465010C9465010C9465017E
:100040000C9465010C9465010C9465010C94650198
:100050000C9465010C941A1A0C9465010C946501BA
:100060000C9465010C9465010C9465010C94650178
:100070000C9465010C9465010C9465010C94650168
:100080000C9465010C9465010C9465010C94650158
:100090000C9465010C9465010C9465010C94650148
:1000A0000C9465010C9465010C9465014A003500BF
:1000B0001E001F002000210022003A0000004D0019
:1000C0002B0014001A000800150017003B00000068
:1000D0004B00390004001600070009000A003C002C
:1000E00000004E00E1001D001B0006001900050085
:1000F0003D0000004C00E000E200E30029002C007D
:1001000000003E0000003F002300240025002600E0
:1001100027002D002E002A0040001C0018000C00B3
:10012000120013002F003000310041000B000D00C1
:100130000E000F00330034002800000042001100C0
:100140001000360037003800E5005200E40043009C
:1001500044004500E7000000E600500051004F0059
:100160000C0372006B0064003000310000001003CB
:10017000720069006B006B006F0064006F0000008C
:100180000403090409023B00020100A0FA0904006B
:1001900000010301010009211101000122440007AF
:1001A00005810308000109040100010300000009A2
:1001B0002111010001227B000705820320000112AA
:1001C0000100020000000814E80100000101020023
:1001D0000105010902A10185020901A10005091912
:1001E00001290815002501950875018102050109FD
:1001F0003009311581257F9502750881060938156A
:1002000081257F950175088106050C0A3802158144
:10021000257F950175088106C0C005010980A101EF
:10022000850319012AB700150126B700950175103D
:100230008100C0050C0901A101850419012AA00251
:10024000150126A002950175108100C0050109065F
:10025000A101050719E029E7150025019508750199
:1002600081029501750881010507190029FF150014
:1002700026FF009506750881000508190129051556
:10028000002501950575019102950175039101C045
:1002900011241FBECFEFDAE0DEBFCDBF11E0A0E03A
:1002A000B1E0E6E7F7E402C005900D92A43BB10788
:1002B000D9F722E0A4EBB1E001C01D92A53FB2073F
:1002C000E1F70E944C130C947A230C9400008111E6
:1002D00012C06A3080F4493070F4E42FF0E089E015
:1002E000689FE00DF11D1124EE0FFF1FE455FF4F35
:1002F00085919491089581E090E008950E946701AE
:10030000089581E008950E948101089581E0089593
:100310000E94810108950E948801089508950E9415
:100320008E010895A6E0B0E0E8E9F1E00C94D62251
:1003300049835A839E833091BB0189819A8131110F
:100340001AC03E81332399F0222389F00E9443078B
:10035000182F682F89819A810E941F0769817A81ED
:10036000812F0E942D0E2696E3E00C94F2220E942B
:100370003107182FF3CF0E94430769817A81F1CFAB
:10038000FC01262F40815181628173818481958196
:100390000E9492010895CF93DF93EC0161E00E94E7
:1003A000C001BE010E948301DF91CF910895CF93D8
:1003B000DF93EC0160E00E94C001BE010E948F014A
:1003C000DF91CF91089521E030E0A90102C0440FF0
:1003D000551F8A95E2F7CA010E9441060895CF93FE
:1003E000C82F81E090E00C2E02C0880F991F0A945C
:1003F000E2F70E947F0B8C2F0E94E301CF910895BA
:1004000081E008950E9400020895CF93C82F0E94B2
:10041000F4058C2F0E9402022FEF84E39CE0215010
:1004200080409040E1F700C00000CF91089581E046
:100430000E9405020E943E1A089580E00E94050273
:100440000E944F1A08950F931F93CF93DF938C014F
:1004500061E00E94C001EC01B8010E948B01811192
:1004600006C080E0DF91CF911F910F910895B801F0
:10047000CE010E948D178823A1F3B801CE010E94FE
:10048000C913882371F3B801CE010E949F138823FA
:1004900041F3B801CE010E94710F882311F3F801D6
:1004A0008581882361F0C330FCE7DF07E9F058F469
:1004B000C115ECE7DE07A9F0C130DC47B9F0C8018F
:1004C0000E948601CFCFCB358CE7D807A9F0CC3579
:1004D000ECE7DE0771F0CA35DC4789F70E945A0B5A
:1004E000EECF0E941702BDCF0E94620B0E941D0238
:1004F000B8CF0E94500BE3CF0E945E0BE0CF0E946A
:1005000053190E949F0208950E94A3020E94581945
:10051000089581E008950895CF93DF93D82F0E9426
:100520008902C82F882319F08D2F0E948B028C2FEF
:10053000DF91CF91089508950E948C02089580E084
:100540000E949C0208950E94D6170E949C02089562
:10055000CF930E94D617C82F8091B6018C1779F0DF
:10056000C093B6010E94E3196093B7017093B8017C
:100570008093B9019093BA018C2F0E949C02CF9175
:100580000895ADE0B0E0E7ECF2E00C94D7224887A4
:1005900059876A877B878C879D8791110E94900A73
:1005A0001F8286E0FE013896DE01119601900D92C1
:1005B0008A95E1F78D8181110DC029813A814B81A6
:1005C0005C816D817E818F810E94DA092D96E2E047
:1005D0000C94F322CE0101960E94CB018111EDCF44
:1005E000F5CFFC012481213021F4808191810E948A
:1005F00075070895662329F00E942A150E94FD15AB
:1006000008950E948415FACFCF93C82F882399F0BC
:100610008CEF8C0F813A88F48C2F0E94621888230B
:1006200029F08C2F0E94A5180E94FF0A8C2F0E948F
:100630009D180E94FF0ACF91089580E28C0F8830A8
:1006400048F4C77081E001C0880FCA95EAF70E949C
:10065000730AEFCFEBE5EC0FE33040F4F0E0E9593B
:10066000FE4F808190E00E940318E5CFE8E5EC0F93
:10067000EB3150F4F0E0EE0FFF1FEF5CFE4F808196
:1006800091810E942818D7CF83E38C0F833198F68D
:1006900061E08C2F0E94FA02CECF882381F19CEF7B
:1006A000980F913A28F40E94A5180E94FF0A089515
:1006B00090E2980F983050F4877091E001C0990F44
:1006C0008A95EAF7892F0E94790AEFCF9BE5980F68
:1006D000933028F490E080E00E940318089598E594
:1006E000980F9B3128F490E080E00E94281808952C
:1006F00093E3980F933118F460E00E94FA02089592
:100700001F93CF93DF93182FEB010E9404032097D0
:1007100039F4812F0E944D03DF91CF911F910895ED
:100720008FE99FE00197F1F700C000002197EFCF1C
:1007300070E060E0893311F460E570E00E948003AE
:100740000895882321F00E94730A0E94FF0A0895E9
:10075000882321F00E94790A0E94FF0A0895B0E0E0
:10076000A0E0E5EBF3E00C94D0226C01D62FC72F6C
:10077000FC011581068102950F700E94690AE82E1E
:100780008823F9F0E12E1123E1F08C2F807F803453
:1007900061F080E28D0F883008F18C2F807E8032EE
:1007A00021F4D230D8F00023C9F08091B50282FF45
:1007B00015C082E00E94240B0E94690A91E0E82E95
:1007C000E926BC2EB2949FE0B922FBE0FB15B8F1FC
:1007D000EB2DF0E0E458FC4D0C94C122E12CF1CF5C
:1007E0000C2F0F70C07F11F00295007F112399F03C
:1007F000002359F080E28D0F883010F0D11107C02E
:10080000802F0E94730A0E94FF0A8D2F5AC0802FEA
:100810000E94830AF8CF8D2F0E944D03002379F0A8
:1008200080E28D0F883010F0D11104C0802F0E941B
:10083000790A03C0802F0E94890A0E94FF0AEB2DCB
:10084000E850FF0B349720F40E94D6170E949C02B8
:10085000EE2089F00E94650A80FD0DC0F601158228
:100860000E945F0A0E947D06C6010E94BB050E948D
:100870005F0A0E948D06CDB7DEB7E9E00C94EC224A
:100880002C2F2F70F22EC07FC03219F0F29480EF1F
:10089000F822DD2341F0D130D1F1112309F444C015
:1008A0000023F1F0B2CF8091B50282FD15C0112373
:1008B00059F0FF2029F08F2D0E94730A0E94FF0A31
:1008C00080E00E940403BBCF80E00E944D03FF2024
:1008D00009F4B5CF8F2DABCF112369F0011104C0FE
:1008E0008F2D0E94A103ABCF013009F0A8CF8F2D2F
:1008F0000E94A70AA4CF0111A2CF8F2D0E94A803A6
:100900008F2D0E94B30A8F2D0E94970A98CF112332
:1009100021F0063008F093CFE3CF053008F08FCFF9
:100920008F2D0E94A8038BCF0023D1F3D93349F434
:100930003FEF87EE93E0315080409040E1F700C0F8
:1009400000008D2F0E944D037ACF8C2F86958695BF
:10095000837069F0813009F072CF8D2F9C2F9370D6
:10096000111102C080E090E00E94281868CF8D2FFE
:100970009C2F9370111102C080E090E00E94031838
:100980005ECF612F8D2F0E94FA0259CF8C2F83707A
:10099000A1F5111154CF4D2F429546954770440F44
:1009A000440F2D2F2F7030E0042E02C0220F331F72
:1009B0000A94E2F790E080E0D4FF09C08FE090E075
:1009C00002C0880F991F4A95E2F780959095C695C9
:1009D000C695C370822B932BC23049F058F4C130B6
:1009E00019F00E944D062BCF0E94440628CF0E948A
:1009F000560625CF0E94410622CF8695112311F07D
:100A00008C2F8170882309F41ACF4D2F429546957B
:100A10004770440F440F2D2F2F7030E0042E02C07A
:100A2000220F331F0A94E2F790E080E0D4FF09C060
:100A30008FE090E002C0880F991F4A95E2F78095F9
:100A40009095C695C695C370822B932BC23049F002
:100A500058F4C13019F00E94B806F1CE0E94AF06DA
:100A6000EECE0E94C106EBCE0E946506E8CECF70A6
:100A7000112329F08C2F0E947D068D2F32CF8D2FD0
:100A80000E94A8038C2F0E948D06D9CED23F41F13F
:100A900060F4D03FB9F0D13F81F0112309F443C095
:100AA0000111B3CE8C2F8F711FC0D33F01F1D43F02
:100AB000A1F78091B50282FD24C08C2F8F71112384
:100AC00011F312C0112341F0053008F0B8CE8C2F7D
:100AD0008F710E949F06B3CE063008F0B0CEF7CFDC
:100AE0008C2F8F711111CFCF0E947D06A8CE1123BC
:100AF00029F08C2F8F710E947106A1CE0E946C0686
:100B00009ECE112331F063E08C2F8F710E94060B73
:100B100096CE81E00E94240B023008F490CE82E051
:100B20000E94240B8CCE002359F0D93309F009CF51
:100B3000EFEFF7EE23E0E150F0402040E1F7FFCE89
:100B40008C2F8F71A0CF0F931F93CF93DF93EC0166
:100B5000688179818D810E9480078C010E94CA067C
:100B60000E944006B801CE010E94AF03DF91CF91F1
:100B70001F910F910895CF93DF93EC018C8188230F
:100B800099F0CE010E942302811111C00E94690ACE
:100B9000882351F08D81882339F08091B50282FF3E
:100BA00003C082E00E94240BDF91CF910895CE0113
:100BB0000E94A305CE010E94D701F6CF90E080E00D
:100BC0000E94031890E080E00E9428180E94900A7A
:100BD0000E94FF0A0E9419160E94FD1508950E94A6
:100BE000AD180E94DE0508950E94800A0E94EF055C
:100BF000089592959F70963091F058F4925F9F708F
:100C0000923058F4803F19F030F4883E30F481E09F
:100C100008959A5FF4CF843FD1F380E00895883E31
:100C2000B0F3813FD1F7F3CFFC012481222339F0C7
:100C3000808191810E9475070E94F905089580E0E6
:100C40000895A6E0B0E0E7E2F6E00C94D7222696FD
:100C5000E2E00C94F322A7E0B0E0E1E3F6E00C94CC
:100C6000D7222796E2E00C94F32208950E943506DD
:100C700008950E9436069093EF018093EE01089547
:100C800008950E94390608952091EE013091EF01F8
:100C9000822B932B0E94390608952091EE0130910A
:100CA000EF01822393230E94390608952091EE01DB
:100CB0003091EF01822793270E94390608950E9400
:100CC000350608950E945F0608950E94620690937B
:100CD000ED018093EC01089590E080E00E946506AC
:100CE000089521E030E0A90102C0440F551F8A9504
:100CF000E2F7CA010E946506089521E030E002C0D3
:100D0000220F331F8A95E2F78091EC019091ED015B
:100D1000822B932B0E946506089521E030E002C0EB
:100D2000220F331F8A95E2F7209530958091EC01D0
:100D30009091ED01822393230E946506089521E09E
:100D400030E002C0220F331F8A95E2F78091EC0158
:100D50009091ED01822793270E94650608952091C6
:100D6000EC013091ED01822B932B0E9465060895D2
:100D70002091EC013091ED01822393230E946506BE
:100D800008952091EC013091ED01822793270E9474
:100D9000650608950895262F277091E001C0990FE8
:100DA0002A95EAF723E0769567952A95E1F7660F8D
:100DB000771F660F771FFA01E60FF71F50E040E03C
:100DC000682F70E08191DF0111979B01042E02C012
:100DD000369527950A94E2F7217021952827292333
:100DE00028272C934F5F5F4F4430510559F70895E2
:100DF000A82FA77023E0969587952A95E1F7880F8D
:100E0000991F880F991FFB01E80FF91F50E040E080
:100E100080E0219130E00A2E02C0369527950A9491
:100E2000E2F721703327042E01C0220F0A94EAF75B
:100E3000822B4F5F5F4F4430510559F70895262F9D
:100E40009A3070F4893060F4682F70E089E0989FE0
:100E5000600D711D11244CEB51E0822F0E94CB06D6
:100E60000895292F9A3068F4893058F490E06CEB9B
:100E700071E039E0239F800D911D11240E94F80636
:100E8000089580E00895B0E0A0E0E9E4F7E00C9474
:100E9000D0227C010091EC011091ED018091EE01D6
:100EA0009091EF01082B192BCFE0D0E0CC24C39414
:100EB000D12CBC2EC6010C2E02C0880F991F0A949B
:100EC000E2F780239123892B49F4219790F7B12CE5
:100ED0008B2DCDB7DEB7E9E00C94EC22B7018C2F57
:100EE0000E94390E019789F3F3CFCF93DF93EC0182
:100EF0000E944307BE010E94390EDF91CF910895F1
:100F00001F93CF93DF93EB019091BB01992339F0AD
:100F1000CB010E947507DF91CF911F91089588231F
:100F200069F0CB010E944307182F682FCE010E9461
:100F30001F07BE01812F0E94390EEDCFCB010E9409
:100F40003107182FF6CF1F93CF93DF93C091F00195
:100F500017E08091F1018C1304C0DF91CF911F91B4
:100F60000895D0E01C9FF0011D9FF00D1124EE505C
:100F7000FE4F208131814281538164817581868158
:100F80000E942B062196C770E4CF20912A0230914F
:100F90002B0240912C0250912D0260912E027091F3
:100FA0002F02809130020E942B060895CF93DF9389
:100FB00080913002807F09F04DC080912F028823FC
:100FC00009F448C0E091F0015091F101C0912B0269
:100FD000D0912A0260912C0270912D0247E05E1799
:100FE000C9F18E2F90E0E49FF0011124EE50FE4FE6
:100FF0002481222391F1489FF001499FF00D112493
:10100000DF01AE50BE4F11962C9111972C1325C0C5
:101010002C912D1322C015962C91159721111DC0CE
:1010200012962D913C91261B370B283C3105A8F4D4
:10103000809130028F70806180933002E850FE4FC3
:1010400080818F70806180838AE292E00E94BB057C
:101050000E94A307DF91CF910895FC013196E770BC
:10106000BECF482F2091F0019091F10157E0291354
:1010700002C080E0089530E0529FF001539FF00DD0
:101080001124EE50FE4F8181681306C08081481301
:1010900003C085818111EECF2F5F3F4F2770E7CFCF
:1010A000A4E1B0E0E6E5F8E00C94CD228C0186E006
:1010B000F801DE011F9601900D928A95E1F7F80183
:1010C0008481E5809AE2A92E92E0B92E90912E02B9
:1010D00091111FC08823D1F0EE20A9F0C8010E9411
:1010E0001406F82E882379F087E0F801D5010190E5
:1010F0000D928A95E1F7C5010E94F1020E94D60780
:101100000E94C5075FC0C8010E94BB05FF24F3947D
:1011100059C0C080D18082809380F0902F022091AE
:101120002C0230912D02A401421B530BFF2009F425
:10113000F9C0483C510508F0A7C0882309F442C013
:1011400090912B0280913002282F207F09F05CC003
:101150009D1116C090912A02C91212C0E1104EC012
:101160008F708061809330020E94C5078AE292E00E
:101170000E94BB0580913002F8018683F12C22C0C9
:10118000E1103CC06D2D8C2D0E9431086D2D8C2DF1
:101190000E943108E82E8111F1CFCF86D88A8F8541
:1011A00098890E947507292F22952F70243078F492
:1011B0009F702230A8F09923B9F0F8019681907FB2
:1011C00099F4FE2C8F2D6496ECE00C94E9222A5FB2
:1011D0002F70223068F0C8010E94BB05EF2CF1CFC0
:1011E000992311F0882369F3805E883050F3F3CFA0
:1011F000803F38F3815F833070F7E3CF8091300216
:10120000816080933002BACF9D1113C090912A0261
:10121000C9120FC0E1100DC08683C8010E94BB0532
:1012200087E0F801AAE2B2E001900D928A95E1F719
:1012300067CFC8010E941406882309F464CFEE200A
:1012400009F461CF80913002803288F020912A0227
:1012500030912B02398728879B868A8690912E02AF
:101260009C871D868E87CE0108960E94BB0587E06D
:10127000F801AAE2B2E001900D928A95E1F70E948E
:10128000D6070E94C50742CF90913002292F207FB8
:10129000A1F4682D9A8A898AA6017A899E2D0E94D6
:1012A00021068AE292E00E94BB0587E0F5011192D7
:1012B0008A95E9F70E94C50761CF882309F482CF98
:1012C00080912B028D1110C080912A02C8120CC08F
:1012D000E1100AC09683C8010E94BB0587E0F501B2
:1012E00011928A95E9F76ECFC8010E9414068823EF
:1012F00009F409CFEE2009F406CF80913002803244
:1013000008F4B5CF20912A0230912B023A83298329
:101310009C828B8290912E029D831E828F83CE01B0
:101320000196A3CF483C5105B8F5882309F4EECEC9
:10133000FE2CEE2009F4E7CE80912B028D111EC009
:1013400080912A02C8121AC08091300280FD0DC01F
:10135000982F907F51F08683903F09F45ECF982FAD
:10136000907F905F8F70892B57CF87E0F801AAE2BA
:10137000B2E001900D928A95E1F724CFC8010E9456
:101380001406811174CF8091300281608093300205
:10139000C8010E94BB0516CF682D9A8A898AA601CA
:1013A0007A899E2D0E94210687E0F50111928A9587
:1013B000E9F7A6CEAEE0B0E0E0EEF9E00C94D6227C
:1013C000288739874A875B876C877D878E87CE0120
:1013D00008960E9450088823B1F06C85662341F07E
:1013E000288539854A855B857D858E850E942B06FB
:1013F00017E08091F0019091F10189133DC02E9684
:10140000E3E00C94F22287E0FE013896DE011196AB
:1014100001900D928A95E1F78C85882349F32091FC
:10142000F10130E0C9010196877099274091F001E0
:101430004817190699F097E0929FD001939FB00D3D
:101440001124AE50BE4FFE01319601900D929A9537
:10145000E1F78093F1010E94A307CACF0E94F4052F
:101460001092F1011092F00187E0EAE2F2E0DF0170
:101470001D928A95E9F7BCCF819FC00111248E503F
:101480009E4F0E945008882309F4B9CFE091F001E3
:101490001E9FF0011124EE50FE4F208131814281C8
:1014A00053816481758186810E942B068091F001B1
:1014B00090E00196877099278093F0019ACF8091F0
:1014C00039028695869586950895809139028770B0
:1014D000089590913902977081E009F480E00895B1
:1014E00080914502089590914502892B8093450291
:1014F0000895809590914502982390934502089510
:1015000010924502089590914402892B80934402E1
:1015100008958095909144029823909344020895F1
:1015200010924402089508950E94930A089590919C
:101530003A02292F282331F08095892380933A029B
:101540000E94940A089508950E94A30A0895909114
:101550003B02292F2823281729F0982B90933B0230
:101560000E94A40A089590913B02292F282331F06C
:101570008095892380933B020E94A40A089580915C
:101580003B02882329F010923B0280E00E94A40ACB
:1015900008950F931F93CF93DF9300910001109153
:1015A0000101C091450280914402C82B80913B0209
:1015B000882331F0C82B0E944D1881110E94BF0A68
:1015C000F801C083C0910001D091010148E050E0D2
:1015D00061E372E0CE010E941223892B59F088E06A
:1015E000FE01A1E3B2E001900D928A95E1F7CE01F0
:1015F0000E94EA17DF91CF911F910F9108950E94E9
:10160000C90A089508950E94020B08959091B502A9
:1016100092FF11C098E0899F90011124622B609382
:1016200039020E947D0680913902869586958695BD
:101630000E94030B08950E947D06089510923902BE
:1016400080E00E94030B08959091390280958923D0
:1016500080933902282F277069F4891759F09091E7
:10166000B50292FF07C08695869586950E948D06E5
:101670000E941E0B08959091B50292FB222720F93B
:10168000281769F080FB92F99093B5028091B4021B
:101690009091B5020E948A0B82E00E94240B08956B
:1016A0008091B50282FB882780F991E089270E940A
:1016B0003B0B089581E00E943B0B089580E00E945F
:1016C0003B0B08956FEF7FEF90E080E00E94642372
:1016D000089590E080E00E94302321E0853E9E4FF7
:1016E00009F020E0822F089582E090E00E942823F4
:1016F000089583E090E00E94282390E00895682FE9
:1017000083E090E00E944623089584E090E00E94E8
:1017100030230895BC0184E090E00E946423089582
:10172000AB01BC018FE090E00E9458230895AB010B
:10173000BC0183E190E00E945823089560E070E0CE
:10174000CB010E94970B089560E070E0CB010E94EE
:10175000900B0E949E0B0895A8E0B0E0E2EBFBE046
:101760000C94D72265EE7EEF90E080E00E94642327
:1017700060E082E090E00E94462381E090E0909358
:10178000EF018093EE010E947F0B60E074E184E042
:1017900090E00E94642360E086E090E00E9446238F
:1017A00060E087E090E00E94462340E050E0BA010C
:1017B00088E090E00E94582360E083E290E00E947D
:1017C000462360E08CE090E00E94462360E08DE0DC
:1017D00090E00E94462319821A821B821C821D827D
:1017E0001E821F82188648E050E067E170E0CE015B
:1017F00001960E94362340E050E0BA018FE190E06C
:101800000E9458230E94A40B2896E2E00C94F32235
:101810000E94AC0B0895682F8EE090E00E94462352
:101820000895A6E0B0E0E7E1FCE00C94D5220E9428
:10183000D7198C0180914602909147028017910739
:1018400081F019821A820E94D719682F49815A8122
:10185000792F80E090E00E94C1021093470200932C
:1018600046022696E4E00C94F1220E94550F609304
:1018700060027093610280936202909363026093AE
:101880005C0270935D0280935E0290935F02089504
:10189000089508950E94480C089508950E944D0CE3
:1018A000089581E008958FE69FE00E9461130E94F1
:1018B000490C0E944A0C08950E94631108950895EE
:1018C00008950E945F0C0E94600C08950E94690BAD
:1018D000811102C00E94080C0E94740B8093640264
:1018E0000E94850B9093B5028093B4020E948413EA
:1018F0000E94790B0E9441068091EC019091ED01CC
:101900000E94620608950E94CE190E942F0F0E9425
:1019100066110E94A9100E94660C0E949B020E9400
:1019200087130E9478110E944E0C0895A6E0B0E043
:10193000ECE9FCE00C94CB220E94510C81110CC00C
:101940000E94110C0E9463110E943B160E94A80283
:101950002696EEE00C94E7220E94CC1028E4822E1A
:1019600022E0922E640110E0F601E190F1906F0107
:10197000812F0E948B0F1F5F1A3009F44BC0E816AD
:10198000F90691F38091640281FD0E94940F0E94F8
:101990005C0C782E10E066246394812F0E948B0FDC
:1019A0007C01F401A190B1904F018A159B0561F172
:1019B000A826BF2400E0CC24C394D12CC5018C21DF
:1019C0009D21892BC1F07720B1F009831A830E94F1
:1019D000D7199C838B836D8221E0C7018C219D21C7
:1019E000892B09F420E049815A816B817C818D81AA
:1019F000922F0E94C1020F5FCC0CDD1C0930F1F662
:101A0000F4013297F182E0821F5F1A3031F60E94B2
:101A1000350C98CFE816F90609F0B4CF91CF1F9393
:101A2000CF93DF930E943E0EEC01C11580E5D807ED
:101A3000F0F5C11580E4D80708F09CC0C03ED10580
:101A400020F5CD3CD10508F082C0C83AD10578F424
:101A5000C53AD10508F073C0C130D10519F12097FE
:101A600009F1C430D105F0F4D0E0C0E01BC0C33CA4
:101A7000D105D0F7C85AD0E0CC0FDD1FC659DE4FD4
:101A80000990D881C02DD4640DC0C11580E2D8075B
:101A900008F0D1C0C11581E0D80708F05AC0C83E8F
:101AA000D10510F7CE01DF91CF911F910895C03677
:101AB00082E5D80718F5C03482E5D80708F06BC076
:101AC000C03282E5D80708F05FC0C11582E5D807AB
:101AD00008F497C02C2F2695269580E2289F900128
:101AE00011248C2F8370C1E0D0E002C0CC0FDD1F29
:101AF0008A95E2F7C22BD32BDD68D4CFC03A82E5BA
:101B0000D80760F4C03882E5D80708F459C0CF710F
:101B1000D0E0DC2FCC27C46FD06AC4CFC03C82E5B4
:101B2000D80708F462C0C03E82E5D80708F09CCF11
:101B3000DC2FCC27CC27DF71C06FD06AB3CFC55A5A
:101B4000D0E0C056DE4FC881D0E0D064ABCFD065C6
:101B5000A9CF8D2F0E94E00E182FCE0199270E9449
:101B60003E0EC12FD0E0DC2FCC27CC27DF71C82B55
:101B7000D92B98CFCE0199270E943E0ECC27DF703B
:101B8000C82BD92BD06A8ECFCF71D0E0DC2FCC27D9
:101B9000C16FD06A87CF2C2F26952695277080E2BB
:101BA000289F900111248C2F8370C1E0D0E002C0E7
:101BB000CC0FDD1F8A95E2F7C22BD32BDC6872CFE6
:101BC0002C2F26952695277080E2289F90011124BE
:101BD0008C2F8370C1E0D0E002C0CC0FDD1F8A954E
:101BE000E2F7C22BD32BDA685DCF8C2F8F710E9466
:101BF000E00EC82FD0E0DC2FCC27CC27DF71D062DD
:101C000051CF8C2F8F710E94E00E55E0D695C7956D
:101C10005A95E1F7CF70D0E0DC2FCC27282F30E0A9
:101C200084FF05C044E0220F331F4A95E1F7C22B21
:101C3000D32BD06937CF8D2F8F710E94E00E182FD4
:101C4000CE0199270E943E0EC12FD0E0DC2FCC2779
:101C5000CC27DF71C82BD92BD2CF462F7A3030F466
:101C6000693020F4672F0E947E01089590E080E0A3
:101C700008950E942D0E0E940F0D0895823891053F
:101C8000B9F1B0F48133910509F47DC048F489328B
:101C9000910509F46DC08A32910509F47BC008955D
:101CA0008533910509F45FC08933910509F10895E1
:101CB000833E9105D9F138F4803E910529F1823EA9
:101CC000910579F10895863E9105D9F1873E9105F8
:101CD00009F43EC0843E910541F52091B50221FFF3
:101CE00024C08091B40284FD19C087EE90E008956D
:101CF0002091B402237009F05AC02091B50223FF4D
:101D000014C089E290E008952091B40220FD38C00B
:101D10003091B50230FF09C024FF43C090E080E05D
:101D200008952091B40222FDF7CF08952091B402C6
:101D300022FD3AC03091B50230FD39C024FFF5CF05
:101D4000EDCF2091B40223FFF0CF24FDE7CFCDCF1C
:101D50002091B40223FD2EC03091B50231FFEECFA9
:101D600084EE90E008952091B40225FFDECFC9CF24
:101D70002091B40225FD21C02091B50223FFD5CFCB
:101D800089E390E0D2CF2091B40226FFCECF8AE241
:101D900090E008952091B40226FFC7CF81E390E040
:101DA000089583EE90E0089582EE90E0089580EE2D
:101DB00090E0089586EE90E0089585E390E0089520
:101DC0009091B40292FF10C041E0282F247124307A
:101DD00009F040E031E0282F2871283009F030E088
:101DE000431711F02CE0822793FF10C041E0282F09
:101DF0002471243109F040E031E0282F2871283186
:101E000009F030E0431711F02CE082273091B50241
:101E100030FF10C051E0282F2171213009F050E02F
:101E200041E0282F2871283009F040E0541711F0C4
:101E300029E0822731FF10C041E0282F2171213194
:101E400009F040E031E0282F2871283109F030E016
:101E5000431711F029E0822794FD877E08951092A0
:101E6000B6021092B7021092B8021092B902089509
:101E7000CF92DF92EF92FF926B017C010E9463117F
:101E800081110EC00E94E319C61AD70AE80AF90A9E
:101E9000C092B602D092B702E092B802F092B902B4
:101EA000FF90EF90DF90CF9008950F931F930E94C3
:101EB0006311882329F00E94E3191F910F9108955F
:101EC0000E94E3190091B6021091B7022091B80266
:101ED0003091B902600F711F821F931FEECF80E017
:101EE0000895CF939C01205E3245C1E02032310538
:101EF00038F4FB01C581C11103C08F710E94EF014D
:101F00008C2FCF91089508950E94830F089508950E
:101F10000E94870F0895E82FF0E0EE0FFF1FE153B6
:101F2000FD4F808191810895089580EA8A95F1F7A7
:101F3000089500C008950E94950F089508950E9485
:101F40009E0F0895AAE0B0E0E8EAFFE00C94D322E7
:101F50000E946311F82E6091E302882309F446C0C1
:101F60005AE0E52E8E010F5F1F4FF8018E2D119262
:101F70008A95E9F7862F90E0880F991FB801815361
:101F80009D4F0E9486118823C9F08091BA0290E08B
:101F9000880F991F4AE050E0B80181539D4F0E947D
:101FA000122321E020936502892B91F4F12C0E94E9
:101FB000880F8F2D2A96E6E00C94EF22809165021F
:101FC0008823A1F3F8011192EA94E9F710926502CF
:101FD000A091BA02B0E0AA0FBB1FA153BD4F8AE087
:101FE000F80101900D928A95E1F7E1CF70E0660F5C
:101FF000771F61537D4F8091BA0290E0880F991F3F
:1020000081539D4F0E940D120E949F0FD2CFF894D2
:10201000E82FE295EF70F0E031A1282F2F7081E0DA
:1020200090E001C0880F2A95EAF7982F90959323A6
:1020300091A392A1892B82A378940895CF93DF93E3
:10204000CCEAD1E089918F3F11F00E94071081E026
:10205000C13BD807B9F7C3EAD1E089918F3F11F0AE
:102060000E94071081E0CC3AD807B9F7DF91CF91F1
:102070000895AF92BF92DF92EF92FF920F931F935A
:10208000CF93DF938C01D62EC62FD0E0CE0184559E
:102090009E4F7C01FC0120812F3F09F44DC0F89434
:1020A000E22FE295EF70F0E031A12F7081E090E037
:1020B00001C0880F2A95EAF7932F982B91A392A13C
:1020C0008095892382A378940E94990FE3EAF1E036
:1020D0004CEA51E021E030E0B12CA12C61916F3F3E
:1020E000A9F1A62FA295AF70B0E090968C9190E0E8
:1020F0006F7002C0959587956A95E2F780FD26C0BE
:10210000C901A82AB92A220F331F4E175F0731F7DA
:10211000F70180818F3F11F00E94071061E0A11448
:10212000B10409F460E08D2D0E949B0FCC0FDD1FE0
:10213000C00FD11FB982A882DF91CF911F910F915B
:10214000FF90EF90DF90BF90AF90089590E080E017
:10215000D8CF809102018091020195E0811190E039
:102160009093E30285E0891B8093BA020E941E10BF
:1021700084E1EFECF2E0DF01982F1D929A95E9F7E8
:10218000EBEBF2E0DF011D928A95E9F785E00E9412
:102190000C110E94840F0895A4E1B0E0E2EDF0E19B
:1021A0000C94D4228E010F5F1F4F84E1F80111922D
:1021B0008A95E9F7F12C6F2DC8010E943910F3942C
:1021C000F5E0FF12F8CF44E150E0B8018BEB92E06C
:1021D0000E94122321E0009709F420E0892B41F0AE
:1021E00084E1F801ABEBB2E001900D928A95E1F742
:1021F0006091E30270E0660F771F61537D4F45E009
:102200008BEB92E00E940D11182F0E94A20F812BE0
:102210006496E5E00C94F0220895B0E0A0E0E3E1DC
:10222000F1E10C94D1226C017B01042FC22F2223F7
:1022300079F081E0809368020E94D7199093670239
:102240008093660280E0CDB7DEB7E8E00C94ED2223
:10225000D0916802DD23B1F380916602909167020C
:102260000E94EF19059770F310E0000F111FA801ED
:10227000B601C7010E941223892B31F0A801B601D3
:10228000C7010E941F23CD2F109268028C2FDBCF35
:1022900052985A988FE891E00197F1F700C000003A
:1022A00089B182FB882780F90895CF930E94A022EC
:1022B000C82F811102C00E949B228C2FCF910895BC
:1022C00080916C02089580916B0208950E945511CF
:1022D00080936B020E94481180936C020E946011EF
:1022E000809302010E94631181110E94BC11089524
:1022F0000E946311811102C00E94BF11089581E004
:1023000090916D029A3008F080E008950F931F932A
:10231000CF93DF93EC018B0180916D028A30B8F48A
:10232000B801CE010E940A12C82F811122C08091EB
:102330006D028F3FB9F40E94D71990936A0280937F
:1023400069028C2FDF91CF911F910F910895809199
:10235000690290916A020E94EF19843F914000F750
:10236000C0E0EFCF8F5F80936D028A3020F7C1E02D
:10237000E8CF10926D02E5CF0E94B21A08950E9434
:10238000B51A0895B0E0A0E0E8ECF1E10C94D22297
:102390007901C82F880FDD0B41155105A9F0FE0109
:1023A00093E0EE0FFF1F9A95E1F7ED5FFE4F8181FD
:1023B000928182599D4F208130E04217530708F4E3
:1023C0009A01A9010E941F23CE010E949E1BD82EB4
:1023D0008823D1F001151105B9F083E0CC0FDD1F82
:1023E0008A95E1F7FE01ED5FFE4F438150E004174F
:1023F000150708F4A801CD5FDE4F6C817D8162591D
:102400007D4FC7010E941F238D2DCDB7DEB7E7E0BA
:102410000C94EE220E94FC1208950E94131308955A
:10242000A4E0B0E0E6E1F2E10C94D52260918F02E5
:102430007091900280919102909192020E94FE19F7
:1024400011E0643671058105910518F10E94550F60
:102450006E5F7F4F8F4F9F4F69837A838B839C83FF
:1024600010E000E030E020E044E050E0BE016F5FAB
:102470007F4F82E00E94C211182F882351F00E94E2
:10248000E31960938F02709390028093910290936E
:102490009202812F2496E4E00C94F122B0E0A0E0B7
:1024A000E4E5F2E10C94CF227C015B016A010E9419
:1024B0007F1101E010E0882311F00AE010E0C1E094
:1024C000D0E0B501C701F6010995811104C021963C
:1024D0000C171D072CF4CDB7DEB7EAE00C94EB2205
:1024E000CC9F9001CD9F300D300D112490E080E005
:1024F00045E34A95F1F70000019682179307C1F76B
:10250000E0CFABE0B0E0E7E8F2E10C94CF227B0152
:10251000C090B101D090B20101E010E09E01255FB2
:102520003F4F50E040E070E060E080E00E94C21168
:10253000182F882309F448C056018FEFA81AB80A4B
:1025400060918B0270918C0280918D0290918E022D
:102550000E94FE19643671058105910568F10AE053
:1025600010E09E012F5F3F4F50E040E070E060E0E0
:1025700081E00E94C211D82E6AE070E0C5010E947D
:10258000881311E09B85981310E01D2141F10E94F2
:10259000E31960938B0270938C0280938D02909369
:1025A0008E028AE0FE013196A1E8B2E001900D9220
:1025B0008A95E1F711E013C06AE070E0C5010E945E
:1025C00088139B858913CBCF8AE0F6013196DE0113
:1025D000119601900D928A95E1F71111E2CF8AE0F0
:1025E000E1E8F2E0D70101900D928A95E1F7812FA1
:1025F0002B96EAE00C94EB220F931F93CF93DF937B
:10260000EC018B0141E852E10E944E12882331F027
:1026100040E152E1B801CE010E944E12DF91CF910C
:102620001F910F9108950F931F93CF93DF93C09144
:10263000B101D091B201CE0101962AE0FB01DC018B
:1026400001900D922A95E1F76AE070E00E948813EC
:1026500088836B857C858D859E8500917D02109198
:102660007E0220917F0230918002601771078207FD
:10267000930751F060937D0270937E0280937F02F6
:10268000909380020E94380FDF91CF911F910F919C
:1026900008950E94960C08950E9470190E94571D7B
:1026A0000E94530C0E94711D0E94830C0E947E1D8B
:1026B0000E94831D0E9449130E949D1D0E94610C6F
:1026C000F7CF9093B5018093B40108950E94620BF7
:1026D000089580E00E948B0F817008950E94CC10B5
:1026E0002FEF86E791E0215080409040E1F700C055
:1026F00000000E94CC100E946913882321F00E94E0
:1027000066130E943E1A08950E946E13089508955C
:10271000FC01680F791F8FEF91E36E177F0709F4B3
:1027200008952191822728E030E087FF06C0880FB6
:10273000892721503109C9F7F0CF880FFACFCF93FD
:10274000DF93EB0186319C4711F50E94700A9D8151
:10275000992399F08A7A91E009F490E0909393029A
:10276000811109C089E20E949D180E94FF0A80E041
:10277000DF91CF91089585E3F6CF80919302811187
:1027800004C089E20E94A518F0CF85E3FBCF81E069
:10279000EFCFCF93DF93EC01FB018581882309F410
:1027A000D2C09E0130572332310508F0B2C00E94DA
:1027B000850B9093B5028093B402FE01E150F0477F
:1027C000E232F10520F4E857FC4D0C94C1228091CF
:1027D000B40281608093B40293C08091B502886096
:1027E0008093B5028DC08091B4028260F3CF809156
:1027F000B4028460EFCF8091B4028860EBCF809107
:10280000B5028160EDCF8091B5028260E9CF809101
:10281000B4028061DFCF8091B4028062DBCF80910F
:10282000B4028064D7CF0E94F4058091B40280681E
:10283000D1CF8091B4028C60CDCF8091B5028360FE
:10284000CFCF8091B4028E7FC5CF8091B502877FB4
:10285000C7CF8091B4028D7FBDCF8091B4028B7FB2
:10286000B9CF8091B402877FB5CF8091B5028E7FBA
:10287000B7CF8091B5028D7FB3CF8091B4028F7EA8
:10288000A9CF8091B4028F7DA5CF8091B4028F7BB8
:10289000A1CF0E94F4058091B4028F779BCF8091E5
:1028A000B402837F97CF8091B5028C7F99CF8091BE
:1028B000B40282FB992790F921E0922790FB82F9DC
:1028C00090FB83F987CF8091B502982F90959170F6
:1028D0008E7F892B90FB81F983CF9091B402892F51
:1028E0008F7B96FF806476CF0E94F4059091B402AE
:1028F000892F97FB87F980586DCF81E00E940B0CE0
:102900008091B4029091B5020E948A0B0E94F40556
:1029100080E0DF91CF91089580E0F0CF9091B402F4
:10292000892F8F7E94FF806155CF9091B402892FBB
:102930008E7F90FF81604ECF9091B502892F877F67
:1029400093FF88604DCF81E0E4CF282F35EB230340
:10295000C001112497FF04C080589109892F089560
:1029600080589F4FFBCF80919A0280FF0DC06091ED
:10297000200170E0660F771F6038710570F56115F2
:10298000710569F1862F089581FF07C060912001CC
:1029900084E0689FB0011124EFCF6091200182FD97
:1029A0000AC0809199028823A9F020911F016091AB
:1029B0002001821710F088E0ECCF869FC00111241F
:1029C00033E0880F991F3A95E1F7622F70E00E947B
:1029D000AD22D2CF68E070E0D5CF8FE7089581E0D7
:1029E000089580919A0280FF0CC060911C0170E0F4
:1029F00075956795759567956115710549F1862FF0
:102A0000089581FF06C060911C0170E0759567957F
:102A1000F3CF60911C0182FD0BC090919802992325
:102A2000A1F060911B0180911C01961738F0682F6E
:102A300070E06038710500F38FE70895899FC00149
:102A4000112470E00E94AD22F4CF61E070E0D7CF96
:102A500081E008958D3C31F40E94B31481958093F8
:102A60009E0208958E3C19F40E94B314F8CF8F3C57
:102A700031F40E94B314819580939D020895803DA6
:102A800019F40E94B314F8CF893D29F40E94F1147F
:102A900080939F0208958A3D21F40E94F11481954C
:102AA000F7CF8B3D31F40E94F11481958093A00201
:102AB00008958C3D19F40E94F114F8CF9FE2980F0D
:102AC000983070F4815D990B21E030E001C0220F55
:102AD0008A95EAF780919C02822B80939C0208954C
:102AE0008D3D31F480919A02816080939A0208951D
:102AF0008E3D21F480919A028260F7CF8F3DB9F725
:102B000080919A028460F1CF40919D028D3C59F4EE
:102B100080919E0287FF0DC010929E0241110BC052
:102B20001092990208C08E3C81F480919E02181682
:102B30009CF3442381F080919F029091A002892B05
:102B400009F05AC01092980208958F3C49F447FF4B
:102B5000F0CF10929D0280919E028111ECCFE0CFC8
:102B6000803D19F41416ACF3E4CF90919F02893D97
:102B700029F41916F4F610929F02DBCF8A3D19F45E
:102B800097FFD7CFF8CF9091A0028B3D29F497FF04
:102B9000D0CF1092A002CDCF8C3D19F41916CCF3F2
:102BA000C8CF9FE2980F983090F4815D990B21E097
:102BB00030E0B90102C0660F771F8A95E2F7CB01BA
:102BC000809590919C02892380939C02B2CF8D3D89
:102BD00031F480919A028E7F80939A02AACF8E3D23
:102BE00021F480919A028D7FF7CF8F3D09F0A1CF1C
:102BF00080919A028B7FF0CF08950E94D7199C0193
:102C000090919D0280919E02982B21F03093970223
:102C10002093960290919F028091A002982B21F020
:102C200030939502209394028BE992E00E94F5176D
:102C3000089586E0EBE9F2E0DF011D928A95E9F75D
:102C4000109299021092980210929A020895FC0133
:102C5000828181110EC0838181110BC08481811119
:102C600008C091E08581811101C090E0892F8170B9
:102C7000089581E0FCCFA6E0B0E0E1E4F6E10C9439
:102C8000D62286E0EBE9F2E0DE01119601900D928A
:102C90008A95E1F710929D0210929E0210929F0277
:102CA0001092A0028B819C81892B89F080919602E1
:102CB000909197020E94EF19AC019091990299238B
:102CC000C9F1809121018417150608F440C08D8157
:102CD0009E81892B91F080919402909195020E949F
:102CE000EF19AC0190919802992309F46AC0809180
:102CF0001D018417150608F472C0BE016F5F7F4F77
:102D00008BE992E00E94B818811105C08BE992E02E
:102D10000E94271681110E94FD1586E0FE01319662
:102D2000ABE9B2E001900D928A95E1F72696E3E0D7
:102D30000C94F222209122018AE0289F9001112414
:102D40002417350720F69F5F9093990202C09F3F9A
:102D5000D1F71B81112359F00E94B3149FEF111674
:102D60000CF491E0899F802D112480939D021C8199
:102D7000112359F00E94B3149FEF11160CF491E047
:102D8000899F802D112480939E0280919D0288232B
:102D900009F49DCF10919E02112309F498CF0E944F
:102DA000A514882351F080939D02812F0E94A514C1
:102DB000882329F080939E028ACF81E0F4CF81E0BE
:102DC000F9CF20911E018AE0289F90011124241739
:102DD000350708F092CF9F5F9093980202C09F3F03
:102DE000D1F71D81112359F00E94F1149FEF1116A4
:102DF0000CF491E0899F802D112480939F021E8105
:102E0000112359F00E94F1149FEF11160CF491E078
:102E1000899F802D11248093A00280919F02882396
:102E200009F46BCF1091A002112309F466CF0E9420
:102E3000A514882351F080939F02812F0E94A5142E
:102E4000882329F08093A00258CF81E0F4CF81E05D
:102E5000F9CF0F931F93CF93DF93C42FD22FFC0191
:102E600085818823C9F04093A3020E94D7199093CB
:102E7000A2028093A10280E28C0F883040F4C770D8
:102E800081E001C0880FCA95EAF70E94A103DF9193
:102E9000CF911F910F9108951091A302141332C086
:102EA0008091A1029091A2020E94EF19883C9105A5
:102EB00048F5C0E2CD0F1D17B9F080E2810F8830D0
:102EC00040F4177081E001C0880F1A95EAF70E945C
:102ED000A803C83048F481E09D2F977001C0880F87
:102EE0009A95EAF70E94A103802F0E949803C830A8
:102EF00070F6D77081E001C0880FDA95EAF70E947A
:102F0000A803C5CF80E28C0F883008F6C77081E037
:102F100001C0880FCA95EAF7F2CF0F93DB01885101
:102F20009C4787309105A0F5FC01E655FC4D0C94BB
:102F3000C12206E221EE41EE6AE17CE7CD010E946A
:102F4000291780E00F91089507E225EE45EE6BE129
:102F50007CE7F4CF06E221EE40EE68E17CE7EECFBD
:102F600007E225EE44EE69E17CE7E8CF06E221EED8
:102F700042EE6CE17CE7E2CF07E225EE46EE6DE142
:102F80007CE7DCCF08E221E045EE6EE17CE7D6CFBE
:102F900015968C91882319F01092A302D3CF81E06B
:102FA000D1CF9093AA028093A90208950E94631141
:102FB000811103C08091A4020895E091A902F091CB
:102FC000AA02309729F00190F081E02D099508952B
:102FD00080E00895E091A902F091AA02309721F0D3
:102FE0000280F381E02D09950895E091A902F09106
:102FF000AA02309739F022E0DC012C930680F78199
:10300000E02D09950895A3E0B0E0E9E0F8E10C9423
:10301000D7222091A7023091A80228173907A1F0E2
:103020009093A8028093A702E091A902F091AA02CE
:10303000309751F023E029839B838A830084F185B4
:10304000E02DCE01019609952396E2E00C94F3223F
:10305000A3E0B0E0EEE2F8E10C94D7222091A502C3
:103060003091A60228173907A1F09093A602809309
:10307000A502E091A902F091AA02309751F024E054
:1030800029839B838A830084F185E02DCE010196FC
:1030900009952396E2E00C94F322409100015091AF
:1030A00001019A012E5F3F4F485F5F4F80E0241778
:1030B000350709F40895F90191919F019923B9F316
:1030C0008F5FF5CF882371F02091000130910101CD
:1030D000F9013296285F3F4F9191981729F0E21736
:1030E000F307D1F780E0089581E008959C01FC0189
:1030F00032969FEF80E04191461751F09F3F19F4BF
:10310000411101C0982F8F5F8630A9F79F3F09F4C6
:103110000895290F311D97FD3A95F90162830895AD
:10312000FC01329608962191261303C0DF01119706
:103130001C92E817F907B9F70895682F80910001EC
:10314000909101010E9476180895682F80910001E6
:10315000909101010E9490180895E0910001F09172
:103160000101329686E0DF011D928A95E9F7089504
:10317000DC01FB0111969C9111978181981322C06B
:1031800012968C911297882319F0928189131AC094
:1031900013968C911397882319F09381891312C089
:1031A00015968C911597882319F0958189130AC07B
:1031B00014969C91992321F081E02481291303C066
:1031C00080E001C081E08170089508950E94E518B3
:1031D000089581110EC081E0809326016091230142
:1031E0007091240180912501909126010E94E6189A
:1031F000089582E0F1CF83E080932601609123015E
:103200007091240180912501909126010E94E61879
:1032100008950E94E918089581E080932601609145
:1032200023017091240180912501909126010E9433
:10323000E61808950E940C19089591E0811101C0CB
:1032400090E0909325016091230170912401809179
:103250002501909126010E94E6180895809125018C
:10326000089580932401609123017091240180913D
:103270002501909126010E94E6180895809124016D
:10328000089580932301609123017091240180911E
:103290002501909126010E94E6180895809123014E
:1032A0000895089508950E94521908950895089563
:1032B0000E9451190895CF930E9456190E94CC1074
:1032C0000E945719C0E08C2F0E948B0F892B31F47C
:1032D000CF5FCA30C1F780E0CF91089581E0FCCF85
:1032E00085B7806885BF85B7806885BF08951F92C0
:1032F0001FB61F9211248F939F93AF93BF9380911A
:10330000AB02811113C08091E4029091E502A0917B
:10331000E602B091E7024196A11DB11D8093E4023F
:103320009093E502A093E602B093E702BF91AF91BC
:103330009F918F911F901FBE1F9018958091EC0256
:10334000843031F10E947F021092AB0288E190E05C
:1033500020E40FB6F894A895809360000FBE2093E8
:10336000600083B7817F846083BF83B7816083BF40
:103370007894889583B78E7F83BF0FB6F894A8950D
:1033800080916000886180936000109260000FBEA1
:1033900008950E94F4050E948402089582E084BD8D
:1033A00093E095BD9AEF97BD80936E0008952FB777
:1033B000F8948091E4029091E502A091E602B09128
:1033C000E7022FBF08952FB7F8946091E40270913F
:1033D000E5028091E6029091E7022FBF08959C01DB
:1033E0004FB7F8948091E4029091E502A091E60233
:1033F000B091E7024FBF821B930B0895CF92DF92EB
:10340000EF92FF922FB7F894C090E402D090E502BB
:10341000E090E602F090E7022FBFA7019601261B7D
:10342000370B480B590BCA01B901FF90EF90DF90A1
:10343000CF90089578941F921FB61F9211248F93F6
:103440009F93AF93BF938091E4029091E502A09186
:10345000E602B091E7020196A11DB11D8093E4023E
:103460009093E502A093E602B093E702BF91AF917B
:103470009F918F911F901FBE1F90189587E797E728
:10348000909301088093000888E19AE00FB6F894C1
:10349000A895809360000FBE90936000FFCF88E1F5
:1034A0009AE00FB6F894A895809360000FBE9093B1
:1034B0006000FFCF8EE1489B02C08150E1F7489B3E
:1034C000FECF0895589880E28A95F1F7589A0895AA
:1034D000FC013BE03A95F1F798E020E080E031E034
:1034E00040E14A95F1F7880F489B02C0816023278D
:1034F00042E04A95F1F7000040E14A95F1F791501A
:1035000079F790E19A95F1F799B132E03A95F1F7B0
:10351000000040E14A95F1F7917092272081920FC7
:1035200090830895A1E0B0E0E8E9FAE10C94D32299
:1035300019828C017C01E60EF11C0E151F0541F469
:1035400081E09981911180E02196E6E00C94EF22D0
:103550000E945A1ACE0101960E94681AF8018193BE
:103560008F01EBCF509A589A08955098589AE89A3C
:10357000E9E6F0E080818C7F808308956150770BCD
:1035800091E001C0990F6A95EAF720E031E09111CE
:1035900008C0222391F0589A80E28A95F1F7589852
:1035A0000895492F482339F0589A232740E24A9535
:1035B000F1F79695ECCF5898F9CF5898EDCFFF9248
:1035C0000F931F93CF93DF93EC018C01060F111D16
:1035D000C017D10729F4CDB7DEB7E5E00C94F0228F
:1035E000F9900E94621A68E08F2D0E94BE1AF0CFF7
:1035F0001F920F920FB60F9211240F931F932F93C8
:103600003F934F935F936F937F938F939F93AF936A
:10361000BF93EF93FF93CF93DF930F92CDB7DEB7B6
:1036200019820E945A1ACE0101960E94681A082F28
:10363000069506950695282F22952570902F957052
:10364000290F922F937026952695920F98279770A1
:103650008981982B09F05CC0043008F059C080E1E2
:103660008A95F1F7589A509A82E08A95F1F700C04E
:10367000589888E0089F80011124D801AD5FBE4FA3
:103680001696ED91FC9117973097A9F06091B101D2
:103690007091B20114962D913C911597260F371F0A
:1036A00011968D919C911297680F791F13964C91EA
:1036B00013978C910995F801ED5FFE4F63816623A6
:1036C00051F02091B1013091B20184819581820F36
:1036D000931F0E94DF1A0E94621A80E18A95F1F717
:1036E00058985098589A80E18A95F1F7F801ED5F63
:1036F000FE4F6081662351F02091B1013091B201FB
:1037000081819281820F931F0E94921A0E945A1AFD
:103710000F90DF91CF91FF91EF91BF91AF919F916A
:103720008F917F916F915F914F913F912F911F9159
:103730000F910F900FBE0F901F9018950F931F932E
:10374000CF93DF93EC0104970CF04CC0F894509A9F
:10375000589885E08A95F1F700009C2F9695957012
:103760008C2F8570980F892F83709695969523E0FE
:10377000CC0FDD1F2A95E1F7980F8E01092B0E94CF
:10378000621A00C068E0802F0E94BE1A80E18A950C
:10379000F1F75098589A489B1EC087E090E04899EE
:1037A0001CC0FE01ED5FFE4F63816623F9F020919E
:1037B000B1013091B20184819581820F931F0E94E3
:1037C000921A811113C0509A589A7894DF91CF9130
:1037D0001F910F91089500C0DECF019729F4509AF0
:1037E000589A789480E0F2CF00C0D9CF0E945A1A3C
:1037F00080E28A95F1F75898509A80E18A95F1F71E
:10380000CD5FDE4F6881662351F02091B101309188
:10381000B20189819A81820F931F0E94DF1A0E9450
:10382000621A789481E0D2CF08959B01BA019091F9
:10383000EC029430E9F48F708093E9009FEF80915F
:10384000E800915085FD06C085ED8A95F1F70000EE
:103850009111F5CF8091E80085FF0AC050E040E06B
:10386000C9010E94141E8091E8008E778093E800C1
:10387000089543E050E0BC0182E00E94151C0895C9
:1038800046E050E0BC0182E00E94151C0895CF93F1
:10389000DF93EC010E942E1948E050E0BE0181E068
:1038A0000E94151C88E0FE01ACEAB2E001900D9286
:1038B0008A95E1F7DF91CF9108958091EB02811114
:1038C00009C00E94A41F0E9401208091E200846030
:1038D0008093E20008951092EB0208950E940C1963
:1038E00081E00E941D1908956091E80281E0611154
:1038F00001C080E00E94FB1808959091EC0281E0E5
:10390000943009F080E06091E8020E94091908955E
:1039100042E061EC81E00E94201F42E261EC82E023
:103920000E94201F9091EC0281E0943009F080E029
:103930006091E8020E94E91808958091EE028330B8
:1039400009F461C030F48130D1F1823009F49EC0B5
:1039500008958A3009F48AC08B3009F46FC0893029
:1039600009F050C08091ED02813209F04BC0809186
:10397000F1029091F202029708F044C08091E800B1
:10398000877F8093E8008091E80082FF37C09091A4
:10399000F3008091F200029731F48091F1008130C0
:1039A00011F0863021F48091F1000E94311980914C
:1039B000E8008B778093E8000E94541F23C0809119
:1039C000ED02813AF9F48091E800877F8093E80066
:1039D0008091F1029091F202892B61F468E08CEA07
:1039E00092E070E00E94631E8091E8008B778093E4
:1039F000E800089560E090E080E0F3CF8091EC0271
:103A00008111C1CF08958091ED02813AD9F780915B
:103A1000F1029091F202892BA9F78091E800877F4B
:103A20008093E8008091E80080FFFCCF0E942E196F
:103A30008093F1008091E8008E77BCCF8091ED02F9
:103A4000813201F78091F1029091F202892BD1F637
:103A50008091E800877F8093E8000E94541F809146
:103A6000EF020E941D190E94F40508958091ED0255
:103A7000813241F68091E800877F8093E8000E94C0
:103A8000541F8091F0020E94411908958091ED0227
:103A9000813A09F0B7CF8091E800877F8093E800F2
:103AA0008091E80080FFFCCF0E944E19C1CF84B7FF
:103AB000877F84BF0FB6F894A895809160008861D5
:103AC00080936000109260000FBE80E890E00FB617
:103AD000F89480936100909361000FBE0E941A19C0
:103AE00008950E94A41F0E940120E2EEF0E0808170
:103AF0008460808378940E948022089587E291E018
:103B00000E94D11708958091EC02853031F48091A4
:103B1000EC02853019F00E94C91908950E949E197F
:103B20000E945B19882399F38091EA02882379F334
:103B30000E94FE1D0E94F405EACF08959A0140916B
:103B4000F3025091F4020E94A61D0895492F5527B3
:103B50004330510519F168F44130510509F444C06E
:103B60004230510509F445C090E080E050E040E06B
:103B700025C04132510549F142325105A9F784E48B
:103B800090E04CE452E061157105C1F08BE790E0E4
:103B900041ED51E06130710589F0E6CF9927813020
:103BA000910581F0009729F00297F1F6E0E6F1E047
:103BB00002C0E0E8F1E0849190E0AF01F9015183A7
:103BC00040830895EEE6F1E0F6CF89E090E046E923
:103BD00051E06115710591F389E090E04FEA51E001
:103BE0006130710559F3C0CF82E190E04FEB51E0B5
:103BF000E5CF8BE390E044E851E0E0CF80E189BD80
:103C000082E189BD09B400FEFDCF8091D8008F7D8F
:103C10008093D8008091E00082608093E0008091E2
:103C2000E00081FDFCCF0895AF92BF92CF92DF926A
:103C3000FF920F931F93CF93DF936C01EB018A01E7
:103C40000E94731FF82E811123C00115110539F050
:103C5000F80180819181C81BD90BC80ED91EB12CE7
:103C6000A12C2097A9F08091E80085FD22C08091C9
:103C7000E8008E778093E80001151105A1F0F801A6
:103C800080819181A80EB91EB182A08285E0F82EB4
:103C90008F2DDF91CF911F910F91FF90DF90CF90EB
:103CA000BF90AF9008950E94731F8823D1F2F82E21
:103CB000EFCFF60181916F018093F1002197FFEF23
:103CC000AF1ABF0ACECFFC018091F3029091F402AB
:103CD00086179707A0F06115710529F49091E80007
:103CE0009E779093E80090E06115710551F4911171
:103CF00008C08091E80082FF34C080E00895BC01D4
:103D0000F2CF8091EC028823C1F18530C1F180911E
:103D1000E80083FD30C08091E80082FDEACF809109
:103D2000E80080FFE1CF8091F3002091F200382F6E
:103D30006115710519F02830310558F091E02830EF
:103D4000310509F090E02091E8002E772093E800FB
:103D5000CBCF81918093F100615071092F5F3F4F6C
:103D6000E7CF8091EC02882341F0853041F08091CB
:103D7000E80083FFBECF81E0089582E0089583E0EC
:103D80000895FC018091F3029091F4028617970741
:103D9000A0F06115710529F48091E8008E77809379
:103DA000E80090E06115710551F4911108C080910F
:103DB000E80082FF35C080E00895BC01F2CF809119
:103DC000EC028823C9F18530C9F18091E80083FDB8
:103DD00031C08091E80082FDEACF8091E80080FF49
:103DE000E1CF8091F3002091F200382F6115710529
:103DF00019F02830310558F091E02830310509F0EC
:103E000090E08091E8008E778093E800CBCF84919A
:103E10008093F1003196615071092F5F3F4FE6CFDB
:103E20008091EC02882341F0853041F08091E800D8
:103E300083FFBDCF81E0089582E0089583E0089577
:103E4000982F973028F08F708093E90081E00895D3
:103E50009093E900242F762F50E0981731F070915D
:103E6000EC002091ED005091F00021FD02C09F5F19
:103E7000E8CF3091EB003E7F3093EB003091ED00C6
:103E80003D7F3093ED003091EB0031603093EB00DB
:103E90007093EC002093ED005093F0002091EE0021
:103EA00027FDE5CF80E008958091ED0287FF13C0E4
:103EB0008091E80082FF06C08091E8008B778093B4
:103EC000E80004C08091EC028111F2CF0895809146
:103ED000EC028823D9F38091E80080FFF8CF80912D
:103EE000E8008E77ECCF2091E4003091E50095E674
:103EF000A9012091EC00822F817020FF06C08091E3
:103F0000E80080FF06C080E008952091E80022FDCF
:103F10001AC08091EC02882389F0853089F0809165
:103F2000EB0085FD0FC02091E4003091E5004217C1
:103F30005307F9F29150E1F684E0089582E0089584
:103F400083E0089581E008950E9413200E941B20C1
:103F5000E0EEF0E0808181608083E8EDF0E0808138
:103F60008F77808319BCA7EDB0E08C918E7F8C9306
:103F700080818F7E80831092EB0208950F931F93B0
:103F8000CF93DF930E9413200E941B20C8EDD0E046
:103F900088818F77888388818068888388818F7DF6
:103FA000888319BC1092EC021092E8021092EA0287
:103FB0001092E90200EE10E0F80180818B7F80838F
:103FC00088818160888342E060E080E00E94201F59
:103FD000E1EEF0E080818E7F8083E2EEF0E0808190
:103FE00081608083808188608083F80180818E7FFA
:103FF0008083888180618883DF91CF911F910F91A9
:104000000895E8EDF0E080818F7E8083E7EDF0E0B9
:1040100080818160808384E082BF81E08093EB02B5
:104020000E94BE1F0895E8EDF0E080818E7F8083BE
:104030001092E20008951092DA001092E1000895C3
:104040001F920F920FB60F9211242F933F934F930D
:104050005F936F937F938F939F93AF93BF93EF93F0
:10406000FF938091E10082FF0BC08091E20082FF0C
:1040700007C08091E1008B7F8093E1000E947F2246
:104080008091DA0080FF19C08091D80080FF15C0B0
:104090008091DA008E7F8093DA008091D90080FFD2
:1040A00096C080E189BD82E189BD09B400FEFDCFE3
:1040B00081E08093EC020E945D1C8091E10080FF12
:1040C00019C08091E20080FF15C08091E2008E7FD0
:1040D0008093E2008091E20080618093E200809111
:1040E000D80080628093D80019BC85E08093EC02F0
:1040F0000E94741C8091E10084FF2BC08091E2003B
:1041000084FF27C080E189BD82E189BD89B5982FF0
:10411000917080FFFBCF8091D8008F7D8093D80075
:104120008091E1008F7E8093E1008091E2008F7E9C
:104130008093E2008091E20081608093E2008091B0
:10414000E802882309F449C084E08093EC020E94CD
:104150007D1C8091E10083FF29C08091E20083FFF4
:1041600025C08091E100877F8093E10082E0809309
:10417000EC021092E8028091E1008E7F8093E100D2
:104180008091E2008E7F8093E2008091E200806166
:104190008093E20042E060E080E00E94201F809176
:1041A000F00088608093F0000E946E1CFF91EF91F8
:1041B000BF91AF919F918F917F916F915F914F913F
:1041C0003F912F910F900FBE0F901F90189519BC23
:1041D0001092EC020E946B1C70CF8091E30087FD6F
:1041E00093E09093EC02B3CF1F920F920FB60F9211
:1041F00011242F933F934F935F936F937F938F93EC
:104200009F93AF93BF93CF93DF93EF93FF93D0919F
:10421000E900DF708091EC00C82FC17080FDC0E81C
:104220001092E9008091F000877F8093F0007894ED
:104230000E9438211092E9008091F00088608093FC
:10424000F000CD2BCF70C093E900FF91EF91DF918B
:10425000CF91BF91AF919F918F917F916F915F911E
:104260004F913F912F910F900FBE0F901F90189577
:10427000AAE2B0E0EEE3F1E20C94D6228DEE92E0F9
:104280002091F100FC012193CF01F2E0853F9F07CF
:10429000B9F70E949D1C8091E80083FF1EC18091A8
:1042A000ED029091EE029A3008F017C1E92FF0E08C
:1042B000EF54FC4D0C94C122803899F0823809F0FB
:1042C0000CC18091F1028F70873008F006C1809395
:1042D000E9008091EB0085FB882780F91092E900C6
:1042E00006C08091E9029091EA029111826090915A
:1042F000E800977F9093E8008093F1001092F1001E
:104300008091E8008E77E5C0882309F4D3C082301D
:1043100009F0E3C08091EF028111D6C08091F102D3
:104320008F702FEF280F263008F0D7C08093E90058
:104330002091EB0020FFC8C0933031F48091EB0056
:1043400080628093EB00C0C09091EB0090619093ED
:10435000EB0021E030E001C0220F8A95EAF72093BC
:10436000EA001092EA008091EB008860EACF8111A8
:10437000B4C01091EF021F778091E3008078812B09
:104380008093E3008091E800877F8093E8000E949B
:10439000541F8091E80080FFFCCF8091E30080688B
:1043A0008093E30082E0111183E08093EC0295C0DA
:1043B0008058823008F091C08091EF029091F00215
:1043C0008C3D23E09207A1F583E08A838AE289830A
:1043D0004FB7F894DE01139620E03EE051E2E32F60
:1043E000F0E050935700E49120FF03C0E295EF7096
:1043F0003F5FEF708E2F90E0EA30C0F0C7968D934C
:104400009D932F5F243159F74FBF8091E800877F3C
:104410008093E8006AE270E0CE0101960E94631E7C
:104420008091E8008B778093E80057C0C096E7CF73
:104430006091F1027091F202AE014F5F5F4F0E94F6
:104440009E1DBC01892B09F448C09091E800977F1C
:104450009093E80089819A810E94C11EE1CF803843
:10446000E1F58091E800877F8093E8008091E80281
:104470008093F10045CF811130C09091EF029230CE
:1044800060F58091E800877F8093E8009093E802D0
:104490000E94541F8091E802882311F084E005C037
:1044A0008091E30087FDFACF81E08093EC020E94C7
:1044B000881C13C08091EF02813079F481E0933041
:1044C00009F080E08093EA021092E9008091E80010
:1044D000877F8093E8000E94541F8091E80083FF4B
:1044E0000AC08091E800877F8093E8008091EB000C
:1044F00080628093EB00AA96E3E00C94F222089588
:10450000CF938091EC028823A1F0C091E900CF7095
:104510009091EC00892F817090FD80E8C82B10925B
:10452000E9008091E80083FD0E943821CF70C0939C
:10453000E900CF9108950E94A41F1092EC02089503
:10454000E8EDF0E08081806180838AE18A95F1F76F
:1045500000C08091D9008170089597FB072E16F452
:10456000009407D077FD09D00E94FE2207FC05D0F9
:104570003EF4909581959F4F0895709561957F4F7A
:104580000895EE0FFF1F0590F491E02D09942F92EE
:104590003F924F925F926F927F928F929F92AF92D3
:1045A000BF92CF92DF92EF92FF920F931F93CF9320
:1045B000DF93CDB7DEB7CA1BDB0B0FB6F894DEBFB7
:1045C0000FBECDBF09942A88398848885F846E84DD
:1045D0007D848C849B84AA84B984C884DF80EE8027
:1045E000FD800C811B81AA81B981CE0FD11D0FB630
:1045F000F894DEBF0FBECDBFED010895AA1BBB1B13
:1046000051E107C0AA1FBB1FA617B70710F0A61BD2
:10461000B70B881F991F5A95A9F780959095BC01F3
:10462000CD010895FB01DC0104C08D91019080193A
:1046300021F441505040C8F7881B990B0895FB01A5
:10464000DC0102C001900D9241505040D8F708950E
:10465000F999FECF92BD81BDF89A992780B508954A
:10466000A8E1B0E042E050E00C946C23DC01A40F20
:10467000B51F4150504048F0CB01840F951F2E913B
:104680000E94472341505040D0F70895262FF999B2
:10469000FECF92BD81BDF89A019700B4021639F0A1
:1046A0001FBA20BD0FB6F894FA9AF99A0FBE089572
:1046B0000396272F0E9447230E944623252F0E94FE
:1046C0004723242F0C9447230196272F0E9447232A
:1046D0000C944623DC01CB01FC01F999FECF06C006
:1046E000F2BDE1BDF89A319600B40D9241505040B0
:1046F000B8F70895F894FFCFF003F00340044004A6
:10470000A504C1041F041F04C60437054605460559
:10471000211495142914F313F7132D14FB133114DA
:104720003D1407148E140B1441140F1445146D140A
:1047300013144914741419144F145714FF13351417
:10474000031439141D14531463147D148C14ED13C5
:1047500025149C14AA17B0179917A417B617BC17DD
:10476000C2175C2184216D2284216D22B721D821BA
:064770006D222F223B2206
:104776003C020100000001000000000000000A01E8
:10478600000000040B000000000000280850011E75
:104796000A1401000001003E19471C141C401C3974
:1047A6001CE200E900EA00B500B600B700CD0083C0
:1047B60001CC008A019201940121022302240225E0
:1047C60002260227022A02B300B4006F0070009F7F
:1047D60001CB019F02A002818283E200E900EA0088
:1047E600B500B600B700CD008301CC008A01920166
:1047F60094012102230224022502260227022A020C
:10480600B300B4006F0070009F01CB019F02A002AD
:10481600818283F4F5F6F73133323635946697C6DE
:04482600346E0200EA
:00000001FF
