:100000000C94CF020C94C2200C94EC020C94EC02E1
:100010000C94EC020C94EC020C94EC020C94EC02A8
:100020000C94EC020C94EC020C947C260C9450275B
:100030000C94411F0C94EC020C94EC020C94EC0216
:100040000C94EC020C94EC020C94EC020C94EC0278
:100050000C94EC020C94E41F0C94EC020C94EC0253
:100060000C94EC020C94EC020C94EC020C94EC0258
:100070000C94EC020C94EC020C94EC020C94EC0248
:100080000C94EC020C94EC020C94EC020C94EC0238
:100090000C94EC020C94EC020C94EC020C94EC0228
:1000A0000C94EC020C94EC020C94EC024A00350027
:1000B0001E001F002000210022003A0000004D0019
:1000C0002B0014001A000800150017003B00000068
:1000D0004B00390004001600070009000A003C002C
:1000E00000004E00E1001D001B0006001900050085
:1000F0003D0000004C00E000E200E30029002C007D
:1001000000003E0000003F002300240025002600E0
:1001100027002D002E002A0040001C0018000C00B3
:10012000120013002F003000310041000B000D00C1
:100130000E000F00330034002800000042001100C0
:100140001000360037003800E5005200E40043009C
:1001500044004500E7000000E600500051004F0059
:100160000100010001000100010001000100010087
:100170000000010001000100010001000100010078
:100180000100000001000100010001000100010068
:100190000100010000000100010001000100010058
:1001A0000100010001000000010001000100010048
:1001B0000100010000000100000001000100010039
:1001C0000100010001000100010001000100010027
:1001D0000100010001000100010001000100010017
:1001E0000100010001000100010001000100000008
:1001F00001000100010001000100010001000100F7
:1002000001000100010001000100000001000100E7
:1002100001000100010001000100010001000100D6
:1002200001000100000001000100010001000100C7
:1002300001000100010000000100010001000100B7
:1002400001000100010001000000010001000100A7
:100250000100010001000100010000000100010097
:100260000100010001000100000001000000010088
:100270000100010001000100010001000100010076
:100280000100010001000100010001000100010066
:100290000100010001000100010001000100010056
:1002A0000100000001000100010001000100010047
:1002B0000100010001000100010001000100000037
:1002C0000100010001000100010001000100010026
:1002D0000100010001000100000001000100010017
:1002E0000100010001000100010000000100010007
:1002F00001000100010001000100010000000100F7
:1003000001000100010001000100010001000000E6
:1003100001000100010001000100010000000100D6
:1003200000000100010001000100010001000100C6
:1003300001000100010001000100010001000100B5
:1003400001000100010001000100010001000100A5
:100350000100010001000000010001000100010096
:100360000100010001000100010001000100010085
:100370000100000001000100010001000000000078
:10038000000000002A2B28000000000000000000F0
:100390000000000000000029000000002C1E342096
:1003A000212224342627252E362D3738271E1F20BC
:1003B0002122232425263333362E37381F04050601
:1003C0000708090A0B0C0D0E0F1011121314151645
:1003D0001718191A1B1C1D2F3130232D3504050643
:1003E0000708090A0B0C0D0E0F1011121314151625
:1003F0001718191A1B1C1D2F3130354C0000000036
:1004000000000000000000000000000000000000EC
:1004100000000000000000000000000000000000DC
:100420007E0F00D4FFFFFFC7000000780C037200AE
:100430006B0064003000310000001003720069009E
:100440006B006B006F0064006F0000000403090480
:1004500009025B00030100A0FA0904000001030186
:100460000100092111010001224400070581030850
:10047000000109040100020300000009211101002C
:100480000122220007058203200001070503032043
:10049000000109040200010300000009211101000C
:1004A00001227B00070584032000011201000200E5
:1004B00000000814E801000001010200010660FFCD
:1004C0000961A1010962150026FF009520750881C8
:1004D000020963150026FF00952075089102C005EA
:1004E000010902A10185020901A1000509190129DB
:1004F00008150025019508750181020501093009DB
:10050000311581257F9502750881060938158125E9
:100510007F950175088106050C0A38021581257F33
:10052000950175088106C0C005010980A1018503F8
:1005300019012AB700150126B70095017510810031
:10054000C0050C0901A101850419012AA0021501A9
:1005500026A002950175108100C005010906A101C0
:10056000050719E029E715002501950875018102A5
:100570009501750881010507190029FF150026FF5F
:100580000095067508810005081901290515002543
:1005900001950575019102950175039101C0112422
:1005A0001FBECFEFDAE0DEBFCDBF11E0A0E0B1E0CB
:1005B000E2E6F4E502C005900D92A63CB107D9F73A
:1005C00022E0A6ECB1E001C01D92A93FB207E1F71D
:1005D0000E94CF140C94DD290C9400008430B8F4F0
:1005E0006A30A8F4493098F450E099E0699F400DD2
:1005F000511D1124FA019AE5899FE00DF11D112486
:10060000EE0FFF1FE455FF4F85919491089581E00F
:1006100090E0089581E008950E940A03089581E022
:1006200008950E940A0308950E94110308950895F1
:100630000E9417030895A6E0B0E0E1E2F3E00C9415
:10064000392949835A839E833091CD0189819A81CA
:1006500031111AC03E81332399F0222389F00E9480
:10066000A208182F682F89819A810E947E086981CB
:100670007A81812F0E94B00F2696E3E00C945529D1
:100680000E949008182FF3CF0E94A20869817A81F6
:10069000F1CFFC01262F40815181628173818481D9
:1006A00095810E941B030895CF93DF93EC0161E0D5
:1006B0000E944903BE010E940C03DF91CF9108956F
:1006C000CF93DF93EC0160E00E944903BE010E94DA
:1006D0001803DF91CF91089591E001C0990F8A9599
:1006E000EAF7892F0E94C5070895CF93C82F81E0AC
:1006F0000C2E01C0880F0A94EAF70E94000D8C2F7F
:100700000E946C03CF91089581E008950E948403B4
:100710000895CF93C82F0E947A078C2F0E948603DA
:100720002FEF84E39CE0215080409040E1F700C02F
:100730000000CF91089581E00E9489030E94082063
:10074000089580E00E9489030E94192008950F9364
:100750001F93CF93DF938C0161E00E944903EC016A
:10076000B8010E94B41C811106C080E0DF91CF91D6
:100770001F910F910895B801CE010E9414038823A0
:10078000A1F3B801CE010E94C11B882371F3B80107
:10079000CE010E94EE16882341F3B801CE010E94DB
:1007A000C416882311F3B801CE010E94051C8823CA
:1007B000E1F2B801CE010E94F4108823B1F2F801F1
:1007C0008581882361F0C330FCE7DF07E9F058F446
:1007D000C115ECE7DE07A9F0C130DC47B9F0C8016C
:1007E0000E940F03C3CFCB358CE7D807A9F0CC35D7
:1007F000ECE7DE0771F0CA35DC4789F70E94DB0CB5
:10080000EECF0E949B03B1CF0E94E30C0E94A10394
:10081000ACCF0E94D10CE3CF0E94DF0CE0CF0E944E
:100820001D1F0E942F0408950E9433040E94221F5E
:10083000089581E008950895CF93DF93D82F0E9403
:100840001904C82F882319F08D2F0E941B048C2FA8
:10085000DF91CF91089508950E941C04089580E0CF
:100860000E942C0408950E94A01D0E942C0408954B
:10087000CF930E94A01DC82F8091C8018C1779F0DA
:10088000C093C8010E94AD1F6093C9017093CA0153
:100890008093CB019093CC018C2F0E942C04CF919C
:1008A0000895ADE0B0E0E7E5F4E00C943A2948871C
:1008B00059876A877B878C879D8791110E94110CCD
:1008C0001F8286E0FE013896DE01119601900D929E
:1008D0008A95E1F78D8181110DC029813A814B8183
:1008E0005C816D817E818F810E945B0B2D96E2E0A1
:1008F0000C945629CE0101960E9454038111EDCF2C
:10090000F5CFFC012481213021F4808191810E9466
:10091000CF080895662329F00E944F180E942219DB
:1009200008950E94A918FACFCF93C82F882399F071
:100930008CEF8C0F813A88F48C2F0E942C1E882318
:1009400029F08C2F0E946F1E0E94800C8C2F0E9419
:10095000671E0E94800CCF91089580E28C0F883032
:1009600048F4C77081E001C0880FCA95EAF70E9479
:10097000F40BEFCFEBE5EC0FE33040F4F0E0E65999
:10098000FE4F808190E00E94CD1DE5CFE8E5EC0FA1
:10099000EB3150F4F0E0EE0FFF1FEC5CFE4F808176
:1009A00091810E94F21DD7CF83E38C0F833198F69B
:1009B00061E08C2F0E948A04CECF882381F19CEFC6
:1009C000980F913A28F40E946F1E0E94800C08959F
:1009D00090E2980F983050F4877091E001C0990F21
:1009E0008A95EAF7892F0E94FA0BEFCF9BE5980FC3
:1009F000933028F490E080E00E94CD1D089598E5A2
:100A0000980F9B3128F490E080E00E94F21D089539
:100A100093E3980F933118F460E00E948A040895DC
:100A20001F93CF93DF93182FEB010E94940420971C
:100A300039F4812F0E94DD04DF91CF911F91089539
:100A40008FE99FE00197F1F700C000002197EFCFF9
:100A500070E060E0893311F460E570E00E941005F9
:100A60000895882321F00E94F40B0E94800C0895C1
:100A7000882321F00E94FA0B0E94800C0895B0E0B8
:100A8000A0E0E5E4F5E00C9433296C01D62FC72FE4
:100A9000FC011581068102950F700E94EA0BE82E79
:100AA0008823F9F0E12E1123E1F08C2F807F803430
:100AB00061F080E28D0F883008F18C2F807E8032CB
:100AC00021F4D230D8F00023C9F08091B90282FF1E
:100AD00015C082E00E94A50C0E94EA0B91E0E82E6E
:100AE000E926BC2EB2949FE0B922FBE0FB15B8F1D9
:100AF000EB2DF0E0E152F64D0C941D29E12CF1CFE5
:100B00000C2F0F70C07F11F00295007F112399F018
:100B1000002359F080E28D0F883010F0D11107C00A
:100B2000802F0E94F40B0E94800C8D2F5AC0802FC2
:100B30000E94040CF8CF8D2F0E94DD04002379F071
:100B400080E28D0F883010F0D11104C0802F0E94F8
:100B5000FA0B03C0802F0E940A0C0E94800CEB2D20
:100B6000E850FF0B349720F40E94A01D0E942C0433
:100B7000EE2089F00E94E60B80FD0DC0F601158283
:100B80000E94E00B0E94F207C6010E9441070E94EA
:100B9000E00B0E94FE07CDB7DEB7E9E00C944F29C9
:100BA0002C2F2F70F22EC07FC03219F0F29480EFFC
:100BB000F822DD2341F0D130D1F1112309F444C0F2
:100BC0000023F1F0B2CF8091B90282FD15C011234C
:100BD00059F0FF2029F08F2D0E94F40B0E94800C09
:100BE00080E00E949404BBCF80E00E94DD04FF20DF
:100BF00009F4B5CF8F2DABCF112369F0011104C0DB
:100C00008F2D0E943105ABCF013009F0A8CF8F2D79
:100C10000E94280CA4CF0111A2CF8F2D0E9438056D
:100C20008F2D0E94340C8F2D0E94180C98CF112309
:100C300021F0063008F093CFE3CF053008F08FCFD6
:100C40008F2D0E9438058BCF0023D1F3D93349F47F
:100C50003FEF87EE93E0315080409040E1F700C0D5
:100C600000008D2F0E94DD047ACF8C2F869586950B
:100C7000837069F0813009F072CF8D2F9C2F9370B3
:100C8000111102C080E090E00E94F21D68CF8D2F0C
:100C90009C2F9370111102C080E090E00E94CD1D46
:100CA0005ECF612F8D2F0E948A0459CF8C2F8370C5
:100CB00079F5111154CF4D2F429546954770440F49
:100CC000440F8D2F8F70042E01C0880F0A94EAF70D
:100CD0002D2F2071D4FF07C02FE030E001C0220F7C
:100CE0004A95EAF72095C695C695C370822BC23007
:100CF00049F058F4C13019F00E94CE0730CF0E945D
:100D0000C8072DCF0E94D4072ACF0E94C50727CF3E
:100D10008695112311F08C2F8170882309F41FCF41
:100D20004D2F429546954770440F440F8D2F8F707D
:100D3000042E01C0880F0A94EAF72D2F2071D4FFEA
:100D400007C02FE030E001C0220F4A95EAF7209556
:100D5000C695C695C370822BC23049F058F4C13095
:100D600019F00E941D08FBCE0E941708F8CE0E94C1
:100D70002308F5CE0E94E007F2CECF70112329F0B0
:100D80008C2F0E94F2078D2F3CCF8D2F0E943805AB
:100D90008C2F0E94FE07E3CED23F41F160F4D03F9A
:100DA000B9F0D13F81F0112309F443C00111BDCE48
:100DB0008C2F8F711FC0D33F01F1D43FA1F78091D9
:100DC000B90282FD24C08C2F8F71112311F312C040
:100DD000112341F0053008F0C2CE8C2F8F710E9494
:100DE0000B08BDCE063008F0BACEF7CF8C2F8F712E
:100DF0001111CFCF0E94F207B2CE112329F08C2F10
:100E00008F710E94E907ABCE0E94E507A8CE11239F
:100E100031F063E08C2F8F710E94870CA0CE81E0AF
:100E20000E94A50C023008F49ACE82E00E94A50C24
:100E300096CE002359F0D93309F013CFEFEFF7EE38
:100E400023E0E150F0402040E1F709CF8C2F8F7173
:100E5000A0CF0F931F93CF93DF93EC01688179812B
:100E60008D810E94DA088C010E9429080E94C40723
:100E7000B801CE010E943F05DF91CF911F910F91E4
:100E80000895CF93DF93EC018C81882399F0CE01F4
:100E90000E94A703811111C00E94EA0B882351F020
:100EA0008D81882339F08091B90282FF03C082E0EE
:100EB0000E94A50CDF91CF910895CE010E942907D1
:100EC000CE010E946003F6CF90E080E00E94CD1D2D
:100ED00090E080E00E94F21D0E94110C0E94800CA4
:100EE0000E943E190E94221908950E94771E0E94B6
:100EF000640708950E94010C0E9475070895929559
:100F00009F70963091F058F4925F9F70923058F431
:100F1000803F19F030F4883E30F481E008959A5F04
:100F2000F4CF843FD1F380E00895883EB0F3813F51
:100F3000D1F7F3CFFC012481222339F08081918104
:100F40000E94CF080E947F07089580E00895A6E0E0
:100F5000B0E0EDEAF7E00C943A292696E2E00C9432
:100F60005629A7E0B0E0E7EBF7E00C943A29279682
:100F7000E2E00C94562908950E94BB0708950E9450
:100F8000BC078093F301089508950E94BF07089558
:100F90009091F301892B0E94BF0708959091F3016E
:100FA00089230E94BF0708959091F30189270E9429
:100FB000BF0708950E94BB0708950E94DA070895AD
:100FC0000E94DD078093F201089580E00E94E0070F
:100FD000089591E001C0990F8A95EAF7892F0E9440
:100FE000E007089521E030E001C0220F8A95EAF77A
:100FF0008091F201822B0E94E007089521E030E009
:1010000001C0220F8A95EAF720958091F201822390
:101010000E94E007089521E030E001C0220F8A9588
:10102000EAF78091F20182270E94E00708959091EB
:10103000F201892B0E94E00708959091F201892323
:101040000E94E00708959091F20189270E94E0072D
:1010500008950895262F277091E001C0990F2A95D1
:10106000EAF723E0769567952A95E1F7FB01EE0F05
:10107000FF1FE60FF71FE40FF51F50E040E0682F59
:1010800070E08191DF0111979B01042E02C036951B
:1010900027950A94E2F721702195282729232827EC
:1010A0002C934F5F5F4F4330510559F70895A82F98
:1010B000A77023E0969587952A95E1F7FC01EE0F3E
:1010C000FF1FE80FF91FE60FF71F50E040E080E038
:1010D000219130E00A2E02C0369527950A94E2F756
:1010E00021703327042E01C0220F0A94EAF7822BC5
:1010F0004F5F5F4F4330510559F70895262F9A30BF
:1011000070F4893060F4682F70E089E0989F600D7A
:10111000711D11244EEC51E0822F0E942A0808957F
:10112000292F9A3068F4893058F490E06EEC71E021
:1011300039E0239F800D911D11240E9457080895C6
:1011400080E00895CF92DF92FF920F931F93CF9389
:10115000DF936C010091F2018091F301082BC3E051
:10116000D0E010E0FC2EC8010C2E02C095958795AA
:101170000A94E2F780FD0CC02197A0F7F12C8F2D87
:10118000DF91CF911F910F91FF90DF90CF90089545
:10119000B6018C2F0E94BC0F019771F3F0CFCF9353
:1011A000DF93EC010E94A208BE010E94BC0FDF91F8
:1011B000CF9108951F93CF93DF93EB019091CD01D1
:1011C000992339F0CB010E94CF08DF91CF911F9175
:1011D0000895882369F0CB010E94A208182F682F78
:1011E000CE010E947E08BE01812F0E94BC0FEDCF70
:1011F000CB010E949008182FF6CFE1E0F0E0DF016C
:1012000002C0AA0FBB1F6A95E2F7BD01DF0102C051
:10121000AA0FBB1F4A95E2F76A2B01C0EE0F2A9571
:10122000EAF7962F9823961302C08E2B0895E09527
:101230008E230895242F462F682F8091F2010E945B
:10124000FD080E94E00708951F93CF93DF93C0919C
:10125000F40117E08091F5018C1304C0DF91CF9168
:101260001F910895D0E01C9FF0011D9FF00D1124E7
:10127000EA50FE4F20813181428153816481758122
:1012800086810E94B1072196C770E4CF20912E027B
:1012900030912F0240913002509131026091320220
:1012A00070913302809134020E94B1070895CF9368
:1012B000DF9380913402807F09F04DC0809133022A
:1012C000882309F448C0E091F4015091F501C091E0
:1012D0002F02D0912E02609130027091310247E0CE
:1012E0005E17C9F18E2F90E0E49FF0011124EA50BF
:1012F000FE4F2481222391F1489FF001499FF00D78
:101300001124DF01AA50BE4F11962C9111972C1376
:1013100025C02C912D1322C015962C9115972111C3
:101320001DC012962D913C91261B370B283C310590
:10133000A8F4809134028F70806180933402E4506D
:10134000FE4F80818F70806180838EE292E00E94E8
:1013500041070E942409DF91CF910895FC01319645
:10136000E770BECF482F2091F4019091F50157E02E
:10137000291302C080E0089530E0529FF001539F8E
:10138000F00D1124EA50FE4F8181681306C0808160
:10139000481303C085818111EECF2F5F3F4F277027
:1013A000E7CFA4E1B0E0E7EDF9E00C9430298C013F
:1013B00086E0F801DE011F9601900D928A95E1F713
:1013C000F8018481E5809EE2A92E92E0B92E9091E9
:1013D000320291111FC08823D1F0EE20A9F0C8017C
:1013E0000E949A07F82E882379F087E0F801D5014A
:1013F00001900D928A95E1F7C5010E9481040E9437
:1014000057090E9446095FC0C8010E944107FF2496
:10141000F39459C0C080D18082809380F0903302D1
:101420002091300230913102A401421B530BFF2066
:1014300009F4F9C0483C510508F0A7C0882309F415
:1014400042C090912F0280913402282F207F09F012
:101450005CC09D1116C090912E02C91212C0E110FD
:101460004EC08F708061809334020E9446098EE2E4
:1014700092E00E94410780913402F8018683F12CAA
:1014800022C0E1103CC06D2D8C2D0E94B2096D2D43
:101490008C2D0E94B209E82E8111F1CFCF86D88A17
:1014A0008F8598890E94CF08292F22952F7024308C
:1014B00078F49F702230A8F09923B9F0F801968152
:1014C000907F99F4FE2C8F2D6496ECE00C944C29BF
:1014D0002A5F2F70223068F0C8010E944107EF2C6C
:1014E000F1CF992311F0882369F3805E883050F39F
:1014F000F3CF803F38F3815F833070F7E3CF809183
:101500003402816080933402BACF9D1113C0909150
:101510002E02C9120FC0E1100DC08683C8010E94BF
:10152000410787E0F801AEE2B2E001900D928A95A2
:10153000E1F767CFC8010E949A07882309F464CFB6
:10154000EE2009F461CF80913402803288F020913E
:101550002E0230912F02398728879B868A869091A8
:1015600032029C871D868E87CE0108960E94410715
:1015700087E0F801AEE2B2E001900D928A95E1F7C2
:101580000E9457090E94460942CF90913402292FA8
:10159000207FA1F4682D9A8A898AA6017A899E2DD6
:1015A0000E94A7078EE292E00E94410787E0F501C2
:1015B00011928A95E9F70E94460961CF882309F4C0
:1015C00082CF80912F028D1110C080912E02C812FF
:1015D0000CC0E1100AC09683C8010E94410787E051
:1015E000F50111928A95E9F76ECFC8010E949A071A
:1015F000882309F409CFEE2009F406CF8091340244
:10160000803208F4B5CF20912E0230912F023A8318
:1016100029839C828B82909132029D831E828F83CC
:10162000CE010196A3CF483C5105B8F5882309F4B3
:10163000EECEFE2CEE2009F4E7CE80912F028D1124
:101640001EC080912E02C8121AC08091340280FD03
:101650000DC0982F907F51F08683903F09F45ECFA4
:10166000982F907F905F8F70892B57CF87E0F8017C
:10167000AEE2B2E001900D928A95E1F724CFC80165
:101680000E949A07811174CF809134028160809307
:101690003402C8010E94410716CF682D9A8A898AB0
:1016A000A6017A899E2D0E94A70787E0F501119275
:1016B0008A95E9F7A6CEAEE0B0E0E1E6FBE00C9457
:1016C0003929288739874A875B876C877D878E878A
:1016D000CE0108960E94D1098823B1F06C8566235B
:1016E00041F0288539854A855B857D858E850E94F8
:1016F000B10717E08091F4019091F50189133DC085
:101700002E96E3E00C94552987E0FE013896DE0121
:10171000119601900D928A95E1F78C85882349F303
:101720002091F50130E0C901019687709927409119
:10173000F4014817190699F097E0929FD001939F02
:10174000B00D1124AA50BE4FFE01319601900D92AA
:101750009A95E1F78093F5010E942409CACF0E946F
:101760007A071092F5011092F40187E0EEE2F2E0C0
:10177000DF011D928A95E9F7BCCF819FC00111243A
:101780008A509E4F0E94D109882309F4B9CFE09175
:10179000F4011E9FF0011124EA50FE4F2081318197
:1017A000428153816481758186810E94B107809155
:1017B000F40190E00196877099278093F4019ACF05
:1017C00080913D02869586958695089580913D028B
:1017D0008770089590913D02977081E009F480E050
:1017E000089580914902089590914902892B809330
:1017F0004902089580959091490298239093490257
:10180000089510924902089590914802892B80937F
:101810004802089580959091480298239093480239
:10182000089510924802089508950E94140C089596
:1018300090913E02292F282331F0809589238093AF
:101840003E020E94150C089508950E94240C0895EC
:1018500090913F02292F2823281729F0982B909345
:101860003F020E94250C089590913F02292F2823C2
:1018700031F08095892380933F020E94250C0895C2
:1018800080913F02882329F010923F0280E00E945D
:10189000250C08950F931F93CF93DF9300910001C0
:1018A00010910101C091490280914802C82B80919A
:1018B0003F02882331F0C82B0E94171E81110E941D
:1018C000400CF801C083C0910001D091010148E0B3
:1018D00050E065E372E0CE010E947529892B59F032
:1018E00088E0FE01A5E3B2E001900D928A95E1F750
:1018F000CE010E94B41DDF91CF911F910F910895E9
:101900000E944A0C089508950E94830C08959091B6
:10191000B90292FF11C098E0899F90011124622BB7
:1019200060933D020E94F20780913D028695869564
:1019300086950E94840C08950E94F20708951092E3
:101940003D0280E00E94840C089590913D028095B4
:10195000892380933D02282F277069F4891759F055
:101960009091B90292FF07C08695869586950E9450
:10197000FE070E949F0C08959091B90292FB2227C6
:1019800020F9281769F080FB92F99093B9028091B1
:10199000B8029091B9020E940B0D82E00E94A50C42
:1019A00008958091B90282FB882780F991E0892708
:1019B0000E94BC0C089581E00E94BC0C089580E058
:1019C0000E94BC0C08956FEF7FEF90E080E00E94D2
:1019D000C729089590E080E00E949329853E9E4F9C
:1019E00019F40E944E1C089580E0089582E090E072
:1019F0000E948B29089583E090E00E948B2908952E
:101A0000682F83E090E00E94A929089584E090E087
:101A10000E9493290895BC0184E090E00E94C729A8
:101A20000895AB01BC018FE090E00E94BB290895AE
:101A3000AB01BC0183E190E00E94BB29089560E006
:101A400070E0CB010E94180D089560E070E0CB01BA
:101A50000E94110D0E941F0D0895A8E0B0E0E3E37D
:101A6000FDE00C943A2965EE7EEF90E080E00E9464
:101A7000C72960E082E090E00E94A92981E080937C
:101A8000F3010E94000D60E074E184E090E00E94A8
:101A9000C72960E086E090E00E94A92960E087E025
:101AA00090E00E94A92940E050E0BA0188E090E06F
:101AB0000E94BB2960E083E290E00E94A92960E0D7
:101AC0008CE090E00E94A92960E08DE090E00E9407
:101AD000A92919821A821B821C821D821E821F82E2
:101AE000188648E050E067E170E0CE0101960E9460
:101AF000992940E050E0BA018FE190E00E94BB29B3
:101B000080E00E94671C0E94961C0E94250D28966A
:101B1000E2E00C9456290E942D0D0895682F8EE066
:101B200090E00E94A9290895A6E0B0E0EAE9FDE06E
:101B30000C9438290E94A11F8C0180914A02909137
:101B40004B028017910781F019821A820E94A11F0F
:101B5000682F49815A81792F80E090E00E945104DA
:101B600010934B0200934A022696E4E00C94542909
:101B70000E94D8106093640270936502809366029D
:101B80009093670260936002709361028093620297
:101B9000909363020895089508950E94CB0D0895CF
:101BA00008950E94D00D089581E0089582EF90E19C
:101BB0000E94E6140E94CC0D0E94CD0D08950E9453
:101BC000E6120895089508950E94E20D0E94E30D23
:101BD00008950E94EA0C811102C00E948B0D0E94A0
:101BE000F60C809368020E94060D9093B9028093D0
:101BF000B8020E9409150E94FB0C0E94C507809143
:101C0000F2010E94DD0708950E94981F0E94B21001
:101C10000E94A61C0E94E9120E942C120E94E90D4B
:101C20000E942B040E940C150E94FB120E94D10DF1
:101C30000895A6E0B0E0EFE1FEE00C942E290E94AA
:101C4000D40D81110CC00E94940D0E94E6120E94D6
:101C500060190E9438042696EEE00C944A290E94EE
:101C60004F122CE4822E22E0922E640110E0F60145
:101C7000E190F1906F01812F0E940E111F5F1A30C9
:101C800009F44BC0E816F90691F38091680281FDD2
:101C90000E9417110E94DF0D782E10E066246394D5
:101CA000812F0E940E117C01F401A190B1904F018F
:101CB0008A159B0561F1A826BF2400E0CC24C394BB
:101CC000D12CC5018C219D21892BC1F07720B1F049
:101CD00009831A830E94A11F9C838B836D8221E05C
:101CE000C7018C219D21892B09F420E049815A816B
:101CF0006B817C818D81922F0E9451040F5FCC0CEF
:101D0000DD1C0930F1F6F4013297F182E0821F5FA9
:101D10001A3031F60E94B80D98CFE816F90609F08E
:101D2000B4CF91CF1F93CF93DF930E94C10FEC01EB
:101D3000C11580E5D807F0F5C11580E4D80708F093
:101D40009CC0C03ED10520F5CD3CD10508F082C035
:101D5000C83AD10578F4C53AD10508F073C0C1304E
:101D6000D10519F1209709F1C430D105F0F4D0E084
:101D7000C0E01BC0C33CD105D0F7C85AD0E0CC0F9F
:101D8000DD1FC359DE4F0990D881C02DD4640DC02A
:101D9000C11580E2D80708F0D1C0C11581E0D8078D
:101DA00008F05AC0C83ED10510F7CE01DF91CF919F
:101DB0001F910895C03682E5D80718F5C03482E532
:101DC000D80708F06BC0C03282E5D80708F05FC0C2
:101DD000C11582E5D80708F497C02C2F26952695C3
:101DE00080E2289F900111248C2F8370C1E0D0E005
:101DF00002C0CC0FDD1F8A95E2F7C22BD32BDD6822
:101E0000D4CFC03A82E5D80760F4C03882E5D8075D
:101E100008F459C0CF71D0E0DC2FCC27C46FD06A52
:101E2000C4CFC03C82E5D80708F462C0C03E82E55A
:101E3000D80708F09CCFDC2FCC27CC27DF71C06FF0
:101E4000D06AB3CFC55AD0E0CD55DE4FC881D0E0BF
:101E5000D064ABCFD065A9CF8D2F0E946310182F0F
:101E6000CE0199270E94C10FC12FD0E0DC2FCC27D3
:101E7000CC27DF71C82BD92B98CFCE0199270E9490
:101E8000C10FCC27DF70C82BD92BD06A8ECFCF7172
:101E9000D0E0DC2FCC27C16FD06A87CF2C2F2695BE
:101EA0002695277080E2289F900111248C2F837043
:101EB000C1E0D0E002C0CC0FDD1F8A95E2F7C22B53
:101EC000D32BDC6872CF2C2F26952695277080E2C5
:101ED000289F900111248C2F8370C1E0D0E002C0B4
:101EE000CC0FDD1F8A95E2F7C22BD32BDA685DCFCA
:101EF0008C2F8F710E946310C82FD0E0DC2FCC276D
:101F0000CC27DF71D06251CF8C2F8F710E9463106C
:101F100055E0D695C7955A95E1F7CF70D0E0DC2F04
:101F2000CC27282F30E084FF05C044E0220F331F68
:101F30004A95E1F7C22BD32BD06937CF8D2F8F7104
:101F40000E946310182FCE0199270E94C10FC12F44
:101F5000D0E0DC2FCC27CC27DF71C82BD92BD2CFF8
:101F6000462F7A3030F4693020F4672F0E94DC1558
:101F7000089590E080E008950E94B00F0E94920EB4
:101F8000089582389105B9F1B0F48133910509F4CF
:101F90007DC048F48932910509F46DC08A329105FB
:101FA00009F47BC008958533910509F45FC0893336
:101FB000910509F10895833E9105D9F138F4803EE9
:101FC000910529F1823E910579F10895863E9105AA
:101FD000D9F1873E910509F43EC0843E910541F553
:101FE0002091B90221FF24C08091B80284FD19C05C
:101FF00087EE90E008952091B802237009F05AC04E
:102000002091B90223FF14C089E290E00895209145
:10201000B80220FD38C03091B90230FF09C024FF5A
:1020200043C090E080E008952091B80222FDF7CFF0
:1020300008952091B80222FD3AC03091B90230FDD6
:1020400039C024FFF5CFEDCF2091B80223FFF0CFA8
:1020500024FDE7CFCDCF2091B80223FD2EC03091D3
:10206000B90231FFEECF84EE90E008952091B802DE
:1020700025FFDECFC9CF2091B80225FD21C02091D8
:10208000B90223FFD5CF89E390E0D2CF2091B802E7
:1020900026FFCECF8AE290E008952091B80226FF75
:1020A000C7CF81E390E0089583EE90E0089582EE3B
:1020B00090E0089580EE90E0089586EE90E0089517
:1020C00085E390E008959091B80292FF10C041E03E
:1020D000282F2471243009F040E031E0282F2871A6
:1020E000283009F030E0431711F02CE0822793FFED
:1020F00010C041E0282F2471243109F040E031E084
:10210000282F2871283109F030E0431711F02CE016
:1021100082273091B90230FF10C051E0282F217181
:10212000213009F050E041E0282F2871283009F0D3
:1021300040E0541711F029E0822731FF10C041E040
:10214000282F2171213109F040E031E0282F28713A
:10215000283109F030E0431711F029E0822794FD7F
:10216000877E08951092BA021092BB021092BC02B0
:102170001092BD020895CF92DF92EF92FF926B0111
:102180007C010E94E61281110EC00E94AD1FC61A8A
:10219000D70AE80AF90AC092BA02D092BB02E092CA
:1021A000BC02F092BD02FF90EF90DF90CF900895B7
:1021B0000F931F930E94E612882329F00E94AD1FFF
:1021C0001F910F9108950E94AD1F0091BA021091C6
:1021D000BB022091BC023091BD02600F711F821FB3
:1021E000931FEECF80E00895CF939C01205E32458F
:1021F000C1E02032310538F4FB01C581C11103C0B3
:102200008F710E9475038C2FCF91089508950E94BD
:102210000611089508950E940A110895E82FF0E02C
:10222000EE0FFF1FED52FD4F8081918108950895BB
:1022300080EA8A95F1F7089500C008950E94181168
:10224000089508950E9421110895AAE0B0E0EBE2FC
:10225000F1E10C9436290E94E612F82E6091E70213
:10226000882309F446C05AE0E52E8E010F5F1F4F08
:10227000F8018E2D11928A95E9F7862F90E0880F4C
:10228000991FB8018D529D4F0E9409138823C9F0F0
:102290008091BE0290E0880F991F4AE050E0B8019B
:1022A0008D529D4F0E94752921E020936902892B50
:1022B00091F4F12C0E940B118F2D2A96E6E00C94DC
:1022C0005229809169028823A1F3F8011192EA94BE
:1022D000E9F710926902A091BE02B0E0AA0FBB1FFD
:1022E000AD52BD4F8AE0F80101900D928A95E1F759
:1022F000E1CF70E0660F771F6D527D4F8091BE0277
:1023000090E0880F991F8D529D4F0E9490130E945C
:102310002211D2CFF894E82FE295EF70F0E031A1CE
:10232000282F2F7081E090E001C0880F2A95EAF7EE
:10233000982F9095932391A392A1892B82A37894AF
:102340000895CF93DF93CFEAD1E089918F3F11F0C9
:102350000E948A1181E0C43BD807B9F7C6EAD1E0F0
:1023600089918F3F11F00E948A1181E0CF3AD807FE
:10237000B9F7DF91CF910895AF92BF92DF92EF92BC
:10238000FF920F931F93CF93DF938C01D62EC62F0E
:10239000D0E0CE0181559E4F7C01FC0120812F3F72
:1023A00009F44DC0F894E22FE295EF70F0E031A10E
:1023B0002F7081E090E001C0880F2A95EAF7932FF3
:1023C000982B91A392A18095892382A378940E944F
:1023D0001C11E6EAF1E04FEA51E021E030E0B12CD7
:1023E000A12C61916F3FA9F1A62FA295AF70B0E02B
:1023F00090968C9190E06F7002C0959587956A9544
:10240000E2F780FD26C0C901A82AB92A220F331F8E
:102410004E175F0731F7F70180818F3F11F00E945F
:102420008A1161E0A114B10409F460E08D2D0E94CD
:102430001E11CC0FDD1FC00FD11FB982A882DF9102
:10244000CF911F910F91FF90EF90DF90BF90AF90D1
:10245000089590E080E0D8CF809102018091020140
:1024600095E0811190E09093E70285E0891B8093CD
:10247000BE020E94A11184E1E3EDF2E0DF01982F9A
:102480001D929A95E9F7EFEBF2E0DF011D928A9534
:10249000E9F785E00E948F120E9407110895A4E1D8
:1024A000B0E0E5E5F2E10C9437298E010F5F1F4F94
:1024B00084E1F80111928A95E9F7F12C6F2DC8019A
:1024C0000E94BC11F394F5E0FF12F8CF44E150E014
:1024D000B8018FEB92E00E94752921E0009709F482
:1024E00020E0892B41F084E1F801AFEBB2E00190EC
:1024F0000D928A95E1F76091E70270E0660F771F11
:102500006D527D4F45E08FEB92E00E949012182FA4
:102510000E942511812B6496E5E00C9453290895BF
:10252000B0E0A0E0E6E9F2E10C9434296C017B0113
:10253000042FC22F222379F081E080936C020E9445
:10254000A11F90936B0280936A0280E0CDB7DEB743
:10255000E8E00C945029D0916C02DD23B1F3809116
:102560006A0290916B020E94B91F059770F310E008
:10257000000F111FA801B601C7010E947529892B00
:1025800031F0A801B601C7010E948229CD2F109217
:102590006C028C2FDBCF52985A988FE891E001970C
:1025A000F1F700C0000089B182FB882780F9089507
:1025B000CF930E94FC28C82F811102C00E94F728E7
:1025C0008C2FCF91089580917002089580916F02B1
:1025D00008950E94D81280936F020E94CB128093BC
:1025E00070020E94E312809302010E94E6128111A0
:1025F0000E943F1308950E94E612811102C00E94BA
:102600004213089581E0909171029A3008F080E0C1
:1026100008950F931F93CF93DF93EC018B0180916B
:1026200071028A30B8F4B801CE010E948D13C82F10
:10263000811122C0809171028F3FB9F40E94A11FC5
:1026400090936E0280936D028C2FDF91CF911F913A
:102650000F91089580916D0290916E020E94B91FB2
:10266000843F914000F7C0E0EFCF8F5F809371020D
:102670008A3020F7C1E0E8CF10927102E5CF0E94C6
:102680007C2008950E947F200895B0E0A0E0EBE454
:10269000F3E10C9435297901C82F880FDD0B411522
:1026A0005105A9F0FE0193E0EE0FFF1F9A95E1F7A7
:1026B000ED5FFE4F818192818E589D4F208130E0E9
:1026C0004217530708F49A01A9010E948229CE01FA
:1026D0000E946821D82E8823D1F001151105B9F088
:1026E00083E0CC0FDD1F8A95E1F7FE01ED5FFE4F21
:1026F000438150E00417150708F4A801CD5FDE4FB1
:102700006C817D816E587D4FC7010E9482298D2D7D
:10271000CDB7DEB7E7E00C9451290E947F140895ED
:102720000E9496140895A4E0B0E0E9E9F3E10C9466
:102730003829609193027091940280919502909152
:1027400096020E94C81F11E064367105810591054B
:1027500018F10E94D8106E5F7F4F8F4F9F4F698393
:102760007A838B839C8310E000E030E020E044E03B
:1027700050E0BE016F5F7F4F82E00E944513182F2B
:10278000882351F00E94AD1F6093930270939402CE
:102790008093950290939602812F2496E4E00C9406
:1027A0005429B0E0A0E0E7EDF3E10C9432297C017C
:1027B0005B016A010E94021301E010E0882311F01E
:1027C0000AE010E0C1E0D0E0B501C701F6010995CB
:1027D000811104C021960C171D072CF4CDB7DEB76C
:1027E000EAE00C944E29CC9F9001CD9F300D300D26
:1027F000112490E080E045E34A95F1F7000001964E
:1028000082179307C1F7E0CFABE0B0E0EAE0F4E174
:102810000C9432297B01C090B401D090B50101E045
:1028200010E09E01255F3F4F50E040E070E060E027
:1028300080E00E944513182F882309F448C05601F0
:102840008FEFA81AB80A60918F0270919002809160
:102850009102909192020E94C81F64367105810511
:10286000910568F10AE010E09E012F5F3F4F50E0B4
:1028700040E070E060E081E00E944513D82E6AE0FD
:1028800070E0C5010E940D1511E09B85981310E0C2
:102890001D2141F10E94AD1F60938F027093900241
:1028A00080939102909392028AE0FE013196A5E80E
:1028B000B2E001900D928A95E1F711E013C06AE051
:1028C00070E0C5010E940D159B858913CBCF8AE06E
:1028D000F6013196DE01119601900D928A95E1F78D
:1028E0001111E2CF8AE0E5E8F2E0D70101900D9204
:1028F0008A95E1F7812F2B96EAE00C944E290F93ED
:102900001F93CF93DF93EC018B0144E054E10E94CD
:10291000D113882331F043E953E1B801CE010E947D
:10292000D113DF91CF911F910F9108950F931F93B2
:10293000CF93DF93C091B401D091B501CE01019640
:102940002AE0FB01DC0101900D922A95E1F76AE093
:1029500070E00E940D1588836B857C858D859E8532
:1029600000918102109182022091830230918402B1
:10297000601771078207930751F06093810270938B
:10298000820280938302909384020E94BB10DF91A5
:10299000CF911F910F9108950E94190E08950E94E2
:1029A0003A1F0E9465230E94D60D0E947F230E9439
:1029B000040E0E948C230E9491230E94CC140E943A
:1029C000AB230E9430220E94E40DF5CF9093C70103
:1029D0008093C60108950E94E30C089580E00E9450
:1029E0000E11817008950E944F122FEF86E791E03B
:1029F000215080409040E1F700C000000E944F123B
:102A00000E94EE14882321F00E94EB140E940820FB
:102A100008950E94F31408950895FC01680F791F2A
:102A20008FEF91E36E177F0709F4089521918227B4
:102A300028E030E087FF06C0880F89272150310940
:102A4000C9F7F0CF880FFACF84E0089550E0440F23
:102A5000551F92E1699F400D511D112494EB899FF0
:102A6000400D511D1124CA01889608950F931F939C
:102A7000CF93DF938430C8F46A30B8F44930A8F4B7
:102A80000E9426158C010E948B29C82FD0E0DC2FD4
:102A9000CC27C80101960E948B299E01282BC901D1
:102AA000DF91CF911F910F91089590E080E0F8CFD2
:102AB0000F931F93CF93DF93122F032F843078F45B
:102AC0006A3068F4493058F40E942615EC01602FF2
:102AD0000E94A929612FCE0101960E94A929DF91A8
:102AE000CF911F910F9108951F93CF93DF93D0E063
:102AF000C0E011C0412F6C2F8D2F0E94EE029C016F
:102B0000412F6C2F8D2F0E9458151F5F193091F7A0
:102B1000CF5FCA3011F010E0EDCFDF5FD43041F766
:102B2000DF91CF911F910895EF92FF920F931F9322
:102B3000CF93DF93EC018A017C01E60EF71ECE01F4
:102B40008896CE15DF0529F4CDB7DEB7E6E00C9404
:102B50005229C03D22E0D20740F40E948B29F8019F
:102B600080830F5F1F4F2196EACFF8011082F9CFC3
:102B7000B0E0A0E0EEEBF5E10C9434297C016A01B1
:102B80008C01060F171FEC01CE018896C017D107E4
:102B900029F4CDB7DEB7E8E00C945029C03D22E01F
:102BA000D20740F4FE01EE19FF09EC0DFD1D608116
:102BB0000E94A9292196E8CF843038F46A3028F49D
:102BC000493018F40E943615089590E080E0089589
:102BD00080E1089588E091E00895EF92FF920F93CD
:102BE0001F93CF93DF93EC018A017C01E60EF71E61
:102BF000CE0188509D4FCE15DF0529F4CDB7DEB745
:102C0000E6E00C945229C83021E0D20740F40E943B
:102C10008B29F80180830F5F1F4F2196E9CFF801C0
:102C20001082F9CFB0E0A0E0E8E1F6E10C9434299D
:102C30007C016A018C01060F171FEC01CE01885040
:102C40009D4FC017D10729F4CDB7DEB7E8E00C944B
:102C50005029C83021E0D20740F4FE01EE19FF09E7
:102C6000EC0DFD1D60810E94A9292196E7CFCF932D
:102C7000DF93C8EFD2E060E0CE010E94A92921963F
:102C8000C11584E0D807B9F7DF91CF910895A8E086
:102C9000B0E0EDE4F6E10C943229F82E8FE08F15C8
:102CA00008F46EC08FEF93E00E948B29811168C0F9
:102CB00008EF12E0F11035C0FE0131966F0188E097
:102CC00011928A95E9F77801FFEFEF1AFF0AC80120
:102CD0000E948B2989831A82882309F451C081308C
:102CE000D1F4580182E0A80EB11CC7010E948B29C3
:102CF0008A83882309F444C09FEF980F9330F0F43F
:102D0000780193E0E90EF11CC5010E948B298B83A9
:102D10008823B1F11C8260E0C6010E94F21A87018B
:102D2000D2CF011594E0190759F1C8010E948B29EF
:102D3000811101C0FA940F5F1F4FBCCF7501843021
:102D400051F702E010E07501EFEFEE1AFE0AC5013F
:102D50000E948B29F601E00FF11F8083882381F008
:102D60008C3741F4E2E0F0E0EC0FFD1FE00FF11FC3
:102D70001082D1CF0F5F1F4F57010730110519F790
:102D80002896EAE00C944E29CF93DF93EB0186312D
:102D90009C4711F50E94F10B9D81992399F08A7A45
:102DA00091E009F490E090939702811109C089E2C3
:102DB0000E94671E0E94800C80E0DF91CF910895F1
:102DC00085E3F6CF80919702811104C089E20E94C9
:102DD0006F1EF0CF85E3FBCF81E0EFCFCF93DF9382
:102DE000EC01FB018581882309F4D2C09E01305794
:102DF0002332310508F0B2C00E94060D9093B9024B
:102E00008093B802FE01E150F047E232F10520F470
:102E1000E551F64D0C941D298091B8028160809394
:102E2000B80293C08091B90288608093B9028DC0C6
:102E30008091B8028260F3CF8091B8028460EFCFB6
:102E40008091B8028860EBCF8091B9028160EDCFAC
:102E50008091B9028260E9CF8091B8028061DFCFB2
:102E60008091B8028062DBCF8091B8028064D7CFB6
:102E70000E947A078091B8028068D1CF8091B80211
:102E80008C60CDCF8091B9028360CFCF8091B802A2
:102E90008E7FC5CF8091B902877FC7CF8091B8025E
:102EA0008D7FBDCF8091B8028B7FB9CF8091B80262
:102EB000877FB5CF8091B9028E7FB7CF8091B9025D
:102EC0008D7FB3CF8091B8028F7EA9CF8091B80259
:102ED0008F7DA5CF8091B8028F7BA1CF0E947A070A
:102EE0008091B8028F779BCF8091B802837F97CF74
:102EF0008091B9028C7F99CF8091B80282FB99278B
:102F000090F921E0922790FB82F990FB83F987CF1B
:102F10008091B902982F909591708E7F892B90FBAC
:102F200081F983CF9091B802892F8F7B96FF8064BF
:102F300076CF0E947A079091B802892F97FB87F984
:102F400080586DCF81E00E948E0D8091B8029091E3
:102F5000B9020E940B0D0E947A0780E0DF91CF91A9
:102F6000089580E0F0CF9091B802892F8F7E94FF72
:102F7000806155CF9091B802892F8E7F90FF81603C
:102F80004ECF9091B902892F877F93FF88604DCFF4
:102F900081E0E4CF282F35EB2303C001112497FFF4
:102FA00004C080589109892F089580589F4FFBCF06
:102FB00080919E0280FF0DC06091200170E0660F3D
:102FC000771F6038710570F56115710569F1862FFD
:102FD000089581FF07C06091200184E0689FB001DF
:102FE0001124EFCF6091200182FD0AC080919D02E3
:102FF0008823A9F020911F0160912001821710F011
:1030000088E0ECCF869FC001112433E0880F991F20
:103010003A95E1F7622F70E00E940929D2CF68E06B
:1030200070E0D5CF8FE7089581E0089580919E02EA
:1030300080FF0CC060911C0170E0759567957595D7
:1030400067956115710549F1862F089581FF06C0C6
:1030500060911C0170E075956795F3CF60911C013C
:1030600082FD0BC090919C029923A1F060911B01FD
:1030700080911C01961738F0682F70E06038710558
:1030800000F38FE70895899FC001112470E00E942A
:103090000929F4CF61E070E0D7CF81E008958D3C3D
:1030A00031F40E94D81781958093A20208958E3C36
:1030B00019F40E94D817F8CF8F3C31F40E94D8172A
:1030C00081958093A1020895803D19F40E94D8173C
:1030D000F8CF893D29F40E9416188093A302089521
:1030E0008A3D21F40E9416188195F7CF8B3D31F46B
:1030F0000E94161881958093A40208958C3D19F4BE
:103100000E941618F8CF9FE2980F983070F4815DF6
:10311000990B21E030E001C0220F8A95EAF78091F7
:10312000A002822B8093A00208958D3D31F48091FE
:103130009E02816080939E0208958E3D21F48091CD
:103140009E028260F7CF8F3DB9F780919E02846026
:10315000F1CF4091A1028D3C59F48091A20287FFEA
:103160000DC01092A20241110BC010929D0208C026
:103170008E3C81F48091A20218169CF3442381F0C6
:103180008091A3029091A402892B09F05AC0109259
:103190009C0208958F3C49F447FFF0CF1092A102A2
:1031A0008091A2028111ECCFE0CF803D19F414167A
:1031B000ACF3E4CF9091A302893D29F41916F4F6FB
:1031C0001092A302DBCF8A3D19F497FFD7CFF8CF37
:1031D0009091A4028B3D29F497FFD0CF1092A402C6
:1031E000CDCF8C3D19F41916CCF3C8CF9FE2980FC0
:1031F000983090F4815D990B21E030E0B90102C074
:10320000660F771F8A95E2F7CB0180959091A00217
:1032100089238093A002B2CF8D3D31F480919E022C
:103220008E7F80939E02AACF8E3D21F480919E02D4
:103230008D7FF7CF8F3D09F0A1CF80919E028B7FCC
:10324000F0CF08950E94A11F9C019091A10280914E
:10325000A202982B21F030939B0220939A02909126
:10326000A3028091A402982B21F03093990220931D
:1032700098028FE992E00E94BF1D089586E0EFE971
:10328000F2E0DF011D928A95E9F710929D021092FB
:103290009C0210929E020895FC01828181110EC051
:1032A000838181110BC08481811108C091E08581E7
:1032B000811101C090E0892F8170089581E0FCCFD9
:1032C000A6E0B0E0E6E6F9E10C94392986E0EFE902
:1032D000F2E0DE01119601900D928A95E1F71092CD
:1032E000A1021092A2021092A3021092A4028B815A
:1032F0009C81892B89F080919A0290919B020E9477
:10330000B91FAC0190919D029923C9F180912101CF
:103310008417150608F440C08D819E81892B91F099
:1033200080919802909199020E94B91FAC019091EE
:103330009C02992309F46AC080911D018417150627
:1033400008F472C0BE016F5F7F4F8FE992E00E9468
:10335000821E811105C08FE992E00E944C198111F3
:103360000E94221986E0FE013196AFE9B2E0019099
:103370000D928A95E1F72696E3E00C945529209169
:1033800022018AE0289F900111242417350720F696
:103390009F5F90939D0202C09F3FD1F71B81112335
:1033A00059F00E94D8179FEF11160CF491E0899FF5
:1033B000802D11248093A1021C81112359F00E94B9
:1033C000D8179FEF11160CF491E0899F802D1124DE
:1033D0008093A2028091A102882309F49DCF1091CD
:1033E000A202112309F498CF0E94CA17882351F032
:1033F0008093A102812F0E94CA17882329F080930D
:10340000A2028ACF81E0F4CF81E0F9CF20911E01A2
:103410008AE0289F900111242417350708F092CFE5
:103420009F5F90939C0202C09F3FD1F71D811123A3
:1034300059F00E9416189FEF11160CF491E0899F25
:10344000802D11248093A3021E81112359F00E9424
:1034500016189FEF11160CF491E0899F802D11240E
:103460008093A4028091A302882309F46BCF10916A
:10347000A402112309F466CF0E94CA17882351F0D1
:103480008093A302812F0E94CA17882329F080937A
:10349000A40258CF81E0F4CF81E0F9CFB0E0A0E002
:1034A000E4E5FAE10C943329E82FF0E0E458FC4F0E
:1034B000B490282F26952695269530E0F901E45EF4
:1034C000FB4F0491877010E0082E02C015950795F8
:1034D0000A94E2F701701127F901E45FFB4FE490D1
:1034E000F12C082E02C0F594E7940A94E2F791E0DB
:1034F000E922FF24F901E450FC4FC491D0E002C05E
:10350000D595C7958A95E2F7C170DD27C62ED12CD7
:103510000115110549F5E114F10431F086EE0E9420
:103520009404C601009771F5B6018B2D0E94100519
:10353000C601009779F5E114F104A1F50115110513
:1035400031F081EE0E94DD04C6010097C9F5CD2B54
:1035500031F08CE20E942805C114D104C9F5CDB721
:10356000DEB7E9E00C944F2981EE0E949404C60175
:10357000009789F2EFE9FFE03197F1F700C0000012
:103580000197F6CFEFE9FFE03197F1F700C00000B7
:103590000197C8CFEFE9FFE03197F1F700C00000D5
:1035A0000197C7CF86EE0E94DD04C601009731F275
:1035B000EFE9FFE03197F1F700C000000197F6CF87
:1035C000EFE9FFE03197F1F700C000000197BDCFB0
:1035D0008FE99FE00197F1F700C0000091E0C91A60
:1035E000D108BACFEF92FF920F931F93CF93DF933F
:1035F000EC01162F0AE08881882309F459C0813034
:1036000009F052C08981813071F47E0182E0E80EB8
:10361000F11C8A810E942805E701812F90E0009724
:10362000D9F52196E8CF823041F47E01E2E0EE0E3A
:10363000F11C8A810E949404EFCF833041F47E0113
:10364000F2E0EF0EF11C8A810E94DD04E5CF8430A8
:1036500011F02196E2CF2A81229690E080E0AE011F
:103660004F5F5F4F2053330B2A30310550F00097E6
:10367000A1F2EFE9FFE03197F1F700C000000197F8
:10368000F6CF089FB001099F700D1124C901860F64
:10369000971F2981EA01E3CFEFE9FFE03197F1F7C6
:1036A00000C000000197BBCF612F0E944E1AB9CF16
:1036B000CDB7DEB7E6E00C9452290F931F93CF935A
:1036C000DF93C42FD22FFC0185818823C9F040935A
:1036D000A7020E94A11F9093A6028093A50280E2F8
:1036E0008C0F883040F4C77081E001C0880FCA9504
:1036F000EAF70E943105DF91CF911F910F91089554
:103700001091A702141332C08091A5029091A602D5
:103710000E94B91F883C910548F5C0E2CD0F1D17E6
:10372000B9F080E2810F883040F4177081E001C069
:10373000880F1A95EAF70E943805C83048F481E0EE
:103740009D2F977001C0880F9A95EAF70E94310566
:10375000802F0E942805C83070F6D77081E001C024
:10376000880FDA95EAF70E943805C5CF80E28C0F02
:10377000883008F6C77081E001C0880FCA95EAF763
:10378000F2CF0F93DB0188519C4787309105A0F55C
:10379000FC01E35FF54D0C941D2906E221EE41EE9C
:1037A0006AE17CE7CD010E945D1B80E00F910895E6
:1037B00007E225EE45EE6BE17CE7F4CF06E221EE71
:1037C00040EE68E17CE7EECF07E225EE44EE69E1EA
:1037D0007CE7E8CF06E221EE42EE6CE17CE7E2CF47
:1037E00007E225EE46EE6DE17CE7DCCF08E221E062
:1037F00045EE6EE17CE7D6CF15968C91882319F0C3
:103800001092A702D3CF81E0D1CF1F93CF93DF9344
:1038100087372CE7920759F0C1E088379C47E1F4DD
:10382000FB01C581CC2371F10E94481C06C0FB013D
:10383000C581CC23B1F00E94451C0E94F2070E9472
:103840004B1CD82F0E94481CC82F0E94451C4D2F8E
:103850006C2F0E941A09C0E08C2FDF91CF911F912D
:1038600008950E94451C0E94FE070E944B1C182FC1
:103870000E94481CD82F0E94451C412F6D2F0E948A
:103880001A09EACF0E94481CEECF809125010895C5
:1038900080912401089580912301089584E290E0AD
:1038A0000E948B29853289F485E290E00E948B2961
:1038B000823059F486E290E00E948B2991E08131B8
:1038C00009F090E0892F8170089580E0FCCFCF93BC
:1038D000C82F6FEF811165E284E290E00E94A92970
:1038E0006FEFC11162E085E290E00E94A9296FEFBD
:1038F000C11161E186E290E00E94A929CF9108956B
:10390000089587E290E00E948B29682F70E090E094
:1039100080E008950895CF93C62F0E948A1C6C2FD3
:1039200087E290E00E94A929CF91089580E00E944B
:10393000671C60E070E0CB010E948B1C0E94741534
:103940000E94371681E00E94671C08950E94801C27
:103950000E94811C0E948A1C0E944E1C811102C080
:103960000E94961C089508959C01FB01858188237F
:1039700051F0A90157574038510530F4822F0E9469
:10398000471680E0089581E008952FEFFC01208321
:1039900008950E94C51C089580E00895B0E0A0E05D
:1039A000E4EDFCE10C943429EC01C62E0E94CC1C01
:1039B000811110C0E881E150E331B8F4F0E0EC5E31
:1039C000F54D0C941D2919828CE08A836C2DCE0153
:1039D0000E942722CDB7DEB7E8E00C9450298981F8
:1039E0008230C1F028F4813061F08FEF8883EECF10
:1039F000833099F08430C9F71A821B821C821D82A1
:103A0000E5CF0E94AD1F0E9423296A837B838C83AC
:103A10009D83DCCF0E94811CF6CF8A81082F10E0A5
:103A20007E019EE0D92ED80E0A30110578F6802F3F
:103A30000E940E11F701938384830F5F1F4FF2E002
:103A4000EF0EF11CD012F0CFC1CF8981823031F05E
:103A5000853059F68A810E94B31CB8CF6A817B8178
:103A60008C819D810E9423290E948B1CAFCF4B81AA
:103A70006A8189810E9436159827892798279D8316
:103A80008C83A4CF2C813D813227232732274B8181
:103A90006A8189810E94581599CF0E94741596CF2A
:103AA0006C2DCE010E94C91C91CF0E94E81589831C
:103AB0008DCF0E94EA159827892798279A838983B2
:103AC00085CF6B8170E089819A81AE014C5F5F4F39
:103AD0009827892798270E94ED1578CF6B8170E091
:103AE00089819A81AE014C5F5F4F9827892798277B
:103AF0000E9412166BCF0E94371668CF0E942415C1
:103B0000D6CF6B8170E089819A81AE014C5F5F4FA7
:103B10009827892798270E94941558CF6B8170E0C9
:103B200089819A81AE014C5F5F4F9827892798273A
:103B30000E94B8154BCF9093AE028093AD020895CA
:103B40000E94E612811103C08091A8020895E091BD
:103B5000AD02F091AE02309729F00190F081E02D96
:103B60000995089580E00895E091AD02F091AE02CC
:103B7000309721F00280F381E02D09950895E091BE
:103B8000AD02F091AE02309739F022E0DC012C93C7
:103B90000680F781E02D09950895A3E0B0E0E3EDFC
:103BA000FDE10C943A292091AB023091AC02281728
:103BB0003907A1F09093AC028093AB02E091AD0283
:103BC000F091AE02309751F023E029839B838A83E2
:103BD0000084F185E02DCE01019609952396E2E05F
:103BE0000C945629A3E0B0E0E8EFFDE10C943A29EB
:103BF0002091A9023091AA0228173907A1F09093C9
:103C0000AA028093A902E091AD02F091AE02309732
:103C100051F024E029839B838A830084F185E02D81
:103C2000CE01019609952396E2E00C945629409125
:103C30000001509101019A012E5F3F4F485F5F4F95
:103C400080E02417350709F40895F90191919F0147
:103C50009923B9F38F5FF5CF882371F0209100018C
:103C600030910101F9013296285F3F4F91919817E9
:103C700029F0E217F307D1F780E0089581E0089575
:103C80009C01FC0132969FEF80E04191461751F074
:103C90009F3F19F4411101C0982F8F5F8630A9F71B
:103CA0009F3F09F40895290F311D97FD3A95F901B9
:103CB00062830895FC01329608962191261303C071
:103CC000DF0111971C92E817F907B9F70895682FDB
:103CD00080910001909101010E94401E0895682F7B
:103CE00080910001909101010E945A1E0895E09177
:103CF0000001F0910101329686E0DF011D928A9564
:103D0000E9F70895DC01FB0111969C9111978181DF
:103D1000981322C012968C911297882319F09281E1
:103D200089131AC013968C911397882319F09381E5
:103D3000891312C015968C911597882319F09581D7
:103D400089130AC014969C91992321F081E0248163
:103D5000291303C080E001C081E0817008950895B7
:103D60000E94AF1E089581110EC081E08093290149
:103D7000609126017091270180912801909129017D
:103D80000E94B01E089582E0F1CF83E08093290164
:103D9000609126017091270180912801909129015D
:103DA0000E94B01E08950E94B31E089581E0809382
:103DB000290160912601709127018091280190913D
:103DC00029010E94B01E08950E94D61E089591E018
:103DD000811101C090E090932801609126017091BB
:103DE000270180912801909129010E94B01E089519
:103DF0008091280108958093270160912601709198
:103E0000270180912801909129010E94B01E0895F8
:103E10008091270108958093260160912601709179
:103E2000270180912801909129010E94B01E0895D8
:103E3000809126010895089508950E941C1F0895F9
:103E4000089508950E941B1F0895CF930E94201F7C
:103E50000E944F120E94211FC0E08C2F0E940E1161
:103E6000892B31F4CF5FCA30C1F780E0CF9108953C
:103E700081E0FCCF85B7806885BF85B7806885BF46
:103E800008951F921FB61F9211248F939F93AF9393
:103E9000BF938091AF02811113C08091E80290918D
:103EA000E902A091EA02B091EB024196A11DB11D79
:103EB0008093E8029093E902A093EA02B093EB02A8
:103EC000BF91AF919F918F911F901FBE1F9018952A
:103ED0008091F002843031F10E940F041092AF0201
:103EE00088E190E020E40FB6F894A89580936000F4
:103EF0000FBE2093600083B7817F846083BF83B748
:103F0000816083BF7894889583B78E7F83BF0FB617
:103F1000F894A89580916000886180936000109269
:103F200060000FBE08950E947A070E94140408954D
:103F300082E084BD93E095BD9AEF97BD80936E00BB
:103F400008952FB7F8948091E8029091E902A0912A
:103F5000EA02B091EB022FBF08952FB7F894609159
:103F6000E8027091E9028091EA029091EB022FBF82
:103F700008959C014FB7F8948091E8029091E9026E
:103F8000A091EA02B091EB024FBF821B930B089500
:103F9000CF92DF92EF92FF922FB7F894C090E80291
:103FA000D090E902E090EA02F090EB022FBFA70167
:103FB0009601261B370B480B590BCA01B901FF901C
:103FC000EF90DF90CF90089578941F921FB61F92C4
:103FD00011248F939F93AF93BF938091E8029091A8
:103FE000E902A091EA02B091EB020196A11DB11D78
:103FF0008093E8029093E902A093EA02B093EB0267
:10400000BF91AF919F918F911F901FBE1F901895E8
:1040100087E797E7909301088093000888E19AE08A
:104020000FB6F894A895809360000FBE909360003F
:10403000FFCF88E19AE00FB6F894A89580936000CE
:104040000FBE90936000FFCF8EE1489B02C081506D
:10405000E1F7489BFECF0895589880E28A95F1F7E2
:10406000589A0895FC013BE03A95F1F798E020E07A
:1040700080E031E040E14A95F1F7880F489B02C0AB
:104080008160232742E04A95F1F7000040E14A951C
:10409000F1F7915079F790E19A95F1F799B132E003
:1040A0003A95F1F7000040E14A95F1F791709227B7
:1040B0002081920F90830895A1E0B0E0E2E6F0E263
:1040C0000C94362919828C017C01E60EF11C0E1528
:1040D0001F0541F481E09981911180E02196E6E08D
:1040E0000C9452290E942420CE0101960E94322075
:1040F000F80181938F01EBCF509A589A0895509808
:10410000589AE89AE9E6F0E080818C7F80830895F0
:104110006150770B91E001C0990F6A95EAF720E0B2
:1041200031E0911108C0222391F0589A80E28A95DB
:10413000F1F758980895492F482339F0589A2327C2
:1041400040E24A95F1F79695ECCF5898F9CF5898F8
:10415000EDCFFF920F931F93CF93DF93EC018C0170
:10416000060F111DC017D10729F4CDB7DEB7E5E062
:104170000C945329F9900E942C2068E08F2D0E9406
:104180008820F0CF1F920F920FB60F9211240F9339
:104190001F932F933F934F935F936F937F938F93CF
:1041A0009F93AF93BF93EF93FF93CF93DF930F92C0
:1041B000CDB7DEB719820E942420CE0101960E945D
:1041C0003220082F069506950695282F22952570F2
:1041D000902F9570290F922F937026952695920F08
:1041E000982797708981982B09F05CC0043008F0FB
:1041F00059C080E18A95F1F7589A509A82E08A95E1
:10420000F1F700C0589888E0089F80011124D80178
:10421000AD5FBE4F1696ED91FC9117973097A9F0C0
:104220006091B4017091B50114962D913C91159750
:10423000260F371F11968D919C911297680F791F49
:1042400013964C9113978C910995F801ED5FFE4FF1
:104250006381662351F02091B4013091B5018481CE
:104260009581820F931F0E94A9200E942C2080E13B
:104270008A95F1F758985098589A80E18A95F1F705
:10428000F801ED5FFE4F6081662351F02091B4018B
:104290003091B50181819281820F931F0E945C2031
:1042A0000E9424200F90DF91CF91FF91EF91BF9159
:1042B000AF919F918F917F916F915F914F913F91BE
:1042C0002F911F910F910F900FBE0F901F90189577
:1042D0000F931F93CF93DF93EC0104970CF04CC026
:1042E000F894509A589885E08A95F1F700009C2F31
:1042F000969595708C2F8570980F892F8370969561
:10430000969523E0CC0FDD1F2A95E1F7980F8E01DB
:10431000092B0E942C2000C068E0802F0E9488207A
:1043200080E18A95F1F75098589A489B1EC087E023
:1043300090E048991CC0FE01ED5FFE4F638166234B
:10434000F9F02091B4013091B50184819581820FFB
:10435000931F0E945C20811113C0509A589A789440
:10436000DF91CF911F910F91089500C0DECF01978B
:1043700029F4509A589A789480E0F2CF00C0D9CFAF
:104380000E94242080E28A95F1F75898509A80E1A3
:104390008A95F1F7CD5FDE4F6881662351F0209159
:1043A000B4013091B50189819A81820F931F0E94D7
:1043B000A9200E942C20789481E0D2CF08959B01FF
:1043C000BA019091F0029430E9F48F708093E90083
:1043D0009FEF8091E800915085FD06C085ED8A959C
:1043E000F1F700009111F5CF8091E80085FF0AC038
:1043F00050E040E0C9010E9421248091E8008E77BE
:104400008093E800089543E050E0BC0184E00E94FE
:10441000DF21089546E050E0BC0184E00E94DF21E6
:104420000895CF93DF93EC010E94F81E48E050E01E
:10443000BE0181E00E94DF2188E0FE01A0EBB2E036
:1044400001900D928A95E1F7DF91CF910895603246
:1044500031F440E250E0BC0182E00E94DF21089587
:10446000A0E2B0E0E6E3F2E20C943A298091F00297
:10447000843009F583E08093E9008091E80082FFB1
:104480001AC08091E80090E085FF09C050E040E04C
:1044900060E270E0CE0101960E94702491E080916C
:1044A000E8008B778093E800992329F060E2CE0141
:1044B00001960E94CE1CA096E2E00C9456298091B1
:1044C000EF02811109C00E9400260E945D268091A2
:1044D000E20084608093E20008951092EF02089554
:1044E0000E94D61E81E00E94E71E08956091EC02B2
:1044F00081E0611101C080E00E94C51E0895909185
:10450000F00281E0943009F080E06091EC020E94BA
:10451000D31E089542E061EC81E00E947C2542E2D6
:1045200061EC84E00E947C2542E261EC82E00E9422
:104530007C2542E260EC83E00E947C259091F002B1
:1045400081E0943009F080E06091EC020E94B31E9B
:1045500008958091F202833009F463C030F4813011
:10456000E1F1823009F4A0C008958A3009F48CC0CA
:104570008B3009F471C0893009F052C08091F1028A
:10458000813209F04DC08091F5029091F6020097BA
:1045900019F0029709F044C08091E800877F80936A
:1045A000E8008091E80082FF37C09091F30080918D
:1045B000F200029731F48091F100813011F08630E1
:1045C00021F48091F1000E94FB1E8091E8008B771E
:1045D0008093E8000E94B02523C08091F102813AC7
:1045E000F9F48091E800877F8093E8008091F502DC
:1045F0009091F602892B61F468E080EB92E070E024
:104600000E94BF248091E8008B778093E800089592
:1046100060E090E080E0F3CF8091F0028111C1CFA3
:1046200008958091F102813AD9F78091F502909135
:10463000F602892BA9F78091E800877F8093E80034
:104640008091E80080FFFCCF0E94F81E8093F1006B
:104650008091E8008E77BCCF8091F102813201F722
:104660008091F5029091F602892BD1F68091E800B5
:10467000877F8093E8000E94B0258091F3020E941A
:10468000E71E0E947A0708958091F102813241F677
:104690008091E800877F8093E8000E94B025809198
:1046A000F4020E940B1F08958091F102813A09F0F3
:1046B000B7CF8091E800877F8093E8008091E80081
:1046C00080FFFCCF0E94181FC1CF84B7877F84BFB3
:1046D0000FB6F894A895809160008861809360007F
:1046E000109260000FBE80E890E00FB6F8948093BF
:1046F0006100909361000FBE0E94E41E08950E9425
:1047000000260E945D26E2EEF0E0808184608083D6
:1047100078940E94DC2808958AE291E00E949B1D13
:1047200008958091F002853031F48091F002853057
:1047300019F00E94931F08950E94681F0E94251F70
:10474000882399F38091EE02882379F30E940B2449
:104750000E947A07EACF08959A014091F70250919A
:10476000F8020E94B4230895492F5527433051057C
:1047700021F168F44130510509F443C0423051053C
:1047800009F444C090E080E050E040E026C04132AF
:10479000510551F142325105A9F76330710590F787
:1047A000FB01EE0FFF1FE754FE4F408151816A5419
:1047B0007E4FFB01808190E010C0992781309105E8
:1047C00081F0009729F00297E9F6ECE2F4E002C0EC
:1047D000ECE4F4E0849190E0AF01F901518340836F
:1047E0000895EAE3F4E0F6CF6330710558F6660FFA
:1047F000771FFB01E154FE4F4081518189E090E039
:10480000ECCF82E190E04BEA54E0E7CF8BE590E01B
:1048100040E554E0E2CF80E189BD82E189BD09B481
:1048200000FEFDCF8091D8008F7D8093D8008091CD
:10483000E00082608093E0008091E00081FDFCCF89
:104840000895AF92BF92CF92DF92FF920F931F9382
:10485000CF93DF936C01EB018A010E94CF25F82EE4
:10486000811123C00115110539F0F8018081918172
:10487000C81BD90BC80ED91EB12CA12C2097A9F0AA
:104880008091E80085FD22C08091E8008E778093BA
:10489000E80001151105A1F0F80180819181A80EB1
:1048A000B91EB182A08285E0F82E8F2DDF91CF91C5
:1048B0001F910F91FF90DF90CF90BF90AF90089520
:1048C0000E94CF258823D1F2F82EEFCFF6018191F7
:1048D0006F018093F1002197FFEFAF1ABF0ACECF8F
:1048E000AF92BF92CF92DF92FF920F931F93CF931D
:1048F000DF936C01EB018A010E94CF25F82E811114
:1049000023C00115110539F0F80180819181C81B80
:10491000D90BC80ED91EB12CA12C2097A9F08091DB
:10492000E80085FD22C08091E8008B778093E80045
:1049300001151105A1F0F80180819181A80EB91E21
:10494000B182A08285E0F82E8F2DDF91CF911F914B
:104950000F91FF90DF90CF90BF90AF9008950E948D
:10496000CF258823D1F2F82EEFCF8091F100F60108
:1049700081936F012197FFEFAF1ABF0ACECFFC01E1
:104980008091F7029091F80286179707A0F06115C1
:10499000710529F49091E8009E779093E80090E0EB
:1049A0006115710551F4911108C08091E80082FFF2
:1049B00034C080E00895BC01F2CF8091F0028823DA
:1049C000C1F18530C1F18091E80083FD30C0809154
:1049D000E80082FDEACF8091E80080FFE1CF80917E
:1049E000F3002091F200382F6115710519F028307D
:1049F000310558F091E02830310509F090E0209120
:104A0000E8002E772093E800CBCF81918093F100CE
:104A1000615071092F5F3F4FE7CF8091F0028823EB
:104A200041F0853041F08091E80083FFBECF81E006
:104A3000089582E0089583E00895FC018091F702D3
:104A40009091F80286179707A0F06115710529F477
:104A50008091E8008E778093E80090E06115710501
:104A600051F4911108C08091E80082FF35C080E0C8
:104A70000895BC01F2CF8091F0028823C9F18530FE
:104A8000C9F18091E80083FD31C08091E80082FD8A
:104A9000EACF8091E80080FFE1CF8091F300209180
:104AA000F200382F6115710519F02830310558F0E2
:104AB00091E02830310509F090E08091E8008E7790
:104AC0008093E800CBCF84918093F10031966150C0
:104AD00071092F5F3F4FE6CF8091F002882341F0AC
:104AE000853041F08091E80083FFBDCF81E00895DB
:104AF00082E0089583E00895982F973028F08F7012
:104B00008093E90081E008959093E900242F762FA7
:104B100050E0981731F07091EC002091ED00509129
:104B2000F00021FD02C09F5FE8CF3091EB003E7F97
:104B30003093EB003091ED003D7F3093ED003091EC
:104B4000EB0031603093EB007093EC002093ED00AC
:104B50005093F0002091EE0027FDE5CF80E008950E
:104B60008091F10287FF13C08091E80082FF06C0A8
:104B70008091E8008B778093E80004C08091F00278
:104B80008111F2CF08958091F0028823D9F38091AA
:104B9000E80080FFF8CF8091E8008E77ECCF20917D
:104BA000E4003091E50095E6A9012091EC00822F08
:104BB000817020FF06C08091E80080FF06C080E081
:104BC00008952091E80022FD1AC08091F002882308
:104BD00089F0853089F08091EB0085FD0FC0209130
:104BE000E4003091E50042175307F9F29150E1F6E5
:104BF00084E0089582E0089583E0089581E00895B7
:104C00000E946F260E947726E0EEF0E080818160AE
:104C10008083E8EDF0E080818F77808319BCA7ED79
:104C2000B0E08C918E7F8C9380818F7E80831092F8
:104C3000EF0208950F931F93CF93DF930E946F2687
:104C40000E947726C8EDD0E088818F77888388819D
:104C50008068888388818F7D888319BC1092F002D8
:104C60001092EC021092EE021092ED0200EE10E0B3
:104C7000F80180818B7F808388818160888342E016
:104C800060E080E00E947C25E1EEF0E080818E7F94
:104C90008083E2EEF0E080818160808380818860A3
:104CA0008083F80180818E7F808388818061888302
:104CB000DF91CF911F910F910895E8EDF0E0808191
:104CC0008F7E8083E7EDF0E080818160808384E0E7
:104CD00082BF81E08093EF020E941A260895E8EDDA
:104CE000F0E080818E7F80831092E2000895109220
:104CF000DA001092E10008951F920F920FB60F9202
:104D000011242F933F934F935F936F937F938F93D0
:104D10009F93AF93BF93EF93FF938091E10082FF46
:104D20000BC08091E20082FF07C08091E1008B7F81
:104D30008093E1000E94DB288091DA0080FF19C097
:104D40008091D80080FF15C08091DA008E7F80931B
:104D5000DA008091D90080FF96C080E189BD82E1B0
:104D600089BD09B400FEFDCF81E08093F0020E946E
:104D70005F228091E10080FF19C08091E20080FFF6
:104D800015C08091E2008E7F8093E2008091E20066
:104D900080618093E2008091D80080628093D80087
:104DA00019BC85E08093F0020E9476228091E10098
:104DB00084FF2BC08091E20084FF27C080E189BD81
:104DC00082E189BD89B5982F917080FFFBCF8091DA
:104DD000D8008F7D8093D8008091E1008F7E8093F2
:104DE000E1008091E2008F7E8093E2008091E200FA
:104DF00081608093E2008091EC02882309F449C02D
:104E000084E08093F0020E947F228091E10083FF82
:104E100029C08091E20083FF25C08091E100877F57
:104E20008093E10082E08093F0021092EC02809186
:104E3000E1008E7F8093E1008091E2008E7F80937D
:104E4000E2008091E20080618093E20042E060E055
:104E500080E00E947C258091F00088608093F000C3
:104E60000E947022FF91EF91BF91AF919F918F911E
:104E70007F916F915F914F913F912F910F900FBE56
:104E80000F901F90189519BC1092F0020E946D228D
:104E900070CF8091E30087FD93E09093F002B3CF51
:104EA0001F920F920FB60F9211242F933F934F939F
:104EB0005F936F937F938F939F93AF93BF93CF93A2
:104EC000DF93EF93FF93D091E900DF708091EC00C6
:104ED000C82FC17080FDC0E81092E9008091F000F9
:104EE000877F8093F00078940E9494271092E900C5
:104EF0008091F00088608093F000CD2BCF70C0933C
:104F0000E900FF91EF91DF91CF91BF91AF919F9118
:104F10008F917F916F915F914F913F912F910F9062
:104F20000FBE0F901F901895AAE2B0E0EAE9F7E2F1
:104F30000C94392981EF92E02091F100FC0121933A
:104F4000CF01F2E0893F9F07B9F70E94A922809123
:104F5000E80083FF1EC18091F1029091F2029A3025
:104F600008F017C1E92FF0E0E95DF54D0C941D291B
:104F7000803899F0823809F00CC18091F5028F7069
:104F8000873008F006C18093E9008091EB0085FB33
:104F9000882780F91092E90006C08091ED02909177
:104FA000EE02911182609091E800977F9093E80063
:104FB0008093F1001092F1008091E8008E77E5C0B7
:104FC000882309F4D3C0823009F0E3C08091F30252
:104FD0008111D6C08091F5028F702FEF280F2630F7
:104FE00008F0D7C08093E9002091EB0020FFC8C0F3
:104FF000933031F48091EB0080628093EB00C0C06D
:105000009091EB0090619093EB0021E030E001C0C3
:10501000220F8A95EAF72093EA001092EA00809125
:10502000EB008860EACF8111B4C01091F3021F77C2
:105030008091E3008078812B8093E3008091E800E9
:10504000877F8093E8000E94B0258091E80080FF70
:10505000FCCF8091E30080688093E30082E011112F
:1050600083E08093F00295C08058823008F091C0B0
:105070008091F3029091F4028C3D23E09207A1F518
:1050800083E08A838AE289834FB7F894DE0113961E
:1050900020E03EE051E2E32FF0E050935700E4912E
:1050A00020FF03C0E295EF703F5FEF708E2F90E01E
:1050B000EA30C0F0C7968D939D932F5F243159F746
:1050C0004FBF8091E800877F8093E8006AE270E03C
:1050D000CE0101960E94BF248091E8008B778093D7
:1050E000E80057C0C096E7CF6091F5027091F602D4
:1050F000AE014F5F5F4F0E94AC23BC01892B09F4C6
:1051000048C09091E800977F9093E80089819A8148
:105110000E941D25E1CF8038E1F58091E800877F6E
:105120008093E8008091EC028093F10045CF8111DB
:1051300030C09091F302923060F58091E800877F53
:105140008093E8009093EC020E94B0258091EC02DD
:10515000882311F084E005C08091E30087FDFACF39
:1051600081E08093F0020E948A2213C08091F302B2
:10517000813079F481E0933009F080E08093EE0291
:105180001092E9008091E800877F8093E8000E94F8
:10519000B0258091E80083FF0AC08091E800877FF6
:1051A0008093E8008091EB0080628093EB00AA96E8
:1051B000E3E00C9455290895CF938091F002882361
:1051C000A1F0C091E900CF709091EC00892F81701F
:1051D00090FD80E8C82B1092E9008091E80083FDE3
:1051E0000E949427CF70C093E900CF9108950E9448
:1051F00000261092F0020895E8EDF0E080818061D1
:1052000080838AE18A95F1F700C08091D90081708E
:10521000089597FB072E16F4009407D077FD09D068
:105220000E94612907FC05D03EF4909581959F4F1F
:105230000895709561957F4F0895EE0FFF1F0590BB
:10524000F491E02D09946927962769277827872705
:10525000782708952F923F924F925F926F927F929C
:105260008F929F92AF92BF92CF92DF92EF92FF9276
:105270000F931F93CF93DF93CDB7DEB7CA1BDB0B22
:105280000FB6F894DEBF0FBECDBF09942A883988C7
:1052900048885F846E847D848C849B84AA84B984CE
:1052A000C884DF80EE80FD800C811B81AA81B981DA
:1052B000CE0FD11D0FB6F894DEBF0FBECDBFED01EE
:1052C0000895AA1BBB1B51E107C0AA1FBB1FA6174D
:1052D000B70710F0A61BB70B881F991F5A95A9F79F
:1052E00080959095BC01CD010895FB01DC0104C0BF
:1052F0008D910190801921F441505040C8F7881BCE
:10530000990B0895FB01DC0102C001900D92415000
:105310005040D8F70895F999FECF92BD81BDF89A13
:10532000992780B50895A8E1B0E042E050E00C94E0
:10533000CF29DC01A40FB51F4150504048F0CB01EC
:10534000840F951F2E910E94AA2941505040D0F7FA
:105350000895262FF999FECF92BD81BDF89A019745
:1053600000B4021639F01FBA20BD0FB6F894FA9AAD
:10537000F99A0FBE08950396272F0E94AA290E942A
:10538000A929252F0E94AA29242F0C94AA29019625
:10539000272F0E94AA290C94A929DC01CB01FC012A
:1053A000F999FECF06C0F2BDE1BDF89A319600B47E
:1053B0000D9241505040B8F70895F894FFCF800502
:1053C0008005D005D00535065106AF05AF05560658
:1053D000BD06CC06CC064617BA174E1718171C1771
:1053E00052172017561762172C17B3173017661766
:1053F00034176A17921738176E1799173E177417D4
:105400007C1724175A1728175E1742177817881722
:10541000A217B11712174A17C117DE1BE41BCD1BC9
:10542000D81BEA1BF01BF61BE31CEF1C251D371DC8
:10543000421D4D1D501D501D501DF51CF51C551DC8
:10544000591D611D6E1D7B1D7E1D811D8E1DB82782
:10545000E027C928E027C92813283428C9288B2821
:0254600097288B
:1054620040020100000001000000000000000A01EB
:10547200000000040B000000000000280850011E7C
:105482000A140103020100000100081F1122DE219B
:105492000A220322E200E900EA00B500B600B700E2
:1054A200CD008301CC008A019201940121022302E2
:1054B20024022502260227022A02B300B4006F004A
:1054C20070009F01CB019F02A002818283E200E96A
:1054D20000EA00B500B600B700CD008301CC008A17
:1054E20001920194012102230224022502260227AD
:1054F200022A02B300B4006F0070009F01CB019F2B
:1055020002A002818283F4F5F6F731333236359404
:105512006697C634720244227B5A05BD04DF0462D8
:06552200047B049B040061
:00000001FF
